:020000040800F2
:10000000387700206102000877610008D1550008A8
:1000100075610008950B0008F184000800000000DD
:10002000000000000000000000000000A101000826
:10003000D326000800000000FD010008857B0008B1
:100040007B0200087B0200087B0200087B0200089C
:100050007B0200087B0200087B0200087B0200088C
:100060007B0200087B0200087B020008792200085E
:1000700085220008912200089D220008A92200087C
:10008000B52200087B0200087B0200087B02000802
:10009000C10B00087B0200087B0200087B020008FD
:1000A0007B0200087B0200087B0200087B0200083C
:1000B0005D7C00087B020008697C00087B02000868
:1000C0007B0200087B0200087B0200087B0200081C
:1000D0007B02000855830008B583000819840008D6
:1000E0007B0200087B0200087B0200087B020008FC
:1000F0007B0200087B0200087B020008C122000886
:100100007B0200087B0200087B0200087B020008DB
:10011000697F0008817F00087B0200087B020008DD
:100120007B0200087B020008CD2200087B02000849
:100130007B0200087B0200087B0200087B020008AB
:10014000290C00087B0200087B0200087B020008E3
:100150007B0200087B020008D92200087B0200080D
:100160007B0200087B0200087B0200087B0200087B
:100170007B0200087B0200087B02000800000000F0
:100180007B0200087B020008DFF810D000F07CFB47
:100190000048004785B10008AFF3008038770020A1
:1001A0002C4B19680868B0E8F04F80F30988BFF35A
:1001B0006F8F4FF0000080F311887047000000003F
:1001C00008480068006880F308884FF0000080F35A
:1001D000148862B661B6BFF34F8FBFF36F8F00DF35
:1001E00000BF00BF08ED00E0DFF80C00016841F43B
:1001F00070010160704700BF88ED00E0EFF30980F7
:10020000BFF36F8F134B1A681EF0100F08BF20ED5D
:10021000108A20E9F04F106009B44FF0500080F3CD
:100220001188BFF34F8FBFF36F8F0CF0FFFF4FF0BC
:10023000000080F3118809BC19680868B0E8F04F25
:100240001EF0100F08BFB0EC108A80F30988BFF3CE
:100250006F8F704774220020EFF305807047000015
:100260000648804706480047FEE7FEE7FEE7FEE750
:10027000FEE7FEE7FEE7FEE7FEE7FEE74D7C00084F
:10028000890100082DE9F05F0546002092469B4653
:1002900088460646814640241BE02846414647469C
:1002A000224600F0ADF953465A46C01A914110D388
:1002B00011461846224600F016F82D1A67EB010881
:1002C0004F4622460120002100F00DF817EB0009EF
:1002D0004E41201EA4F10104DFDC484631462A4687
:1002E0004346BDE8F09F202A04DB203A00FA02F1E1
:1002F000002070479140C2F1200320FA03F3194314
:1003000090407047202A06DBCB17203A41FA02F0D2
:1003100043EAE07306E041FA02F3D040C2F1200262
:10032000914008431946704740EA01039B0703D0F8
:1003300009E008C9121F08C0042AFAD203E011F824
:10034000013B00F8013B521EF9D27047D2B201E0E6
:1003500000F8012B491EFBD270470022F6E710B5CA
:1003600013460A4604461946FFF7F0FF204610BD23
:100370002DE9FE4F804681EA0300C00F0C46009035
:1003800021F0004123F00045B8EB0200A94105D25D
:100390004046214690461C460B46024623F000404C
:1003A000104347D0270DC7F30A00C3F30A51029048
:1003B000401A019040286BDAC3F3130040F4801B0D
:1003C0000098924620B10023D2EB030A63EB0B0B9B
:1003D00001985946C0F140025046FFF784FF064697
:1003E0000D4650465946019AFFF78CFF10EB080066
:1003F0006141002487EA115284EAE7731A4340D02E
:10040000009A62B3019A012A4FEA075215DC001BD9
:1004100061EB02014FF0004202EA0752CDE90042CF
:10042000001C41F5801132462B4600F03FF903B025
:10043000BDE8F08F40462146F9E7001B61EB020161
:10044000001C41F5801300185B412018A2F500172D
:1004500047EB030140EAD570B6196D4111E06D0814
:100460004FEA360645EAC0754FEA0752001B61EBBA
:100470000201001C41F5801149084FEA30000019C3
:10048000514132462B4603B0BDE8F04F00F0FFB8B3
:100490000098012240000023D0EB020263EBE073DE
:1004A000009821464FEAE074B8EB000061EB0401CC
:1004B000E9E783F000435BE781F0004158E72DE96D
:1004C000FE4F81EA030404F0004421F0004100944F
:1004D0004FF0000B23F0004350EA01045ED052EAD3
:1004E00003045BD0C3F30A54C1F30A552C44A4F2AD
:1004F000F3340194A0FB0254C1F3130141F48011C1
:10050000C3F3130343F4801301FB024400FB034EC7
:10051000840A970A44EA815447EA8357A4FB076890
:1005200002958D0A05FB07854FEA932C04FB0C54BA
:100530002705029D4FEA065847EA1637B5EB08052E
:100540006EEB070C870E920E47EA811742EA831280
:10055000A7FB0201B6EB0B0164EB00042B0D43EA91
:100560000C335E1844EB1C50DA465146E7FB02019F
:10057000C5F313044FEA0B3343EA14534FEA043232
:10058000019C43EA0603A4F10C040294009CCDE90B
:1005900000B400F08BF803B0BDE8F08F00200146F6
:1005A000F9E700F0004230F000400AD0C10D01F53B
:1005B0006071C0F3160042EA0151C20840071143BE
:1005C000704700200146704701F0004330B421F02D
:1005D000004150EA010206D00A0DA2F56072C1F393
:1005E0001301002A02DC30BC00207047440F44EAAB
:1005F000C104C100E01830BC00EBC25000F010B8DC
:10060000202A04DB203A21FA02F00021704721FA67
:1006100002F3D040C2F120029140084319467047CE
:100620000029A8BF7047401C490008BF20F0010006
:10063000704710B4B0FA80FC00FA0CF050EA0104E4
:1006400004BF10BC704749B1CCF1200421FA04F476
:1006500011FA0CF118BF012121430843A3EB0C014F
:10066000CB1D4FEA00614FEA102042BF002010BCB2
:10067000704700EBC35010440029A4BF10BC704762
:10068000401C490008BF20F0010010BC704710B5A5
:10069000141E73F1000408DA401C41F100019218A5
:1006A0005B411A4301D120F0010010BD2DE9F04D4E
:1006B00092469B4611B1B1FA81F202E0B0FA80F2A3
:1006C00020329046FFF70FFE04460F4640EA0A002C
:1006D00041EA0B0153465A46084313D0114653EAE8
:1006E000010019D0C8F140025046FFF789FF0546C6
:1006F0000E46504659464246FFF7F5FD084305D0E1
:10070000012004E020463946BDE8F08D0020054375
:1007100046EAE0762C4337430A986305E40AA0EBE7
:1007200008000022FD0A44EA47540A3002D500209E
:100730000146E9E7010510196941DDE9084500199D
:100740006941BDE8F04DA2E72DE9F04D81EA0304CF
:1007500004F0004B21F0004514464FF0000A23F04E
:10076000004150EA050220D054EA01021DD0C5F331
:100770000A570246C5F31303C1F31300C1F30A5627
:1007800040F4801543F48013A7EB0608101BD646EF
:1007900008F2FD3873EB050002D308F1010801E00F
:1007A00092185B41B8F1000F03DA00200146BDE862
:1007B000F08D00204FF48011064684460EE0171B92
:1007C00073EB050705D3121B63EB050306434CEAE5
:1007D000010C49084FEA300092185B4150EA0107CA
:1007E000EDD152EA030012D082EA040083EA050147
:1007F000084305D0101BAB4106D20122002306E0BE
:1008000000224FF0004302E06FF0010253101AEB98
:1008100006004CEB085110EB0A0041EB0B01BDE860
:10082000F04DFFF734BF0EB5C10F80EAE070084409
:10083000CA07002140F233438DE80E000A460B46FA
:10084000FFF734FF03B000BD70B5C1F30A5201F0E9
:1008500000450024C1F3130140F2FF3341F480113D
:100860009A4201DA002070BD40F233439A42A2F26C
:10087000334203DC5242FFF7C3FE00E090402C43BA
:10088000F1D0404270BD0000064C074D06E0E06824
:1008900040F0010394E8070098471034AC42F6D3C7
:1008A000FFF776FCA0050108C00501080EB540F26F
:1008B000334102910021CDE900110A460B46FFF7B2
:1008C000F5FE03B000BD70B58C1810F8015B15F093
:1008D000070301D110F8013B2A1106D110F8012BB2
:1008E00003E010F8016B01F8016B5B1EF9D12B07D7
:1008F00005D40023521E0DD401F8013BFAE710F88D
:10090000013BCB1A921C03E013F8015B01F8015B79
:10091000521EF9D5A142D8D3002070BD10B50446AF
:100920002DED088B82B094ED336AD4ED346A94EDEA
:10093000350AF6EE000A60EE203A94ED223AD4ED44
:10094000232A94ED242AD4ED251A94ED047A94ED0B
:10095000054AD4ED064A94ED079AD4ED088A94ED41
:10096000098A27EE040A20EE240AB5EEC00AF1EE49
:1009700010FA7DD023EE030A02EEA20A02EE020A6A
:1009800001EEA10A0AF0A8FA23EE003A62EE802AEC
:1009900022EE002A61EE801A27EE070A04EE040A0E
:1009A00004EEA40A0AF098FA27EE007A64EE009AA0
:1009B00024EE801A22EEA10AB0EE00AA03EE420A4B
:1009C00020EE0A5A23EE220A02EE210A20EE0A0A3B
:1009D00063EE030A42EEE20A42EE420A41EEA10A47
:1009E00029EEA04A01EE404A21EE051A07EE601AF0
:1009F00067EE004A49EEC54A624890ED010A04EEEE
:100A0000260A80ED010AD0ED020A41EE260AC0ED69
:100A1000020A90ED035A04EEA65A80ED035A06EE40
:100A2000049A39EE000A46EE018A78EEA00A06EE34
:100A3000248A38EE051AB1EE624AF0EE437A24EECB
:100A4000004A02EE604A01EEC14A44EE237A23EEE8
:100A5000004AF0EE625A02EE014A01EEE04A44EE2C
:100A6000235A23EE204A02EEC14A01EE804A00E0FA
:100A700083E0B0EE425A04EE235A23EE011A02EE4E
:100A8000A01A02EE401A41EE231A27EEA70A05EE3D
:100A9000A50A05EE050A01EEA10A0AF01DFA67EEA5
:100AA000809A25EE808A65EE008A21EE809AC4ED58
:100AB000229A84ED238AC4ED248A84ED259A28EEB7
:100AC0000A0A29EE8A1A60EE09AA41EE68AAB7EE70
:100AD000000A0AEEEA0AB5EEC00AF1EE10FA04DBEB
:100AE000F1EEC00ACDED010A03E09FED270A8DED7E
:100AF000010A69EEA90A28EE8A0A04F16000B0EE44
:100B000060BA48EE480A20EE090A01EE080A48EEEB
:100B1000E80A49EE090A08F041FA04F15C00DDED4B
:100B2000010AB0EE6A0A08F039FAF0EE4B0A28EE34
:100B3000280A48EE080A04F1580009EE890A48EE2E
:100B4000E80A20EE0A0A49EE490A08F027FAD4ED2D
:100B5000180A9FED0E0A60EE800AC4ED180AD4ED63
:100B6000170A9FED0B1A60EE810AC4ED170AD4ED47
:100B7000160A20EE800A84ED160A02B0BDEC088B3E
:100B800010BD00008C04002000000000DF2E654234
:100B9000DF2E65C2FEE7000000B58BB001A800F0B3
:100BA0006BF801A9054802F02FF80221034801F073
:100BB0009FFF024802F071FB0BB000BD042C002027
:100BC000014802F02DB90000042C00200A4601461D
:100BD000014800F0A3B80000042C002070B50546C1
:100BE0000C462146284605F013FD044922460348D9
:100BF0000B6C2946BDE87040184700003004002007
:100C000000B58BB001A800F037F801A9054801F044
:100C1000FBFF0221034801F06BFF024802F03DFB9D
:100C20000BB000BD2C2C0020014802F0F9B80000E8
:100C30002C2C00200A460146014800F06FB8000045
:100C40002C2C002070B504460D462946204605F0A0
:100C500005FD07492A4606480B6C2146984705487A
:100C600022462946036DBDE870402C30184700002D
:100C7000300400209C200020002101604160816040
:100C8000C1600161416181610122C2610262416210
:100C900070474178007841EA002070474179007937
:100CA00041EA002000B27047C178807841EA002014
:100CB00000B27047807970474179007941EA00209D
:100CC00000B2704710B5124A016891420DD1114B24
:100CD00000211C46A3F11C0202F01FF80D4821461A
:100CE0001C380068FFF77AFF10BD0B4A9142FBD118
:100CF000084B002124331C46A3F11C0202F00DF81E
:100D00000448214608300068FFF79CFF10BD000032
:100D100000640040042300200068004038B50B4602
:100D2000184C0168A14201D1174904E0174CA142B7
:100D300023D1154920310B6000238B60CB60082341
:100D40000B6113881B0A0B7613784B7653881B0AAA
:100D50008B769378CB7693881B0A0B7713794B7736
:100D6000D3881B0A8B779279CA776B4601F11802F8
:100D700001F0D0FE18B1012038BD012038BD00209F
:100D800038BD0000006400403023002000680040AF
:100D9000BCEEC00A10EE101AC18070472C30017AE8
:100DA000491CC9B20172427A914203D902720121EF
:100DB0000170704701780129FBD100210170704753
:100DC00070B504461346206B884227D158781978AD
:100DD000144D40EA01206E4200B2DFED110AB3EE7D
:100DE0000E0A2A4631460AF08DF884ED040AD878B6
:100DF0009978FBEE040A40EA012000B2B3EE040A3F
:100E00002A4631460AF07EF884ED050A58791979A8
:100E100040EA01202083002084F8340070BD0000E7
:100E2000000000000083FFFF018881830189C183E6
:100E3000418901847047418881848188C184C18847
:100E4000018581894185704700B50246BCEEC00A24
:100E500010EE100A1080BCEEE00A10EE100A50806E
:100E6000BCEEC10A10EE100A1081BCEEE10A10EED1
:100E7000100A5081908940F0010020F0020090811A
:100E80001046FFF7D1FF10465DF804EBFFF7D3BF24
:100E90002DE9F041074600214D4D6878012800D129
:100EA00001214C4C2078012801D1491C89B24A4EBD
:100EB0003078012801D1491C89B2484800780128BE
:100EC00001D1491C89B246480078012801D1491C4A
:100ED00089B2444890F82C00012801D1491C89B2FC
:100EE0007974414AD1B301EBC10000EB01104FF618
:100EF000FF7101EA800051688847B97B3B480129AE
:100F000031D002299FED3A0A3DD0E16DF0EE402A42
:100F1000B0EE402AF0EE401AB0EE401AF0EE400A71
:100F20002C48884755F8901F2948884756F8981F3D
:100F300029488847216E2748884769682448884798
:100F4000716825488847A16E22488847A9682048CB
:100F500088477169BDE8F0411F480847FFE75169BC
:100F600032208847C9E7D0ED1E2A90ED1D2AD0ED2A
:100F70001C1A90ED161AD0ED170A90ED180AE16DC3
:100F800014488847CEE71B4994ED051ADFED1A1A7D
:100F9000B1F91C2AB1F9A01C00EE902A94ED042AA4
:100FA000D0ED092AF8EEE00A61EE200A80EEA11ADF
:100FB00000EE901AE16DF8EEE00A22EE202AC2EE71
:100FC000210A90ED082AD0ED071A02488847A9E7C0
:100FD0008C0100202001002070000020F82000205B
:100FE000CC21002030040020100400209C040020AC
:100FF00000000000EC0500203D0AB64170B5044633
:101000000C4800258583C58305844584626D0121D4
:1010100020469047A26D002120469047E26D0021B6
:10102000204690476571A5712572E57102202073F5
:10103000607070BD5002002070B504460D466078A7
:10104000012807D129462046FFF7D8FF60780228FB
:1010500000D16573607BA84207D000206073E26C0A
:10106000BDE8704001210148104770BD0500002017
:1010700070B504460D46A078012807D129462046C0
:1010800000F050F8A078022800D1A573A07BA842F8
:1010900007D00020A073E26CBDE870400121014838
:1010A000104770BD0600002010B502460B46D078F0
:1010B000012807D11946104600F004F9D07802281B
:1010C00000D1D373D07B984207D00020D073D26C6C
:1010D000BDE8104001210148104710BD0700002065
:1010E00002788A4200D001707047000070B5044653
:1010F0000D462079012807D12946204600F076FCCC
:101100002079022800D12574207CA84207D0002035
:101110002074E26CBDE8704001210148104770BDA9
:10112000080000202DE9F04704462DED028B002534
:1011300053488583C58305844584524E86F8A45A56
:1011400086F8E85A86F8285D86F86C5D304600F52A
:10115000286200F6C42700F6045800F648599FEDAF
:101160004A8ADFF828A1D0F8643C012902D002297C
:1011700024D054E0464910469847D6F8642C454997
:1011800038469047D6F8E82E434940469047D6F86F
:10119000E82E424948469047414EF0EE480A96ED07
:1011A000170A05F09BFC84ED0A0A96ED160AF0EE8C
:1011B000480A05F093FC84ED090A30E039491046ED
:1011C0009847D6F8642C384938469047D6F8E82E28
:1011D000364940469047D6F8E82E3549484690476C
:1011E0003448F0EE480A90ED041AB6F9A00C00EE6F
:1011F000100AB8EEC00A61EE001A9FED2F1A81EEB8
:10120000810A05F06BFC84ED0A0A9AF8020060B1CD
:10121000B42000EE100AB8EE400A84ED090A9AF8EC
:10122000020020B101280FD01AE00020F1E7DAF81F
:1012300084109FED220A15488847DAF88C209AF826
:101240000210124890470BE0DAF884109FED1C0A58
:101250000E488847DAF88C209AF802100B4890471D
:10126000DAF88820002109489047E26D00212046E5
:10127000904725720220A070BDEC028BBDE8F0877C
:1012800050020020EC0500200000B4438C01002037
:101290004C1F0020681F0020841F0020A01F00207A
:1012A0009C0400202C2000204820002064200020E6
:1012B00080200020200100203D0AB64100000000EF
:1012C000000034430221C1707047000010B504468D
:1012D000E069002803D102F001FB401CE0612748CF
:1012E000017811B1217849B32AE002F0F7FAA06140
:1012F000002020706070A070E07020716071A0719B
:10130000E07120726072226D002120469047626D6C
:10131000002120469047A26D0021204690471848A2
:101320000021D0F88420904716480021026D904794
:1013300015480021826FBDE810401047012121703F
:10134000007E01280ED0226D012120469047607B4F
:1013500001280CD002280FD160712046BDE8104052
:1013600004F0BEBB226D022120469047EFE72046E5
:10137000BDE8104005F048BD10BD0000500200203F
:1013800070000020200100208C0100202DE9F04198
:1013900004462DED028B02F0A1FA4C4E9FED4C0A53
:1013A000B0F5487F04D2DFED4B0AC6ED330A01E009
:1013B00086ED330A86ED330A474F00221146BB689B
:1013C000A7F18C0098477A680021A7F18C0090471C
:1013D000414857F88C2900218C3890473F4D012116
:1013E00028462A6D9047626D0221204690473C486E
:1013F000D5ED050AD5ED041AB0F91C1AB0F9A00C08
:1014000000EE101A9FED388AE96DB8EEC00AD6EDED
:10141000092A96ED082A60EE800A9FED320A80EED6
:10142000801A00EE900A2846F8EEE00A61EEA01A53
:10143000C1EE800AD6ED071AB0EE480A88472B4E57
:1014400096ED061A84ED091A84ED0A8AF0EE480A30
:10145000696DB0EE480A28468847A8784FF0020820
:10146000012802D1E878012821D002F037FA206261
:1014700002F034FAA169401A40F6B831884201D925
:1014800084F80080207802281BD113480121D7F866
:1014900084208C389047B26F012114489047626DC8
:1014A0002046BDEC028B0021BDE8F041104702F060
:1014B00015FA216A401AB0F5FA7FD9D984F800806C
:1014C000D6E7BDEC028BBDE8F08100009C04002053
:1014D000CDCCCC3D00004842FC0000202001002083
:1014E000EC0500203D0AB641000000008C01002000
:1014F0002DE9F04104462DED048B207801282BD0F6
:1015000094ED0E0AB5EEC00AF1EE10FA01DCB1EE70
:10151000400A10EE101AFA4802220023814219DC18
:1015200094ED100AB5EEC00AF1EE10FA01DCB1EE4E
:10153000400A10EE101A81420CDC94ED110AB5EE4F
:10154000C00AF1EE10FA01DCB1EE400A10EE101AFA
:10155000814208DDA27207E0BDEC048B2046BDE8A5
:10156000F041FFF713BFA37294ED100AB5EEC00A65
:10157000F1EE10FA01DCB1EE400A10EE101A8142D1
:101580000CDC94ED110AB5EEC00AF1EE10FA01DCA4
:10159000B1EE400A10EE101A814201DDE27200E065
:1015A000E372E07AD74D02282BD0D5F888200221AB
:1015B0002846904794ED0A0ADFEDD38AF0EE680AD8
:1015C00005F08CFAB5EEC00AD04FF1EE10FAD04E0D
:1015D0001DDD94ED0A0AF0EE680A05F07FFA10EEC0
:1015E000100AB84213DA94ED0A0AD6ED020AB4EEF4
:1015F000E00AF1EE10FA01DDB0EE600A84ED0A0AAD
:1016000029E0D5F888200121BE489047D2E794ED23
:101610000A0AF0EE680A05F061FA10EE100AB84204
:1016200019DD94ED0A0AF0EE680A05F057FA10EE9B
:10163000100AB84988420EDAD6ED010A94ED0A0A7A
:1016400078EEE00AB4EEE00AF1EE10FA01D2B0EE64
:10165000600A84ED0A0AA07B9FEDAF8A012802D0C0
:10166000022845D07AE0D4ED0F0A80EE880AD4ED46
:101670000A0A30EE200AF0EE680A05F02FFAD6EDDD
:10168000010A78EEE00AB4EEE00AF1EE10FA12DA9E
:10169000D4ED0F0A80EE880AD4ED0A0A30EE200A53
:1016A000F0EE680A05F01AFAD6ED020AB4EEE00A86
:1016B000F1EE10FA0DD8D4ED0F0A80EE880AD4EDC1
:1016C0000A0A30EE200AF0EE680A05F007FA84ED07
:1016D0000A0A94ED0E0AC0EE080A94ED090A30EEEB
:1016E000600AF0EE680A05F0F9F984ED090A35E0C0
:1016F000D4ED0F0A80EE880AD4ED0A0A30EE200AF3
:10170000F0EE680A05F0EAF9D6ED010A78EEE00A93
:10171000B4EEE00AF1EE10FA12DAD4ED0F0A80EE20
:10172000880AD4ED0A0A30EE200AF0EE680A05F0C5
:10173000D5F9D6ED020AB4EEE00AF1EE10FA0DD8B2
:1017400094ED0F0AC0EE080A94ED0A0A30EE800A02
:10175000F0EE680A05F0C2F984ED0A0A94ED091A60
:10176000D4ED0A0A9FED6D9A716D6948B0EE490A91
:101770008847A07B012802D002284BD069E0207A5C
:1017800002281AD095ED1A0AF0EE680A05F044F91D
:10179000D4ED110AC4ED0B0AD4ED100AF1EE600A83
:1017A000C4ED0C0A9FED5E1AC0EE010A9FED5D0AC2
:1017B00020EE800A84ED0D0A4BE094ED110A84EDD1
:1017C0000B0A94ED100AB1EE400A84ED0C0A94ED78
:1017D000120A84ED0D0A5449686E88420BDD10EE42
:1017E000100A5249884203DADFED510A30EE208AAE
:1017F00084ED128A2DE010EE100A4E49884202DC78
:10180000B3EE0E0A03E0DFED4C0A30EE600A84ED21
:10181000120A1EE094ED110A84ED0B0A94ED100AF1
:10182000B1EE400A84ED0C0A94ED0E0AB1EE400AC6
:1018300084ED0D0A4148B0F91C0A00EE100AF8EEDA
:10184000C00A9FED3F1AD5F884102E4880EE810A19
:101850008847D5F8801094ED0D1AD4ED0C0A94ED5C
:101860000B0A28488847A079364D022801D030B1AC
:101870000AE0D5F88C2001213248904704E0D5F8E1
:101880008C2000212F489047E079022801D030B108
:101890000AE0D5F8902001212A48904704E0D5F8C5
:1018A0009020002127489047E07B01284CD0022857
:1018B00004D0032809D004284CD10DE00122D5F82A
:1018C000943002211F48984744E00622D5F894300E
:1018D00002211C4898473DE0B5F85A00052807D971
:1018E000D5F894304FF47A6203211648984731E0D6
:1018F000D5F894304FF4FA6203211248984729E052
:10190000000020418C0100200000B443000034435B
:10191000200100200000B4430000C8420000000085
:10192000000034430000A042000020420000C842F2
:101930000AD7A33B0000F0410AD7233CEC05002066
:101940003D0AB641700000200022D5F894301146BF
:1019500022489847A07A224D9FED228A022801D082
:1019600060B116E0B5F90400A96B00EE100AF0EEC4
:10197000490A1B48B8EEC00A88470AE0B5F90400D6
:10198000A96B00EE100AF0EE480A1548B8EEC00A3E
:101990008847207B02280FD000281BD1E888A96B3C
:1019A00000EE100ABDEC048BF8EE400ABDE8F041F1
:1019B0009FED0D0A0A480847E888A96B00EE100A57
:1019C0000748F8EE400AB0EE480ABDEC048BBDE8CB
:1019D000F0410847BDEC048BBDE8F08170000020A9
:1019E0003004002000001643000096422DE9F0412B
:1019F00004462DED048B0D46012D9FED2B8ADFED66
:101A00002B8A2B4E02D0022D14D02FE0294F9FEDB0
:101A10002A9A97ED170AF0EE490A05F05FF884ED6F
:101A20000A0A97ED160AF0EE490A05F057F884ED18
:101A3000090A1BE02148D0ED040A2148B0F9A00CA6
:101A400000EE100AB8EEC00A20EE800ADFED1D0A93
:101A500080EE201A84ED0A1AB07810B1012803D064
:101A600004E084ED098A01E0C4ED098AB07810B180
:101A7000012807D00CE0D6F88410B0EE480A0C48D4
:101A8000884705E0D6F88410B0EE680A0848884711
:101A900025B1E26C022104F1090090470220207177
:101AA000BDEC048BBDE8F081000000000000344371
:101AB0008C0100209C0400200000B4432001002081
:101AC000EC0500203D0AB6412DE9F04304462DED1A
:101AD000028B83B00020019002904E4D607901AEE0
:101AE00005F5217705F5A16805F28C79002846D027
:101AF00001283FD1D5F86C1294ED0F0A284688478B
:101B0000BDEEC00A296A10EE100A26F81100D5F8B9
:101B1000F01494ED100A38468847BDEEC00AD5F897
:101B2000A41210EE100A26F81100D5F8741794EDDF
:101B3000110A40468847BDEEC00AD5F8281510EEB8
:101B4000100A26F81100D5F8F81994ED120A484643
:101B50008847BDEEC00AD5F8AC1710EE100A26F87B
:101B6000110001A9204600F0FFF9D5F8582201A97B
:101B70002846904703B0BDEC028BBDE8F08301F02E
:101B8000ADFE216F401AB0F5967FF3D2D5F86C12F6
:101B90009FED218A1F48B0EE480A8847BDEEC00A73
:101BA000296A10EE100A26F81100D5F8F014B0EEEC
:101BB000480A38468847BDEEC00AD5F8A41210EE90
:101BC000100A26F81100D5F87417B0EE480A4046FE
:101BD0008847BDEEC00AD5F8281510EE100A26F881
:101BE0001100D5F8F819B0EE480A48468847BDEE0E
:101BF000C00AD5F8AC1710EE100A26F8110001A99A
:101C0000204600F0B1F9D5F8582201A901489047C3
:101C1000B0E70000EC05002000000000C170704734
:101C20000171704710B50446002902D1607901287E
:101C30000AD0012907D16079002804D10120607100
:101C400001F04CFE606710BD0020607101F046FE9F
:101C5000206710BD80ED060A704700002DE9F041B5
:101C600004462DED068B8AB0D4ED1A1ADFEDB72AA3
:101C700081EEA22AF0EE001A62EE211A9FEDB42A3C
:101C800021EE828AB5EEC00AF1EE10FA02DDF0EE26
:101C9000401A01E0F1EE401A11EE900AAD4FDFED6F
:101CA000AE8AB8421BDCF5EEC00AF1EE10FA02DD96
:101CB000F0EE601A01E0F1EE601A11EE900AB842FF
:101CC0000DDCB5EEC01AF1EE10FA02DDF0EE411AAD
:101CD00001E0F1EE411A11EE900AB84207DDB0EED4
:101CE000680AF0EE400AB0EE680AB0EE401AE078FA
:101CF00001287DD08DED070ACDED080A8DED091A7A
:101D000018EE100AFEF74DFC41EC100B06F0B8FC83
:101D1000089DB0EE409AF0EE609A2846FEF741FC2E
:101D200053EC192BFEF7CBFB41EC190B18EE100A04
:101D3000FEF737FC41EC100B06F03EFC079EB0EEC0
:101D400040AAF0EE60AA3046FEF72BFC53EC1A2BAB
:101D5000FEF7B5FB53EC192BFEF7ABFBFEF734FC9B
:101D60008046049018EE100AFEF71BFC41EC100BA5
:101D700006F022FCB0EE409AF0EE609A2846FEF79C
:101D800010FC53EC192BFEF79AFB41EC190B18EEE3
:101D9000100AFEF706FC41EC100B06F071FCB0EEE9
:101DA00040AAF0EE60AA3046FEF7FBFB53EC1A2B7C
:101DB000FEF785FB53EC192BFEF7DAFAFEF704FC6D
:101DC000014605909DED090A8DED060ACDF80480C7
:101DD00002918DED030A032101A804F005FE10EE27
:101DE000100AB8421DDC9DED010A84ED080A00E0EE
:101DF0000CE09DED020A84ED090A9DED030A84EDD5
:101E00000A0A0AB0BDEC068BBDE8F081B1EE400ACB
:101E10008DED070AB1EE600A8DED080A8DED091A05
:101E20006EE7207901AD9FED4D8A20B1012816D0D3
:101E3000022847D07CE0032101A804F0D5FD002052
:101E400005EB800191ED001AC1EE000A60EE880AF0
:101E5000C1ED000A401CC0B20328F1D368E00221A2
:101E600001A804F0C1FD38EE401AB5EEC01AF1EE3B
:101E700010FA11D2002005EB800191ED001AC1EE9D
:101E8000000A60EE880AC1ED000A401CC0B20228B8
:101E9000F1D3CDED038A4BE0DDED030AF5EEC00A88
:101EA000F1EE10FA02DDB0EE600A01E0B1EE600A78
:101EB000B4EEC10AF1EE10FA01DCB0EE601A8DED5D
:101EC000031A35E0022101A804F08EFDDDED030ABE
:101ED00078EE600AF5EEC00AF1EE10FA12DDB4EE0B
:101EE000E00AF1EE10FA23DD002005EB800191ED10
:101EF000000A80EE201A81ED001A401CC0B20228B0
:101F0000F3D315E0B4EEE00AF1EE10FA0EDD002096
:101F100005EB800191ED001AC1EE000A60EE880A1F
:101F2000C1ED000A401CC0B20228F1D3CDED038AF6
:101F30009DED010A84ED080A9DED020A84ED090A6F
:101F40009DED030A84ED0A0A5BE700000000B4433C
:101F5000DB0F49400000C842000000000000C842FA
:101F600080ED0E0A7047000010B5426E00EE102A98
:101F7000D0ED170AB1EE001A60EE810AFCEEE00A1D
:101F800010EE900A80B210EE102A2A4B9FED2A1A0A
:101F90009A4201DDB0EE410AC0EE010A10EE102AAD
:101FA000264CA24201DA60EEA00A10EE102A9A42F4
:101FB00006DA00EE100AB8EE400A20EE800A03E0CE
:101FC00000EE100AB8EE400AB1F90000002800DC6B
:101FD0004042B1F90220002A00DC52420244B1F929
:101FE0000400002800DC40420244B1F90600002849
:101FF00000DC4042104400EE900AB8EEE01AC0EE59
:10200000010AB4EEC01AF1EE10FA12DB002031F929
:10201000102000EE102AB8EEC00A20EE200ABDEE15
:10202000C00A10EE102A21F81020401CC0B204286B
:10203000EDD310BD00007042000070420000C841A6
:102040000FB50178002902D0012921D040E090EDA0
:10205000080AD0ED090AB1EE401A71EE601A90ED4F
:102060000A1A71EEC11ACDED001A70EEC01A71EEA7
:10207000C11ACDED011A70EE601A71EEC11ACDEDE4
:10208000021A30EE200A30EE410A8DED030A1FE0FD
:1020900090ED080AD0ED090AB1EE401A71EE601A0F
:1020A00090ED0A1A71EEC11ACDED001A70EEC01A49
:1020B00071EEC11ACDED011A70EE601A71EEC11AFF
:1020C000CDED021A30EE200A30EE410A8DED030A02
:1020D00000219FED0B0A6A4602EB810393ED001A83
:1020E00000EB8103C1EE000A90ED0E1A60EE810A4A
:1020F000C3ED0F0A491CC9B20429EDD30FBD00007E
:102100000000C84230B5504900240125CA7D002A8C
:102110000AD091F89B223AB191F81F2522B191F88B
:10212000A3270AB1447000E04570484AB2F8703005
:1021300000EE103AB8EE400A80ED190AB2F86530A8
:1021400000EE103AB8EE400A80ED180A12781AB97B
:102150003F4A92F82C20FAB19FED3E0A80ED170A13
:10216000B1F91C2A9FED3C1A00EE102AF8EEC00AC5
:1021700080EE810A9FED391A70EE410AF5EEC00A31
:10218000F1EE10FA01DC71EE400A354B10EE902AA8
:102190009A4206DA857005E09FED320A80ED170A53
:1021A000DEE7847080ED1B0AD0ED060A30EE600A8F
:1021B000DFED2D0AB5EEC00AF1EE10FA02D230EED4
:1021C000200A06E010EE102A284B9A4201DB30EE7E
:1021D000600A80ED1A0AD0ED0E0A90ED021A80EE28
:1021E000810A9FED231AC0EE010AB0EE000A20EE2C
:1021F000800ADFED200A20EE200AD0ED030A20EE4F
:10220000200A80ED070AB1F9022000EE102AB8EE8C
:10221000C00A80ED130AB1F9862200EE102AB8EE4A
:10222000C00A80ED140AB1F90A2500EE102AB8EEB2
:10223000C00A80ED150AB1F98E1700EE101AB8EE3B
:10224000C00A80ED160A30BDEC050020F820002001
:102250003004002000007A453D0AB64100003443B6
:102260000000B4420000FA450000B4430000B4434B
:1022700000007042DB0F4940014801F09BB80000AC
:102280005C2F0020014801F095B800003C3100208F
:10229000014801F08FB800009C2E0020014801F099
:1022A00089B800009C310020014801F083B800008B
:1022B000FC2E0020014801F07DB80000DC30002039
:1022C000014801F077B80000BC2F0020014801F060
:1022D00071B800001C300020014801F06BB800000C
:1022E0007C3000202DE9F04F099E00248568802D68
:1022F00018D0A24DC563A24D456490F83450012D0D
:1023000015D0012580F8345090F83550012D10D0AB
:10231000002180F834100224002180F83410204677
:10232000BDE8F08F4FF4807141650120F8E702208D
:10233000F6E7022580F835500025456505682F68C9
:1023400047F480272F6005682B6103685E6083680F
:10235000402B25D0036899600168CA608A4D8A4E77
:10236000884FDFF820E2EA14DFF81CC2DFF814829D
:10237000DFF81492DFF80CA2016878363037930248
:102380000CF1300CA8F1180809F190090AF1480A7B
:102390004FF0006B71453BD9A94206D1202233E0B2
:1023A00003689A600268D160D8E7764D483DA9423B
:1023B00001D1202228E0744D6035A94201D12022AC
:1023C00022E0704D1835A94201D120221CE06E4D4B
:1023D0001835A94218D06B4D303DA94214D0B142F6
:1023E00012D0B94210D0614501D11A460CE04145E6
:1023F00001D11A4608E0494501D11A4604E0514589
:1024000001D11A4600E05A465E494C390A60AFE0F5
:10241000DFF874E10EF1A80E714536D9A94201D159
:1024200020222EE0574D483DA94201D1202228E02C
:10243000554D6035A94201D1202222E0514D183579
:10244000A94201D120221CE04F4D1835A94218D0D5
:102450004C4D303DA94214D0B14212D0B94210D0F7
:10246000614501D11A460CE0414501D11A4608E008
:10247000494501D11A4604E0514501D11A4600E010
:102480005A46404950390A6072E0DFF8FCE00EF12C
:10249000480E714536D9A94201D120222EE0394D8E
:1024A000483DA94201D1202228E0374D6035A9429C
:1024B00001D1202222E0334D1835A94201D120223A
:1024C0001CE0314D1835A94218D02E4D303DA9429F
:1024D00014D0B14212D0B94210D0614501D11A4690
:1024E0000CE0414501D11A4608E0494501D11A46A0
:1024F00004E0514501D11A4600E05A4622491039FC
:10250000CA6035E0A94201D120222EE01D4D483D90
:10251000A94201D1202228E01B4D6035A94201D1FA
:10252000202222E0174D1835A94201D120221CE0BB
:10253000154D1835A94218D0124D303DA94214D07E
:10254000B14212D0B94210D0614501D11A460CE017
:10255000414501D11A4608E0494501D11A4604E037
:10256000514501D11A4600E05A46074910398A60A0
:1025700001680A6842F001020A60CDE6D19E0008B7
:10258000E99E000858640240106002400168CAB227
:10259000103A1823B2FBF3F2064B9B5CC3656FF352
:1025A0000901032A02D9091D816500E08165806D5A
:1025B000704700003404010810B5014600208A6A03
:1025C0008B694FF0C074002B0ED0B3F5005F1AD0AA
:1025D00062B3012A2AD0022A28D0032A03D1C96A69
:1025E000C90100D5012010BD1AB1012A06D0022A66
:1025F000F9D1C96AC901F6D5012010BDC96AA14245
:10260000FBD1012010BD52B1012A0AD0022A06D006
:10261000032AF7D1C96AA142F4D1012010BD0120DB
:1026200010BDC96AC901FBD5012010BD012010BD34
:1026300030B50468256825F480252560046863604A
:102640008368402B04D0036899600068C26030BD85
:1026500003689A600068C16030BD70B5002490F8CE
:102660003450012D0CD0012580F8345090F835609D
:102670000025012E06D080F834500224204670BD7B
:10268000022070BD022680F83560456505682E6819
:1026900026F480262E6005686B608368402B09D085
:1026A000036899600168CA600068016841F001012F
:1026B0000160E3E703689A600268D160F4E70168AB
:1026C0000A68D20604D5C968C90601D50AF08EBBCE
:1026D00070477047F0B53D4991F84D000A283AD24D
:1026E000012221F8A22F02224A8003228A8004229A
:1026F000CA8005220A8106224A8107228A8140F285
:102700000112CA81531C0B82941C4C82D51C8D82F1
:10271000161DCE82571D0F83A23901280CD0022826
:102720000DD003280ED004280FD0052810D006287D
:1027300001D1A1F8BC70F0BDA1F8BC20F0BDA1F89A
:10274000BC30F0BDA1F8BC40F0BDA1F8BC50F0BD5C
:10275000A1F8BC60F0BD652221F8A22F66224A8054
:1027600067228A806822CA8069220A816A224A8195
:102770006B228A8140F26514CC81621C0A82551C4E
:102780004D82961C8E82D71CCF82131D0B83A239DB
:1027900065280CD066280DD067280ED068280FD089
:1027A000692810D06A28D5D1A1F8BC30F0BDA1F8B5
:1027B000BC40F0BDA1F8BC20F0BDA1F8BC50F0BDFC
:1027C000A1F8BC60F0BDA1F8BC70F0BDF8200020FD
:1027D0000EB590ED180AD0ED1B0A30EE600A8DEDB3
:1027E000000A90ED170AD0ED1A0A30EE600A8DED5E
:1027F000010A90ED160AD0ED190A30EE600A8DED4F
:10280000020A00219FED122A6B4603EB8102F0EED3
:10281000420A92ED000A08F04AF882ED000A491CCB
:10282000C9B20329F1D3DDED000A90ED350A80EE3F
:10283000801A80ED1C1ADDED010A80EE801A80ED11
:102840001D1ADDED020A80EE801A80ED1E1A0EBD03
:102850000000B44372B6FEE78279C1798A4202D0A1
:10286000002202608171704710B503461046002BAC
:1028700001D0084C0AE04FF6FF7010BD13F8012B91
:102880004240D2B234F8122082EA1020491E4A1C7B
:10289000F4D110BD90E1000810B5054C03E010F82C
:1028A000013B5340E25C491E89B2F8D2104610BD8C
:1028B00090E00008F0B504462DED028B83B06078FF
:1028C000274D01AE05F5216700281ED0012818D13B
:1028D00094ED0E0AD5F8301ABDEEC00A10EE100ABB
:1028E00026F8110094ED0D0AD5F8B41CBDEEC00A0F
:1028F00010EE100A26F81100D5F8682C01A9384608
:10290000904703B0BDEC028BF0BD00F0E7FFA16C77
:10291000401AB0F57A7FF4D2D5F87C1C9FED118A6D
:102920003846B0EE480A8847BDEEC00AD5F8301ADE
:1029300010EE100A26F81100D5F8001FB0EE480A74
:1029400009488847BDEEC00AD5F8B41C10EE100A3D
:1029500026F81100D5F8682C01A938469047D0E731
:10296000EC050020000000008012002071EE600ADB
:1029700030EE800A80EE201ADFED050A21EE200AF3
:10298000044910EE100A884201DD30EE600A7047FB
:102990000000B4430000B44310B50446002902D13E
:1029A000607801280AD0012907D16078002804D175
:1029B0000120607000F092FFE06410BD00206070A4
:1029C00000F08CFFA06410BD80ED0F0AC0ED100A6E
:1029D00080ED111A7047000070B504469FED160A8D
:1029E00084ED0C0A154D94ED101A05F64851D5F8F2
:1029F000043FD4ED0A0A94ED070A0122A1F1440034
:102A00009847D4ED040A20EE200A84ED0D0A05F65D
:102A1000C421D5F8803C94ED111AD4ED0B0A94ED45
:102A2000080A0122A1F144009847D4ED050A20EEDE
:102A3000200A84ED0E0A70BD00000000EC050020A5
:102A400000F13802D0ED082A90ED072AD0ED061AE1
:102A5000111F303004F05EB92DE9F04104462DED30
:102A6000028B01251F48002690F8271A012903D15F
:102A700090F8AB0C01281DD0257084ED060AC4ED3A
:102A8000070A84ED081AC4ED091A84ED0A2AC4ED78
:102A90000B2A94ED100A9FED148A30EE600AF0EED6
:102AA000480A03F0B9FF10EE100A104FB84203DADB
:102AB000A57002E02670E0E7A67094ED110A94ED8F
:102AC000081AF0EE480A30EE410A03F0A5FF10EEB6
:102AD000100AB84204DAE570BDEC028BBDE8F08163
:102AE000E670F9E7EC0500200000B4430000A040C8
:102AF00090F82020012A07D0022A05D0416A41F42B
:102B00008021416201207047006842690A434261A6
:102B100000207047F0B590F820500468A468012D9B
:102B200007D0022D05D0416A41F480214162012085
:102B3000F0BD04F0806504F00066354301D1E50086
:102B40005BD5C4F30164022C05D9416A41F400014C
:102B500041620120F0BD0125A5401D608B684FF446
:102B6000C0759BB1CE6805EB041733434E6843EA4A
:102B7000C6030668F3514FF4C273076803EB0413EE
:102B80000E69FE50097D012909D00DE00E88CB6841
:102B900005EB041743EA46530668F351EBE7016877
:102BA000CE5846F48076CE501179D379567941EAE1
:102BB000036193791B0443EA062319434FF4C67655
:102BC000036806EB041699511178D37841EA036142
:102BD000937852781B0443EA022211434FF4C473E2
:102BE000026803EB0413D150006805EB041142584E
:102BF00042F0010242500020F0BD416A41F4001150
:102C000041620120F0BD000010B590F82020012A9B
:102C100007D0022A05D0416A41F480214162012097
:102C200010BD3C4800F50070026842F001020260ED
:102C3000026822F47C52026002684B6A42EA032274
:102C400002600A7D02F01F0301229A40C369934388
:102C5000C361A0F50070CB69B3B9D0F80C329343CF
:102C6000C0F80C328C894B6864F31F434C6900EB4D
:102C7000C404C4F840320C890B6864F31F434C69E8
:102C800000EBC404C4F84432CB69012B16D1D0F850
:102C90000C321343C0F80C320C884B6864F31F43AA
:102CA0004C6900EBC404C4F840320C89CB6864F36F
:102CB0001F434C6900EBC404C4F844328B697BB1F8
:102CC000D0F804321343C0F804320B6973B1D0F862
:102CD00014321343C0F81432096A01290CD010E0F1
:102CE000D0F804329343C0F80432EEE7D0F814323F
:102CF0009343C0F81432EFE7D0F81C121143C0F828
:102D00001C12D0F8001221F00101C0F800120020BE
:102D100010BD000000640040704730B590F82040BE
:102D2000012C07D0022C05D0416A41F48021416278
:102D3000012030BD21B104682469A4075FD003E0FD
:102D40000468E468A40754D04FF4D874056804EB11
:102D500001142D5905F004059560F5B305682D594A
:102D6000ED08556005682C5904F00204D4604FF456
:102D7000DA74056804EB01142D5905F00F0515618F
:102D800005682D59C5F30725956105682C59240C54
:102D900054614FF4DC72046802EB0112A4581C70F9
:102DA0000468A458240A5C700468A458240C9C701D
:102DB0000468A258120EDA704FF4DE72046802EB57
:102DC0000112A4581C710468A458240A5C71046898
:102DD000A458240C9C71046800E016E0A258120E5E
:102DE000DA71B9B10068016941F020010161002088
:102DF00030BD416A41F400114162012030BD416A99
:102E000041F400114162012030BD05682D596D0D5E
:102E10001560A7E70068C16841F02001C160E6E7DE
:102E20002DE9F05F0546002428684669D0F8049033
:102E30008768D0F80CA0D0F810B0D0F81880F1074F
:102E400048D0F90714D001218160B80703D528467E
:102E500000F050FA0CE0780702D54FF4006407E068
:102E6000380702D54FF4805402E0284600F041FABA
:102E7000F80516D529684FF480708860B80503D529
:102E8000284600F039FA0CE0780502D544F40054E5
:102E900007E0380502D544F4804402E0284600F0FB
:102EA0002AFAF80316D529684FF480308860B803F1
:102EB00003D5284600F022FA0CE0780302D544F44A
:102EC000004407E0380302D544F4803402E0284689
:102ED00000F013FA300707D55FEACA6004D544F45E
:102EE000007429681020C86070074FF0080707D5E4
:102EF0005FEA0A7004D52868C760284600F0B8F970
:102F0000B00706D52868C068800702D0284600F0C0
:102F1000B1F9700607D55FEACB6004D544F480644C
:102F2000296810200861B00607D55FEA0B7004D548
:102F300028680761284600F0ADF9F00606D5286834
:102F40000069800702D0284600F0A5F9B00308D533
:102F50005FEAC96005D5296810204860284600F05E
:102F60009BF9F00307D55FEA097004D5286847602C
:102F7000284600F0C4F9300446D55FEA497040D5D0
:102F8000F00504D55FEAC87001D044F00104B00533
:102F900004D55FEA887001D544F00204700504D5B9
:102FA0005FEA487001D544F00404300529D518F0D3
:102FB000700F26D008F07000402815D006DC1028CD
:102FC00009D020280AD0302816D10AE050280ED087
:102FD000602811D10EE044F008040DE044F0100424
:102FE0000AE044F0200407E044F0400404E044F028
:102FF000800401E044F480742868816921F0700144
:103000008161296804204860002C05D0686A20434B
:1030100068622846FFF780FEBDE8F09F70B5044661
:10302000002C03D094F8200010B104E0012070BD02
:10303000204600F09DF82068016841F00101016020
:1030400000F04CFC054605260CE000F047FC401B58
:103050000A2807D9606A40F40030606284F8206072
:10306000012070BD20684068C007EED0206801686C
:1030700021F00201016000F031FC05460CE000F097
:103080002DFC401B0A2807D9606A40F400306062BA
:1030900084F82060012070BD206840688007EED46D
:1030A000207E01283FD02068016821F08001016066
:1030B000607E01283DD02068016821F04001016058
:1030C000A07E01283BD02068016821F0200101602A
:1030D000E07E012839D02068016841F010010160CC
:1030E000207F012837D02068016821F008010160A5
:1030F000607F012835D02068016821F0040101605B
:10310000D4E902010843D4E9041211430843616879
:10311000491E08432168C86100206062012084F8CC
:103120002000002070BD2068016841F0800101602E
:10313000BEE72068016841F040010160C0E72068F7
:10314000016841F020010160C2E72068016821F0B8
:1031500010010160C4E72068016841F008010160C6
:10316000C6E72068016841F004010160C8E700007B
:103170002DE9F04186B00446142101A8FDF7EDF8D1
:10318000364B374ADFF8D08018682168344C032664
:103190000227401C103200254FF0090C414527D171
:1031A0001860012807D1106840F0007010601068A6
:1031B00000F000700090206840F008002060206857
:1031C00000F0080000900196029703950496CDF850
:1031D00014C001A9234800F089FA00220521142017
:1031E00000F020FC142000F00FFC06B0BDE8F081D8
:1031F000DFF874804145F8D1116841F080611160B9
:10320000116801F0806100911860012807D11068F1
:1032100040F000701060106800F0007000902068AE
:1032200040F002002060206800F002000090602062
:103230000190029703950496CDF814C001A90B489C
:1032400000F054FA00220521402000F0EBFB402062
:1032500000F0DAFBC9E700000064004060220020B3
:1032600030380240000C0240006800400004024078
:1032700070470000054A0168914201D1FDF722BD67
:10328000034A914201D1FDF71DBD70470064004023
:103290000068004070477047704770B5044694F866
:1032A0002000012805D0606A40F4002060620120FF
:1032B00070BD022084F820002068016821F001011F
:1032C000016000F00BFB05460DE000F007FB401B22
:1032D0000A2808D9606A40F400306062052084F84A
:1032E0002000012070BD20684068C007EDD16062F9
:1032F00070BD7047704770477047704770477047A0
:103300002DE9F0410446A76D00F0E8FA054694F86F
:1033100035000026022806D08020606584F83460DD
:103320000120BDE8F0812068016821F016010160EC
:103330002068416921F080014161206C08B9A06CCE
:1033400020B12068016821F008010160206801684F
:1033500021F0010101600BE000F0C0FA401B0528DC
:1033600006D9202034342062032060702670D8E70C
:1033700020680068C007EFD134343F2094F828104B
:103380008840B8600120607026700020C9E790F87E
:103390003510022903D080214165012070470521A5
:1033A00080F835100068016821F0010101600020FB
:1033B000704700002DE9F84304464FF00009CDF8AE
:1033C00000906F484FF416510068B0FBF1F7A56DFF
:1033D0002E6894F85C00082202FA00F1314210D005
:1033E0002068016849070CD5016821F004010160DB
:1033F00094F85C0002FA00F1A960606D40F00100F1
:10340000606594F85C104FF0010808FA01F0304252
:1034100008D021684969090604D5A860606D40F0AC
:103420000200606594F85C1004208840304208D0A7
:1034300021680968890704D5A860606D40F0040020
:10344000606594F85C1010208840304220D02168DC
:10345000096809071CD5A8602068016849030CD5D4
:103460000068000304D4216C91B1204688470FE026
:10347000A16C69B1204688470AE00168C90503D4F8
:10348000016821F008010160216C09B120468847DC
:1034900094F85C102020884030424CD021680968A4
:1034A000C90648D5A86094F8350005280BD02068D7
:1034B0000168490330D50068000328D4616C51B31A
:1034C0002046884737E02068016821F01601016036
:1034D0002068416921F080014161206C08B9A06C2D
:1034E00020B12068016821F00801016094F85C10A7
:1034F0003F208840A86084F8358084F83490216D9E
:1035000000293BD001B02046BDE8F0430847E16BFD
:1035100009B1204688470EE00168C90507D4016853
:1035200021F01001016084F8358084F83490E16B5B
:1035300009B120468847606D00281FD0606DC00724
:1035400014D0052084F835002068016821F00101BD
:1035500001600098401C0090B84203D820680068C1
:10356000C007F6D184F8358084F83490E16C0029E6
:1035700004D001B02046BDE8F0430847BDE8F88319
:10358000702200202DE9F041044600F0A7F905461D
:103590005CB1022084F83500002684F8346020688D
:1035A000016821F0010101600DE00120BDE8F0811A
:1035B00000F094F9401B052805D920206065032000
:1035C00084F83500F2E720680068C007F0D1216870
:1035D0000A6820480240D4E901031843D4E90335BE
:1035E0002B43184363691843A3691843E3691843DD
:1035F000236A18431043626A042A03D1D4E90B23D7
:103600001A43104308602068406920F00700656A8B
:1036100029460543012704290DD1A06A0543E06A24
:1036200048B12046FEF7C8FF28B14020606584F805
:1036300035700120BAE7206845612046FEF7A6FFF5
:1036400094F85C203F2191408160666584F8357074
:103650000020ABE73F8010F02DE9F0410446002543
:10366000A66D94F8340001280DD0012084F83400B0
:1036700094F835700020012F07D084F8340002251B
:103680002846BDE8F0810220FBE7022784F8357068
:1036900060652046FEF7CCFF94F85C103F20884020
:1036A000B0602068016841F016010160206C20B113
:1036B0002068016841F0080101602068016841F05C
:1036C00001010160DCE7000070B5044600F006F976
:1036D0000546601C02D004480078044400F0FEF85F
:1036E000401BA042FAD370BD642200202DE9F84FA0
:1036F0000022DFF89C914FF0010803274FF00F0CD8
:1037000009F1040AA9F1040B08FA02F50B682B4031
:10371000AB426ED10C7904F00304012C01D0022CD1
:1037200015D18668540007FA04FE26EA0E06D1F881
:103730000CE00EFA04FE4EEA060EC0F808E04468FB
:10374000AC430D79C5F300159540254345600C79D0
:10375000E443A40708D0C568540007FA04F6B5434B
:103760008E68A6402E43C6600C7904F00304022C38
:1037700011D1D40800EB8406356A5407E40E0CFA24
:1037800004FE25EA0E05D1F810E00EFA04FE4EEA1A
:10379000050EC6F820E00568540007FA04F6B543A4
:1037A0000E7906F00306A6402E4306604C6814F41A
:1037B000403F67D0374C256845F480452560246834
:1037C00004F480440094344C22F003052E19D6F8FA
:1037D000085894074FEA147E0CFA0EF4A5432F4CB8
:1037E000A04201D1002424E02D4CA04202D10124AA
:1037F0001FE047E02B4CA04201D1022419E02A4CE3
:10380000A04201D1032414E0284CA04201D1042499
:103810000FE0274CA04201D105240AE0254CA0422C
:1038200001D1062405E0244CA04201D1072400E088
:10383000082404FA0EF42C43C6F80848D9F80040CE
:103840009C434D68ED0200D51C43C9F80040DAF8EE
:1038500000409C434D68AD0200D51C43CAF80040AF
:10386000DBF800409C434D68AD0300D51C43CBF80A
:103870000040074D083D2C689C434E68F60300D578
:103880001C432C60521C102AFFF43EAFBDE8F88F99
:10389000083C014044380240003001400000024032
:1038A0000004024000080240000C024000100240E8
:1038B0000014024000180240001C0240426921EA44
:1038C00002030A4043EA024181617047002A01D0A5
:1038D0008161704709048161704700000148806878
:1038E000704700006422002000684AF6AA210160A7
:1038F0000020704702488168027811448160704757
:103900006422002010B50B48016841F40071016089
:10391000016841F480610160016841F480710160D7
:10392000032000F09FF80F2000F006F800F050F898
:10393000002010BD003C024030B587B00546002491
:103940001F48016841F001010160006800F00100BA
:10395000009001A902A800F03DF90598B0B100F06F
:103960005DF940001749B0FBF1F1491E16484FF0D0
:103970008042026040F2E732C260416004618460CC
:10398000846100F0EFFE04461CB115E000F046F93A
:10399000E8E70D4800F038FF04466CB91C2000F041
:1039A00033F8102D07D2002229461C2000F03AF8E7
:1039B0000648056000E0012407B0204630BD000045
:1039C0004038024040420F00FC31002068220020B5
:1039D00082B00C48016841F480410160006800F445
:1039E000804001900748001F016841F0805101604C
:1039F000006800F08050019000220F21901E02B05C
:103A000000F010B844380240002809DB00F01F0223
:103A1000012191404009800000F1E020C0F8001130
:103A200070470000F0B40D460D4B1B68C3F3022332
:103A3000C3F10704042C00D90424191D072901D25D
:103A4000002300E0DB1E012606FA04F1491E29408E
:103A500099409E40761E16403143F0BC04F09ABD5A
:103A60000CED00E000F00701054A10684FF6FF0377
:103A7000184040EA012003490843106070470000E5
:103A80000CED00E00000FA052DE9F04704460D4674
:103A9000002C13D0DFF82891D9F80000EFB200F025
:103AA0000700A8420CD289F80070D9F8000000F095
:103AB0000700A84204D00120BDE8F0870120FBE701
:103AC0002068404E810712D5400703D5306840F486
:103AD000E05030602078000703D5306840F4604043
:103AE00030603068A16820F0F00008433060207832
:103AF000C00731D0334960680839012808D002284E
:103B00000BD0032809D0096889070BD40120D3E71B
:103B10000968890306D40120CEE70968890101D428
:103B20000120C9E7316821F0030101433160FFF74B
:103B3000D5FE804641F2883A07E0FFF7CFFEA0EBC2
:103B40000800504501D90320B6E73068616800F0ED
:103B50000C00B0EB810FF0D1D9F8000000F00700A5
:103B6000A84209D989F80070D9F8000000F00700D0
:103B7000A84201D001209FE72078400705D5306892
:103B8000E16820F4E050084330602078000706D553
:103B90003068216920F4604040EAC100306000F0E4
:103BA0005DF83168084AC1F30311515CC840074908
:103BB000086007480068FFF7BFFE00207CE70000B0
:103BC000003C0240083802403C04010870220020FA
:103BD000682200200F2202600B4A136803F00303DF
:103BE0004360136803F0F0038360136803F4E05349
:103BF000C360126802F46042D208026103480068A0
:103C000000F007000860704708380240003C02409E
:103C100001480068704700007022002000B5FFF7DF
:103C2000F7FF04490968044AC1F38221515CC84086
:103C300000BD0000083802404C04010800B5FFF741
:103C4000E7FF04490968044AC1F34231515CC840A6
:103C500000BD0000083802404C04010810B51748A8
:103C6000006810F00C01164816D0164B042912D02B
:103C7000082911D1114C241F216801F03F0221684D
:103C800049020AD52068C0F38810A0FB0301002375
:103C9000FCF7F8FA09E0184610BD21680023C1F3CB
:103CA0008811A1FB0001FCF7EDFA2168C1F3014185
:103CB000491C4900B0FBF1F010BD0000083802407B
:103CC0000024F40040787D012DE9F84F0446002CD3
:103CD00013D02078DFF8A083C007A8F1040556D0E0
:103CE00008F104000168C1F3810101290CD00068CA
:103CF000C0F38100022803D00DE00120BDE8F88F59
:103D0000D8F80000400206D5286880033FD56068D7
:103D100070BB0120F2E76068B0F5803F10D0B0F5CD
:103D2000A02F12D0286820F480302860286820F462
:103D3000802028606068E0B1FFF7D0FD064614E0FF
:103D4000286840F480302860F4E7286840F4802038
:103D50002860286840F480302860EBE7FFF7BEFD5C
:103D6000801B642801D90320C8E728688003F5D5A3
:103D70000DE0FFF7B3FD064606E0FFF7AFFD801B41
:103D8000642801D90320B9E728688003F5D4207896
:103D9000BA4F80074FF0000948D5B748001D0168A9
:103DA00011F00C0F08D00068C0F38100022813D175
:103DB000D8F8000040020FD42868800704D5E068D6
:103DC000012801D0012099E72868216920F0F80036
:103DD00040EAC100286029E0E068B8B101203860FD
:103DE000FFF77CFD064606E0FFF778FD801B022802
:103DF00001D9032082E728688007F5D52868216962
:103E000020F0F80040EAC10028600FE0C7F80090F9
:103E1000FFF764FD064606E0FFF760FD801B022801
:103E200001D903206AE728688007F5D420780007C5
:103E300029D5DFF844A2924861690AF1700A89B174
:103E400001210160FFF74AFD064606E0FFF746FD47
:103E5000801B022801D9032050E7DAF80000800710
:103E6000F4D510E0C0F80090FFF738FD064606E0F4
:103E7000FFF734FD801B022801D903203EE7DAF862
:103E800000008007F4D42078400778D54FF0000A6E
:103E900079483C300068C0000BD477483C3001685A
:103EA00041F080510160006800F0805000904FF0B8
:103EB000010ADFF8D0B1DBF80000C00514D4DBF84C
:103EC000000040F48070CBF80000FFF707FD0646C5
:103ED00006E0FFF703FD801B022801D903200DE750
:103EE000DBF80000C005F4D5634EA0686C360128ED
:103EF0000FD0052812D0306820F001003060306803
:103F000020F004003060A068F8B1FFF7E7FC8346BA
:103F100017E0306840F001003060F4E7306840F0AE
:103F200004003060306840F001003060EBE7FFF7DC
:103F3000D5FCA0EB0B0141F28830814201D903206E
:103F4000DCE630688007F2D510E0FFF7C7FC834657
:103F500009E0FFF7C3FCA0EB0B0141F2883081427E
:103F600001D90320CAE630688007F2D4BAF1010F04
:103F700005D141483C30016821F080510160A069C1
:103F8000C0B33D49091D09684FF0FF36C1F38101F7
:103F9000022946D0022805D0C7F86090FFF79EFCA2
:103FA00004463AE0C7F86090FFF798FC814607E0C6
:103FB000FFF794FCA0EB0900022801D903209DE63D
:103FC00028688001F4D4D4E907010843616AA26A31
:103FD000890106EB520241EA0241084394F82C1091
:103FE00040EA0160C8F8000001203866FFF776FC5F
:103FF000044607E03DE0FFF771FC001B022801D9F1
:1040000003207BE628688001F5D532E0FFF766FCE7
:10401000001B022801D9032070E628688001F5D42E
:1040200027E0012823D0D8F80000E26900F48001DD
:1040300091421AD1226A00F03F01914215D147F610
:10404000C071626A0140B1EB821F0ED1A26A00F416
:10405000403106EB5202B1EB024F06D194F82C101E
:1040600000F07060B0EB016F03D0012046E6012044
:1040700044E6002042E600000438024000004742C7
:10408000800E47420070004070B50446002C09D0F5
:10409000606A002540B125616561A56294F8510010
:1040A00040B10CE0012070BD6068B0F5827FF4D0B3
:1040B000E561F2E784F85050204600F045F8022010
:1040C00084F851002068016821F040010160A08857
:1040D000218900F4827001F404410843A18901F4AC
:1040E00000610843217C01F002010843217D01F0B9
:1040F00001010843218B01F400710843217F01F085
:104100003801084394F8201001F080010843218D04
:1041100001F40051084321680860A069042101EA04
:10412000104094F8241001F0100108432168486001
:104130002068C16921F40061C1616565012084F8CE
:104140005100002070BD000010B586B00446142157
:1041500001A8FCF702F914492068884221D1002106
:104160001248026842F480420260006800F4804015
:1041700000900E481038026842F0020202600068A7
:1041800000F0020000904FF4604001900220029085
:104190000391032004900520059001A90448FFF72E
:1041A000A5FA06B010BD00000038004040380240BB
:1041B000000402402DE9F84F04468A4691461D4608
:1041C000002660684FF0040BB0F5827F01D1A06833
:1041D00088B194F85000012818D0012084F85000CC
:1041E000FFF77CFB074694F851004FF000080128C8
:1041F0000ED0022682E084F851B04B46524651461A
:104200002046009500F048F9BDE8F88F0220FBE752
:10421000BAF1000F1BD0B9F1000F18D084F851B0DB
:10422000C4F85480C4F838A0A4F83C90A4F83E9098
:10423000C4F83080A4F83480A4F83680C4F84080F4
:10424000C4F84480A068B0F5004F02D00BE001260E
:1042500054E02068016821F0400101602068016895
:1042600021F48041016020680168490603D4016897
:1042700041F040010160E068B0B131E02068816840
:10428000C90709D0007BA16B0870A06B401CA0631C
:10429000E08F401EE08707E0FFF720FBC01BA8422D
:1042A00001D3681C04D11DB1E08F0028E6D11AE0CB
:1042B000032623E020688168C90709D0C068A16B84
:1042C0000880A06B801CA063E08F401EE08707E0A1
:1042D000FFF704FBC01BA84201D3681C15D1A5B190
:1042E000E08F0028E6D13A462946204603F0C4FA7A
:1042F00008B120206065606D00B10126012084F8BE
:10430000510084F8508030467EE70326F6E72DE919
:10431000F84F04468B4692461D46002694F85000FE
:1043200001280DD04FF0010984F85090FFF7D6FA1C
:10433000074694F85100B046012804D00226A5E0B3
:104340000220BDE8F88FBBF1000F1CD05FEA0A0025
:1043500019D0032084F85100C4F85480C4F830B058
:10436000A4F834A0A4F836A0C4F83880A4F83C809F
:10437000A4F83E80C4F84480C4F84080A068B0F53A
:10438000004F02D00BE0012680E02068016821F098
:10439000400101602068016841F4804101602068AB
:1043A0000168490603D4016841F040010160E068FA
:1043B000B0F5006F05D0606878B3BAF1010F2DD069
:1043C0004DE0606810B1BAF1010F20D1206B216877
:1043D0000088C860206B801C2063E08E401EE08651
:1043E00015E020688168890709D5216B0988C160BB
:1043F000206B801C2063E08E401EE08607E0FFF704
:104400006DFAC01BA84201D3681C04D11DB1E08E17
:104410000028E6D126E0032638E0FFE7206B21687C
:1044200000780873206B401C2063E08E401EE086FD
:1044300015E020688168890709D5216B0978017327
:10444000206B401C2063E08E401EE08607E0FFF7F3
:1044500045FAC01BA84201D3681C0ED16DB1E08E95
:104460000028E6D13A462946204603F04BFA08B127
:1044700020206065A06810B105E0032606E02068F2
:10448000C16880680090606D00B1012684F8519089
:1044900084F85080304654E72DE9F84F04460A9ED0
:1044A0008A4693461F4601254FF0000894F85000B5
:1044B00001280ED0012084F85000FFF70FFA814642
:1044C00094F85100616801280DD0B1F5827F07D1C1
:1044D00002E00220BDE8F88FA16809B9042802D0E3
:1044E0004FF00208C3E0BAF1000F28D0BBF1000F73
:1044F00025D0380023D094F85100042802D005209C
:1045000084F8510000206065C4F838B0E787A787B9
:10451000C4F830A0E786A78620646064206801683C
:10452000490603D4016841F040010160E068B0F53C
:10453000006F07D06068E8B3012F48D07DE04FF0EE
:10454000010894E0606808B1012F39D1206B21681F
:104550000088C860206B801C2063E08E401EE086CF
:104560002EE02068816889070DD5E18E59B1012DB3
:1045700009D1216B0988C160206B801C2063E08E0B
:10458000401EE086002520688168C9070BD0E18FB6
:1045900049B1C068A16B0880A06B801CA063E08F4C
:1045A000401EE0870125FFF799F9A0EB0900B04212
:1045B00006D300E00BE0701C02D04FF0030856E079
:1045C000E08E0028CDD1E08F0028CAD13BE0206BDF
:1045D000216800780873206B401C2063E08E401E29
:1045E000E0862AE02068816889070DD5E18E59B1FF
:1045F000012D09D1216B09780173206B401C2063C8
:10460000E08E401EE086002520688168C9070BD037
:10461000E18F49B1C068A16B0870A06B401CA0631A
:10462000E08F401EE0870125FFF758F9A0EB090055
:10463000B04201D3701C11D186B1E08E0028D1D1D7
:10464000E08F0028CED14A463146204603F05AF981
:1046500038B14FF001082020606508E04FF00308F2
:1046600005E0A06818B92068C16880680090012042
:10467000503460700020207040462BE77047704730
:1046800010B590F83C20012A22D0012280F83C206D
:10469000CA6800238C6822F4407222434C6822F4DA
:1046A000806222430C6822F4006222430C6922F4E7
:1046B000805222434C6922F400522243C96922F4F9
:1046C00080420A4301684A6480F83C30002010BDF3
:1046D000022010BD70B590F83C20012A31D001268F
:1046E00080F83C60022280F83D200268546893689C
:1046F00024F070050C682C435460134C0268A242ED
:1047000014D0B2F1804F11D0104CA2420ED0104CF8
:10471000A2420BD00F4CA24208D00F4CA24205D0AF
:104720000E4CA24202D00E4CA24204D123F08003D0
:104730004968194391603C304670002101700020A7
:1047400070BD022070BD0000000001400004004068
:1047500000080040000C00400004014000400140FF
:104760000018004010B50446002C03D094F83D001A
:1047700010B107E0012010BD002084F83C00204665
:1047800000F016F8022084F83D00211D206803F097
:1047900071FA01203D3460726070A070E070207189
:1047A0006071A071E07120722070002010BD0000C7
:1047B00008B500681149884209D11148016841F0E3
:1047C00001010160006800F00100009008BD0D4982
:1047D0008842FBD10A48001F016841F004010160D2
:1047E000006800F004000090002205211E20FFF761
:1047F00019F9BDE808401E20FFF706B90000014086
:10480000443802400008004090F83D10012901D0D2
:1048100001207047022180F83D100168CA6842F00B
:104820000102CA6000681449884214D0B0F1804F78
:1048300011D0124988420ED0114988420BD011493B
:10484000884208D01049884205D01049884202D0D9
:104850000F49884209D1816801F00701062908D073
:10486000016841F00101016003E0016841F00101CC
:10487000016000207047000000000140000400407B
:1048800000080040000C00400004014000400140CE
:104890000018004070B50446002594F83C0001283B
:1048A00017D0012684F83C60022084F83D0020687F
:1048B000826822F0770222F47F42826008685028E2
:1048C00038D00DDC202853D005DC90B3102811D14E
:1048D0004EE0022070BD30284AD040280AD13DE089
:1048E000602831D070280CD0B0F5805F03D0B0F5CF
:1048F000005F12D001253C346670002020702846ED
:1049000070BDCB68D1E90121206803F026FA206848
:10491000816841F077018160EDE7CB68D1E9012141
:10492000206803F01AFA2068816841F480418160B0
:10493000E1E71DE0CA684968206803F0F1FA5021F8
:10494000206803F014FAD6E7CA684968206803F0C3
:10495000F8FA6021206803F00AFACCE7CA684968CF
:10496000206803F0DDFA4021206803F000FAC2E776
:1049700022680146104603F0FAF9BCE7704770B5AB
:104980000446206801694FF00005C943890716D421
:10499000C168C943890712D4E91E0161012020774B
:1049A00020688069800703D02046FFF7E7FF05E015
:1049B000204600F0C5F8204600F055F9257720681C
:1049C0000169C943490718D4C168C943490714D4C8
:1049D0006FF004010161022020772068806910F4E3
:1049E000407F03D02046FFF7C9FF05E0204600F0D6
:1049F000A7F8204600F037F9257720680169C943F8
:104A0000090717D4C168C943090713D46FF0080117
:104A10000161042020772068C069800703D0204608
:104A2000FFF7ACFF05E0204600F08AF8204600F0D2
:104A30001AF9257720680169C943C90618D4C168E5
:104A4000C943C90614D46FF0100101610820207712
:104A50002068C06910F4407F03D02046FFF78EFF26
:104A600005E0204600F06CF8204600F0FCF82577C1
:104A700020680169C943C90708D1C168C943C9078A
:104A800004D1891E0161204600F09AF9206801696D
:104A9000C943090609D4C168C943090605D46FF0A2
:104AA000800101612046FFF7E9FD20680169C943E3
:104AB000490609D4C168C943490605D46FF04001CD
:104AC0000161204600F083F920680169C943890625
:104AD0000BD4C168C943890607D46FF02001016176
:104AE0002046BDE87040FFF7CABD70BD10B586B066
:104AF0000446142101A8FBF730FC0E4821688142CE
:104B000016D100210C48026842F0010202600068E0
:104B100000F0010000904FF480700190022002909C
:104B2000039104910120059001A90448FEF7DEFDE0
:104B300006B010BD000001403038024000000240C5
:104B4000704770B504460D46002694F83C000128D5
:104B50000FD0012084F83C006AB1042A1FD0082A33
:104B600032D00C2A44D00126002084F83C00304684
:104B700070BD022070BD2946206803F001F920684D
:104B8000816941F0080181612068816921F0040197
:104B90008161206881692A6911438161E4E72946BE
:104BA000206803F021F92068816941F40061816186
:104BB0002068816921F480618161206881692A69A6
:104BC00041EA02218161CFE72946206803F046F9D6
:104BD0002068C16941F00801C1612068C16921F004
:104BE0000401C1612068C1692A691143C161BBE741
:104BF0002946206803F06AF92068C16941F4006120
:104C0000C1612068C16921F48061C1612068C16906
:104C10002A6941EA0221C161A6E710B50446002CC9
:104C200003D094F83D0010B107E0012010BD002032
:104C300084F83C00204600F015F8022084F83D007E
:104C4000211D206803F016F801203D346072607069
:104C5000A070E07020716071A071E071207220700E
:104C6000002010BD7047704710B50446002909D0D8
:104C700004290AD008290BD094F8410001280AD051
:104C8000012010BD94F83E00F8E794F83F00F5E7E6
:104C900094F84000F2E70220A9B3042937D008298C
:104CA00038D084F841000122206803F049F81E49F9
:104CB00020681E4A884201D0904203D1436C43F4DD
:104CC000004343642068884213D0B0F1804F10D075
:104CD000174988420DD0174988420AD016498842A0
:104CE00007D0904205D01549884202D01449884225
:104CF00013D1816801F00701062912D0016841F043
:104D0000010101600DE0FFE784F83E00CBE784F885
:104D10003F00C8E784F84000C5E7016841F00101A1
:104D20000160002010BD00000000014000040140AF
:104D30000004004000080040000C0040004001401A
:104D40000018004030B504460D4600222946206870
:104D500002F0F6FF184A41F2111120688B109042C0
:104D600002D0164A904209D1026A0A4206D1026A6A
:104D70001A4203D1426C22F4004242642068026A63
:104D80000A4206D1016A194203D1016821F00101EA
:104D9000016001203DB1042D08D0082D09D084F810
:104DA0004100002030BD84F83E00FAE784F83F005F
:104DB000F7E784F84000F4E70000014000040140F8
:104DC0000068B0F1804F01D1FEF794BD7047704785
:104DD00070477047F8B5044622681068D168536977
:104DE00000F00F06002E08D1850606D58D0604D5E5
:104DF0002046BDE8F84003F064B90025002E66D0D7
:104E000003F0010601F49077374360D0C20705D064
:104E1000CA0503D5226C42F001022264420705D57F
:104E2000DA0703D0226C42F002022264820705D521
:104E3000DA0703D0226C42F004022264020707D58D
:104E400001F02002324303D0226C42F008022264B7
:104E5000226C002A31D0800604D5880602D520466F
:104E600003F02FF920684069C0F38010216C090716
:104E700000D438B3204603F0E2F8206840694006C9
:104E80001CD52068143050E8001F21F0400140E894
:104E90000012002AF5D1A06B60B157490165A06BE3
:104EA000FEF775FA002808D0A06B016D01B0BDE8CF
:104EB000F04008472046FFF78CFFF8BD2046FFF77B
:104EC00088FFF8BD2046FFF784FF2564F8BD236BFB
:104ED000012B7ED1C3067CD5CB067AD510685068ED
:104EE000009050694FF02003400643D5A16B08683D
:104EF000406880B20028E9D0A28D8242E6D9E085E0
:104F0000C869B0F5807F2DD020680C3050E8001FB4
:104F100021F4807140E80012002AF5D12068143095
:104F200050E8001F21F0010140E80012002AF5D1ED
:104F30002068143050E8001F21F0400140E80012C2
:104F4000002AF5D184F83E30256320680C3050E803
:104F5000001F21F0100140E80012002AF5D1A06BDB
:104F6000FEF7CEF9A08DE18D401A81B22046FFF701
:104F70002FFFF8BDA08DE18D401A81B2E08D002891
:104F8000F7D00029F5D020680C3050E8002F22F42B
:104F9000907240E80026002EF5D12068143050E8C9
:104FA000002F22F0010240E80026002EF5D184F8FF
:104FB0003E30256320680C3050E8002F22F01002AC
:104FC00040E80023002BF5D12046FFF701FFF8BD94
:104FD000FFE7020606D50A0604D52046BDE8F840DC
:104FE00003F088B94006F2D54806F0D52046BDE862
:104FF000F84003F04BB80000997F000870B50446F4
:10500000002C04D094F83D00002510B106E00120EA
:1050100070BD84F83C50204600F022F8242084F82B
:105020003D002068C16821F40051C160204603F0B2
:10503000D7F82068016921F4904101612068416935
:1050400021F02A0141612068C16841F40051C1602A
:105050002564202084F83D0084F83E00002070BDC7
:105060002DE9F04F87B00446142102A8FBF775F92B
:10507000FF48DFF8F8C310380222D4F800E0FC4BF8
:1050800003210025960607154FF0080B4FF4807892
:105090004FF0400A4FF40039E6456BD1D3F800C019
:1050A0004CF4002CC3F800C01B6803F400230193E8
:1050B000036843F001030360006800F00100019001
:1050C0000291039204950591CDF818B002A9E94820
:1050D000FEF70CFBDFF8A4B3E748CBF80000CBF8F1
:1050E0000460CBF80850CBF80C50CBF81070CBF81C
:1050F0001450CBF81850CBF81C80CBF82090CBF88C
:1051000024505846FEF73EFA08B1FDF7A3FBC4F859
:1051100038B0CBF83840DFF86483D74808F160082E
:105120003030C8F80000C8F80460C8F808A0C8F813
:105130000C50C8F81070C8F81450C8F81850C8F8C7
:105140001C50C8F82090C8F824504046FEF71AFAC0
:1051500008B1FDF77FFBC4F83480C8F8384000225E
:1051600005213420FEF75EFC3420FEF74DFC07B02D
:10517000BDE8F08FDFF808C3E6457DD1D3F800C065
:105180004CF4801CC3F800C01B6803F48013019327
:10519000036843F004030360036803F0040301930E
:1051A000036843F008030360006800F00800019002
:1051B0004FF4805002900220039004950320059044
:1051C000CDF818B002A9AF48FEF790FA042002907B
:1051D00002200390049503200590CDF818B002A991
:1051E000A948FEF783FADFF894B2A3480BF1C00B8D
:1051F0003038CBF80000CBF80460CBF80850CBF87F
:105200000C50CBF81070CBF81450CBF81850CBF8EA
:105210001C80CBF82090CBF824505846FEF7B2F90A
:1052200008B1FDF717FBC4F838B0CBF83840924806
:10523000DFF858827830C8F80000C8F80460C8F871
:1052400008A0C8F80C50C8F81070C8F81450C8F876
:105250001850C8F81C50C8F82090C8F82450404690
:10526000FEF790F908B1FDF7F5FAC4F83480C8F8F4
:1052700038400022052100E006E03520FEF7D2FB91
:105280003520FEF7C1FB72E7DFF804B24FF0070CE0
:10529000DE4570D1764B1B1DD3F800B04BF0100BE0
:1052A000C3F800B01B6803F010030193036843F0D8
:1052B00001030360006800F0010001904FF4C0603A
:1052C0000290039204950591CDF818C002A969488F
:1052D000FEF70CFADFF8B4B16E480BF1600BCBF8B7
:1052E0000000CBF80460CBF80850CBF80C50CBF89A
:1052F0001070CBF81450CBF81850CBF81C80CBF8BA
:105300002090CBF824505846FEF73CF908B1FDF741
:10531000A1FAC4F838B0CBF83840DFF870815D48A6
:1053200008F1C0087830C8F80000C8F80460C8F870
:1053300008A0C8F80C50C8F81070C8F81450C8F885
:105340001850C8F81C50C8F82090C8F8245040469F
:10535000FEF718F908B1FDF77DFAC4F83480C8F8F3
:105360003840002205212520FEF75CFB2520FEF7B2
:105370004BFBFCE6FFE7DFF820B1DE4547D1D3F871
:1053800000A04AF4003AC3F800A01B6803F40033FD
:105390000193036843F001030360006800F001001B
:1053A00001900C200290039204950591CDF818C04D
:1053B00002A93048FEF79AF92F48DFF8E0A04830FC
:1053C000CAF80000CAF80460CAF80850CAF80C50BD
:1053D000CAF81070CAF81450CAF81850CAF81C80DD
:1053E000CAF82090CAF824505046FEF7CBF808B10E
:1053F000FDF730FAC4F838A0CAF838400022052179
:105400002620FEF70FFB2620FEF7FEFAAFE6DFF8B8
:105410009090CE45ADD1D3F8009049F48029C3F8DF
:1054200000901B6803F480230193036843F0020398
:105430000360006800F0020001904FF440600290A9
:10544000039204950591CDF818C002A91548FEF7FE
:105450004DF9DFF84890084809F160091838C9F893
:105460000000C9F80460C9F808501DE0004C004075
:105470004038024000000240406002409C2E002064
:105480000050004000080240000C0240BC2F0020E9
:10549000001001404064024000440040DC30002025
:1054A0000048004000040240C9F80C50C9F81070D0
:1054B000C9F81450C9F81850C9F81C80C9F8205010
:1054C000C9F824504846FEF75DF808B1FDF7C2F967
:1054D000C4F83890C9F83840DFF854801348C8F849
:1054E0000000C8F80460C8F808A0C8F80C50C8F854
:1054F0001070C8F81450C8F81850C8F81C50C8F8F4
:105500002050C8F824504046FEF73CF808B1FDF79B
:10551000A1F9C4F83480C8F83840002205212720BA
:10552000FEF780FA2720FEF76FFA20E65860024067
:105530009C31002070470000F7B5044694F83D0008
:10554000202801D00220FEBD019999B392B394F8AE
:105550003C00012831D0012084F83C002162A28463
:10556000E28400252564212084F83D00636B144803
:10557000D863636B13481864636B1348D864606B1B
:10558000056526681346361D3246606BFEF764F8E3
:1055900021686FF04000086084F83C5020681430A7
:1055A00050E8001F41F0800140E80012002AF5D1C8
:1055B0000020FEBDFFE70120FBE70220F9E7000025
:1055C000F37F000835800008A97F00087047704706
:1055D000FEE7000070B50B4C002525600A48016805
:1055E00021F040410160016841F080410160A56007
:1055F000022004F061FC01202060022004F05CFC29
:10560000256070BDB4824042000402402DE9F041A3
:1056100086B0142101A8FAF7A0FE00251C480168F5
:1056200041F002010160006800F0020000900122D8
:10563000184F160331463846FEF748F94FF48048B4
:10564000012241463846FEF741F94FF420400190CF
:105650000124029403950325049501A93846FEF719
:1056600045F84FF4A040019002940394049501A9D9
:105670003846FEF73BF8012231463846FEF726F958
:10568000012241463846FEF721F906B0BDE8F08117
:10569000303802400004024070B50B4C00252560F4
:1056A0000A48016821F040410160016841F08041F1
:1056B00001600126A660022004F0FEFB26600220A5
:1056C00004F0FAFB256070BDB48240420004024041
:1056D0002DE9F047814600241548016821F040413A
:1056E0000160016801600025124E00274FF001089B
:1056F000C6F8B472022004F0DFFBC6F8B48260067C
:10570000040ED6F83C0208B1641CE4B2012004F097
:10571000D3FB6D1CEDB2082DEAD3B9F1000F04D014
:10572000FFF758FF2046BDE8F087FFF7B5FFF9E720
:10573000000402400080404270B504460D46164603
:1057400000F050F8D22000F01DF800F085F8204657
:1057500000F018F800F080F800F044F8D32000F0D2
:1057600011F800F079F8002406E00120FFF7B0FFFF
:1057700005F8010B641CE4B2B442F6D3BDE87040F6
:1057800000F04CB82DE9F04105461448016821F0BD
:1057900040410160016841F080410160104E4FF0CE
:1057A0000008C6F8B48200240127E809C6F8BC0244
:1057B0006806050E022004F07FFBC6F8B4720220D2
:1057C00004F07AFBC6F8B482022004F075FB641C76
:1057D000E4B2082CE9D3BDE8F081000000040240E7
:1057E0000080404270B50B48016821F040410160E3
:1057F000016841F080410160074C0120A0602060F9
:10580000042004F059FB0025A560042004F054FB9B
:10581000256070BD00040240B482404210B50C48BF
:10582000016821F040410160016841F08041016060
:10583000084C00202060A060042004F03DFB012003
:105840002060A060BDE81040042004F035BB0000DB
:1058500000040240B482404270B50024114801683F
:1058600021F040410160016801600F4D0126C5F83B
:10587000BC62012004F020FBC5F8B462012004F0F2
:105880001BFB07E0641CE4B2FA2C03D9FFF7C6FF48
:10589000012070BDD5F83C020028F3D1C5F8B40250
:1058A00070BD00000004024000804042B5EEC01A06
:1058B000F1EE411AF1EE10FA02DDB0EE412A01E0FC
:1058C000B0EE612A12EE100AB0F17E5F0CDDB5EE8B
:1058D000C01AF1EE10FA01DCB0EE611AB2EE042A41
:1058E000C1EE021AB0EE611AF7EE001A71EEC11A9B
:1058F00021EE800A00EE810A704710B5044694ED4F
:10590000361AB5EEC01AF1EE10FA1BD0D4ED0A0A21
:1059100094ED040AFFF7CAFF84ED040A94ED361AE9
:10592000D4ED0B0A94ED050AFFF7C0FF84ED050ADC
:1059300094ED361AD4ED0C0A94ED060AFFF7B6FF83
:1059400084ED060A94ED371AB5EEC01AF1EE10FA9E
:105950001BD0D4ED0D0A94ED070AFFF7A7FF84EDE5
:10596000070A94ED371AD4ED0E0A94ED080AFFF7F2
:105970009DFF84ED080A94ED371AD4ED0F0A94EDDB
:10598000090AFFF793FF84ED090A94ED381AB5EE82
:10599000C01AF1EE10FA1BD0D4ED1B0A94ED180AD0
:1059A000FFF784FF84ED180A94ED381AD4ED1A0A33
:1059B00094ED170AFFF77AFF84ED170A94ED381A71
:1059C000D4ED190A94ED160AFFF770FF84ED160A5C
:1059D00094ED391AB5EEC01AF1EE10FA1BD0D4EDE1
:1059E0001F0A94ED1C0AFFF761FF84ED1C0A94ED79
:1059F000391AD4ED200A94ED1D0AFFF757FF84ED04
:105A00001D0A94ED391AD4ED210A94ED1E0AFFF710
:105A10004DFF84ED1E0A10BD70B586B0142101A89B
:105A2000FAF79BFC00251148016841F00201016072
:105A3000006800F00200009001220D4E1403214680
:105A40003046FDF743FF0194012202920392049530
:105A500001A93046FDF74AFE0120FDF735FE01227F
:105A600021463046FDF732FF06B070BD30380240A7
:105A70000004024070B504460E461546E671204605
:105A8000FCF7EAFE00216A1CBEB1012E14D1607938
:105A9000032823D02068401C2060A8420CDB012191
:105AA00021716171904207DB02212171617198427D
:105AB00002DB03202071607170BD607960B12068E5
:105AC000401C2060A842F7DB0423237163719042DD
:105AD000F2DB2171617170BD216070BD216070BD0C
