:020000040800F2
:10000000A06E002061020008B3500008B945000846
:10001000B1500008910B00080D6F000800000000AF
:10002000000000000000000000000000A101000826
:100030002F18000800000000FD01000851660008AC
:100040007B0200087B0200087B0200087B0200089C
:100050007B0200087B0200087B0200087B0200088C
:100060007B0200087B0200087B0200086514000880
:10007000711400087D140008891400089514000804
:10008000A11400087B0200087B0200087B02000824
:10009000BD0B00087B0200087B0200087B02000801
:1000A0007B0200087B0200087B0200087B0200083C
:1000B000296700087B020008356700087B020008FA
:1000C0007B0200087B0200087B0200087B0200081C
:1000D0007B020008716D0008D16D0008356E0008C4
:1000E0007B0200087B0200087B0200087B020008FC
:1000F0007B0200087B0200087B020008AD140008A8
:100100007B0200087B0200087B0200087B020008DB
:10011000156A00082D6A00087B0200087B020008AF
:100120007B0200087B020008B91400087B0200086B
:100130007B0200087B0200087B0200087B020008AB
:100140001D0C00087B0200087B0200087B020008EF
:100150007B0200087B020008C51400087B0200082F
:100160007B0200087B0200087B0200087B0200087B
:100170007B0200087B0200087B02000800000000F0
:100180007B0200087B020008DFF810D000F07CFB47
:1001900000480047A59A0008AFF30080A06E002039
:1001A0002C4B19680868B0E8F04F80F30988BFF35A
:1001B0006F8F4FF0000080F311887047000000003F
:1001C00008480068006880F308884FF0000080F35A
:1001D000148862B661B6BFF34F8FBFF36F8F00DF35
:1001E00000BF00BF08ED00E0DFF80C00016841F43B
:1001F00070010160704700BF88ED00E0EFF30980F7
:10020000BFF36F8F134B1A681EF0100F08BF20ED5D
:10021000108A20E9F04F106009B44FF0500080F3CD
:100220001188BFF34F8FBFF36F8F0BF0BFFB4FF001
:10023000000080F3118809BC19680868B0E8F04F25
:100240001EF0100F08BFB0EC108A80F30988BFF3CE
:100250006F8F7047D81B0020EFF3058070470000B8
:100260000648804706480047FEE7FEE7FEE7FEE750
:10027000FEE7FEE7FEE7FEE7FEE7FEE71967000898
:10028000890100082DE9F05F0546002092469B4653
:1002900088460646814640241BE02846414647469C
:1002A000224600F0ADF953465A46C01A914110D388
:1002B00011461846224600F016F82D1A67EB010881
:1002C0004F4622460120002100F00DF817EB0009EF
:1002D0004E41201EA4F10104DFDC484631462A4687
:1002E0004346BDE8F09F202A04DB203A00FA02F1E1
:1002F000002070479140C2F1200320FA03F3194314
:1003000090407047202A06DBCB17203A41FA02F0D2
:1003100043EAE07306E041FA02F3D040C2F1200262
:10032000914008431946704740EA01039B0703D0F8
:1003300009E008C9121F08C0042AFAD203E011F824
:10034000013B00F8013B521EF9D27047D2B201E0E6
:1003500000F8012B491EFBD270470022F6E710B5CA
:1003600013460A4604461946FFF7F0FF204610BD23
:100370002DE9FE4F804681EA0300C00F0C46009035
:1003800021F0004123F00045B8EB0200A94105D25D
:100390004046214690461C460B46024623F000404C
:1003A000104347D0270DC7F30A00C3F30A51029048
:1003B000401A019040286BDAC3F3130040F4801B0D
:1003C0000098924620B10023D2EB030A63EB0B0B9B
:1003D00001985946C0F140025046FFF784FF064697
:1003E0000D4650465946019AFFF78CFF10EB080066
:1003F0006141002487EA115284EAE7731A4340D02E
:10040000009A62B3019A012A4FEA075215DC001BD9
:1004100061EB02014FF0004202EA0752CDE90042CF
:10042000001C41F5801132462B4600F03FF903B025
:10043000BDE8F08F40462146F9E7001B61EB020161
:10044000001C41F5801300185B412018A2F500172D
:1004500047EB030140EAD570B6196D4111E06D0814
:100460004FEA360645EAC0754FEA0752001B61EBBA
:100470000201001C41F5801149084FEA30000019C3
:10048000514132462B4603B0BDE8F04F00F0FFB8B3
:100490000098012240000023D0EB020263EBE073DE
:1004A000009821464FEAE074B8EB000061EB0401CC
:1004B000E9E783F000435BE781F0004158E72DE96D
:1004C000FE4F81EA030404F0004421F0004100944F
:1004D0004FF0000B23F0004350EA01045ED052EAD3
:1004E00003045BD0C3F30A54C1F30A552C44A4F2AD
:1004F000F3340194A0FB0254C1F3130141F48011C1
:10050000C3F3130343F4801301FB024400FB034EC7
:10051000840A970A44EA815447EA8357A4FB076890
:1005200002958D0A05FB07854FEA932C04FB0C54BA
:100530002705029D4FEA065847EA1637B5EB08052E
:100540006EEB070C870E920E47EA811742EA831280
:10055000A7FB0201B6EB0B0164EB00042B0D43EA91
:100560000C335E1844EB1C50DA465146E7FB02019F
:10057000C5F313044FEA0B3343EA14534FEA043232
:10058000019C43EA0603A4F10C040294009CCDE90B
:1005900000B400F08BF803B0BDE8F08F00200146F6
:1005A000F9E700F0004230F000400AD0C10D01F53B
:1005B0006071C0F3160042EA0151C20840071143BE
:1005C000704700200146704701F0004330B421F02D
:1005D000004150EA010206D00A0DA2F56072C1F393
:1005E0001301002A02DC30BC00207047440F44EAAB
:1005F000C104C100E01830BC00EBC25000F010B8DC
:10060000202A04DB203A21FA02F00021704721FA67
:1006100002F3D040C2F120029140084319467047CE
:100620000029A8BF7047401C490008BF20F0010006
:10063000704710B4B0FA80FC00FA0CF050EA0104E4
:1006400004BF10BC704749B1CCF1200421FA04F476
:1006500011FA0CF118BF012121430843A3EB0C014F
:10066000CB1D4FEA00614FEA102042BF002010BCB2
:10067000704700EBC35010440029A4BF10BC704762
:10068000401C490008BF20F0010010BC704710B5A5
:10069000141E73F1000408DA401C41F100019218A5
:1006A0005B411A4301D120F0010010BD2DE9F04D4E
:1006B00092469B4611B1B1FA81F202E0B0FA80F2A3
:1006C00020329046FFF70FFE04460F4640EA0A002C
:1006D00041EA0B0153465A46084313D0114653EAE8
:1006E000010019D0C8F140025046FFF789FF0546C6
:1006F0000E46504659464246FFF7F5FD084305D0E1
:10070000012004E020463946BDE8F08D0020054375
:1007100046EAE0762C4337430A986305E40AA0EBE7
:1007200008000022FD0A44EA47540A3002D500209E
:100730000146E9E7010510196941DDE9084500199D
:100740006941BDE8F04DA2E72DE9F04D81EA0304CF
:1007500004F0004B21F0004514464FF0000A23F04E
:10076000004150EA050220D054EA01021DD0C5F331
:100770000A570246C5F31303C1F31300C1F30A5627
:1007800040F4801543F48013A7EB0608101BD646EF
:1007900008F2FD3873EB050002D308F1010801E00F
:1007A00092185B41B8F1000F03DA00200146BDE862
:1007B000F08D00204FF48011064684460EE0171B92
:1007C00073EB050705D3121B63EB050306434CEAE5
:1007D000010C49084FEA300092185B4150EA0107CA
:1007E000EDD152EA030012D082EA040083EA050147
:1007F000084305D0101BAB4106D20122002306E0BE
:1008000000224FF0004302E06FF0010253101AEB98
:1008100006004CEB085110EB0A0041EB0B01BDE860
:10082000F04DFFF734BF0EB5C10F80EAE070084409
:10083000CA07002140F233438DE80E000A460B46FA
:10084000FFF734FF03B000BD70B5C1F30A5201F0E9
:1008500000450024C1F3130140F2FF3341F480113D
:100860009A4201DA002070BD40F233439A42A2F26C
:10087000334203DC5242FFF7C3FE00E090402C43BA
:10088000F1D0404270BD0000064C074D06E0E06824
:1008900040F0010394E8070098471034AC42F6D3C7
:1008A000FFF776FC10EC000830EC00080EB540F2C3
:1008B000334102910021CDE900110A460B46FFF7B2
:1008C000F5FE03B000BD70B58C1810F8015B15F093
:1008D000070301D110F8013B2A1106D110F8012BB2
:1008E00003E010F8016B01F8016B5B1EF9D12B07D7
:1008F00005D40023521E0DD401F8013BFAE710F88D
:10090000013BCB1A921C03E013F8015B01F8015B79
:10091000521EF9D5A142D8D3002070BD10B5F6EE15
:10092000000A2DED088B044690ED350A90ED047A0F
:10093000D0ED053A20EE204AD0ED064A27EE230AF4
:10094000D0ED335A90ED346A90ED222A20EE240A3D
:10095000D0ED231AD0ED242A90ED253AD0ED077A78
:10096000D0ED086A90ED095AB5EEC00AF1EE10FA22
:100970007DD022EE020A01EEA10A02EEA20A03EEE7
:10098000030A08F03DFF22EE002A61EE801A62EEB3
:10099000802A23EE003A27EE070A03EEA30A04EEAC
:1009A000A40A08F02DFF27EE001A63EE803A64EEE9
:1009B000800A21EE830AB0EE00AA714802EE620AB4
:1009C00020EE0A7A22EE210A02EE830A20EE0A8A3B
:1009D00022EE020A01EEE10A02EEE20A03EE030A47
:1009E00063EE804A40EEC84A60EE870A41EE400A54
:1009F00021EE081A45EEA47A03EEC71AD0ED013AAB
:100A000045EEA06A44EE863A05EE815AF0EE425A6F
:100A1000C0ED013A90ED020A77EEA33A00EE860AA5
:100A2000F0EE610A60EEE31A80ED020A90ED037ABF
:100A300036EE800A01EE067AB0EE621A62EE232AE2
:100A400041EE401A80ED037A35EE076A41EE062A40
:100A500043EE461A43EE402A41EE845AF0EE601A05
:100A600042EE841AB0EE615A62EE001A00E083E0B2
:100A700040EEC61A22EE062AF0EE412A00EE802A47
:100A800043EE231A25EEA50A01EE632A41EE842ADD
:100A900005EE050A02EE043AF0EE624A04EEA40AFC
:100AA00003EE030A08F0ACFE25EE008A65EE80AA8C
:100AB00064EE808A23EE009A28EE0A0A2AEE8A1A49
:100AC000C4ED22AA04F18C0060EE099AB7EE000A88
:100AD00080EC038A41EE689A09EEE90AB5EEC00A95
:100AE000F1EE10FA02DBB1EEC0BA01E09FED25BADB
:100AF0006AEEAA0A28EE8A0A04F16000F0EE60BAF3
:100B000048EE480A20EE090A01EE080A48EEE80A13
:100B100049EE090A06F04AFF04F15C00F0EE4B0AC8
:100B2000B0EE690A06F042FFF0EE6B0A28EE280AE2
:100B300048EE080A04F158000AEE890A48EEE80A6D
:100B400020EE0A0A49EE490A06F030FFD4ED180AF1
:100B50009FED0D0A9FED0D1A60EE800AC4ED180A94
:100B6000D4ED170A60EE810AC4ED170AD4ED160A17
:100B700020EE800A84ED160ABDEC088B10BD000043
:100B80000C04002000000000DF2E6542DF2E65C24D
:100B9000FEE7000000B58BB0684600F063F86946D8
:100BA000054801F0DFF80221034801F05BF8024834
:100BB00001F0F0FB0BB000BD6C250020014801F0F6
:100BC000CCB900006C2500200A460146014800F01F
:100BD00083B800006C25002070B50C46054604F073
:100BE00097FC034822462946036CBDE8704018472D
:100BF000B003002000B58BB0684600F033F86946BA
:100C0000054801F0AFF80221034801F02BF8024833
:100C100001F0C0FB0BB000BD94250020014801F09D
:100C20009CB90000942500200A460146014800F0C6
:100C300053B800009425002070B50D46044604F01A
:100C40008FFC06482A462146036C984704482246F2
:100C50002946836BBDE8704020301847B003002060
:100C6000041A00200021016041608160C1600161BF
:100C700001224161C0E90612C0E908217047000065
:100C800010B5124A016891420DD1114B00211C464A
:100C9000A3F11C0201F0EDF80D4821461C38006854
:100CA000FFF79AFF10BD0B4A9142FBD1084B002180
:100CB00024331C46A3F11C0201F0DBF80448214652
:100CC00008300068FFF7B8FF10BD00000064004066
:100CD000681C00200068004038B50B46164C0168BF
:100CE000A14201D1154904E0154CA14222D113497A
:100CF00020310B6000238B60CB6008230B611388CD
:100D00001B0A0B7613784B7653881B0A8B769378E5
:100D1000CB7693881B0A0B7713794B77D3881B0A02
:100D20008B779279CA776B4601F1180200F0ACFF1D
:100D3000002800D0012038BD00640040941C002031
:100D400000680040BCEEC00A10EE101AC180704767
:100D500010F8341F491CC9B200F80819427A9142B0
:100D600002D90272012103E00178012901D1002199
:100D70000170704770B514460346302921D1124DD9
:100D800020886E4240BA00B2DFED0E0AB3EE0E0AC2
:100D90002A46314608F04AFD83ED040A6088FBEEDE
:100DA000040A40BA00B2B3EE040A2A46314608F0FB
:100DB0003DFD83ED050AA08840BA1883002083F822
:100DC000340070BD000000000083FFFF01888183B4
:100DD0000189C18341890184704741888184818868
:100DE000C184C1880185818941857047BCEEC00AF4
:100DF000024600B510EE100ABCEEE00A108010EEBC
:100E0000100ABCEEC10A508010EE100ABCEEE10AD6
:100E1000108110EE100A5081908920F0020040F0FD
:100E2000010090811046FFF7D1FF10465DF804EBFA
:100E3000FFF7D3BF7047000002798A4209D041789A
:100E4000022906D00021017102480121C269401C1B
:100E5000104770470400002042798A4208D0002AD7
:100E600006D00021417103480121C269801C10474E
:100E7000704700000400002082798A4208D0002ACE
:100E800006D00021817103480121C269C01C1047AE
:100E9000704700000400002002788A4200D00170F0
:100EA000704700000D4810B5017831B1017E0C4843
:100EB0000129026A0DD001210CE00A480021826F4D
:100EC000904709480021426C904708480021C26EB3
:100ED00001E002210248BDE810401047E001002077
:100EE0000400002038000020D00000203001002045
:100EF0002DE9F043464C06462DED028B83B0C178B8
:100F00006D4604F5FC7704F57C7804F5BD69E9B31A
:100F1000012941D1D4F8E01196ED0E0A2046884708
:100F2000BDEEC00A216A10EE100A25F81100D4F8AF
:100F3000D81396ED0F0A38468847BDEEC00AD4F89C
:100F4000181210EE100A25F81100D4F8D01596EDFD
:100F5000100A40468847BDEEC00AD4F8101410EEBF
:100F6000100A25F8110096ED110AD4F8C817484662
:100F70008847BDEEC00AD4F8081610EE100A25F80E
:100F800011006946304600F0DDF800E009E0D4F8D1
:100F9000D02169461E48904703B0BDEC028BBDE8E6
:100FA000F08301F00FFD716E401AB0F57A7FF3D235
:100FB000D4F8E0119FED178A1548B0EE480A88472B
:100FC000FDEEC00A216AB0EE480A10EE900A25F83C
:100FD0001100D4F8D81338468847FDEEC00AD4F87B
:100FE0001812B0EE480A10EE900A25F81100D4F855
:100FF000D01540468847FDEEC00AD4F81014B0EE74
:10100000480A10EE900A25F81100D4F8C817AEE788
:10101000580500200000000010B5044651B1012918
:1010200007D1E078002804D10120E07001F0CAFC6B
:10103000A06610BDE0780128FBD10020E07001F02F
:10104000C1FC606610BD80ED050A70472DE9F041D6
:1010500004462DED048B056E8078012863D004F1E1
:101060001C0080EC030A2846D4E90776FFF799FABA
:1010700041EC100B06F00CF8B0EE408AF0EE608AFE
:101080003046FFF78EFA53EC182BFFF718FA41ECB5
:10109000180B2846FFF785FA41EC100B05F094FF7A
:1010A000B0EE409AF0EE609A3846FFF77AFA53ECC9
:1010B000192BFFF704FA53EC182BFFF7FAF9FFF797
:1010C00083FAE0612846FFF76CFA41EC100B05F05B
:1010D0007BFFB0EE408AF0EE608A3046FFF761FA9F
:1010E00053EC182BFFF7EBF941EC180B2846FFF7F0
:1010F00058FA41EC100B05F0CBFFB0EE409AF0EE41
:10110000609A3846FFF74DFA53EC192BFFF7D7F9E1
:1011100053EC182BFFF72CF9FFF756FA2062BDECC1
:10112000048BBDE8F081B1EE400A84ED070AB1EE10
:10113000600A84ED080A84ED091A94E780ED0D0A2F
:1011400070470000334810B5B0F87020007800EE0A
:10115000102AB8EE400A18B92F4890F82C00E8B3CE
:101160004FF47A5010EE103A2C4A9FED2D1A93420C
:1011700001DDB0EE410A10EE103AC0EE010A294C32
:10118000A34201DA60EEA00A10EE103A00EE100A57
:101190009342B8EE400A01DA20EE800AB1F900204D
:1011A000002A00DC5242B1F90200002800DC404273
:1011B0000244B1F90400002800DC40420244B1F9C5
:1011C0000600002800DC4042104400EE900AF8EED1
:1011D000E00A80EE201AF4EEC00A00E017E0F1EE1B
:1011E00010FA13DB5FF0000031F9102000EE102A36
:1011F000B8EEC00A20EE010ABDEEC00A10EE102AB9
:1012000021F81020401CC0B20428EDD310BD4FF4CB
:10121000FA40A7E75C1A0020B003002000007042EB
:10122000000070420000C8411FB50446007858BB5A
:10123000D4ED070A94ED080A94ED091A70EE801AAD
:1012400030EEC00A71EEC11A30EE410ACDED001A3F
:101250008DED010A94ED080AD4ED070A30EE600A1C
:10126000D4ED090A30EE600A8DED020A94ED070A0A
:10127000D4ED080AB1EE400A30EE600AD4ED090A56
:1012800030EE600A8DED030A0421684604F03EFB4F
:1012900010EE100A194A694690424FF0000014DD22
:1012A00001EB800292ED001AC1EE000AC2ED000AC5
:1012B00094ED0D1A04EB8002401C60EE810AC0B26E
:1012C0000428C2ED0E0AEBD31FBDDFED0D0A00BFEF
:1012D00001EB800292ED001A81EE200A82ED000AF5
:1012E00094ED0D1A04EB8002401C20EE010AC0B2FE
:1012F000042882ED0E0AEBD31FBD00000000C84297
:101300000000C84270B54F4D04462DED028B002001
:10131000EA7D012152B195F80F223AB195F80724E0
:1013200022B195F8FF250AB1607000E06170B5F94F
:10133000E02700EE102AB8EEC00ADFED430A80EE87
:10134000201A9FED420A71EE401AF5EEC01AF1EE36
:1013500010FA02DDB0EE610A01E030EE410A3C4BCA
:10136000DFED3C0A10EE102A94ED050A9A4203DAEA
:10137000A17031EEC00A02E0A07031EE400A04F024
:101380002FFB84ED180AA068FFF70BF9D4ED0D0AC6
:1013900094ED011A41EC180B80EE810A9FED2E1A94
:1013A000C0EE010AB0EE000A20EE800A10EE100A2C
:1013B000FFF7F7F89FED291B53EC112BFFF77FF890
:1013C00053EC182BFFF77BF8FFF7FEF8A061B5F997
:1013D000020000EE100AB8EEC00A84ED120AB5F958
:1013E000FA0100EE900AB8EEE01A84ED131AB5F98E
:1013F000F20300EE900AF8EEE00AC4ED140A30EEB3
:10140000602AB5F9EA05B1EE400A01EE900A30EE25
:10141000600A32EE012AF8EEE11A70EE010A30EEAF
:10142000410A32EE612AC4ED151A70EEA10A30EEBF
:10143000610A84ED0A2AC4ED0B0A84ED0C0ABDECA6
:10144000028B70BD580500200000B44100003443F9
:101450000000B4420000B4430000704250455254B2
:10146000FB210940014801F023B80000C4280020F6
:10147000014801F01DB80000A42A0020014801F035
:1014800017B8000004280020014801F011B800003E
:10149000042B0020014801F00BB800006428002054
:1014A000014801F005B80000442A0020014800F07E
:1014B000FFBF000024290020014800F0F9BF000010
:1014C00084290020014800F0F3BF0000E429002037
:1014D0002DE9F04F85680024099E802D18D0894D94
:1014E000C563894D456490F83450012D15D0012510
:1014F00080F8345090F83550012D10D0002180F83C
:1015000034100224002180F834102046BDE8F08F0A
:101510004FF4807141650120F8E70220F6E70225CB
:1015200080F835500025456505682F6847F4802709
:101530002F6005682B6103685E608368402B036839
:101540002AD099600168CA60714D704E704FDFF803
:10155000BC81DFF8B891DFF8B8A1DFF8B4B1EA14C4
:10156000DFF8A8E10168183630379302A9F148097D
:101570000AF1600A0BF1180BAEF1300E4FF0006C5F
:1015800041452DD9A94205D0494503D0514501D047
:10159000B14205D1202220E09A600268D160D3E7F1
:1015A00059451AD0714518D0594D7835A94214D0F3
:1015B000564D3035A94210D0B9420BD0534A183A93
:1015C000914207D0524A9032914203D04F4A48325A
:1015D000914201D11A4600E062464C494C392EE056
:1015E000DFF82C8108F1A80841452AD9A94205D085
:1015F000494503D0514501D0B14201D120221CE020
:1016000059451AD0714518D0414D7835A94214D0AA
:101610003E4D3035A94210D0B9420BD03B4A183A62
:10162000914207D03A4A9032914203D0374A483229
:10163000914201D11A4600E06246344950390A60AD
:101640005AE0DFF8CC8008F1480841452AD9A94280
:1016500005D0494503D0514501D0B14201D12022E6
:101660001CE059451AD0714518D0294D7835A9424A
:1016700014D0264D3035A94210D0B9420BD0234AA0
:10168000183A914207D0224A9032914203D01F4A21
:101690004832914201D11A4600E062461C49103995
:1016A000CA6029E0A94205D0494503D0514501D07F
:1016B000B14201D120221CE059451AD0714518D001
:1016C000134D7835A94214D0104D3035A94210D0B1
:1016D000B9420BD00D4A183A914207D00C4A9032C9
:1016E000914203D0094A4832914201D11A4600E0A2
:1016F0006246074910398A6001680A6842F00102AF
:101700000A60FFE6B9880008D188000858640240E2
:101710001060024001681823CAB2103AB2FBF3F21B
:10172000054B6FF30901032A9B5CC36500D9091DB2
:101730008165084670470000A8EA000810B5014618
:1017400000208B698A6A4FF0C07453B1B3F5005F13
:1017500015D072B1012A0CD0022A0AD0032A09D16D
:1017600004E01AB1012A06D0022A03D1C96AC901CC
:1017700000D5012010BDC96AA142FAD010BD002ACF
:10178000F7D0012AF2D0022AF3D0032AF3D010BDF9
:1017900030B50468256825F48025256004686360F9
:1017A0008368402B036803D099600068C26030BD35
:1017B0009A600068C16030BD70B590F83450002464
:1017C000012D0CD0012580F8345090F835600025AB
:1017D000012E06D080F834500224204670BD02202D
:1017E00070BD022680F83560456505682E6826F4D0
:1017F00080262E6005686B608368402B036808D0E4
:1018000099600168CA600068016841F001010160E7
:10181000E3E79A600268D160F5E701680A68D206DA
:1018200004D5C968C90601D509F0D0BE7047704714
:10183000F0B5404890F84D100A2945D20122A0F891
:10184000A2200222A0F8A4200322A0F8A6200422AD
:10185000A0F8A8200522A0F8AA2040F2011706222D
:10186000A0F8AC207E1C0722A0F8AE20751C6C1CD2
:10187000A0F8B070A0F8B260631CA0F8B450A0F853
:10188000B6405A1CA0F8B830A0F8BA2001290CD0F4
:1018900002290DD003290ED004290FD0052910D01C
:1018A000062901D1A0F8BC20F0BDA0F8BC70F0BDA5
:1018B000A0F8BC60F0BDA0F8BC50F0BDA0F8BC40E2
:1018C000F0BDA0F8BC30F0BD6522A0F8A2206622D1
:1018D000A0F8A4206722A0F8A6206822A0F8A820DB
:1018E0006922A0F8AA2040F265176A22A0F8AC206D
:1018F0007E1C6B22A0F8AE20751C6C1CA0F8B0708A
:10190000A0F8B260631CA0F8B450A0F8B6405A1C0E
:10191000A0F8B830A0F8BA206529C6D06629C7D08B
:101920006729C8D06829C9D06929CAD06A29B9D01D
:10193000F0BD00005C1A00200EB590ED180AD0ED45
:101940001B0A9FED1E2A002130EE600A6A468DEDCB
:10195000000A90ED170AD0ED1A0A30EE600A8DEDFC
:10196000010A90ED160AD0ED190A30EE600A8DEDED
:10197000020A00BF02EB8103F0EE420A93ED000A77
:1019800007F057FC491CC9B283ED000A0329F1D3C3
:10199000DDED000A90ED350A80EE801A80ED1C1A0C
:1019A000DDED010A80EE801A80ED1D1ADDED020AE0
:1019B00080EE801A80ED1E1A0EBD00000000B443B8
:1019C00072B6FEE78279C1798A4202D000220260B3
:1019D0008171704710B558B1084C491E0BD310F8EF
:1019E000013B5340DBB234F8133083EA1222F4E7B0
:1019F0004FF6FF7010BD104610BD000004C800086F
:101A000010B5064C04E000BF10F8013B5340E25C07
:101A1000491E89B2F8D2104610BD000004C7000864
:101A2000F0B507462DED028B83B0274C40786D460C
:101A300004F5FC66F0B1012818D197ED0B0AD4F833
:101A40000018BDEEC00A10EE100A25F8110097ED3F
:101A50000A0AD4F8F819BDEEC00A10EE100A25F8EB
:101A60001100D4F8B02929463046904703B0BDECA8
:101A7000028BF0BD00F0A6FFF96B401AB0F57A7F3B
:101A8000F4D2D4F8C0199FED118A3046B0EE480A5E
:101A90008847FDEEC00AD4F80018B0EE480A10EEF0
:101AA000900A25F81100D4F8B81B09488847BDEE04
:101AB000C00AD4F8F81910EE100A25F8110069468A
:101AC000D4F8B029D0E7000058050020000000003D
:101AD000300F002071EE600A084930EE800A80EE77
:101AE000201ADFED050A21EE200A10EE100A8842C6
:101AF00001DD30EE600A70470000B4430000B443DB
:101B000010B5044651B1012907D16078002804D1ED
:101B10000120607000F056FF206410BD607801283D
:101B2000FBD10020607000F04DFFE06310BD0000AD
:101B3000D0ED010A9FED111A92ED000A71EE600AD4
:101B4000B4EEE00AF1EE10FA08D2D0ED020AB4EEDB
:101B5000E00AF1EE10FA01DD9FED090A82ED000ABC
:101B600091ED000A80ED0C0A92ED000A80ED0D0A5D
:101B700093ED000A80ED0E0A704700000000B443A8
:101B80000000000070B59FED130A134D80ED090AA7
:101B9000044690ED0D1AD0ED070A90ED040A05F603
:101BA0008C21D5F8BC3B0122A1F14400984784ED7B
:101BB0000A0A05F69401D5F8C43994ED0E1AD4ED4D
:101BC000080A94ED050A0122A1F14400984784ED2A
:101BD0000B0A70BD000000005805002000F10C0148
:101BE00000F12C02D1EC031A1C31243004F006B8A9
:101BF00030B5194B0121002293F8F74724B193F82F
:101C0000EF390BB1027000E00170144B93ED943A80
:101C1000B5EEC03AF1EE10FA01DCB1EE433A13EE44
:101C2000105A0F4CA54201DA817000E0827093EDEA
:101C3000163AB5EEC03AF1EE10FA01DCB1EE433AD5
:101C400013EE103AA34201DAC17000E0C2700C300A
:101C500080EC060A30BD000058050020580D002019
:101C60000000A04090F82020012A07D0022A05D0C9
:101C7000416A41F480214162012070470068426955
:101C80000A43426100207047F0B590F82050046884
:101C9000A468012D05D0022D03D0416A41F48021B2
:101CA0005DE014F0406F01D1E50055D5C4F3016447
:101CB000022C03D9416A41F4000150E00125A540FE
:101CC0001D608D684FF4C0739DB1CE6835434E687A
:101CD00045EAC605066803EB0417F5514FF4C275D3
:101CE000076805EB04150E697E51097D012905D0B1
:101CF00009E00E88CD6845EA4655EBE701684E5984
:101D000046F480764E511179D579567941EA0561CC
:101D100095792D0445EA062529434FF4C6760568D2
:101D200006EB0416A9511178D57841EA056195783A
:101D300052782D0445EA022211434FF4C47502681B
:101D400005EB04155151006803EB0411425842F0B1
:101D5000010242500020F0BD416A41F4001141628D
:101D60000120F0BD10B590F82020012A07D0022AEA
:101D700005D0416A41F480214162012010BD3B48F9
:101D8000D0F8002242F00102C0F80022D0F8002270
:101D900022F47C52C0F80022D0F800224B6A42EABA
:101DA0000322C0F800220A7D02F01F0301229A409C
:101DB000D0F81C329343C0F81C32CB69B3B9D0F8C9
:101DC0000C329343C0F80C328C894B6864F31F4388
:101DD0004C6900EBC404C4F840320C890B6864F30E
:101DE0001F434C6900EBC404C4F84432CB69012B97
:101DF00016D1D0F80C321343C0F80C320C884B6863
:101E000064F31F434C6900EBC404C4F840320C89EE
:101E1000CB6864F31F434C6900EBC404C4F844323C
:101E20008B69002BD0F804320ED01343C0F8043273
:101E30000B69002BD0F8143208D01343C0F81432C9
:101E4000096A012904D008E09343EFE79343F5E7DB
:101E5000D0F81C121143C0F81C12D0F8001221F067
:101E60000101C0F80012002010BD00000064004015
:101E7000704730B590F82040012C05D0022C03D0DB
:101E8000416A41F480215DE00468002955D024694D
:101E9000A40754D04FF4D874056804EB01142D59ED
:101EA00015F00405956005682D594ED0ED08556074
:101EB00005682C5904F00204D4604FF4DA74056804
:101EC00004EB01142D5905F00F05156105682D5916
:101ED000C5F30725956105682C59240C54614FF40E
:101EE000DC72046802EB0112A4581C700468A45848
:101EF000240A5C700468A458240C9C700468A258DE
:101F0000120EDA704FF4DE72046802EB0112A4586C
:101F10001C710468A458240A5C710468A458240C39
:101F20009C710468A258120EDA71006881B10169CF
:101F300041F020010161002030BDE468A8E7416A5A
:101F400041F400114162012030BD6D0D1560AFE715
:101F5000C16841F02001C160EDE72DE9F05F054661
:101F6000006800244669D0F804908768D0F80CB067
:101F7000D0F810A0D0F81880F10748D0F90714D095
:101F800001218160B80703D5284600F030FA0CE043
:101F9000780702D54FF4006407E0380702D54FF404
:101FA000805402E0284600F021FAF80516D5296889
:101FB0004FF480708860B80503D5284600F019FA00
:101FC0000CE0780502D544F4005407E0380502D54A
:101FD00044F4804402E0284600F00AFAF80316D5DB
:101FE00029684FF480308860B80303D5284600F094
:101FF00002FA0CE0780302D544F4004407E0380309
:1020000002D544F4803402E0284600F0F3F93007AA
:1020100007D55FEACB6004D52968102044F400742A
:10202000C86070074FF0080707D55FEA0B7004D54A
:102030002868C760284600F099F9B00706D52868D7
:10204000C068800702D0284600F092F9700607D5D4
:102050005FEACA6004D52968102044F480640861EE
:10206000B00607D55FEA0A7004D5286807612846DC
:1020700000F08CF9F00606D528680069800702D0C8
:10208000284600F084F9B00308D55FEAC96005D599
:10209000296810204860284600F07AF9F00307D537
:1020A0005FEA097004D528684760284600F0A4F963
:1020B000300446D55FEA497040D5F00504D55FEAA3
:1020C000C87001D044F00104B00504D55FEA8870FF
:1020D00001D544F00204700504D55FEA487001D5CB
:1020E00044F00404300529D518F0700F26D008F00C
:1020F0007000402815D006DC102809D020280AD00E
:10210000302816D10AE050280ED0602811D10EE0F8
:1021100044F008040DE044F010040AE044F0200408
:1021200007E044F0400404E044F0800401E044F49B
:1021300080742868816921F0700181612968042018
:102140004860002C05D0686A204368622846FFF783
:102150008FFEBDE8F09F70B5040003D094F8200016
:1021600010B104E0012070BD204600F081F8206825
:10217000016841F00101016000F024FC05460526DC
:1021800004E000F01FFC401B0A2811D820684068BA
:10219000C007F6D02068016821F00201016000F05C
:1021A00011FC05460BE000F00DFC401B0A2806D987
:1021B000606A40F40030606284F82060D2E72068F2
:1021C00040688007EFD4207E0128206801683DD058
:1021D00021F080010160607E01282068016838D00C
:1021E00021F040010160A07E01282068016833D001
:1021F00021F020010160E07E0128206801682ED0D6
:1022000041F010010160207F01282068016829D079
:1022100021F008010160607F01282068016824D056
:1022200021F004010160D4E902010843D4E9041259
:10223000114308436168491E08432168C8610020B2
:102240006062012084F82000002070BD41F0800110
:10225000C0E741F04001C5E741F02001CAE721F0A5
:102260001001CFE741F00801D4E741F00401D9E7BC
:10227000F0B587B0044614216846FEF76EF8364B79
:102280003648DFF8D0E01968D4F800C0334A032597
:102290000226092710300024491CF44522D1196078
:1022A000012907D1016841F000710160006800F068
:1022B00000700590106840F0080010601068CDE9CB
:1022C000005600F00800CDE9047069462448CDE9C5
:1022D000024500F071FA00220521142000F044FCB0
:1022E000142032E0DFF87CE0F44530D1D0F800C0B3
:1022F0004CF0806CC0F800C0D0F800C001290CF090
:10230000806CCDF814C0196007D1016841F00071EC
:102310000160006800F000700590106840F0020055
:102320001060106802AB00F0020005906020CDE95B
:10233000000683E8B00069460B4800F03DFA002231
:102340000521402000F010FC402000F0FFFB07B00A
:10235000F0BD000000640040C41B00203038024083
:10236000000C02400068004000040240704700007A
:10237000044A0168914202D0034A914201D1FEF71A
:102380007FBC7047006400400068004070477047A1
:102390007047000070B5044690F82000012804D072
:1023A000606A40F40020606218E0022084F8200097
:1023B0002068016821F00101016000F003FB05467F
:1023C0000EE000BF00F0FEFA401B0A2808D9606A40
:1023D00040F400306062052084F82000012070BDC8
:1023E00020684068C007EDD1606270BD70477047DB
:1023F000704770477047704770472DE9F0410446B9
:10240000876D00F0DFFA064694F8350000250228B3
:1024100006D08020606584F834500120BDE8F0814A
:102420002068016821F0160101602068416921F0EF
:1024300080014161206C08B9A06C20B1206801685E
:1024400021F0080101602068016821F001010160AC
:102450000CE000F0B7FA801B052807D92020606542
:10246000032084F8350084F83450D7E720680068EA
:10247000C007EED194F85C103F208840B86001207E
:1024800084F8350084F834500020C7E790F8351000
:10249000022903D08021416501207047052180F881
:1024A00035100068016821F00101016000207047CB
:1024B0002DE9F84304464FF00009CDF80090634839
:1024C0004FF41651A56D0068B0FBF1F72E6894F833
:1024D0005C10082000FA01F131420FD021680A682F
:1024E00052070BD50A6822F004020A6094F85C10C7
:1024F0008840A860606D40F00100606594F85C1051
:102500004FF0010808FA01F0304208D0216849690B
:10251000090604D5A860606D40F00200606594F87B
:102520005C1004208840304208D02168096889077F
:1025300004D5A860606D40F00400606594F85C10FC
:1025400010208840304218D021680968090714D546
:10255000A86020680168490304D50068000308D515
:10256000A16C07E00168C90503D4016821F00801E6
:102570000160216C09B12046884794F85C10202046
:102580008840304231D021680968C9062DD5A8603D
:1025900094F8350005282068016806D0490347D51E
:1025A000006800031DD4616C1CE021F0160101607D
:1025B0002068416921F080014161206C08B9A06C5C
:1025C00020B12068016821F00801016094F85C10D6
:1025D0003F208840A86084F8358084F83490216DCD
:1025E0001FE0E16B09B120468847606D00282BD0C1
:1025F000606DC00714D0052084F83500206801689C
:1026000021F0010101600098401C0090B84203D8FD
:1026100020680068C007F6D184F8358084F83490CB
:10262000E16C002910D001B02046BDE8F043084716
:102630000168C905D5D4016821F01001016084F852
:10264000358084F83490CCE7BDE8F883D41B0020B3
:102650002DE9F041044600F0B5F906465CB10220D0
:1026600084F83500002584F834502068016821F092
:10267000010101600DE00120BDE8F08100F0A2F948
:10268000801B052805D920206065032084F83500CB
:10269000F2E720680068C007F0D12268116820487E
:1026A0000140D4E901031843D4E903363343184306
:1026B00063691843A3691843E3691843236A1843FD
:1026C0000843616A042903D1D4E90B131943084371
:1026D000106020684069666A20F0070130460E43AA
:1026E000012704280CD1A06A0643E06A40B12046C5
:1026F000FFF724F820B14020606584F83570BAE710
:10270000206846612046FFF705F894F85C203F21D9
:1027100091408160656584F835700020ACE7000069
:102720003F8010F02DE9F0410446866D90F83400AA
:10273000002501280DD0012084F8340094F835706C
:102740000020012F07D084F8340002252846BDE878
:10275000F0810220FBE7022784F83570606520468F
:10276000FFF716F894F85C103F208840B0602068AE
:10277000016841F016010160206C20B120680168F9
:1027800041F0080101602068016841F00101016029
:10279000DCE7000070B5044600F014F90546601C43
:1027A00002D004480078044400F00CF9401BA04219
:1027B000FAD370BDC81B00202DE9F84FDFF8BCA18B
:1027C0000022012503264FF00F090AF1040BAAF19C
:1027D000040E00BF0B6805FA02F42340A34270D137
:1027E0000F7907F00307012F01D0022F16D1876858
:1027F0004FEA420806FA08FC27EA0C07D1F80CC099
:102800000CFA08FC4CEA070CC0F808C04768A7435C
:102810000C79C4F3001494403C4344600C79E443C5
:10282000A4070AD0C4684FEA420C06FA0CF7BC436E
:102830008F6807FA0CF72743C7600C7904F003048C
:10284000022C12D1D40800EB840CDCF8204057078E
:10285000FF0E09FA07F824EA0804D1F8108008FAF4
:1028600007F848EA0408CCF8208004684FEA420CD4
:1028700006FA0CF7BC430F7907F0030707FA0CF7C9
:10288000274307604C6814F4403F70D03C4C2768E5
:1028900047F480472760246822F0030704F480444B
:1028A0000094384C07EB040CDCF8084897074FEA13
:1028B000177809FA08F7BC43334FB84202D1002712
:1028C00024E054E0314FB84201D101271EE0304FDF
:1028D000B84201D1022719E02E4FB84201D1032797
:1028E00014E02D4FB84201D104270FE02B4FB8421E
:1028F00001D105270AE02A4FB84201D1062705E099
:10290000284FB84201D1072700E0082707FA08F747
:102910002743CCF80878DAF800405746D1F804C0CD
:102920009C435FEACC2C00D51C433C60DBF80040A4
:102930005F46D1F804C09C435FEA8C2C00D51C4351
:102940003C60DEF800407746D1F804C09C435FEA63
:102950008C3C00D51C433C60084F083F3C68D1F8D4
:1029600004C09C435FEACC3C00D51C433C60521C35
:10297000102AFFF42FAFBDE8F88F0000083C01409B
:102980004438024000300140000002400004024090
:1029900000080240000C02400010024000140240F7
:1029A00000180240001C0240426921EA02030A406A
:1029B00043EA0241816170470AB1816170470904AD
:1029C000FBE700000148806870470000C81B00203A
:1029D00070B5040011D021684CF6CC400860216825
:1029E00045F255500860D4E9000141602168A068B3
:1029F0008860FFF7E7FF05460DE0012070BD00BFCE
:102A0000FFF7E0FF401B312805D92068C068800728
:102A100001D0032070BD2068C0688007F0D1216814
:102A20004AF6AA200860002070BD00684AF6AA2174
:102A3000016000207047000002488168027811445C
:102A400081607047C81B00200B4810B5016841F435
:102A500000710160016841F480610160016841F426
:102A600080710160032000F09FF80F2000F006F84D
:102A700000F050F8002010BD003C024030B5054683
:102A8000204887B00024016841F00101016000681E
:102A900006A900F00100009001A800F031F90498A7
:102AA000B0B100F04DF9400017494FF08042B0FB43
:102AB000F1F11648491E026040F2E732C0E90324F2
:102AC000C0E90114846100F09DFE040003D015E00C
:102AD00000F036F9E8E70D4800F0EEFE04000DD1F5
:102AE0001C2000F033F8102D07D2002229461C20AC
:102AF00000F03AF80648056000E0012407B02046DF
:102B000030BD00004038024040420F00642B0020DE
:102B1000CC1B00200C4882B0016841F48041016068
:102B2000006800F4804000900748001F016841F0F1
:102B3000805101600068002200F0805000900F2159
:102B4000901E02B000F010B844380240002809DBA3
:102B500000F01F02012191404009800000F1E020B7
:102B6000C0F8001170470000F0B40E4B1B680C4613
:102B7000C3F30223C3F10705042D00D90425191D51
:102B8000072901D2002300E0DB1E012606FA05F129
:102B9000491E214099409E40761E16403143F0BCAC
:102BA00004F001BA0CED00E0064900F007020868E5
:102BB0004FF6FF03184040EA0220034A1043086022
:102BC000704700000CED00E00000FA052DE9F04729
:102BD0000E46050065D0DFF81481D8F80000F7B282
:102BE00000F00700B04207D288F80070D8F8000063
:102BF00000F00700B04254D128683D4C810712D53F
:102C0000400703D5206840F4E05020602878000792
:102C100003D5206840F4604020602068A96820F057
:102C2000F000084320602878C0072DD0304968683C
:102C30000839012812D0022813D0032811D00968BE
:102C4000890700292DDA216821F003010143216061
:102C5000FFF7B8FE814641F2883A0EE00968890321
:102C6000EFE709688901ECE7FFF7ACFEA0EB09018B
:102C7000514502D90320BDE8F0872068696800F05B
:102C80000C00B0EB810FEFD1D8F80010404601F0F6
:102C90000701B14207D90770006800F00700B04291
:102CA00001D00120E7E72878400705D52068E968CA
:102CB00020F4E050084320602878000706D52068FB
:102CC000296920F4604040EAC100206000F058F813
:102CD0002168084AC1F30311515CC84006490860E5
:102CE00006480068FFF7CAFE0020C4E7003C024027
:102CF00008380240B0EA0008D41B0020CC1B00209A
:102D00000F2202600C4A136803F003034360136848
:102D100003F0F0038360136803F4E053C3601268A8
:102D20004FF4E05303EAD20202610448006800F065
:102D3000070008607047000008380240003C02406D
:102D40000448054900680968044AC1F38221515CBE
:102D5000C8407047D41B002008380240C0EA000871
:102D60000448054900680968044AC1F34231515CCE
:102D7000C8407047D41B002008380240C0EA000851
:102D8000154810B5006810F00C02144813D014490F
:102D9000042A0FD0082A0ED10F4C241F2268236862
:102DA00002F03F025B0207D52068C0F38810A0FB49
:102DB000010106E0084610BD2168C1F38811A1FB9E
:102DC00000010023FDF75EFA2168C1F30141491CAF
:102DD0004900B0FBF1F010BD083802400024F400B7
:102DE00040787D012DE9F84F04006ED02078DFF89F
:102DF0004C93C007A9F104054AD009F10400016809
:102E0000C1F38101012908D00068C0F381000228C4
:102E10000AD1D9F80000400206D52868800337D5CA
:102E200060680028E1D033E06068B0F5803F10D0E2
:102E3000B0F5A02F286810D020F4803028602868D2
:102E400020F4802028606068A8B1FFF7BBFD06462B
:102E50000DE0286840F48030F4E740F480202860DA
:102E6000F7E700BFFFF7AEFD801B642873D8286822
:102E70008003F7D50CE0FFF7A5FD064605E000BF8F
:102E8000FFF7A0FD801B6428F0D828688003F7D4E2
:102E90002078DFF8AC8280074FF0000A3ED5A748C3
:102EA000001D016811F00C0F08D00068C0F381000C
:102EB00002280BD1D9F80000400207D42868800707
:102EC00016D5E068012800D112E033E1E068B8B11E
:102ED0000120C8F80000FFF775FD064605E000BFB9
:102EE000FFF770FD801B0228C0D828688007F7D53F
:102EF0002868216920F0F80040EAC10028600DE050
:102F0000C8F800A0FFF75EFD064604E0FFF75AFD93
:102F1000801B02281FD828688007F7D42078000774
:102F200022D5864F87486169703771B101210160F0
:102F3000FFF748FD064604E0FFF744FD801B02282A
:102F400009D838688007F7D50EE0C0F800A0FFF771
:102F500039FD064605E082E0FFF734FD801B0228BC
:102F60007DD838688007F7D42078400768D5DFF827
:102F7000CCB100270BF13C0BDBF80000C0000BD4F8
:102F8000DBF8001041F08051CBF80010DBF80000B6
:102F9000012700F0805000906B4E3068C00510D4BF
:102FA000306840F480703060FFF70CFD009005E061
:102FB000FFF708FD0099401A022850D83068C00574
:102FC000F6D55E4EA0686C3601280FD00528306813
:102FD00010D020F001003060306820F00400306034
:102FE000A068B8B1FFF7EEFC00900FE0306840F049
:102FF0000100F4E740F004003060F7E7FFF7E2FC7F
:103000000099411A41F28830814266D830688007C1
:10301000F4D50EE0FFF7D6FC009007E0FFF7D2FCF6
:103020000099411A41F28830814256D830688007B1
:10303000F4D42FB1DBF8001021F08051CBF8001050
:10304000A069C8B33D49091D0968C1F3810102297E
:103050004AD00228504607D0C8F8600000E03CE0A3
:10306000FFF7B0FC04463BE04746C8F86000FFF7B6
:10307000A9FC064605E000BFFFF7A4FC801B022860
:103080002BD828688001F7D4D4E907010843A16A46
:103090002E4A490802EB0141626A41EA8211084363
:1030A00094F82C1040EA0161C9F80010012038663C
:1030B000FFF788FC044606E03EE000BFFFF782FC15
:1030C000001B022809D828688001F7D534E000BF2A
:1030D000FFF778FC001B022802D90320BDE8F88F17
:1030E00028688001F4D427E00128F7D0D9F800003F
:1030F000E26900F4800191421CD1226A00F03F0194
:10310000914217D147F6C071626A0140B1EB821F4C
:1031100010D1A26A4FF0FF3300F4403103EB5202AA
:10312000B1EB024F06D194F82C1000F07060B0EBB8
:10313000016F01D00120D1E70020CFE70438024021
:1031400000004742800E4742007000400000FFFF31
:1031500070B5040009D0606A002540B12561656141
:10316000A56294F8510040B10CE0012070BD606888
:10317000B0F5827FF4D0E561F2E784F85050204644
:1031800000F044F8022084F851002068016821F022
:1031900040010160A088218900F4827001F404419B
:1031A0000843A18901F400610843217C01F0020178
:1031B0000843217D01F001010843218B01F40071D6
:1031C0000843217F01F03801084394F8201001F0F2
:1031D00080010843218D01F40051084321680860F3
:1031E000A069042101EA104094F8241001F01001B4
:1031F0000843216848602068C16921F40061C16109
:103200006565012084F85100002070BD10B586B0BE
:10321000044614216846FDF7A0F814492068884246
:1032200021D113480021026842F480420260006804
:1032300000F4804005900E481038026842F0020207
:103240000260006800F0020005904FF460400090BA
:103250000220CDE901010320039005200490694676
:103260000448FFF7A9FA06B010BD0000003800407E
:1032700040380240000402402DE9F84F04464068FF
:103280000025984616460F464FF0040BB0F5827F96
:1032900001D1A06888B194F85000012818D001200D
:1032A00084F85000FFF78EFB814694F851004FF0F0
:1032B000000A01280ED0022582E084F851B013469E
:1032C0000A462046CDF8008000F036F9BDE8F88FB8
:1032D0000220FBE7002F72D0002E70D084F851B08E
:1032E000C4F854A0A763A687E687C4F830A0A4F862
:1032F00034A0A4F836A0C4F840A0C4F844A0A06844
:10330000B0F5004F09D12068016821F0400101604B
:103310002068016821F48041016020680168490645
:1033200003D4016841F040010160E068D8B139E0A0
:1033300020688168C90709D0007BA16B0870A06B69
:10334000401CA063E08F401EE0870CE0FFF73AFBD3
:10335000A0EB0901414503D3B8F1FF3F03D036E0AC
:10336000B8F1000F33D0E08F0028E1D11DE02068D4
:103370008168C90709D0C068A16B0880A06B801C58
:10338000A063E08F401EE0870CE0FFF71BFBA0EB83
:103390000901414503D3B8F1FF3F03D017E0B8F16D
:1033A000000F14D0E08F0028E1D14A464146204664
:1033B00002F0A6FF08B120206065606D00B1012514
:1033C000012084F8510084F850A028467EE70325A8
:1033D000F6E72DE9F84F044690F8500000271D4607
:1033E0001646894601280DD04FF0010B84F850B0E5
:1033F000FFF7E8FA804694F85100BA46012804D055
:10340000022793E00220BDE8F88FB9F1000F73D0D6
:10341000002E71D0032084F85100C4F854A0C4F8E1
:103420003090A686E686C4F838A0A4F83CA0A4F89C
:103430003EA0C4F844A0C4F840A0A068B0F5004F76
:1034400009D12068016821F040010160206801680D
:1034500041F48041016020680168490603D4016895
:1034600041F040010160E068B0F5006F606803D092
:1034700030B3012E24D041E008B1012E1CD1206BC5
:1034800021680088C86006E020688168890709D53E
:10349000216B0988C160206B801C2063E08E401E78
:1034A000E08609E0FFF78EFAA0EB0800A84202D3FD
:1034B000681C01D031E07DB3E08E0028E4D120E02B
:1034C000206B21680078087306E02068816889070E
:1034D00009D5216B09780173206B401C2063E08EB5
:1034E000401EE0860AE0FFF76DFAA0EB0800A84254
:1034F00003D3681C02D010E017E06DB1E08E002805
:10350000E3D142462946204602F028FF08B1202098
:103510006065A06818B106E0FFE7032706E02068B1
:10352000C16880680090606D00B1012784F851B0D7
:1035300084F850A0384666E72DE9F84F044690F825
:10354000500000270A9E1D4692468B464FF0010907
:1035500001280ED0012084F85000FFF733FA80468E
:1035600094F85100616801280CD0B1F5827F07D131
:1035700002E00220BDE8F88FA16809B9042801D053
:103580000227C2E0BBF1000F27D0BAF1000F24D010
:103590001DB394F85100042802D0052084F851008E
:1035A00000206065C4F838A0E587A587C4F830B06E
:1035B000E586A5862064606420680168490603D416
:1035C000016841F040010160E068B0F5006F60689B
:1035D00005D0E8B3012D46D07FE0012795E008B182
:1035E000012D39D1206B21680088C860206B801CB8
:1035F0002063E08E401EE0862EE020688168890707
:103600000FD5E18E69B1B9F1010F0AD1216B09889B
:10361000C160206B801C2063E08E401EE0864FF06E
:10362000000920688168C9070CD0E18F51B1C068DA
:10363000A16B0880A06B801CA063E08F401EE08718
:103640004FF00109FFF7BEF9A0EB0800B04200E01F
:1036500009E001D3701C50D1E08E0028CDD1E08F5D
:103660000028CAD13FE0206B216800780873206BE6
:10367000401C2063E08E401EE0862EE020688168BA
:1036800089070FD5E18E69B1B9F1010F0AD1216B1C
:1036900009780173206B401C2063E08E401EE08699
:1036A0004FF0000920688168C9070CD0E18F51B143
:1036B000C068A16B0870A06B401CA063E08F401E27
:1036C000E0874FF00109FFF77DF9A0EB0800B04259
:1036D00002D3701C01D010E07EB1E08E0028CDD165
:1036E000E08F0028CAD142463146204602F036FE1D
:1036F00028B101272020606507E0032705E0A068C6
:1037000018B92068C16880680090012084F85100D1
:10371000002084F8500038462CE77047704710B5F9
:1037200090F83C20012A22D0012280F83C20CA686F
:103730008C6822F4407222434C6822F48062224357
:103740000C6822F4006222430C6922F48052224366
:103750004C6922F400522243C969002322F48042BA
:103760000A4301684A6480F83C30002010BD022002
:1037700010BD000070B590F83C20012A32D0012421
:1037800080F83C40022280F83D2003685A689D681A
:1037900022F070060A6832435A60134B02689A425C
:1037A00014D0B2F1804F11D0104B9A420ED0104B72
:1037B0009A420BD00F4B9A4208D00F4B9A4205D039
:1037C0000E4B9A4202D00E4B9A4204D1496825F022
:1037D00080031943916080F83D40002180F83C103F
:1037E000084670BD022070BD00000140000400408A
:1037F00000080040000C004000040140004001406F
:103800000018004010B5040003D094F83D0010B13A
:1038100007E0012010BD002084F83C00204600F0A5
:103820001FF8022084F83D00211D206802F088FF67
:10383000012084F8460084F83E0084F83F0084F8B4
:10384000400084F8410084F8420084F8430084F882
:10385000440084F8450084F83D00002010BD0000BD
:1038600008B500681149884209D11148016841F042
:1038700001010160006800F00100009008BD0D49E1
:103880008842FBD10A48001F016841F00401016031
:103890000068002200F00400009005211E20FFF7C0
:1038A00063F9BDE808401E20FFF750B90000014051
:1038B000443802400008004090F83D10012901D032
:1038C00001207047022180F83D100168CA6842F06B
:1038D0000102CA6000681149884214D0B0F1804FDB
:1038E00011D00F4988420ED00E4988420BD00E49A4
:1038F000884208D00D49884205D00D49884202D03F
:103900000C49884204D1816801F00701062903D0DF
:10391000016841F001010160002070470000014092
:103920000004004000080040000C0040000401407A
:10393000004001400018004070B5044690F83C007B
:103940000025012817D0012684F83C60022084F865
:103950003D002068826822F0770222F47F42826074
:103960000868502838D00DDC20284FD005DC90B3F3
:10397000102811D14AE0022070BD302846D04028DE
:103980000AD13BE060282FD070280DD0B0F5805FC1
:1039900003D0B0F5005F12D0012584F83D6000200F
:1039A00084F83C00284670BDCB68D1E9012120682D
:1039B00002F037FF2068816841F0770109E0CB68A9
:1039C000D1E90121206802F02CFF2068816841F4D0
:1039D00080418160E1E719E0CA684968206802F027
:1039E000F5FF5021206806E0CA684968206802F0A7
:1039F000FEFF6021206802F01EFFCEE7CA6849681A
:103A0000206802F0E3FF40212068F4E722680146C5
:103A10001046F0E7704770B50446006801694FF042
:103A20000005C943890715D4C168C943890711D462
:103A3000E91E016101202077206880698007204607
:103A400002D0FFF7E7FF04E000F0C2F8204600F0E4
:103A500054F9257720680169C943490717D4C1681B
:103A6000C943490713D46FF0040101610220207794
:103A70002068806910F4407F204602D0FFF7CAFF1B
:103A800004E000F0A5F8204600F037F9257720681B
:103A90000169C943090716D4C168C943090712D48B
:103AA0006FF008010161042020772068C069800759
:103AB000204602D0FFF7AEFF04E000F089F8204670
:103AC00000F01BF9257720680169C943C90617D49E
:103AD000C168C943C90613D46FF010010161082001
:103AE00020772068C06910F4407F204602D0FFF79D
:103AF00091FF04E000F06CF8204600F0FEF8257716
:103B000020680169C943C90708D1C168C943C90709
:103B100004D1891E0161204600F092F920680169F4
:103B2000C943090609D4C168C943090605D46FF021
:103B3000800101612046FFF7F0FD20680169C9435B
:103B4000490609D4C168C943490605D46FF040014C
:103B50000161204600F07BF920680169C9438906AC
:103B60000BD4C168C943890607D46FF020010161F5
:103B70002046BDE87040FFF7D1BD70BD10B586B0DE
:103B8000044614216846FCF7E8FB0E492068884289
:103B900016D10D480021026842F00102026000685F
:103BA00000F0010005904FF4807000900220CDE9F4
:103BB00001010120CDE9031069460448FEF7FCFD30
:103BC00006B010BD00000140303802400000024045
:103BD000704770B5044690F83C0000260D46012859
:103BE0000FD0012084F83C006AB1042A1DD0082AB5
:103BF0002FD00C2A3FD00126002084F83C0030460C
:103C000070BD022070BD206802F01EFE2068816930
:103C100041F0080181612068816921F0040181611E
:103C2000206881692A69114311E0206802F03CFE96
:103C30002068816941F4006181612068816921F413
:103C400080618161206881692A6941EA022181617C
:103C5000D2E7206802F05EFE2068C16941F00801E9
:103C6000C1612068C16921F00401C1612068C16996
:103C70002A69114311E0206802F080FE2068C169C2
:103C800041F40061C1612068C16921F48061C161B2
:103C90002068C1692A6941EA0221C161ACE710B517
:103CA000040003D094F83D0010B107E0012010BDDE
:103CB000002084F83C00204600F01EF8022084F822
:103CC0003D00211D206802F03BFD012084F84600E4
:103CD00084F83E0084F83F0084F8400084F84100F6
:103CE00084F8420084F8430084F8440084F84500D6
:103CF00084F83D00002010BD7047704710B50446A1
:103D0000022249B104290ED0082913D094F84100A9
:103D1000012816D0012010BD94F83E000128F9D1E9
:103D200084F83E200FE094F83F000128F2D184F897
:103D30003F2008E094F840000128EBD184F84020AF
:103D400001E084F841200122206802F05DFD16495F
:103D50002068164A884201D0904203D1436C43F454
:103D6000004343642068884213D0B0F1804F10D0E4
:103D70000F4988420DD00F4988420AD00E49884227
:103D800007D0904205D00D49884202D00C498842A4
:103D900004D1816801F00701062903D0016841F0D0
:103DA00001010160002010BD00000140000401403D
:103DB0000004004000080040000C004000400140AA
:103DC0000018004030B504460D460068002202F09D
:103DD0001BFD194B41F2111120688A10984202D044
:103DE000164B984209D1036A0B4206D1036A13426B
:103DF00003D1436C23F4004343642068036A0B42FD
:103E000006D1016A114203D1016821F0010101606C
:103E100001203DB1042D08D0082D09D084F84100BF
:103E2000002030BD84F83E00FAE784F83F00F7E751
:103E300084F84000F4E70000000001400004014065
:103E40000068B0F1804F01D1FEF7F6BD70477047B2
:103E500070477047F8B5016804460868CA684B693E
:103E600010F00F0F4FF0000559D003F0010602F4D7
:103E70009077374365D0C10705D0D10503D5216CB4
:103E800041F001012164410705D5D90703D0216C18
:103E900041F002012164810705D5D90703D0216CC7
:103EA00041F004012164010707D502F020013143EC
:103EB00003D0216C41F008012164216C00293AD023
:103EC000800604D5900602D5204602F043FE206805
:103ED0004069216CC0F38010090700D460B320460C
:103EE00002F003FE20684069400621D520681430A6
:103EF00050E8001F21F0400140E80012002AF5D1EF
:103F0000A06BA8B16C490165A06BFEF7BFFA002851
:103F100011D0A06B016D01B0BDE8F04008478306E9
:103F20000FD593060DD52046BDE8F84002F012BE2D
:103F30002046FFF78EFFF8BD2046FFF78AFF256475
:103F4000F8BD266B2023012E79D1C60677D5D6067B
:103F500075D50868486800904869400640D5A16B4F
:103F6000086840680004000CEAD0A28D8242E7D9BC
:103F7000E085C869B0F5807F2DD020680C3050E80E
:103F8000001F21F4807140E80012002AF5D120685A
:103F9000143050E8001F21F0010140E80012002A0F
:103FA000F5D12068143050E8001F21F0400140E8AE
:103FB0000012002AF5D184F83E30256320680C30C9
:103FC00050E8001F21F0100140E80012002AF5D14E
:103FD000A06BFEF712FAA08DE18D401A81B229E0A4
:103FE000A08DE18D401A81B2E08D0028A8D0002973
:103FF000A6D020680C3050E8002F22F4907240E8E0
:104000000026002EF5D12068143050E8002F22F051
:10401000010240E80026002EF5D184F83E302563E9
:1040200020680C3050E8002F22F0100240E80023F6
:10403000002BF5D12046FFF70BFFF8BDFFE7050683
:104040002BD5150629D594F83D002128F5D1A06877
:10405000B0F5805F01D12069B0B1206A411C2162B6
:10406000216800784860E08C401E0004000CE08469
:10407000E3D12068C16821F08001C1602068C16877
:1040800041F04001C160D8E7206A0088C0F3080011
:104090004860206A801C2062E5E74006CDD55006C6
:1040A000CBD5CA68204622F04002CA6084F83D3071
:1040B00000F080FAC1E70000456A000870B504000E
:1040C00004D094F83D00002510B106E0012070BD39
:1040D00084F83C50204600F023F8242084F83D006A
:1040E0002068C16821F40051C160204602F0BAFD89
:1040F0002068016921F4904101612068416921F043
:104100002A0141612068C16841F40051C160256401
:10411000202084F83D0084F83E00002070BD00009F
:104120002DE9F04F87B0044614216846FCF715F9D5
:10413000EE48DFF8B48310380222D4F800C0EB4B0D
:1041400003210026970605154FF0080E4FF48079DD
:104150004FF0400B4FF4003AC44552D1D3F800C0A1
:10416000B0464CF4002CC3F800C01B6803F40023D5
:104170000593036843F001030360006800F0010049
:1041800005908DE84600CDE9031E6946D848FEF744
:1041900013FBD948D749574601604905C0E90116C4
:1041A000C0E903654661C0E90669C0E908A6FEF7F3
:1041B0004FFA08B1FDF704FCCF48A063CE4E8463EC
:1041C000CC486036303030604FF00060C6E9010BFB
:1041D000C6E90385C6F81480C6F81880C6E90787C3
:1041E0003046C6F82480FEF733FA08B1FDF7E8FB45
:1041F0006663002205213420B463FEF7B5FC342049
:104200006CE0DFF8F882C4456DD1D3F800C0002619
:104210004CF4801CC3F800C01B6803F480130593A2
:10422000036843F004030360036803F00403059389
:10423000036843F0080303600068884600F0080044
:1042400005904FF48050009001AA022082E84101BD
:10425000082004906946AA48FEF7AEFA04200090B0
:1042600001AA022082E84101082004906946A5487D
:10427000FEF7A2FAA0489F49C03030390160C0E97A
:104280000176C0E903654661C0E90669C0E908A690
:10429000B8465746FEF7DCF908B1FDF791FB9648A2
:1042A000994EC030A06384639248783086E8010953
:1042B0000020C6E903057061B061C6E907077062B6
:1042C0003046FEF7C5F908B1FDF77AFB66630022B8
:1042D00005213520B463FEF747FC3520FEF736FC98
:1042E00007B0BDE8F08FDFF824824FF0070EC44519
:1042F00055D17E4B00261B1DD3F800C04CF0100C8E
:10430000C3F800C01B6803F010030593036843F073
:10431000010303600068CDE9026100F0010005902F
:104320004FF4C060CDE90002CDF810E06946704856
:10433000FEF742FA744876496030B8460160C0E939
:104340000176C0E903654661C0E90669C0E908A6CF
:104350005746FEF77DF908B1FDF732FB6A486A4E11
:104360006030A06384636A48C036783086E801090B
:104370000020C6E903057061B061C6E907077062F5
:104380003046FEF765F908B1FDF71AFB66630022B7
:1043900005212520B463FEF7E7FB25209EE7DFF823
:1043A0007481C4453DD1D3F800C04CF4003CC3F83F
:1043B00000C01B6803F400330593036843F0010356
:1043C00003600068CDE9026100F0010005900C2057
:1043D000CDE90002CDF810E069464548FEF7ECF95A
:1043E000DFF8348143494046483102C0E0E80276B4
:1043F000E0E8036540F8046C80E840064046C8F8F1
:104400002460FEF725F908B1FDF7DAFAC4F8388020
:10441000002205212620C8F83840FEF7A5FB2620FB
:104420005CE7DFF8F880C4457FF45AAFD3F800C0EA
:10443000B0464CF4802CC3F800C01B6803F4802302
:104440000593036843F0020303600068CDE902614D
:1044500000F0020005904FF44060CDE90002CDF875
:1044600010E069462E48FEF7A7F9DFF8ACA0214915
:104470000AF1600A18395046CAF80010C0E90176FE
:10448000C0E90365CAF81460C0E90669CAF820608B
:10449000CAF82460FEF7DCF808B1FDF791FA1E4E69
:1044A0001448C4F838A0C0361830CAF8384086E836
:1044B0008108C6E90385C6F81480C6F81880C6F8D6
:1044C0001C80C6F820803046C6F82480FEF7C0F86D
:1044D00008B1FDF775FA6663002205212720B46351
:1044E000FEF742FB2720F9E6004C0040403802402E
:1044F00000000240406002400428002000500040BC
:1045000000080240000C0240242900200010014055
:104510004064024000440040442A0020004800401B
:10452000000402407047000070B5044690F83D005A
:10453000202836D191B38AB394F83C00012830D0BA
:10454000012084F83C002162A284E28400252564D5
:10455000212084F83D00636B1348D863636B1348D4
:104560001864636B1248D864606B1346056526684F
:10457000606B321DFEF7D6F821686FF040000860CE
:1045800084F83C502068143050E8001F41F080014E
:1045900040E80012002AF5D1002070BDFFE701209D
:1045A000FBE70220F9E700009F6A0008E16A0008C3
:1045B000556A000870477047FEE7000070B50D4C63
:1045C0000025C4F8B4520C48016821F04041016054
:1045D000016841F080410160C4F8BC52022004F53A
:1045E0002D7404F05DF901202060022004F058F9D8
:1045F000256070BD00804042000402402DE9F0417A
:1046000086B014216846FBF7A8FE1D480025016806
:1046100041F0020101600068012200F00200194F20
:104620001603059031463846FEF7C6F94FF4804828
:10463000012241463846FEF7BFF94FF420400124DD
:104640008DE831000325694638460395FEF7B4F836
:104650004FF4A040CDE9000469463846CDE9024553
:10466000FEF7AAF8012231463846FEF7A5F90122E5
:1046700041463846FEF7A0F906B0BDE8F0810000DB
:10468000303802400004024070B50D4C0025C4F8DB
:10469000B4520C48016821F040410160016841F0CA
:1046A000804101600126C4F8BC62022004F52D742B
:1046B00004F0F6F82660022004F0F2F8256070BDE0
:1046C00000804042000402402DE9F0478146164830
:1046D0000024016821F04041016001680160134E2F
:1046E000254627464FF00108C6F8B472022004F0B0
:1046F000D7F8C6F8B4826006040ED6F83C0208B1BA
:10470000641CE4B2012004F0CBF86D1CEDB2082D5E
:10471000EAD3B9F1000F04D0FFF750FF2046BDE8FF
:10472000F087FFF7B1FFF9E7000402400080404244
:1047300070B516460D46044600F050F8D22000F041
:104740001DF800F08DF8204600F018F800F088F809
:1047500000F044F8D32000F011F800F081F80024B4
:1047600006E00120FFF7B0FF641C05F8010BE4B27E
:10477000B442F6D3BDE8704000F050B82DE9F041E6
:1047800006461448016821F040410160016841F08B
:1047900080410160104C0027C4F8B4723D464FF0D0
:1047A0000108F009C4F8BC027006060E022004F0ED
:1047B00077F8C4F8B482022004F072F8C4F8B47236
:1047C000022004F06DF86D1CEDB2082DE9D3BDE8B0
:1047D000F0810000000402400080404270B50D48A6
:1047E000016821F040410160016841F080410160B1
:1047F000094C0120C4F8BC02C4F8B402042004F53A
:104800002D7404F04DF80025A560042004F048F84C
:10481000256070BD00040240008040420E4810B583
:10482000016821F040410160016841F08041016070
:104830000A4C0020C4F8B402C4F8BC02042004F5F9
:104840002D7404F02DF801202060A060BDE8104018
:10485000042004F025B8000000040240008040421B
:1048600070B512480024016821F0404101600168E0
:1048700001600F4D0126C5F8BC62304604F010F807
:10488000C5F8B462012004F00BF807E0641CE4B240
:10489000FA2C03D9FFF7C2FF012070BDD5F83C0206
:1048A0000028F3D1C5F8B40270BD00000004024036
:1048B00000804042B5EEC01AF1EE411AF1EE10FA56
:1048C00002DDB0EE412A01E0B0EE612A12EE100ADC
:1048D000B0F17E5F0CDDB5EEC01AF1EE10FA01DC2E
:1048E000B0EE611AB2EE042AC1EE021AB0EE611AFD
:1048F000F7EE001A71EEC11A21EE800A00EE810A6D
:10490000704710B590ED361A0446B5EEC01AF1EEB8
:1049100010FA1BD0D4ED0A0A94ED040AFFF7CAFF7F
:1049200084ED040A94ED361AD4ED0B0A94ED050AD1
:10493000FFF7C0FF84ED050A94ED361AD4ED0C0A9A
:1049400094ED060AFFF7B6FF84ED060A94ED371AD8
:10495000B5EEC01AF1EE10FA1BD0D4ED0D0A94EDAD
:10496000070AFFF7A7FF84ED070A94ED371AD4ED85
:104970000E0A94ED080AFFF79DFF84ED080A94EDF6
:10498000371AD4ED0F0A94ED090AFFF793FF84ED6F
:10499000090A94ED381AB5EEC01AF1EE10FA1BD0E0
:1049A000D4ED1B0A94ED180AFFF784FF84ED180A72
:1049B00094ED381AD4ED1A0A94ED170AFFF77AFF2E
:1049C00084ED170A94ED381AD4ED190A94ED160AFD
:1049D000FFF770FF84ED160A94ED391AB5EEC01A90
:1049E000F1EE10FA1BD0D4ED1F0A94ED1C0AFFF76C
:1049F00061FF84ED1C0A94ED391AD4ED200A94ED80
:104A00001D0AFFF757FF84ED1D0A94ED391AD4ED06
:104A1000210A94ED1E0AFFF74DFF84ED1E0A10BD1A
:104A200070B586B014216846FBF797FC1148002545
:104A3000016841F0020101600068012200F00200FB
:104A40000D4E1403059021463046FDF7B5FF0121B8
:104A5000CDE90041CDE9021569463046FDF7ACFECF
:104A60000120FDF797FE012221463046FDF7A4FF05
:104A700006B070BD303802400004024070B51546E3
:104A80000E460446C171FCF79DFF00206A1CAEB1C2
:104A9000012E21D1617903291FD02068401C20609C
:104AA000A84219DB012121716171904214DB0221BE
:104AB0002171617198420FDB03200BE0617961B1D4
:104AC0002168491C2160A94206DB0423237163711C
:104AD000914201DB2071607170BD206070BD0000EB
:104AE00000220E210148FDF767BF000000080240C8
:104AF00010B5074C2188491C89B22180814205D11B
:104B00000E210448FDF750FF0020208010BD00005A
:104B1000AC0300200008024070B51D4C1D4D61889B
:104B2000491C89B26180814207D1002202212846B6
:104B3000FDF742FF0122042109E0B1EB400F10D143
:104B4000002204212846FDF737FF012202212846D2
:104B5000FDF732FF2846BDE8704001220821FDF72D
:104B60002BBF00EB4000884210D1002208212846CC
:104B7000FDF722FF012202212846FDF71DFF012239
:104B800004212846FDF718FF0020608070BD00005A
:104B9000AC0300200008024070B5064D002400BFA1
:104BA00005EB4410C1698847641C24B2022CF7DB72
:104BB00070BD0000041A002070470000104810B5B6
:104BC0000E4901600321416000214FF40022816001
:104BD000C0E903124FF4401242610176012242768D
:104BE0008176C17601774177FDF7B5FA002803D0C9
:104BF000BDE81040FCF7E4BE10BD000000640040BA
:104C00006C250020104810B50E4901600321416059
:104C100000214FF400228160C0E903124FF44012DA
:104C200042610176012242768176C1760177417731
:104C3000FDF791FA002803D0BDE81040FCF7C0BE94
:104C400010BD000000680040942500202D4808B5E4
:104C5000016841F400110160016801F40011009144
:104C6000016841F4800101600068002200F48000C6
:104C7000009005210B20FDF777FF0B20FDF766FF65
:104C8000002205210C20FDF76FFF0C20FDF75EFFD1
:104C9000002205210D20FDF767FF0D20FDF756FFCF
:104CA000002205210E20FDF75FFF0E20FDF74EFFCD
:104CB000002205210F20FDF757FF0F20FDF746FFCB
:104CC000002205211020FDF74FFF1020FDF73EFFC9
:104CD000002205212F20FDF747FF2F20FDF736FF8B
:104CE000002205213A20FDF73FFF3A20FDF72EFF75
:104CF000002205214620FDF737FFBDE80840462089
:104D0000FDF724BF3038024010B596B01C2211497F
:104D10006846FBF709FB0021684605F053FA0E4C84
:104D20000C491C2220601C3107A8FBF7FDFA00216A
:104D300007A805F047FA074960601C2238310EA821
:104D4000FBF7F2FA00210EA805F03CFAA06016B0BD
:104D500010BD000054EA0008B81B002030B587B031
:104D600014216846FBF7F9FA1D480024016841F058
:104D700080010160016801F080010591016841F046
:104D800004010160016801F004010591016841F02E
:104D900001010160016801F001010591016841F024
:104DA00002010160016801F002010591016841F012
:104DB0000801016000680B4D00F008000590012219
:104DC0000E212846FDF7F8FD0E2000900120CDE9C8
:104DD0000104694628460394FDF7EEFC07B030BD98
:104DE0003038024000080240094810B50749016008
:104DF0000121416040F6FF718160FDF7E9FD002867
:104E000003D0BDE81040FCF7DBBD10BD0030004012
:104E1000BC250020104810B50E4901604FF4827186
:104E2000416000218160C1604FF400720161C0E9FE
:104E300005121022C0E90721416281620A21C16284
:104E4000FEF786F9002803D0BDE81040FCF7B8BD96
:104E500010BD000000380040C825002010B596B0F5
:104E600000240F9410941194129413941C2108A8F8
:104E70001494FBF772FA20216846FBF76EFA294872
:104E80002749016040F28F61C0E9011440F2E73127
:104E9000C0E9031444618461FEF7B4FC08B1FCF777
:104EA0008FFD4FF480500F900FA91E48FEF744FD70
:104EB00008B1FCF785FD1B48FEF7F1FE08B1FCF7D1
:104EC0007FFD139413A917481494FEF753FC08B1FF
:104ED000FCF776FD6020CDE908040A940B940C944D
:104EE0000D94002208A90F480E94FEF772FE08B137
:104EF000FCF766FD00944FF40050CDE904400294A5
:104F000001940394694607480794FEF708FC08B12A
:104F1000FCF756FD0348FEF731FE16B010BD000049
:104F2000000001402026002010B586B0002417485C
:104F3000009401940294039404941349059401602D
:104F400042F2CF01C0E9011441F26F71C0E90314CC
:104F50008461FEF757FC08B1FCF732FD4FF4805036
:104F6000009069460948FEF7E7FC08B1FCF728FD08
:104F7000049404A905480594FEF7FCFB002801D021
:104F8000FCF71EFD06B010BD00080040682600209A
:104F90000C4810B50A4901604FF4E131416000212D
:104FA00081600C22C160C0E904128161C161FFF718
:104FB00085F8002803D0BDE81040FCF701BD10BD06
:104FC000004C0040B02600200C4810B50A49016092
:104FD0004FF4E1314160002181600C22C160C0E9E1
:104FE00004128161C161FFF769F8002803D0BDE8B0
:104FF0001040FCF7E5BC10BD00500040F426002036
:105000000C4810B50A4901604FF4E13141600021BC
:1050100081600C22C160C0E904128161C161FFF7A7
:105020004DF8002803D0BDE81040FCF7C9BC10BD06
:1050300000100140382700200D4810B50B490160D1
:105040000C49416000214FF480628160C0E9031285
:105050000422C0E90521C161FFF730F8002803D020
:10506000BDE81040FCF7ACBC10BD0000004400409F
:105070007C270020A08601000C4810B50A49016079
:105080004FF4E1314160002181600C22C160C0E930
:1050900004128161C161FFF711F8002803D0BDE857
:1050A0001040FCF78DBC10BD00480040C027002018
:1050B000FEE7FEE700F1880100F1780291EC040AB6
:1050C0006C3991EC032A5831703000F0AABC70EEB4
:1050D000601AF5EEC01AF1EE10FA01DC70EEC01A9B
:1050E000F4EEC11AF1EE10FA01D2B0EE600A704788
:1050F00070B5044690F82C003A4BC00703D093EDEE
:10510000010A012102E093ED020A00213548143022
:1051100001F0D2F994F82C00800703D593ED010A31
:10512000012102E093ED020A00212E48183001F01F
:10513000C3F994F82C00400703D593ED010A01212F
:1051400002E093ED020A002126481C3001F0B4F978
:1051500094F82C00000703D593ED010A012102E029
:1051600093ED020A00211F48203001F0A5F993EDCC
:10517000050AD3ED060A4FF4A56530EE600ABDEED0
:10518000C00A10EE100A01B2681001F525764242FD
:10519000AE4205D9002901DD014601E000DA1146E1
:1051A00000EE101AB8EEC00A84ED0F0A93ED080A5B
:1051B000D3ED070A30EE600ABDEEC00A10EE101AF9
:1051C00009B201F52573AB4205D9002901DD01467D
:1051D00001E000DA114600EE101AB8EEC00A84EDC4
:1051E0000E0A70BDBC010020F0B5534D0446E62305
:1051F00015F82A1F0522D430FFF740FC4FF4FA7649
:1052000069783346052204F1DC00FFF737FCA87803
:10521000770000F001013B46052204F15400FFF73E
:105220002DFCA8783B46C0F34001052204F15C0048
:10523000FFF724FCA8783B46C0F3C001052204F127
:105240006C00FFF71BFCA8783B46C0F380010522E9
:1052500004F16400FFF712FCA8783346C0F3801114
:10526000052204F17400FFF709FCA8783346C0F367
:10527000C011052204F17C00FFF700FC688833466A
:10528000C0F34031052204F1AC00FFF7F7FB68885A
:105290003346C0F34021052204F18C00FFF7EEFBFA
:1052A00068883346C10B052204F1BC00FFF7E6FB1A
:1052B00068883346C0F30021052204F18400FFF71B
:1052C000DDFB68883346C0F30031052204F1A400F9
:1052D000FFF7D4FB68883346C0F3C021052204F1F0
:1052E0009C00FFF7CBFB68883346C0F38021052282
:1052F00004F19400FFF7C2FB68883346C0F38031A5
:10530000052204F1B400FFF7B9FBA8783346C0F3D7
:105310004011052204F1C400FFF7B0FBA878334622
:10532000C0F30011052204F1CC00FFF7A7FB2046D3
:10533000BDE8F040FFF7DCBEE001002070B5354C61
:1053400090ED0C0A04F1240584ED030A90ED0D0A9A
:10535000034684ED040AB5F924004FF49676DFED98
:105360002E1AB04204DDC3ED0C1AB0EE610A0BE058
:1053700000EE100AF0EE610A03F1FC00B8EEC00A7C
:1053800000F0AAF883ED0C0ADFED242AD4ED030A1D
:105390009FED232A20EE220A00EE820A83ED0C0AFA
:1053A000B5F92600B04204DDC3ED0D1AB0EE610A76
:1053B0000BE000EE100AF0EE610A03F59C70B8EE07
:1053C000C00A00F089F883ED0D0A20EE220AD4ED20
:1053D000040A14499FED141A00EE820A83ED0D0AA7
:1053E000186B884201DD83ED0C1A104A186BDFED53
:1053F000100A904201D9C3ED0C0A10EE100A88423F
:1054000001DD83ED0D1A586B904201D9C3ED0D0AF1
:1054100070BD0000BC010020000000003333333FAA
:105420009A99993E0000254400002544000025C4B7
:10543000000025C444211030FAF78FBF00B5B0F941
:1054400010109FED242A00EE101AB7EE001AF0EEAD
:10545000420AB8EEC00AFFF73AFEB5EEC00AF1EE16
:1054600010FA34D1B0F91210B7EE001A00EE101A8B
:10547000F0EE420AB8EEC00AFFF729FEB5EEC00A08
:10548000F1EE10FA23D1B0F91410B7EE001A00EEC5
:10549000101AF0EE420AB8EEC00AFFF718FEB5EE99
:1054A000C00AF1EE10FA12D1B0F91600B7EE001AE8
:1054B00000EE100AF0EE420AB8EEC00AFFF707FE4F
:1054C000B5EEC00AF1EE10FA01D1012000BD0020B6
:1054D00000BD0000000000005FF00E0100EB810243
:1054E000491E12ED011A002982ED001AF6DC80ED4A
:1054F000000A002100EB8102491C92ED000A0F29ED
:1055000070EE200AF6DBB2EE0E1A80EE810A7047CA
:105510002DE9F0410F4D0F4606460024C4EB8410E0
:1055200005EBC0000123D0F8D4C132463946E0472C
:10553000641CA4B20A2CF1D34FF40054D5F8D0293E
:105540002146054890472146D5F8C82BBDE8F041D3
:105550000248104758050020380D0020300F002069
:105560002DE9F041094D0F4606460024C4EB841096
:1055700005EBC0000223D0F8D4C132463946E047DB
:10558000641CA4B20A2CF1D3BDE8F08158050020B8
:105590002DE9F04100240E4F254600BFC5EB8510D4
:1055A00007EBC0063046D6F8C8118847F07D08B929
:1055B000641CE4B26D1CADB20A2DEFD3054890F81F
:1055C000CF0110B90CB1641EE4B22046BDE8F081F1
:1055D000580500205815002070B53D4C002500BF2F
:1055E000C5EB851004EBC000D0F8C41188476D1CD2
:1055F000ADB20A2DF4D3374D05F56C71D5F884237F
:10560000A1F5E670904705F57371D4F8CC21A1F5AA
:105610009D509047D4F8C42305F57371A5F6DC506E
:10562000904705F57371D4F8BC25A1F57B609047D0
:1056300005F57371D4F8B427A1F6B850904705F575
:105640007A71D4F8AC29A1F6DC30904705F57A716F
:10565000D4F8AC29A1F69830904705F20441D4F86B
:10566000AC29A1F53760904705F58461D4F8A42BE7
:10567000A1F61C20904705F58461D4F8A42BA1F66F
:10568000D810904705F23C41D4F8A42BA1F51B603B
:10569000904705F58B61D4F8942FA1F26460904790
:1056A00005F58B61D4F89C2DA1F65C00904705F2BE
:1056B0007441D5F88C21A1F2AC70904705F5926148
:1056C000D5F88C21BDE87040A1F28470104700002D
:1056D00058050020581500202DE9F05F9B462DED60
:1056E0000E8B924689468046B0EE41AAF0EE61AA42
:1056F000B0EE409AF0EE609A9FED828B51EC120B67
:1057000053EC182BFAF7DBFE0D4645EC120B044662
:1057100051EC120BFAF758FF00EE100A02F054FA9F
:1057200010EE100AFAF73DFF45EC104B41EC1D0B53
:1057300051EC100BFAF748FF00EE100A02F086FA5F
:1057400010EE100AFAF72DFF41EC1C0B53EC182B4E
:1057500051EC1A0BFAF7B3FE0D4645EC110B04465B
:1057600051EC110BFAF730FF00EE100A02F02CFAA0
:1057700010EE100AFAF715FF45EC104B41EC1B0B2D
:1057800051EC100BFAF720FF00EE100A02F05EFA5F
:1057900010EE100AFAF705FF41EC1A0B53EC182B28
:1057A00051EC190BFAF78BFE0D4645EC100B044635
:1057B00051EC100BFAF708FF00EE100A02F004FAA1
:1057C00010EE100AFAF7EDFE45EC104B41EC190B08
:1057D00051EC100BFAF7F8FE00EE100A02F036FA60
:1057E00010EE100AFAF7DDFE41EC180B53EC1A2B01
:1057F00051EC1C0BFAF763FE0F4647EC100B054605
:1058000053EC182B51EC100BFAF759FE41EC1E0B20
:1058100053EC1B2B51EC1D0BFAF751FE0E4646ECD8
:10582000100B044653EC192B51EC100BFAF747FE02
:1058300053EC1E2BFAF79CFDFAF7C6FE47EC105B03
:10584000C8F8000053EC192B51EC100BFAF737FE97
:1058500046EC104B41EC1E0B53EC182B51EC100B8B
:10586000FAF72DFE53EC1E2BFAF723FEFAF7ACFEE7
:10587000C9F8000053EC1A2B51EC1D0BFAF71FFE70
:105880000F4647EC100B054653EC192B51EC100B4F
:10589000FAF715FE41EC1A0B53EC1B2B51EC1C0BC9
:1058A000FAF70DFE0E4646EC100B044653EC182B8F
:1058B00051EC100BFAF703FE53EC1A2BFAF758FDD4
:1058C000FAF782FE47EC105BCAF8000053EC182B85
:1058D00051EC100BFAF7F3FD46EC104B41EC180BB2
:1058E00053EC192B51EC100BFAF7E9FD53EC182B84
:1058F000FAF7DFFDFAF768FECBF80000BDEC0E8B7F
:10590000BDE8F09F000000000000E03F9FED120A9C
:1059100000221EE000EB8203D3ED000AF5EEC00A80
:10592000F1EE10FA02DDB0EE601A01E0B1EE601A9D
:10593000B4EEC01AF1EE10FA09DDF5EEC00AF1EE90
:1059400010FA02DDB0EE600A01E0B1EE600A521C0E
:1059500092B28A42DED370470000000010B5094CB5
:1059600094F80A0108B9FFF75BF894F80A010128D6
:1059700001D1FEF743FED4F81411BDE810400148F0
:10598000084700001C04002010B5FFF7E7FF01F0F6
:10599000FBF901F029FA01F059FA01F075FA01F06A
:1059A00091FA0B48D0F8B01188470A48D0F8C410D3
:1059B00088470948016E8847FBF7ECF8FBF71AF9AE
:1059C0000648C1688847BDE81040FFF705BE0000E3
:1059D000E00100205C1A0020301B0020441A002047
:1059E0000FE000BFB5EEC00AF1EE10FA02D230EEC1
:1059F000200A06E0B4EEE00AF1EE10FA01DB30EE28
:105A0000600AB5EEC00AF1EE10FA02DDB0EE401AFF
:105A100001E0B1EE401AB4EEE01AF1EE10FAE1DC6A
:105A20007047F0EE005A20EE255A60EEA53A20EEBF
:105A3000000A25EE014AF0EE444A03EEE14A43EE45
:105A4000A14A24EE836A65EE214AF0EE646A43EED1
:105A5000814A43EEC16A02EEE66AF0EE406A00EE69
:105A6000E00A40EEA06A41EE416A41EEE16A02EED0
:105A7000266A80ED006A24EE826A65EE204A21EEF5
:105A8000255AF0EE400A01EE410AF0EE645A41EE6A
:105A9000010A45EE615A45EE214A01EEA10A41EEA6
:105AA000E10A03EE656A02EEA06A64EEA20A42EE23
:105AB000440A81ED006A43EE000AC2ED000A704715
:105AC000F0EE005A20EE255A20EEA54A20EE000AFC
:105AD00061EE255A65EE214AF0EE643A44EE414A01
