:020000040800F2
:10000000D06C002061020008D73F00083D35000891
:10001000D53F00085D060008F1510008000000000F
:10002000000000000000000000000000A101000826
:10003000CB0C000800000000FD010008D54A0008B4
:100040007B0200087B0200087B0200087B0200089C
:100050007B0200087B0200087B0200087B0200088C
:100060007B0200087B0200087B02000801090008EF
:100070000D090008190900082509000831090008C0
:100080003D0900087B0200087B0200087B02000893
:10009000890600087B0200087B0200087B0200083A
:1000A0007B0200087B0200087B0200087B0200083C
:1000B000AD4B00087B020008B94B00087B0200082A
:1000C0007B0200087B0200087B0200087B0200081C
:1000D0007B02000855500008B5500008195100086F
:1000E0007B0200087B0200087B0200087B020008FC
:1000F0007B0200087B0200087B0200084909000817
:100100007B0200087B0200087B0200087B020008DB
:10011000F94C0008114D00087B0200087B02000822
:100120007B0200087B020008550900087B020008DA
:100130007B0200087B0200087B0200087B020008AB
:10014000E90600087B0200087B0200087B02000829
:100150007B0200087B020008610900087B0200089E
:100160007B0200087B0200087B0200087B0200087B
:100170007B0200087B0200087B02000800000000F0
:100180007B0200087B020008DFF810D000F0EEF8D8
:100190000048004779730008AFF30080D06C00205E
:1001A0002C4B19680868B0E8F04F80F30988BFF35A
:1001B0006F8F4FF0000080F311887047000000003F
:1001C00008480068006880F308884FF0000080F35A
:1001D000148862B661B6BFF34F8FBFF36F8F00DF35
:1001E00000BF00BF08ED00E0DFF80C00016841F43B
:1001F00070010160704700BF88ED00E0EFF30980F7
:10020000BFF36F8F134B1A681EF0100F08BF20ED5D
:10021000108A20E9F04F106009B44FF0500080F3CD
:100220001188BFF34F8FBFF36F8F09F021F84FF0A4
:10023000000080F3118809BC19680868B0E8F04F25
:100240001EF0100F08BFB0EC108A80F30988BFF3CE
:100250006F8F7047101A0020EFF305807047000081
:100260000648804706480047FEE7FEE7FEE7FEE750
:10027000FEE7FEE7FEE7FEE7FEE7FEE79D4B000830
:10028000890100082DE9F05F0546002092469B4653
:1002900088460646814640241BE02846414647469C
:1002A000224600F053F853465A46C01A914110D3E3
:1002B00011461846224600F016F82D1A67EB010881
:1002C0004F4622460120002100F00DF817EB0009EF
:1002D0004E41201EA4F10104DFDC484631462A4687
:1002E0004346BDE8F09F202A04DB203A00FA02F1E1
:1002F000002070479140C2F1200320FA03F3194314
:100300009040704740EA01039B0703D009E008C909
:10031000121F08C0042AFAD203E011F8013B00F8CA
:10032000013B521EF9D27047D2B201E000F8012B16
:10033000491EFBD270470022F6E710B513460A4665
:1003400004461946FFF7F0FF204610BD202A04DBC3
:10035000203A21FA02F00021704721FA02F3D0403E
:10036000C2F120029140084319467047064C074DE0
:1003700006E0E06840F0010394E807009847103475
:10038000AC42F6D3FFF704FFB4C30008D4C300089F
:1003900070B58C1810F8015B15F0070301D110F847
:1003A000013B2A1106D110F8012B03E010F8016B74
:1003B00001F8016B5B1EF9D12B0705D40023521EF7
:1003C0000DD401F8013BFAE710F8013BCB1A921C5F
:1003D00003E013F8015B01F8015B521EF9D5A1425D
:1003E000D8D3002070BD000010B5F6EE000A2DED48
:1003F000088B044690ED350A90ED047AD0ED053A6D
:1004000020EE204AD0ED064A27EE230AD0ED335ADB
:1004100090ED346A90ED222A20EE240AD0ED231AC2
:10042000D0ED242A90ED253AD0ED077AD0ED086A78
:1004300090ED095AB5EEC00AF1EE10FA7DD022EE29
:10044000020A01EEA10A02EEA20A03EE030A06F076
:1004500041FE22EE002A61EE801A62EE802A23EE2F
:10046000003A27EE070A03EEA30A04EEA40A06F0F8
:1004700031FE27EE001A63EE803A64EE800A21EE28
:10048000830AB0EE00AA714802EE620A20EE0A7AF0
:1004900022EE210A02EE830A20EE0A8A22EE020AE6
:1004A00001EEE10A02EEE20A03EE030A63EE804A7D
:1004B00040EEC84A60EE870A41EE400A21EE081A73
:1004C00045EEA47A03EEC71AD0ED013A45EEA06AD4
:1004D00044EE863A05EE815AF0EE425AC0ED013AFA
:1004E00090ED020A77EEA33A00EE860AF0EE610A7A
:1004F00060EEE31A80ED020A90ED037A36EE800A90
:1005000001EE067AB0EE621A62EE232A41EE401A3C
:1005100080ED037A35EE076A41EE062A43EE461A6D
:1005200043EE402A41EE845AF0EE601A42EE841AFD
:10053000B0EE615A62EE001A00E083E040EEC61AA7
:1005400022EE062AF0EE412A00EE802A43EE231A1C
:1005500025EEA50A01EE632A41EE842A05EE050A7E
:1005600002EE043AF0EE624A04EEA40A03EE030A35
:1005700006F0B0FD25EE008A65EE80AA64EE808A62
:1005800023EE009A28EE0A0A2AEE8A1AC4ED22AA5D
:1005900004F18C0060EE099AB7EE000A80EC038A41
:1005A00041EE689A09EEE90AB5EEC00AF1EE10FADA
:1005B00002DBB1EEC0BA01E09FED25BA6AEEAA0AED
:1005C00028EE8A0A04F16000F0EE60BA48EE480AAC
:1005D00020EE090A01EE080A48EEE80A49EE090A87
:1005E00004F05AFE04F15C00F0EE4B0AB0EE690A2A
:1005F00004F052FEF0EE6B0A28EE280A48EE080AD4
:1006000004F158000AEE890A48EEE80A20EE0A0AC8
:1006100049EE490A04F040FED4ED180A9FED0D0A98
:100620009FED0D1A60EE800AC4ED180AD4ED170A8A
:1006300060EE810AC4ED170AD4ED160A20EE800A96
:1006400084ED160ABDEC088B10BD00005802002096
:1006500000000000DF2E6542DF2E65C2FEE70000CD
:1006600000B58BB0684600F063F86946054800F0B5
:10067000A5FC0221034800F021FC024800F0B6FF6F
:100680000BB000BD9C230020014800F092BD00008B
:100690009C2300200A460146014800F083B8000070
:1006A0009C23002070B50C46054603F0C3FE0348AA
:1006B00022462946036CBDE870401847FC01002023
:1006C00000B58BB0684600F033F86946054800F085
:1006D00075FC0221034800F0F1FB024800F086FFA0
:1006E0000BB000BDC4230020014800F062BD000033
:1006F000C42300200A460146014800F053B8000018
:10070000C423002070B50D46044603F0BBFE064826
:100710002A462146036C9847044822462946836BA3
:10072000BDE8704020301847FC0100205018002020
:100730000021016041608160C1600161012241616D
:10074000C0E90612C0E908217047000010B5124A3E
:10075000016891420DD1114B00211C46A3F11C02EE
:1007600000F0B3FC0D4821461C380068FFF79AFFE3
:1007700010BD0B4A9142FBD1084B002124331C468B
:10078000A3F11C0200F0A1FC0448214608300068D7
:10079000FFF7B8FF10BD0000006400409C1A002065
:1007A0000068004038B50B46164C0168A14201D1E3
:1007B000154904E0154CA14222D1134920310B60A8
:1007C00000238B60CB6008230B6113881B0A0B7618
:1007D00013784B7653881B0A8B769378CB76938865
:1007E0001B0A0B7713794B77D3881B0A8B77927987
:1007F000CA776B4601F1180200F072FB002800D0A6
:10080000012038BD00640040C81A00200068004084
:10081000BCEEC00A10EE101AC180704710F8341FE9
:10082000491CC9B200F80819427A914202D90272F1
:10083000012103E00178012901D1002101707047F5
:1008400070B514460346302921D1124D20886E42DE
:1008500040BA00B2DFED0E0AB3EE0E0A2A46314668
:1008600006F04EFC83ED040A6088FBEE040A40BAF1
:1008700000B2B3EE040A2A46314606F041FC83ED8D
:10088000050AA08840BA1883002083F8340070BDA0
:10089000000000000083FFFF018881830189C1837C
:1008A000418901847047418881848188C184C188DD
:1008B0000185818941857047BCEEC00A024600B5BA
:1008C00010EE100ABCEEE00A108010EE100ABCEE2A
:1008D000C10A508010EE100ABCEEE10A108110EE41
:1008E000100A5081908920F0020040F001009081B0
:1008F0001046FFF7D1FF10465DF804EBFFF7D3BFBA
:10090000014800F001BF0000F4260020014800F07B
:10091000FBBE0000D4280020014800F0F5BE000016
:1009200034260020014800F0EFBE000034290020EA
:10093000014800F0E9BE000094260020014800F0C4
:10094000E3BE000074280020014800F0DDBE000076
:1009500054270020014800F0D7BE0000B427002033
:10096000014800F0D1BE0000142800202DE9F04F0E
:1009700085680024099E802D18D0894DC563894D56
:10098000456490F83450012D15D0012580F834507D
:1009900090F83550012D10D0002180F83410022439
:1009A000002180F834102046BDE8F08F4FF48071AC
:1009B00041650120F8E70220F6E7022580F835506E
:1009C0000025456505682F6847F480272F60056876
:1009D0002B6103685E608368402B03682AD09960AE
:1009E0000168CA60714D704E704FDFF8BC81DFF84E
:1009F000B891DFF8B8A1DFF8B4B1EA14DFF8A8E1E4
:100A00000168183630379302A9F148090AF1600AE3
:100A10000BF1180BAEF1300E4FF0006C41452DD9A3
:100A2000A94205D0494503D0514501D0B14205D175
:100A3000202220E09A600268D160D3E759451AD09D
:100A4000714518D0594D7835A94214D0564D3035DE
:100A5000A94210D0B9420BD0534A183A914207D05C
:100A6000524A9032914203D04F4A4832914201D1CA
:100A70001A4600E062464C494C392EE0DFF82C81E2
:100A800008F1A80841452AD9A94205D0494503D013
:100A9000514501D0B14201D120221CE059451AD064
:100AA000714518D0414D7835A94214D03E4D3035AE
:100AB000A94210D0B9420BD03B4A183A914207D014
:100AC0003A4A9032914203D0374A4832914201D19A
:100AD0001A4600E06246344950390A605AE0DFF8AD
:100AE000CC8008F1480841452AD9A94205D049459A
:100AF00003D0514501D0B14201D120221CE059451B
:100B00001AD0714518D0294D7835A94214D0264DF8
:100B10003035A94210D0B9420BD0234A183A91423D
:100B200007D0224A9032914203D01F4A4832914264
:100B300001D11A4600E062461C491039CA6029E01A
:100B4000A94205D0494503D0514501D0B14201D158
:100B500020221CE059451AD0714518D0134D783524
:100B6000A94214D0104D3035A94210D0B9420BD053
:100B70000D4A183A914207D00C4A9032914203D064
:100B8000094A4832914201D11A4600E062460749BB
:100B900010398A6001680A6842F001020A60FFE6C3
:100BA000A5610008BD610008586402401060024061
:100BB00001681823CAB2103AB2FBF3F2054B6FF387
:100BC0000901032A9B5CC36500D9091D816508469C
:100BD000704700006CC3000810B5014600208B6907
:100BE0008A6A4FF0C07453B1B3F5005F15D072B18B
:100BF000012A0CD0022A0AD0032A09D104E01AB132
:100C0000012A06D0022A03D1C96AC90100D50120F0
:100C100010BDC96AA142FAD010BD002AF7D0012A3E
:100C2000F2D0022AF3D0032AF3D010BD30B5046805
:100C3000256825F480252560046863608368402B5F
:100C4000036803D099600068C26030BD9A60006894
:100C5000C16030BD70B590F834500024012D0CD027
:100C6000012580F8345090F835600025012E06D01B
:100C700080F834500224204670BD022070BD022648
:100C800080F83560456505682E6826F480262E605C
:100C900005686B608368402B036808D09960016821
:100CA000CA600068016841F001010160E3E79A60F1
:100CB0000268D160F5E701680A68D20604D5C96800
:100CC000C90601D508F0E4B870477047F0B5404850
:100CD00090F84D100A2945D20122A0F8A220022244
:100CE000A0F8A4200322A0F8A6200422A0F8A8209F
:100CF0000522A0F8AA2040F201170622A0F8AC2095
:100D00007E1C0722A0F8AE20751C6C1CA0F8B070E9
:100D1000A0F8B260631CA0F8B450A0F8B6405A1C0A
:100D2000A0F8B830A0F8BA2001290CD002290DD0C3
:100D300003290ED004290FD0052910D0062901D18E
:100D4000A0F8BC20F0BDA0F8BC70F0BDA0F8BC605D
:100D5000F0BDA0F8BC50F0BDA0F8BC40F0BDA0F8BC
:100D6000BC30F0BD6522A0F8A2206622A0F8A42025
:100D70006722A0F8A6206822A0F8A8206922A0F87F
:100D8000AA2040F265176A22A0F8AC207E1C6B22D4
:100D9000A0F8AE20751C6C1CA0F8B070A0F8B26072
:100DA000631CA0F8B450A0F8B6405A1CA0F8B830A4
:100DB000A0F8BA206529C6D06629C7D06729C8D04F
:100DC0006829C9D06929CAD06A29B9D0F0BD000004
:100DD000941800200EB590ED180AD0ED1B0A9FED77
:100DE0001E2A002130EE600A6A468DED000A90ED61
:100DF000170AD0ED1A0A30EE600A8DED010A90ED67
:100E0000160AD0ED190A30EE600A8DED020A00BF15
:100E100002EB8103F0EE420A93ED000A05F073FE47
:100E2000491CC9B283ED000A0329F1D3DDED000AA4
:100E300090ED350A80EE801A80ED1C1ADDED010A76
:100E400080EE801A80ED1D1ADDED020A80EE801A18
:100E500080ED1E1A0EBD00000000B44372B6FEE71E
:100E60008279C1798A4202D0002202608171704782
:100E700010B558B1084C491E0BD310F8013B534034
:100E8000DBB234F8133083EA1222F4E74FF6FF7036
:100E900010BD104610BD0000C8A0000810B5064CDB
:100EA00004E000BF10F8013B5340E25C491E89B2E8
:100EB000F8D2104610BD0000C89F000890F820200E
:100EC000012A07D0022A05D0416A41F480214162FB
:100ED00001207047006842690A4342610020704760
:100EE000F0B590F820500468A468012D05D0022DBB
:100EF00003D0416A41F480215DE014F0406F01D1DC
:100F0000E50055D5C4F30164022C03D9416A41F4CC
:100F1000000150E00125A5401D608D684FF4C073AD
:100F20009DB1CE6835434E6845EAC605066803EBB9
:100F30000417F5514FF4C275076805EB04150E69E7
:100F40007E51097D012905D009E00E88CD6845EA6A
:100F50004655EBE701684E5946F480764E511179BB
:100F6000D579567941EA056195792D0445EA06253A
:100F700029434FF4C676056806EB0416A95111788B
:100F8000D57841EA0561957852782D0445EA022228
:100F900011434FF4C475026805EB04155151006804
:100FA00003EB0411425842F0010242500020F0BD10
:100FB000416A41F4001141620120F0BD10B590F882
:100FC0002020012A07D0022A05D0416A41F480215D
:100FD0004162012010BD3B48D0F8002242F00102DE
:100FE000C0F80022D0F8002222F47C52C0F800227F
:100FF000D0F800224B6A42EA0322C0F800220A7DA0
:1010000002F01F0301229A40D0F81C329343C0F82B
:101010001C32CB69B3B9D0F80C329343C0F80C3210
:101020008C894B6864F31F434C6900EBC404C4F81B
:1010300040320C890B6864F31F434C6900EBC40415
:10104000C4F84432CB69012B16D1D0F80C321343CB
:10105000C0F80C320C884B6864F31F434C6900EBFA
:10106000C404C4F840320C89CB6864F31F434C6954
:1010700000EBC404C4F844328B69002BD0F804326E
:101080000ED01343C0F804320B69002BD0F8143291
:1010900008D01343C0F81432096A012904D008E0CB
:1010A0009343EFE79343F5E7D0F81C121143C0F8E0
:1010B0001C12D0F8001221F00101C0F8001200202B
:1010C00010BD000000640040704730B590F820402B
:1010D000012C05D0022C03D0416A41F480215DE04F
:1010E0000468002955D02469A40754D04FF4D8745B
:1010F000056804EB01142D5915F004059560056889
:101100002D594ED0ED08556005682C5904F00204A5
:10111000D4604FF4DA74056804EB01142D5905F01E
:101120000F05156105682D59C5F3072595610568FB
:101130002C59240C54614FF4DC72046802EB011248
:10114000A4581C700468A458240A5C700468A4584D
:10115000240C9C700468A258120EDA704FF4DE72F0
:10116000046802EB0112A4581C710468A458240AF4
:101170005C710468A458240C9C710468A258120E77
:10118000DA71006881B1016941F02001016100203C
:1011900030BDE468A8E7416A41F4001141620120D2
:1011A00030BD6D0D1560AFE7C16841F02001C16031
:1011B000EDE72DE9F05F0546006800244669D0F8A8
:1011C00004908768D0F80CB0D0F810A0D0F8188040
:1011D000F10748D0F90714D001218160B80703D581
:1011E000284600F030FA0CE0780702D54FF400648E
:1011F00007E0380702D54FF4805402E0284600F09B
:1012000021FAF80516D529684FF480708860B80572
:1012100003D5284600F019FA0CE0780502D544F40D
:10122000005407E0380502D544F4804402E0284623
:1012300000F00AFAF80316D529684FF48030886068
:10124000B80303D5284600F002FA0CE0780302D573
:1012500044F4004407E0380302D544F4803402E04B
:10126000284600F0F3F9300707D55FEACB6004D5D4
:101270002968102044F40074C86070074FF0080714
:1012800007D55FEA0B7004D52868C760284600F0D0
:1012900099F9B00706D52868C068800702D02846AB
:1012A00000F092F9700607D55FEACA6004D5296894
:1012B000102044F480640861B00607D55FEA0A7024
:1012C00004D528680761284600F08CF9F00606D599
:1012D00028680069800702D0284600F084F9B0032E
:1012E00008D55FEAC96005D52968102048602846FE
:1012F00000F07AF9F00307D55FEA097004D5286891
:101300004760284600F0A4F9300446D55FEA4970EA
:1013100040D5F00504D55FEAC87001D044F001045F
:10132000B00504D55FEA887001D544F00204700569
:1013300004D55FEA487001D544F00404300529D58E
:1013400018F0700F26D008F07000402815D006DC89
:10135000102809D020280AD0302816D10AE05028B9
:101360000ED0602811D10EE044F008040DE044F0E6
:1013700010040AE044F0200407E044F0400404E0D4
:1013800044F0800401E044F480742868816921F00D
:1013900070018161296804204860002C05D0686ACA
:1013A000204368622846FFF78FFEBDE8F09F70B5C6
:1013B000040003D094F8200010B104E0012070BDB7
:1013C000204600F081F82068016841F001010160C9
:1013D00000F024FC0546052604E000F01FFC401B3D
:1013E0000A2811D820684068C007F6D02068016834
:1013F00021F00201016000F011FC05460BE000F055
:101400000DFC401B0A2806D9606A40F40030606277
:1014100084F82060D2E7206840688007EFD4207EFF
:101420000128206801683DD021F080010160607EC4
:1014300001282068016838D021F040010160A07EB9
:1014400001282068016833D021F020010160E07E8E
:101450000128206801682ED041F010010160207F32
:1014600001282068016829D021F008010160607F0F
:1014700001282068016824D021F004010160D4E92A
:1014800002010843D4E90412114308436168491E6C
:1014900008432168C86100206062012084F82000B0
:1014A000002070BD41F08001C0E741F04001C5E778
:1014B00041F02001CAE721F01001CFE741F0080117
:1014C000D4E741F00401D9E7F0B587B00446142110
:1014D0006846FEF730FF364B3648DFF8D0E0196833
:1014E000D4F800C0334A032502260927103000240F
:1014F000491CF44522D11960012907D1016841F046
:1015000000710160006800F000700590106840F004
:10151000080010601068CDE9005600F00800CDE921
:10152000047069462448CDE9024500F071FA0022B2
:101530000521142000F044FC142032E0DFF87CE0A8
:10154000F44530D1D0F800C04CF0806CC0F800C039
:10155000D0F800C001290CF0806CCDF814C01960DF
:1015600007D1016841F000710160006800F000706F
:101570000590106840F002001060106802AB00F0A7
:10158000020005906020CDE9000683E8B0006946BE
:101590000B4800F03DFA00220521402000F010FC2D
:1015A000402000F0FFFB07B0F0BD000000640040E9
:1015B000FC19002030380240000C02400068004056
:1015C0000004024070470000044A0168914202D0C2
:1015D000034A914201D1FFF7B9B870470064004057
:1015E00000680040704770477047000070B50446BF
:1015F00090F82000012804D0606A40F40020606266
:1016000018E0022084F820002068016821F0010120
:10161000016000F003FB05460EE000BF00F0FEFA9B
:10162000401B0A2808D9606A40F400306062052037
:1016300084F82000012070BD20684068C007EDD10B
:10164000606270BD70477047704770477047704761
:1016500070472DE9F0410446876D00F0DFFA064639
:1016600094F835000025022806D08020606584F8B3
:1016700034500120BDE8F0812068016821F0160196
:1016800001602068416921F080014161206C08B946
:10169000A06C20B12068016821F008010160206879
:1016A000016821F0010101600CE000F0B7FA801B35
:1016B000052807D920206065032084F8350084F8C8
:1016C0003450D7E720680068C007EED194F85C106A
:1016D0003F208840B860012084F8350084F83450F9
:1016E0000020C7E790F83510022903D0802141651A
:1016F00001207047052180F835100068016821F04D
:1017000001010160002070472DE9F84304464FF0C5
:101710000009CDF8009063484FF41651A56D00689C
:10172000B0FBF1F72E6894F85C10082000FA01F184
:1017300031420FD021680A6852070BD50A6822F09F
:1017400004020A6094F85C108840A860606D40F064
:101750000100606594F85C104FF0010808FA01F090
:10176000304208D021684969090604D5A860606D37
:1017700040F00200606594F85C100420884030421C
:1017800008D021680968890704D5A860606D40F019
:101790000400606594F85C1010208840304218D036
:1017A00021680968090714D5A86020680168490301
:1017B00004D50068000308D5A16C07E00168C905DD
:1017C00003D4016821F008010160216C09B12046B1
:1017D000884794F85C1020208840304231D021683E
:1017E0000968C9062DD5A86094F835000528206839
:1017F000016806D0490347D5006800031DD4616C19
:101800001CE021F0160101602068416921F080018F
:101810004161206C08B9A06C20B12068016821F0FA
:101820000801016094F85C103F208840A86084F8AB
:10183000358084F83490216D1FE0E16B09B12046BA
:101840008847606D00282BD0606DC00714D005203C
:1018500084F835002068016821F0010101600098DA
:10186000401C0090B84203D820680068C007F6D139
:1018700084F8358084F83490E16C002910D001B0F0
:101880002046BDE8F04308470168C905D5D4016882
:1018900021F01001016084F8358084F83490CCE7A1
:1018A000BDE8F8830C1A00202DE9F041044600F051
:1018B000B5F906465CB1022084F83500002584F8AD
:1018C00034502068016821F0010101600DE0012021
:1018D000BDE8F08100F0A2F9801B052805D9202081
:1018E0006065032084F83500F2E720680068C007CF
:1018F000F0D12268116820480140D4E9010318435F
:10190000D4E903363343184363691843A369184382
:10191000E3691843236A18430843616A042903D121
:10192000D4E90B1319430843106020684069666AC4
:1019300020F0070130460E43012704280CD1A06A8D
:101940000643E06A40B12046FFF746F920B1402047
:10195000606584F83570BAE7206846612046FFF775
:1019600027F994F85C203F2191408160656584F8F7
:1019700035700020ACE700003F8010F02DE9F04109
:101980000446866D90F83400002501280DD0012012
:1019900084F8340094F835700020012F07D084F8C3
:1019A000340002252846BDE8F0810220FBE702272B
:1019B00084F8357060652046FFF738F994F85C10BC
:1019C0003F208840B0602068016841F01601016046
:1019D000206C20B12068016841F008010160206896
:1019E000016841F001010160DCE7000070B50446C8
:1019F00000F014F90546601C02D004480078044445
:101A000000F00CF9401BA042FAD370BD001A002070
:101A10002DE9F84FDFF8BCA10022012503264FF085
:101A20000F090AF1040BAAF1040E00BF0B6805FAB6
:101A300002F42340A34270D10F7907F00307012F6E
:101A400001D0022F16D187684FEA420806FA08FC37
:101A500027EA0C07D1F80CC00CFA08FC4CEA070C7A
:101A6000C0F808C04768A7430C79C4F30014944039
:101A70003C4344600C79E443A4070AD0C4684FEAAD
:101A8000420C06FA0CF7BC438F6807FA0CF72743A1
:101A9000C7600C7904F00304022C12D1D40800EBC7
:101AA000840CDCF820405707FF0E09FA07F824EAF7
:101AB0000804D1F8108008FA07F848EA0408CCF8BE
:101AC000208004684FEA420C06FA0CF7BC430F79F9
:101AD00007F0030707FA0CF7274307604C6814F474
:101AE000403F70D03C4C276847F48047276024680B
:101AF00022F0030704F480440094384C07EB040CF4
:101B0000DCF8084897074FEA177809FA08F7BC434A
:101B1000334FB84202D1002724E054E0314FB8429D
:101B200001D101271EE0304FB84201D1022719E050
:101B30002E4FB84201D1032714E02D4FB84201D1F6
:101B400004270FE02B4FB84201D105270AE02A4FA6
:101B5000B84201D1062705E0284FB84201D1072736
:101B600000E0082707FA08F72743CCF80878DAF8E6
:101B700000405746D1F804C09C435FEACC2C00D506
:101B80001C433C60DBF800405F46D1F804C09C4336
:101B90005FEA8C2C00D51C433C60DEF800407746A1
:101BA000D1F804C09C435FEA8C3C00D51C433C60E8
:101BB000084F083F3C68D1F804C09C435FEACC3C26
:101BC00000D51C433C60521C102AFFF42FAFBDE827
:101BD000F88F0000083C01404438024000300140CA
:101BE000000002400004024000080240000C0240D5
:101BF000001002400014024000180240001C024085
:101C0000426921EA02030A4043EA024181617047C6
:101C10000AB1816170470904FBE700000148806850
:101C200070470000001A002070B5040011D0216830
:101C30004CF6CC400860216845F255500860D4E964
:101C4000000141602168A0688860FFF7E7FF054652
:101C50000DE0012070BD00BFFFF7E0FF401B312801
:101C600005D92068C068800701D0032070BD2068B6
:101C7000C0688007F0D121684AF6AA2008600020D9
:101C800070BD00684AF6AA2101600020704700007C
:101C9000024881680278114481607047001A002070
:101CA0000B4810B5016841F400710160016841F40E
:101CB00080610160016841F480710160032000F0DF
:101CC0009FF80F2000F006F800F050F8002010BD3B
:101CD000003C024030B50546204887B0002401682A
:101CE00041F001010160006806A900F001000090C8
:101CF00001A800F031F90498B0B100F04DF94000AE
:101D000017494FF08042B0FBF1F11648491E0260BE
:101D100040F2E732C0E90324C0E90114846100F015
:101D200073FE040003D015E000F036F9E8E70D4833
:101D300000F0E4FE04000DD11C2000F033F8102D5B
:101D400007D2002229461C2000F03AF80648056018
:101D500000E0012407B0204630BD000040380240BA
:101D600040420F0094290020041A00200C4882B041
:101D7000016841F480410160006800F480400090F7
:101D80000748001F016841F080510160006800228F
:101D900000F0805000900F21901E02B000F010B8AB
:101DA00044380240002809DB00F01F020121914065
:101DB0004009800000F1E020C0F8001170470000E9
:101DC000F0B40E4B1B680C46C3F30223C3F10705A6
:101DD000042D00D90425191D072901D2002300E094
:101DE000DB1E012606FA05F1491E214099409E405E
:101DF000761E16403143F0BC03F02FBA0CED00E024
:101E0000064900F0070208684FF6FF03184040EA51
:101E10000220034A10430860704700000CED00E008
:101E20000000FA052DE9F0470E46050065D0DFF801
:101E30001481D8F80000F7B200F00700B04207D2D2
:101E400088F80070D8F8000000F00700B04254D1C4
:101E500028683D4C810712D5400703D5206840F41F
:101E6000E05020602878000703D5206840F46040E7
:101E700020602068A96820F0F000084320602878DE
:101E8000C0072DD0304968680839012812D00228CF
:101E900013D0032811D00968890700292DDA216899
:101EA00021F0030101432160FFF7B8FE814641F2B2
:101EB000883A0EE009688903EFE709688901ECE7D1
:101EC000FFF7ACFEA0EB0901514502D90320BDE8A4
:101ED000F0872068696800F00C00B0EB810FEFD14B
:101EE000D8F80010404601F00701B14207D9077049
:101EF000006800F00700B04201D00120E7E7287831
:101F0000400705D52068E96820F4E05008432060C8
:101F10002878000706D52068296920F4604040EA47
:101F2000C100206000F058F82168084AC1F303118D
:101F3000515CC8400649086006480068FFF7CAFEC1
:101F40000020C4E7003C02400838024074C3000887
:101F50000C1A0020041A00200F2202600C4A136899
:101F600003F003034360136803F0F0038360136816
:101F700003F4E053C36012684FF4E05303EAD20263
:101F800002610448006800F0070008607047000024
:101F900008380240003C02400448054900680968CE
:101FA000044AC1F38221515CC84070470C1A0020DA
:101FB0000838024084C300080448054900680968DD
:101FC000044AC1F34231515CC84070470C1A0020EA
:101FD0000838024084C30008154810B5006810F0A6
:101FE0000C02144813D01449042A0FD0082A0ED129
:101FF0000F4C241F2268236802F03F025B0207D5C2
:102000002068C0F38810A0FB010106E0084610BD5F
:102010002168C1F38811A1FB00010023FEF732F90A
:102020002168C1F30141491C4900B0FBF1F010BD2A
:10203000083802400024F40040787D012DE9F84F73
:1020400004006ED02078DFF84C93C007A9F1040596
:102050004AD009F104000168C1F38101012908D0C7
:102060000068C0F3810002280AD1D9F800004002BC
:1020700006D52868800337D560680028E1D033E0B2
:102080006068B0F5803F10D0B0F5A02F286810D060
:1020900020F480302860286820F480202860606860
:1020A000A8B1FFF7BBFD06460DE0286840F480307C
:1020B000F4E740F480202860F7E700BFFFF7AEFDAB
:1020C000801B642873D828688003F7D50CE0FFF7DD
:1020D000A5FD064605E000BFFFF7A0FD801B6428B4
:1020E000F0D828688003F7D42078DFF8AC82800726
:1020F0004FF0000A3ED5A748001D016811F00C0FF3
:1021000008D00068C0F3810002280BD1D9F8000084
:10211000400207D42868800716D5E068012800D15E
:1021200012E033E1E068B8B10120C8F80000FFF721
:1021300075FD064605E000BFFFF770FD801B022815
:10214000C0D828688007F7D52868216920F0F800F2
:1021500040EAC10028600DE0C8F800A0FFF75EFD6E
:10216000064604E0FFF75AFD801B02281FD82868A6
:102170008007F7D42078000722D5864F8748616909
:10218000703771B101210160FFF748FD064604E098
:10219000FFF744FD801B022809D838688007F7D56F
:1021A0000EE0C0F800A0FFF739FD064605E082E02A
:1021B000FFF734FD801B02287DD838688007F7D4EC
:1021C0002078400768D5DFF8CCB100270BF13C0B35
:1021D000DBF80000C0000BD4DBF8001041F08051A8
:1021E000CBF80010DBF80000012700F080500090D1
:1021F0006B4E3068C00510D4306840F48070306099
:10220000FFF70CFD009005E0FFF708FD0099401A6C
:10221000022850D83068C005F6D55E4EA0686C36EE
:1022200001280FD00528306810D020F00100306060
:10223000306820F004003060A068B8B1FFF7EEFC11
:1022400000900FE0306840F00100F4E740F0040037
:102250003060F7E7FFF7E2FC0099411A41F288305D
:10226000814266D830688007F4D50EE0FFF7D6FCCF
:10227000009007E0FFF7D2FC0099411A41F2883044
:10228000814256D830688007F4D42FB1DBF80010B3
:1022900021F08051CBF80010A069C8B33D49091D59
:1022A0000968C1F3810102294AD00228504607D0AB
:1022B000C8F8600000E03CE0FFF7B0FC04463BE0FB
:1022C0004746C8F86000FFF7A9FC064605E000BFD6
:1022D000FFF7A4FC801B02282BD828688001F7D4C4
:1022E000D4E907010843A16A2E4A490802EB0141DB
:1022F000626A41EA8211084394F82C1040EA0161B5
:10230000C9F8001001203866FFF788FC044606E093
:102310003EE000BFFFF782FC001B022809D82868B6
:102320008001F7D534E000BFFFF778FC001B0228DE
:1023300002D90320BDE8F88F28688001F4D427E093
:102340000128F7D0D9F80000E26900F48001914239
:102350001CD1226A00F03F01914217D147F6C071AB
:10236000626A0140B1EB821F10D1A26A4FF0FF33C5
:1023700000F4403103EB5202B1EB024F06D194F866
:102380002C1000F07060B0EB016F01D00120D1E79C
:102390000020CFE70438024000004742800E474249
:1023A000007000400000FFFF70B5040009D0606AB3
:1023B000002540B125616561A56294F8510040B1E6
:1023C0000CE0012070BD6068B0F5827FF4D0E5615B
:1023D000F2E784F85050204600F044F8022084F8D8
:1023E00051002068016821F040010160A088218926
:1023F00000F4827001F404410843A18901F40061F2
:102400000843217C01F002010843217D01F0010114
:102410000843218B01F400710843217F01F038014A
:10242000084394F8201001F080010843218D01F445
:102430000051084321680860A069042101EA1040A6
:1024400094F8241001F010010843216848602068C6
:10245000C16921F40061C1616565012084F8510002
:10246000002070BD10B586B0044614216846FDF703
:1024700062FF14492068884221D113480021026874
:1024800042F480420260006800F4804005900E48EB
:102490001038026842F002020260006800F0020098
:1024A00005904FF4604000900220CDE90101032027
:1024B00003900520049069460448FFF7A9FA06B086
:1024C00010BD0000003800404038024000040240C7
:1024D0002DE9F84F044640680025984616460F46F9
:1024E0004FF0040BB0F5827F01D1A06888B194F859
:1024F0005000012818D0012084F85000FFF78EFB0F
:10250000814694F851004FF0000A01280ED00225B0
:1025100082E084F851B013460A462046CDF8008088
:1025200000F036F9BDE8F88F0220FBE7002F72D0EB
:10253000002E70D084F851B0C4F854A0A763A687C9
:10254000E687C4F830A0A4F834A0A4F836A0C4F8F4
:1025500040A0C4F844A0A068B0F5004F09D120689D
:10256000016821F0400101602068016821F4804188
:10257000016020680168490603D4016841F0400108
:102580000160E068D8B139E020688168C90709D0E6
:10259000007BA16B0870A06B401CA063E08F401E05
:1025A000E0870CE0FFF73AFBA0EB0901414503D3BC
:1025B000B8F1FF3F03D036E0B8F1000F33D0E08F21
:1025C0000028E1D11DE020688168C90709D0C068F2
:1025D000A16B0880A06B801CA063E08F401EE08789
:1025E0000CE0FFF71BFBA0EB0901414503D3B8F159
:1025F000FF3F03D017E0B8F1000F14D0E08F0028A0
:10260000E1D14A464146204602F0EEF808B12020CA
:102610006065606D00B10125012084F8510084F8E7
:1026200050A028467EE70325F6E72DE9F84F04463B
:1026300090F8500000271D461646894601280DD007
:102640004FF0010B84F850B0FFF7E8FA804694F899
:102650005100BA46012804D0022793E00220BDE8C9
:10266000F88FB9F1000F73D0002E71D0032084F8D9
:102670005100C4F854A0C4F83090A686E686C4F889
:1026800038A0A4F83CA0A4F83EA0C4F844A0C4F824
:1026900040A0A068B0F5004F09D12068016821F082
:1026A000400101602068016841F4804101602068B8
:1026B0000168490603D4016841F040010160E06807
:1026C000B0F5006F606803D030B3012E24D041E034
:1026D00008B1012E1CD1206B21680088C86006E07B
:1026E00020688168890709D5216B0988C160206B42
:1026F000801C2063E08E401EE08609E0FFF78EFA22
:10270000A0EB0800A84202D3681C01D031E07DB3E1
:10271000E08E0028E4D120E0206B21680078087367
:1027200006E020688168890709D5216B0978017363
:10273000206B401C2063E08E401EE0860AE0FFF71D
:102740006DFAA0EB0800A84203D3681C02D010E089
:1027500017E06DB1E08E0028E3D1424629462046BD
:1027600002F070F808B120206065A06818B106E09A
:10277000FFE7032706E02068C16880680090606D6D
:1027800000B1012784F851B084F850A0384666E7BC
:102790002DE9F84F044690F8500000270A9E1D4688
:1027A00092468B464FF0010901280ED0012084F893
:1027B0005000FFF733FA804694F851006168012811
:1027C0000CD0B1F5827F07D102E00220BDE8F88F7E
:1027D000A16809B9042801D00227C2E0BBF1000FAB
:1027E00027D0BAF1000F24D01DB394F8510004286B
:1027F00002D0052084F8510000206065C4F838A09C
:10280000E587A587C4F830B0E586A58620646064B6
:1028100020680168490603D4016841F04001016065
:10282000E068B0F5006F606805D0E8B3012D46D0D0
:102830007FE0012795E008B1012D39D1206B216897
:102840000088C860206B801C2063E08E401EE086FC
:102850002EE02068816889070FD5E18E69B1B9F152
:10286000010F0AD1216B0988C160206B801C206395
:10287000E08E401EE0864FF0000920688168C9079D
:102880000CD0E18F51B1C068A16B0880A06B801C97
:10289000A063E08F401EE0874FF00109FFF7BEF90B
:1028A000A0EB0800B04200E009E001D3701C50D159
:1028B000E08E0028CDD1E08F0028CAD13FE0206B08
:1028C000216800780873206B401C2063E08E401E56
:1028D000E0862EE02068816889070FD5E18E69B116
:1028E000B9F1010F0AD1216B09780173206B401CEB
:1028F0002063E08E401EE0864FF00009206881686A
:10290000C9070CD0E18F51B1C068A16B0870A06BF2
:10291000401CA063E08F401EE0874FF00109FFF7E5
:102920007DF9A0EB0800B04202D3701C01D010E08A
:102930007EB1E08E0028CDD1E08F0028CAD142467A
:102940003146204601F07EFF28B101272020606536
:1029500007E0032705E0A06818B92068C16880680F
:102960000090012084F85100002084F8500038467F
:102970002CE770477047000070B590F83C20012AA2
:1029800032D0012480F83C40022280F83D200368C8
:102990005A689D6822F070060A6832435A60134BE9
:1029A00002689A4214D0B2F1804F11D0104B9A4273
:1029B0000ED0104B9A420BD00F4B9A4208D00F4BBF
:1029C0009A4205D00E4B9A4202D00E4B9A4204D145
:1029D000496825F080031943916080F83D4000214B
:1029E00080F83C10084670BD022070BD0000014018
:1029F0000004004000080040000C004000040140BA
:102A0000004001400018004010B5040003D094F8C5
:102A10003D0010B107E0012010BD002084F83C000B
:102A2000204600F01FF8022084F83D00211D206898
:102A300002F0C8F8012084F8460084F83E0084F8CB
:102A40003F0084F8400084F8410084F8420084F894
:102A5000430084F8440084F8450084F83D000020D9
:102A600010BD000010B586B0044614216846FDF77D
:102A700062FC1E4A21680020914221D11C490A684B
:102A800042F001020A60096801F00101059118494C
:102A900014390A6842F001020A60096801F0010174
:102AA00005914FF4807100910221CDE9011003904E
:102AB0000120049069460F48FEF7AAFF06B010BD3A
:102AC0000D488142FAD10A48001F016841F0040113
:102AD00001600068002200F00400059005211E201E
:102AE000FFF76EF91E20FFF75DF9E7E700000140F0
:102AF00044380240000002400008004090F83D10B9
:102B0000012901D001207047022180F83D100168A1
:102B1000CA6842F00102CA6000681149884214D0B4
:102B2000B0F1804F11D00F4988420ED00E49884233
:102B30000BD00E49884208D00D49884205D00D4976
:102B4000884202D00C49884204D1816801F0070113
:102B5000062903D0016841F001010160002070479F
:102B6000000001400004004000080040000C00404C
:102B700000040140004001400018004070B50446C8
:102B800090F83C000025012817D0012684F83C600D
:102B9000022084F83D002068826822F0770222F447
:102BA0007F4282600868502838D00DDC20284FD042
:102BB00005DC90B3102811D14AE0022070BD302806
:102BC00046D040280AD13BE060282FD070280DD095
:102BD000B0F5805F03D0B0F5005F12D0012584F816
:102BE0003D60002084F83C00284670BDCB68D1E9E8
:102BF0000121206802F04AF82068816841F07701DD
:102C000009E0CB68D1E90121206802F03FF8206893
:102C1000816841F480418160E1E719E0CA68496850
:102C2000206802F045F85021206806E0CA6849682B
:102C3000206802F04EF86021206802F031F8CEE7FB
:102C4000CA684968206802F033F840212068F4E738
:102C5000226801461046F0E7704770B504460068E8
:102C600001694FF00005C943890715D4C168C943FC
:102C7000890711D4E91E016101202077206880694D
:102C80008007204602D0FFF7E7FF04E000F098F845
:102C9000204600F096F8257720680169C943490766
:102CA00017D4C168C943490713D46FF00401016107
:102CB000022020772068806910F4407F204602D0EF
:102CC000FFF7CAFF04E000F07BF8204600F079F837
:102CD000257720680169C943090716D4C168C9432B
:102CE000090712D46FF008010161042020772068E1
:102CF000C0698007204602D0FFF7AEFF04E000F075
:102D00005FF8204600F05DF8257720680169C94327
:102D1000C90617D4C168C943C90613D46FF010019E
:102D20000161082020772068C06910F4407F2046A8
:102D300002D0FFF791FF04E000F042F8204600F0D7
:102D400040F8257720680169C943C90708D1C168DF
:102D5000C943C90704D1891E0161204600F032F839
:102D600020680169C943090609D4C168C943090635
:102D700005D46FF0800101612046FFF7FAFD20685D
:102D80000169C943490609D4C168C943490605D444
:102D90006FF040010161204600F01BF820680169D6
:102DA000C94389060BD4C168C943890607D46FF0AB
:102DB000200101612046BDE87040FFF7DBBD70BD1A
:102DC000704770470068B0F1804F01D1FEF760BFD7
:102DD0007047704770477047F8B501680446086847
:102DE000CA684B6910F00F0F4FF0000559D003F07F
:102DF000010602F49077374365D0C10705D0D105AD
:102E000003D5216C41F001012164410705D5D907A3
:102E100003D0216C41F002012164810705D5D90757
:102E200003D0216C41F004012164010707D502F0B1
:102E30002001314303D0216C41F008012164216C51
:102E400000293AD0800604D5900602D5204601F02C
:102E5000F3FF20684069216CC0F38010090700D49B
:102E600060B3204601F0B3FF20684069400621D5D9
:102E70002068143050E8001F21F0400140E80012A3
:102E8000002AF5D1A06BA8B16C490165A06BFEF7D3
:102E900029FC002811D0A06B016D01B0BDE8F04005
:102EA000084783060FD593060DD52046BDE8F840A8
:102EB00001F0C2BF2046FFF78EFFF8BD2046FFF7A6
:102EC0008AFF2564F8BD266B2023012E79D1C60622
:102ED00077D5D60675D508684868009048694006D9
:102EE00040D5A16B086840680004000CEAD0A28DB0
:102EF0008242E7D9E085C869B0F5807F2DD020688F
:102F00000C3050E8001F21F4807140E80012002AC4
:102F1000F5D12068143050E8001F21F0010140E88D
:102F20000012002AF5D12068143050E8001F21F06B
:102F3000400140E80012002AF5D184F83E302563B4
:102F400020680C3050E8001F21F0100140E800120A
:102F5000002AF5D1A06BFEF77CFBA08DE18D401A15
:102F600081B229E0A08DE18D401A81B2E08D002868
:102F7000A8D00029A6D020680C3050E8002F22F4F9
:102F8000907240E80026002EF5D12068143050E8F9
:102F9000002F22F0010240E80026002EF5D184F82F
:102FA0003E30256320680C3050E8002F22F01002DC
:102FB00040E80023002BF5D12046FFF70BFFF8BDBA
:102FC000FFE705062BD5150629D594F83D002128E5
:102FD000F5D1A068B0F5805F01D12069B0B1206A59
:102FE000411C2162216800784860E08C401E00048A
:102FF000000CE084E3D12068C16821F08001C16049
:103000002068C16841F04001C160D8E7206A0088AB
:10301000C0F308004860206A801C2062E5E7400693
:10302000CDD55006CBD5CA68204622F04002CA60F2
:1030300084F83D3000F080FAC1E70000294D000817
:1030400070B5040004D094F83D00002510B106E0EE
:10305000012070BD84F83C50204600F023F8242065
:1030600084F83D002068C16821F40051C160204609
:1030700001F06AFF2068016921F490410161206834
:10308000416921F02A0141612068C16841F4005181
:10309000C1602564202084F83D0084F83E000020B3
:1030A00070BD00002DE9F04F87B00446142168463A
:1030B000FDF741F9EE48DFF8B48310380222D4F866
:1030C00000C0EB4B03210026970605154FF0080EB4
:1030D0004FF480794FF0400B4FF4003AC44552D181
:1030E000D3F800C0B0464CF4002CC3F800C01B68F5
:1030F00003F400230593036843F0010303600068B1
:1031000000F0010005908DE84600CDE9031E6946F8
:10311000D848FEF77DFCD948D74957460160490594
:10312000C0E90116C0E903654661C0E90669C0E966
:1031300008A6FEF7B9FB08B1FDF790FECF48A063E3
:10314000CE4E8463CC486036303030604FF0006043
:10315000C6E9010BC6E90385C6F81480C6F81880D5
:10316000C6E907873046C6F82480FEF79DFB08B104
:10317000FDF774FE6663002205213420B463FEF778
:103180001FFE34206CE0DFF8F882C4456DD1D3F81F
:1031900000C000264CF4801CC3F800C01B6803F478
:1031A00080130593036843F004030360036803F08E
:1031B00004030593036843F008030360006888462E
:1031C00000F0080005904FF48050009001AA022002
:1031D00082E84101082004906946AA48FEF718FCDD
:1031E0000420009001AA022082E8410108200490F6
:1031F0006946A548FEF70CFCA0489F49C03030390D
:103200000160C0E90176C0E903654661C0E906696D
:10321000C0E908A6B8465746FEF746FB08B1FDF7D9
:103220001DFE9648994EC030A06384639248783062
:1032300086E801090020C6E903057061B061C6E9AE
:10324000070770623046FEF72FFB08B1FDF706FE58
:103250006663002205213520B463FEF7B1FD3520F9
:10326000FEF7A0FD07B0BDE8F08FDFF824824FF035
:10327000070EC44555D17E4B00261B1DD3F800C058
:103280004CF0100CC3F800C01B6803F0100305934A
:10329000036843F0010303600068CDE9026100F0B8
:1032A000010005904FF4C060CDE90002CDF810E0B8
:1032B00069467048FEF7ACFB744876496030B84602
:1032C0000160C0E90176C0E903654661C0E90669AD
:1032D000C0E908A65746FEF7E7FA08B1FDF7BEFDBC
:1032E0006A486A4E6030A06384636A48C0367830AA
:1032F00086E801090020C6E903057061B061C6E9EE
:10330000070770623046FEF7CFFA08B1FDF7A6FD59
:103310006663002205212520B463FEF751FD2520B8
:103320009EE7DFF87481C4453DD1D3F800C04CF46A
:10333000003CC3F800C01B6803F400330593036826
:1033400043F0010303600068CDE9026100F0010071
:1033500005900C20CDE90002CDF810E06946454803
:10336000FEF756FBDFF8348143494046483102C03E
:10337000E0E80276E0E8036540F8046C80E8400687
:103380004046C8F82460FEF78FFA08B1FDF766FDE5
:10339000C4F83880002205212620C8F83840FEF7FE
:1033A0000FFD26205CE7DFF8F880C4457FF45AAFB4
:1033B000D3F800C0B0464CF4802CC3F800C01B68A2
:1033C00003F480230593036843F00203036000685D
:1033D000CDE9026100F0020005904FF44060CDE9B4
:1033E0000002CDF810E069462E48FEF711FBDFF829
:1033F000ACA021490AF1600A18395046CAF80010F9
:10340000C0E90176C0E90365CAF81460C0E906693D
:10341000CAF82060CAF82460FEF746FA08B1FDF742
:103420001DFD1E4E1448C4F838A0C0361830CAF826
:10343000384086E88108C6E90385C6F81480C6F8D6
:103440001880C6F81C80C6F820803046C6F8248054
:10345000FEF72AFA08B1FDF701FD66630022052197
:103460002720B463FEF7ACFC2720F9E6004C0040AF
:1034700040380240000002404060024034260020F4
:103480000050004000080240000C02405427002079
:1034900000100140406402400044004074280020B5
:1034A00000480040000402407047000070B5044628
:1034B00090F83D00202836D191B38AB394F83C00AF
:1034C000012830D0012084F83C002162A284E284EB
:1034D00000252564212084F83D00636B1348D863E0
:1034E000636B13481864636B1248D864606B1346AF
:1034F00005652668606B321DFEF740FA21686FF0A3
:103500004000086084F83C502068143050E8001FE8
:1035100041F0800140E80012002AF5D1002070BD82
:10352000FFE70120FBE70220F9E70000834D0008D8
:10353000C54D0008394D000870477047FEE7000090
:1035400070B50D4C0025C4F8B4520C48016821F048
:1035500040410160016841F080410160C4F8BC5203
:10356000022004F52D7402F011FE012020600220DB
:1035700002F00CFE256070BD008040420004024055
:103580002DE9F04186B014216846FCF7D4FE1D48B1
:103590000025016841F0020101600068012200F08D
:1035A0000200194F1603059031463846FEF730FBEE
:1035B0004FF48048012241463846FEF729FB4FF47C
:1035C000204001248DE831000325694638460395E3
:1035D000FEF71EFA4FF4A040CDE9000469463846D4
:1035E000CDE90245FEF714FA012231463846FEF7CE
:1035F0000FFB012241463846FEF70AFB06B0BDE844
:10360000F0810000303802400004024070B50D4CDB
:103610000025C4F8B4520C48016821F04041016013
:10362000016841F0804101600126C4F8BC620220BB
:1036300004F52D7402F0AAFD2660022002F0A6FD1A
:10364000256070BD00804042000402402DE9F04733
:10365000814616480024016821F04041016001685C
:103660000160134E254627464FF00108C6F8B47294
:10367000022002F08BFDC6F8B4826006040ED6F874
:103680003C0208B1641CE4B2012002F07FFD6D1C15
:10369000EDB2082DEAD3B9F1000F04D0FFF750FFC7
:1036A0002046BDE8F087FFF7B1FFF9E700040240CC
:1036B0000080404270B516460D46044600F050F8B2
:1036C000D22000F01DF800F08DF8204600F018F828
:1036D00000F088F800F044F8D32000F011F800F072
:1036E00081F8002406E00120FFF7B0FF641C05F814
:1036F000010BE4B2B442F6D3BDE8704000F050B81C
:103700002DE9F04106461448016821F0404101606E
:10371000016841F080410160104C0027C4F8B47288
:103720003D464FF00108F009C4F8BC027006060ED1
:10373000022002F02BFDC4F8B482022002F026FD24
:10374000C4F8B472022002F021FD6D1CEDB2082D08
:10375000E9D3BDE8F081000000040240008040424F
:1037600070B50D48016821F040410160016841F0E9
:1037700080410160094C0120C4F8BC02C4F8B402C5
:10378000042004F52D7402F001FD0025A56004203D
:1037900002F0FCFC256070BD000402400080404245
:1037A0000E4810B5016821F040410160016841F008
:1037B000804101600A4C0020C4F8B402C4F8BC0285
:1037C000042004F52D7402F0E1FC01202060A060CB
:1037D000BDE81040042002F0D9BC00000004024003
:1037E0000080404270B512480024016821F0404139
:1037F0000160016801600F4D0126C5F8BC623046CA
:1038000002F0C4FCC5F8B462012002F0BFFC07E07E
:10381000641CE4B2FA2C03D9FFF7C2FF012070BD8B
:10382000D5F83C020028F3D1C5F8B40270BD000001
:103830000004024000804042B5EEC01AF1EE411A89
:10384000F1EE10FA02DDB0EE412A01E0B0EE612A9D
:1038500012EE100AB0F17E5F0CDDB5EEC01AF1EE8B
:1038600010FA01DCB0EE611AB2EE042AC1EE021ABF
:10387000B0EE611AF7EE001A71EEC11A21EE800A5D
:1038800000EE810A704710B590ED361A0446B5EE89
:10389000C01AF1EE10FA1BD0D4ED0A0A94ED040A16
:1038A000FFF7CAFF84ED040A94ED361AD4ED0B0A33
:1038B00094ED050AFFF7C0FF84ED050A94ED361A72
:1038C000D4ED0C0A94ED060AFFF7B6FF84ED060A64
:1038D00094ED371AB5EEC01AF1EE10FA1BD0D4ED04
:1038E0000D0A94ED070AFFF7A7FF84ED070A94ED90
:1038F000371AD4ED0E0A94ED080AFFF79DFF84ED08
:10390000080A94ED371AD4ED0F0A94ED090AFFF76F
:1039100093FF84ED090A94ED381AB5EEC01AF1EE62
:1039200010FA1BD0D4ED1B0A94ED180AFFF784FFA0
:1039300084ED180A94ED381AD4ED1A0A94ED170A9A
:10394000FFF77AFF84ED170A94ED381AD4ED190ABF
:1039500094ED160AFFF770FF84ED160A94ED391AFC
:10396000B5EEC01AF1EE10FA1BD0D4ED1F0A94ED9B
:103970001C0AFFF761FF84ED1C0A94ED391AD4ED9F
:10398000200A94ED1D0AFFF757FF84ED1D0A94ED00
:10399000391AD4ED210A94ED1E0AFFF74DFF84ED8C
:1039A0001E0A10BD70B586B014216846FCF7C3FC32
:1039B00011480025016841F0020101600068012200
:1039C00000F002000D4E1403059021463046FEF72C
:1039D0001FF90121CDE90041CDE9021569463046C4
:1039E000FEF716F80120FEF701F8012221463046C5
:1039F000FEF70EF906B070BD3038024000040240F8
:103A000070B515460E460446C171FDF729FA00202F
:103A10006A1CAEB1012E21D1617903291FD0206823
:103A2000401C2060A84219DB012121716171904284
:103A300014DB02212171617198420FDB03200BE03E
:103A4000617961B12168491C2160A94206DB042328
:103A500023716371914201DB2071607170BD206040
:103A600070BD000000220E210148FEF7D1B8000011
:103A70000008024010B5074C2188491C89B22180FA
:103A8000814205D10E210448FEF7BAF800202080BB
:103A900010BD0000F80100200008024070B51D4C68
:103AA0001D4D6188491C89B26180814207D1002285
:103AB00002212846FEF7ACF80122042109E0B1EB0F
:103AC000400F10D1002204212846FEF7A1F8012260
:103AD00002212846FEF79CF82846BDE870400122E6
:103AE0000821FEF795B800EB4000884210D1002273
:103AF00008212846FEF78CF8012202212846FEF70D
:103B000087F8012204212846FEF782F80020608011
:103B100070BD0000F80100200008024070B5064D9D
:103B2000002400BF05EB4410C1698847641C24B21F
:103B3000022CF7DB70BD0000501800207047000019
:103B4000104810B50E4901600321416000214FF477
:103B500000228160C0E903124FF4401242610176F5
:103B6000012242768176C17601774177FDF71FFC0D
:103B7000002803D0BDE81040FDF770B910BD00006B
:103B8000006400409C230020104810B50E490160DD
:103B90000321416000214FF400228160C0E903123B
:103BA0004FF4401242610176012242768176C1765D
:103BB00001774177FDF7FBFB002803D0BDE81040FB
:103BC000FDF74CB910BD000000680040C423002080
:103BD0002D4808B5016841F400110160016801F445
:103BE00000110091016841F4800101600068002229
:103BF00000F48000009005210B20FEF7E1F80B2077
:103C0000FEF7D0F8002205210C20FEF7D9F80C2091
:103C1000FEF7C8F8002205210D20FEF7D1F80D208F
:103C2000FEF7C0F8002205210E20FEF7C9F80E208D
:103C3000FEF7B8F8002205210F20FEF7C1F80F208B
:103C4000FEF7B0F8002205211020FEF7B9F8102089
:103C5000FEF7A8F8002205212F20FEF7B1F82F204B
:103C6000FEF7A0F8002205213A20FEF7A9F83A2035
:103C7000FEF798F8002205214620FEF7A1F8BDE8DE
:103C800008404620FEF78EB83038024010B596B096
:103C90001C2211496846FCF735FB0021684603F0F9
:103CA000F3FE0E4C0C491C2220601C3107A8FCF7C7
:103CB00029FB002107A803F0E7FE074960601C22EA
:103CC00038310EA8FCF71EFB00210EA803F0DCFE25
:103CD000A06016B010BD000018C30008F019002045
:103CE00030B587B014216846FCF725FB1D48002439
:103CF000016841F080010160016801F080010591D7
:103D0000016841F004010160016801F004010591BE
:103D1000016841F001010160016801F001010591B4
:103D2000016841F002010160016801F002010591A2
:103D3000016841F00801016000680B4D00F00800C7
:103D4000059001220E212846FDF762FF0E2000900B
:103D50000120CDE90104694628460394FDF758FE89
:103D600007B030BD3038024000080240094810B5A5
:103D7000074901600121416040F6FF718160FDF754
:103D800053FF002803D0BDE81040FDF767B810BD11
:103D900000300040EC230020104810B50E490160AF
:103DA0004FF48271416000218160C1604FF4007264
:103DB0000161C0E905121022C0E907214162816258
:103DC0000A21C162FEF7F0FA002803D0BDE81040D6
:103DD000FDF744B810BD000000380040F823002073
:103DE00010B586B0002418480094019402940394FE
:103DF000049414490594016040F28F61C0E90114F4
:103E000040F2E731C0E9031444618461FEF7FCFD30
:103E100008B1FDF723F84FF48050009069460A4836
:103E2000FEF7ACFE08B1FDF719F8049404A90648A2
:103E30000594FEF7A1FD002801D0FDF70FF806B0AC
:103E400010BD0000000001405024002010B586B0D5
:103E50000024174800940194029403940494134995
:103E60000594016042F2CF01C0E9011441F26F7183
:103E7000C0E903148461FEF7C7FD08B1FCF7EEFF4B
:103E80004FF48050009069460948FEF777FE08B16C
:103E9000FCF7E4FF049404A905480594FEF76CFDC3
:103EA000002801D0FCF7DAFF06B010BD0008004082
:103EB000982400200C4810B50A4901604FF4E13104
:103EC0004160002181600C22C160C0E9041281615F
:103ED000C161FFF7B5F8002803D0BDE81040FCF73A
:103EE000BDBF10BD004C0040E02400200C4810B5C0
:103EF0000A4901604FF4E1314160002181600C22E8
:103F0000C160C0E904128161C161FFF799F800281E
:103F100003D0BDE81040FCF7A1BF10BD0050004029
:103F2000242500200C4810B50A4901604FF4E13106
:103F30004160002181600C22C160C0E904128161EE
:103F4000C161FFF77DF8002803D0BDE81040FCF701
:103F500085BF10BD00100140682500200D4810B538
:103F60000B4901600C49416000214FF4806281607F
:103F7000C0E903120422C0E90521C161FFF760F81E
:103F8000002803D0BDE81040FCF768BF10BD00005A
:103F900000440040AC250020A08601000C4810B56C
:103FA0000A4901604FF4E1314160002181600C2237
:103FB000C160C0E904128161C161FFF741F80028C6
:103FC00003D0BDE81040FCF749BF10BD00480040D9
:103FD000F0250020FEE7FEE700F1880100F17802FD
:103FE00091EC040A6C3991EC032A5831703000F0DE
:103FF00041BB70EE601AF5EEC01AF1EE10FA01DC6A
:1040000070EEC01AF4EEC11AF1EE10FA01D2B0EE61
:10401000600A704770B5044690F82C003A4BC00710
:1040200003D093ED010A012102E093ED020A002181
:104030003548143000F08EFC94F82C00800703D52E
:1040400093ED010A012102E093ED020A00212E48BE
:10405000183000F07FFC94F82C00400703D593ED56
:10406000010A012102E093ED020A002126481C30DA
:1040700000F070FC94F82C00000703D593ED010AC2
:10408000012102E093ED020A00211F48203000F0D8
:1040900061FC93ED050AD3ED060A4FF4A56530EEF9
:1040A000600ABDEEC00A10EE100A01B2681001F5F8
:1040B00025764242AE4205D9002901DD014601E0E4
:1040C00000DA114600EE101AB8EEC00A84ED0F0AAD
:1040D00093ED080AD3ED070A30EE600ABDEEC00A80
:1040E00010EE101A09B201F52573AB4205D900296B
:1040F00001DD014601E000DA114600EE101AB8EECB
:10410000C00A84ED0E0A70BD08000020F0B5534DC2
:104110000446E62315F82A1F0522D430FFF770FC69
:104120004FF4FA7669783346052204F1DC00FFF794
:1041300067FCA878770000F001013B46052204F1F6
:104140005400FFF75DFCA8783B46C0F34001052210
:1041500004F15C00FFF754FCA8783B46C0F3C001B3
:10416000052204F16C00FFF74BFCA8783B46C0F336
:104170008001052204F16400FFF742FCA878334671
:10418000C0F38011052204F17400FFF739FCA87810
:104190003346C0F3C011052204F17C00FFF730FC68
:1041A00068883346C0F34031052204F1AC00FFF7C4
:1041B00027FC68883346C0F34021052204F18C00B7
:1041C000FFF71EFC68883346C10B052204F1BC00D2
:1041D000FFF716FC68883346C0F30021052204F17E
:1041E0008400FFF70DFC68883346C0F300310522D8
:1041F00004F1A400FFF704FC68883346C0F3C02133
:10420000052204F19C00FFF7FBFB68883346C0F3EE
:104210008021052204F19400FFF7F2FB6888334601
:10422000C0F38031052204F1B400FFF7E9FBA87860
:104230003346C0F34011052204F1C400FFF7E0FB50
:10424000A8783346C0F30011052204F1CC00FFF733
:10425000D7FB2046BDE8F040FFF7DCBE2C00002075
:1042600070B5354C90ED0C0A04F1240584ED030A79
:1042700090ED0D0A034684ED040AB5F924004FF4CD
:104280009676DFED2E1AB04204DDC3ED0C1AB0EEC7
:10429000610A0BE000EE100AF0EE610A03F1FC0087
:1042A000B8EEC00A00F0AAF883ED0C0ADFED242A6C
:1042B000D4ED030A9FED232A20EE220A00EE820AA3
:1042C00083ED0C0AB5F92600B04204DDC3ED0D1AEA
:1042D000B0EE610A0BE000EE100AF0EE610A03F5A1
:1042E0009C70B8EEC00A00F089F883ED0D0A20EE4C
:1042F000220AD4ED040A14499FED141A00EE820A32
:1043000083ED0D0A186B884201DD83ED0C1A104A0B
:10431000186BDFED100A904201D9C3ED0C0A10EEC4
:10432000100A884201DD83ED0D1A586B904201D9C5
:10433000C3ED0D0A70BD0000080000200000000061
:104340003333333F9A99993E0000254400002544B9
:10435000000025C4000025C444211030FBF7EBBF4A
:1043600000B5B0F910109FED242A00EE101AB7EE38
:10437000001AF0EE420AB8EEC00AFFF73AFEB5EEB8
:10438000C00AF1EE10FA34D1B0F91210B7EE001AEB
:1043900000EE101AF0EE420AB8EEC00AFFF729FE4E
:1043A000B5EEC00AF1EE10FA23D1B0F91410B7EE51
:1043B000001A00EE101AF0EE420AB8EEC00AFFF73B
:1043C00018FEB5EEC00AF1EE10FA12D1B0F91600DF
:1043D000B7EE001A00EE100AF0EE420AB8EEC00A7C
:1043E000FFF707FEB5EEC00AF1EE10FA01D1012089
:1043F00000BD002000BD0000000000005FF00E01C5
:1044000000EB8102491E12ED011A002982ED001A0B
:10441000F6DC80ED000A002100EB8102491C92EDE0
:10442000000A0F2970EE200AF6DBB2EE0E1A80EEBB
:10443000810A70472DE9F0410F4D0F4606460024D2
:10444000C4EB841005EBC0000123D0F8D4C1324680
:104450003946E047641CA4B20A2CF1D34FF400544F
:10446000D5F8D0292146054890472146D5F8C82BD4
:10447000BDE8F04102481047A4030020840B00204F
:104480007C0D00202DE9F041094D0F460646002421
:10449000C4EB841005EBC0000223D0F8D4C132462F
:1044A0003946E047641CA4B20A2CF1D3BDE8F08180
:1044B000A40300202DE9F04100240E4F254600BF43
:1044C000C5EB851007EBC0063046D6F8C811884703
:1044D000F07D08B9641CE4B26D1CADB20A2DEFD3B7
:1044E000054890F8CF0110B90CB1641EE4B2204623
:1044F000BDE8F081A4030020A413002070B53D4C5A
:10450000002500BFC5EB851004EBC000D0F8C41136
:1045100088476D1CADB20A2DF4D3374D05F56C718B
:10452000D5F88423A1F5E670904705F57371D4F8AA
:10453000CC21A1F59D509047D4F8C42305F57371A3
:10454000A5F6DC50904705F57371D4F8BC25A1F5AC
:104550007B60904705F57371D4F8B427A1F6B85085
:10456000904705F57A71D4F8AC29A1F6DC30904774
:1045700005F57A71D4F8AC29A1F69830904705F288
:104580000441D4F8AC29A1F53760904705F5846162
:10459000D4F8A42BA1F61C20904705F58461D4F82B
:1045A000A42BA1F6D810904705F23C41D4F8A42BD7
:1045B000A1F51B60904705F58B61D4F8942FA1F20B
:1045C0006460904705F58B61D4F89C2DA1F65C00E2
:1045D000904705F27441D5F88C21A1F2AC70904758
:1045E00005F59261D5F88C21BDE87040A1F2847088
:1045F00010470000A4030020A413002010B5094CAC
:1046000094F80A0108B9FFF7CDF994F80A010128D6
:1046100001D1FEF7B5FFD4F81411BDE810400148F0
:10462000084700006802002010B5FFF7E7FF00F020
:104630001DFD00F04BFD00F07BFD00F097FD00F04C
:10464000B3FD0948D0F8B01188470848D0F8C41025
:1046500088470748016E8847FCF702F8FCF730F8F6
:10466000BDE81040FFF74ABF2C000020941800203E
:1046700068190020F0EE005A20EE255A60EEA53AA7
:1046800020EE000A25EE014AF0EE444A03EEE14A2C
:1046900043EEA14A24EE836A65EE214AF0EE646A95
:1046A00043EE814A43EEC16A02EEE66AF0EE406AEA
:1046B00000EEE00A40EEA06A41EE416A41EEE16A96
:1046C00002EE266A80ED006A24EE826A65EE204AD8
:1046D00021EE255AF0EE400A01EE410AF0EE645A4E
:1046E00041EE010A45EE615A45EE214A01EEA10A6A
:1046F00041EEE10A03EE656A02EEA06A64EEA20AE8
:1047000042EE440A81ED006A43EE000AC2ED000A5F
:104710007047F0EE005A20EE255A20EEA54A20EE12
:10472000000A61EE255A65EE214AF0EE643A44EE45
:10473000414A44EE013A23EEA26A65EE013A25EEC3
:10474000205AF0EE636A44EE213A44EE616A03EEC9
:10475000666AF0EE406A00EEE00A40EEA06AF0EE13
:10476000400A41EE416A41EE010A01EE410A41EE82
:10477000E16A41EEE10A01EEA10A02EE266A80ED4D
:10478000006AB0EE456A05EEE15A05EEA16A26EE32
:10479000036A02EE646A02EEA06A63EE820A42EEE7
:1047A000C50A81ED006A43EE000AC2ED000A7047B7
:1047B00000B50346983003F1180290EC040A03F1A7
:1047C0001000011D90EC032AFFF7A3FF03F19800EE
:1047D00003F1240290EC040A7C38011D90EC032ABA
:1047E0005DF804EBFFF795BFF8B5044640684FF459
:1047F0008273984221D1A0684FF48065B0F5004FD4
:1048000001D0A8420AD12068066826F0400606605A
:104810006068984211D1A068A8420ED000920B4661
:1048200000228021204600F039F8002804D0606D75
:1048300040F0200060650320F8BD00920B46002286
:104840000121EFE738B504461248134B0068B0FB6E
:10485000F3F04FF47A73584300906068B0F5827FAC
:104860000DD10B46009200228021204600F016F860
:1048700070B1606D40F020006065032038BD009885
:1048800030B1401E009020688068C0430006F6D515
:10489000002038BD0C1A002000366E012DE9F843C7
:1048A0001E46914688460446089DFDF7B7F9401B11
:1048B000351AFDF7B3F9074625480068C0F3CB3039
:1048C000684338E0701C37D0FDF7A8F9C01BA84238
:1048D00003D215B1009860B32CE02068416821F044
:1048E000E00141606068B0F5827F0BD1A068B0F54F
:1048F000004F02D0B0F5806F04D12068016821F02C
:1049000040010160A06AB0F5005F09D1206801682C
:1049100021F4005101602068016841F400510160F8
:10492000012084F85100002084F850000320BDE8E5
:10493000F8830025401E00902068816838EA010055
:1049400004D000214945BDD10020F0E70121F9E75D
:104950000C1A0020D0ED000A11B130EE800A01E0FF
:1049600030EEC00A0A4A10EE101A80ED000A914299
:1049700003DD9FED080A80ED000AB5EEC00AF1EEF6
:1049800010FA03D29FED040A80ED000A7047000080
:10499000000025440000254400000000284D294C5B
:1049A000DFF8A4804FF47A7705262068401C206049
:1049B000D5F8181122488847FFF7C0F8FDF72EF9FF
:1049C000B84203D99FED210A85ED330A206858B11A
:1049D0005FF00000B0FBF6F106FB110058B398F849
:1049E0000010404611B126E00120F3E7B0F86A104C
:1049F00000EE101AB0F86810F8EE401A00EE101A27
:104A0000B0F86510B8F87000B8EE401A00EE101A51
:104A1000F8EE400A00EE100A0D48B8EE400AC16BED
:104A200088470B492E201C31FBF734FE08492F2004
:104A30002431FBF72FFE012003F01AF8B5E7000040
:104A4000680200200000002094180020CDCCCC3D4E
:104A5000FC0100200348FDF714F9012003F008F8D9
:104A6000F8E70000EC230020144D154C154E164FAE
:104A7000DFF85880DFF85890A96832208847D4F8CA
:104A8000B4110F488847716C0E488847D7F81C113D
:104A90000D488847D8F8CC100C488847D9F86810DA
:104AA0000B488847FFF706FDFFF738F8D4F8BC112C
:104AB00003488847012002F0DBFFDDE7EC0100201E
:104AC0002C000020FC010020680200209418002027
:104AD0006819002010B5502080F31188BFF34F8F64
:104AE000BFF36F8F04F092FD18B104494FF080506E
:104AF0000860002080F3118810BD000004ED00E084
:104B000030B593B030216846FBF715FC14210CA892
:104B1000FBF711FC1F480025016841F0805101603E
:104B2000006800F0805011901B48016841F48041FA
:104B300001600068022400F4804011900920009078
:104B40004FF4803001900120CDE9050480050790E5
:104B5000192008904FF4A870CDE9090404200B90A7
:104B60006846FDF76BFA08B172B6FEE70CA90F2094
:104B700081E831004FF4A0500F904FF48050109016
:104B800005210CA8FDF74EF9002801D072B6FEE70A
:104B900013B030BD40380240007000400248016848
:104BA00041F470010160704788ED00E00148FEF7B4
:104BB00054B80000942900200148FEF74EB80000C8
:104BC00098240020F0B50268254C264D264E274F2C
:104BD000274B4FF0804CA04209D0604507D0A84237
:104BE00005D0B04203D0B84201D0984204D122F09F
:104BF000700E4A6842EA0E02A0421BD0604519D0EE
:104C0000A84217D0B04215D0B84213D0984211D064
:104C1000184DA8420ED0184DA8420BD0174DA842EF
:104C200008D0174DA84205D0164DA84202D0164D07
:104C3000A84203D122F44075CA682A434D6922F084
:104C400080022A4302608A68C2620A688262A042C5
:104C500001D0984201D10969016301214161F0BD90
:104C6000000001400004004000080040000C00402B
:104C70000004014000400140004401400048014060
:104C800000180040001C00400020004010B584685F
:104C900042EA032224F47F440A432243826010BD87
:104CA000826822F070020A4342F007018160704777
:104CB00010B5036A046A24F001040462846924F0D4
:104CC000F00444EA021423F00A020A4384610262F7
:104CD00010BD10B5036A23F0100303628369046AF0
:104CE00023F4704343EA023224F0A00343EA0111A3
:104CF0008261016210BD000010B50448FBF7DBFFC4
:104D0000BDE810400148FEF767B80000E02400202D
:104D100010B50448FBF7CFFFBDE810400148FEF78F
:104D20005BB800002425002010B5806B0021C185F0
:104D3000C184FEF750F810BD70B5846B20684069DF
:104D400094F83D10C0F3C0100025212904D118B1FA
:104D5000E584204600F062F82068406994F83E102F
:104D6000C0F38010222904D118B1E585204600F057
:104D70002EF8206C40F0100020642046FEF72BF83F
:104D800070BD10B50146806B09680968C90516D465
:104D90000021C1840168143151E8002F22F0800203
:104DA00041E80023002BF5D101680C3151E8002FB8
:104DB00042F0400241E80023002BF5D110BDFEF780
:104DC000BBFB10BD10B5806BFEF7B7FB10BD0168D3
:104DD0000C3151E8002F22F4907241E80023002B9F
:104DE000F5D10168143151E8002F22F0010241E8A9
:104DF0000023002BF5D1016B012909D101680C3189
:104E000051E8002F22F0100241E80023002BF5D1D9
:104E1000202180F83E1000210163704701680C31A9
:104E200051E8002F22F0C00241E80023002BF5D109
:104E3000202180F83D10704708B590F83E102229D7
:104E400001D0022008BD82684FF480539A4201D1FC
:104E5000016921B1816A9A421BD04AB10AE0026815
:104E6000816A5268C2F308020A80816A891C08E0DC
:104E7000026972B10268526802F07F020A70816AA8
:104E8000491C8162C18D491E0904090CC18503D0EA
:104E900019E002685268F1E70168CA6822F020024E
:104EA000CA600168CA6822F48072CA6001684A69EF
:104EB00022F001024A61202180F83E10016B012995
:104EC00003D0FEF7F1FA002008BD0021016301685C
:104ED0000C3151E8002F22F0100241E80023002B92
:104EE000F5D101680A68D20602D50A6849680091BE
:104EF000818DFDF76FFFE6E7062919D2DFE801F0A3
:104F00001803070B0F13014604220A480EE001465E
:104F1000042209480AE001460422084806E0014646
:104F20000422074802E0014604220648FEF7BEBA02
:104F30007047000068250020AC250020F0250020E7
:104F4000E02400202425002070B504460068016993
:104F5000E26821F44051114301612169A068E269CE
:104F600008436169114308432168CA6849F20C6328
:104F70009A430243CA6020684169A26921F44071E2
:104F80001143416131492068884202D0304988424A
:104F900002D1FDF711F801E0FCF7FEFFE269002302
:104FA000192164253226B2F5004F626828D0A0FB93
:104FB0000101930F9200FBF765F90146B0FBF5F094
:104FC0006FF01802504301EB800006EB0010B0FBBD
:104FD000F5F000F0F002B1FBF5F002EB0012B1FBCE
:104FE000F5F06FF01803584301EB800006EB00105A
:104FF000B0FBF5F000F00F0021681044886070BD30
:10500000A0FB010192185B41FBF73CF90146B0FBA4
:10501000F5F00201B1FBF5F06FF01803584301EB16
:10502000800006EBC000B0FBF5F000F0F80002EBEA
:105030004002B1FBF5F0584301EB800006EBC000E5
:10504000B0FBF5F000F00700D6E7000000100140CB
:105050000014014010B50448FBF72DFEBDE81040D8
:105060000148FDF7B9BE0000682500200B4882B05A
:1050700001680A684A680092CA6842F01002CA6071
:1050800001684A6942F040024A610168806B4FF44E
:10509000AF73034A091D02B0FBF7DCBD6825002091
:1050A000381B002002494A6E0146014810470000A3
:1050B0006819002010B50448FBF7FDFDBDE810405D
:1050C0000148FDF789BE0000AC2500200C4808B55A
:1050D00001680A684A680092CA6842F01002CA6011
:1050E00001684A6942F040024A6112210091016858
:1050F000044B806BA3F11802091DFBF737FC08BDB8
:10510000AC250020AE1C00200249D1F8B821014690
:10511000004810472C00002010B50448FBF7CBFDD9
:10512000BDE810400148FDF757BE0000F025002003
:105130000B4882B001680A684A680092CA6842F067
:105140001002CA6001684A6942F040024A6101687F
:10515000806B4FF4AF73034A091D02B0FBF77ABDB1
:10516000F0250020C61C0020704700000B4882B0CC
:1051700001680A684A680092CA6842F01002CA6070
:1051800001684A6942F040024A610168806B4FF44D
:10519000AF73034A091D02B0FBF75CBDE024002099
:1051A000241E0020704700000B4882B001680A6886
:1051B0004A680092CA6842F01002CA6001684A69EF
:1051C00042F040024A610168806B4FF4AF73034ABA
:1051D000091D02B0FBF73EBD24250020821F0020E0
:1051E0000249D1F8C8200146004810479418002011
:1051F000FEE7000030B50C46050014D0022C12D991
:105200000A48A11E02882846FBF732FE2919C2B2BD
:1052100011F8023C9A4206D111F8011CB1EB102F93
:1052200001D1012030BD002030BD000090180020C9
:1052300030B50C4605000ED0022C0CD9601E81B290
:10524000FF222846FBF72AFE291911F8011C81428A
:1052500001D1012030BD002030BD0907090E002812
:1052600004DB00F1E02080F80014704700F00F002C
:1052700000F1E02080F8141D704702E008C8121FFA
:1052800008C1002AFAD170477047002001E001C12F
:10529000121F002AFBD1704710B59FED7F2A4FF0F7
:1052A0007E54F7EE003A9FED7D1ADFED7D2AF5EE94
:1052B000C00A7C49F1EE10FA3DDDC0EE201A002351
:1052C000F5EEC01AF1EE10FA02D20123F1EE611AE6
:1052D00011EE902AA24215DD83EEA10A5FF00102D1
:1052E000C2F1090401EB8404F0EE411AD4ED000A86
:1052F000521C0A2AB0EE601A00EE211AF0DB32EEE0
:10530000C10A12E05FF00102C2F1090401EB84045A
:10531000F0EE410A94ED000A521C0A2AB0EE401A3F
:1053200001EEA01AF0DB31EE020A0BB1B1EE400A39
:1053300080ED000AA3E0F5EEC00AF1EE10FA7DD28E
:105340009FED593AB5EEC00AF1EE10FA3DDDC0EE20
:10535000201A0023F5EEC01AF1EE10FA02D2012352
:10536000F1EE611A11EE902AA24215DD83EEA10A38
:105370005FF00102C2F1090401EB8404F0EE411A6E
:10538000D4ED000A521C0A2AB0EE601A00EE211A6F
:10539000F0DB32EEC10A12E05FF00102C2F1090453
:1053A00001EB8404F0EE410A94ED000A521C0A2A33
:1053B000B0EE401A01EEA01AF0DB31EE020A0BB19A
:1053C000B1EE400A30EE030AB2E7B5EEC00AF1EEE4
:1053D00010FA3ED2C0EE201A0023F5EEC01AF1EE0C
:1053E00010FA02D20123F1EE611A11EE902AA242C4
:1053F00014DD83EEA10A0122C2F1090401EB840449
:10540000F0EE411AD4ED000A521C0A2AB0EE601ADE
:1054100000EE211AF0DB32EEC10A14E05FF0010267
:10542000C2F1090401EB8404F0EE410A94ED000A94
:10543000521CB0EE401A01EEA01A00E013E00A2A56
:10544000EEDB31EE020A0BB1B1EE400A30EE430A58
:105450006EE710EE101A002902DA9FED140A67E7D2
:1054600080ED003A0BE0F5EEC00AF1EE10FA10D133
:10547000B5EEC00AF1EE10FA03DDC0ED002A0020FF
:1054800010BDB5EEC00AF1EE10FA02D29FED080A87
:105490004EE76FF0030010BD00000000A59204BDB0
:1054A000DB0FC93F9C970008DB0F4940DB0F49C069
:1054B000DB0FC9BF9FED1D1AF5EE000A40EE010A91
:1054C000BDEEE00AF5EEC00A10EE100AF1EE10FA99
:1054D00000D2401E00EE100AB8EEC00A30EEC00A3C
:1054E000DFED130A20EE200ABCEEC01A11EE100AFE
:1054F00080B2B0F5007F02D330EE600A002000EEEB
:10550000900A0C49F7EE001AF8EE600A01EB8000F1
:1055100090ED011A70EE600A90ED000A71EEE01A4B
:1055200021EE800A00EE810A7047000083F9223ED6
:1055300000000044C4970008DFED1C0A20EE200A9A
:10554000FDEEC00AB5EEC00A10EE900AF1EE10FAB8
:1055500000D2401E00EE900AF8EEE00A30EE600A3B
:10556000DFED130A20EE200ABCEEC01A11EE100A7D
:1055700080B2B0F5007F02D330EE600A002000EE6A
:10558000900A0C49F7EE001AF8EE600A01EB800071
:1055900090ED011A70EE600A90ED000A71EEE01ACB
:1055A00021EE800A00EE810A7047000083F9223E56
:1055B00000000044C49700082DE9F04105460F465D
:1055C0009046104602F048FAA8BBA5B398F8476089
:1055D000002424E004EB840101EBC40215F822103E
:1055E00051B1012908D0022906D0092904D0042983
:1055F0000DD3012E07D00AE005EB820042460121BF
:1056000000F017FA09E04146002000F099FB40B98C
:1056100042462146284600F05CFF641CE4B2BC42CE
:10562000D8D3012E09D1002807D14146BDE8F04169
:10563000012000F085BB4FF0FF30BDE8F081000095
:1056400010B5044602F008FA00282BD1242020705F
:105650004FF40050A4F84A000320A4F84800607AF0
:1056600020B10020E072206910B103E00120F9E7C9
:105670000D482061204600F027FB002812D10B487E
:10568000E061333020620820207511216175072107
:10569000A1750749E16584F860002046BDE8104027
:1056A00000F04EB910BD0000CEA20008CEC2000826
:1056B000D81900202DE9FC4104460020CDE9000066
:1056C0000D461646104602F0C7F970BB6CB36A4629
:1056D0002946204602F03AFD002824D1DDE90041A8
:1056E0000D463246204600F075FD00281BD124F0FF
:1056F000070125F00102114315D096F84770012FDC
:1057000004D1314600F01CFB00280CD13246204663
:10571000294600F09AFD012F05D1002803D131461A
:10572000012000F00DFBBDE8FC81FFE74FF0FF30EA
:10573000F9E72DE9F04105460F469046104602F084
:105740008BF998BB95B398F84760002422E004EBEE
:10575000840101EBC40215F8221041B1012906D0E1
:10576000022904D0092902D0012E07D00AE005EB56
:1057700082004246012100F043FB09E0414600203F
:1057800000F0DEFA40B942462146284602F0B3FE58
:10579000641CE4B2BC42DAD3012E09D1002807D13F
:1057A0004146BDE8F041012000F0CABA4FF0FF3099
:1057B000BDE8F08170B504464FF47A7503E000212E
:1057C000284600F003F8641EF9D270BD70B5054696
:1057D00000F068FA4FEA000400F064FA001BA842E7
:1057E000FAD370BD7047F0B5044600231846557DC6
:1057F00011E0D66903EB4307F65D8E4209D1D0690B
:1058000003EB43010844018821808078A0700120C7
:10581000F0BD5B1CDBB29D42EBD8F0BD2DE9F74338
:105820004FF0000514465FEA01094FF010064FF0F3
:1058300030082F4626D02CB3207D9DF800108842DA
:1058400039D91346012269462F2000F0A3FA002817
:105850001AD1E089102827D2C10701D0401EE0816B
:10586000E28909EB0701B24223460FD8404600F017
:10587000A1F8A17BCA19D7B201EB080202F0FF0818
:10588000294408E04FF0FF30BDE8FE833246404631
:1058900000F090F8A919CDB2C5F11001CEB20028E0
:1058A000F2D1002EDCD1EFE723461022494630200A
:1058B00000F080F8E8E76FF00900E5E72DE9F04730
:1058C00006460F469146104602F0BAF8A0BB9EB3BA
:1058D00099F8475000242CE006EB041898F80010C3
:1058E000042905D3012D03D14946002000F028FAF0
:1058F000B0B998F8000009280BD0292803D06FF020
:105900000700BDE8F08708F10400494600F04BFEAF
:1059100004E008F10400494600F0C3FE0028F0D17D
:10592000012D04D118B94946012000F009FA641C80
:10593000E4B2BC42D0D3E4E7FFE74FF0FF30E0E74A
:105940001FB5044690F84800800716D5204602F09F
:1059500077F818B14FF0FF3004B010BD29208DF852
:105960000000224601216846FFF7A8FF0028F3D176
:10597000BDF80410A4F84410EEE76FF00700EBE761
:1059800070B505460C46084602F05AF860B95DB19C
:10599000226C07486168904723462946BDE870405D
:1059A0000122212000F006B84FF0FF3070BD00004A
:1059B000E02202002DE9F0438046A1B01746894657
:1059C0001C460025184602F03BF806002BD1B9F121
:1059D000000F28D0607A08B948F08008E07AD4F83F
:1059E00038C0C219694640466368E047A07294F81F
:1059F0004700226C6168012806D002209047A07AF7
:105A000068B16FF0010610E04FF4E170F6E7E17A5B
:105A100042198A5C09F805206D1CADB200E06846A9
:105A2000BD42F4D301E04FF0FF3621B03046BDE86F
:105A3000F0832DE9F047044688469146104601F070
:105A4000FFFF80BB7CB399F8477000253CE005EB75
:105A5000850000EBC50614F82600042801D20228B0
:105A600007D1012F05D14946002000F069F900282F
:105A700038D114F8260040B101280DD0022813D0E7
:105A8000092818D06FF0070020E004EB8600494693
:105A9000801C00F063FC14E004EB86004946801C87
:105AA00000F052FD0DE01BE004EB86004946801C2F
:105AB00000F0BAFC05E004EB86004946801C00F0CB
:105AC000ABFD18B96D1CEDB24545C0D3012F09D10E
:105AD000002807D14946BDE8F047012000F030B961
