:020000040800F2
:10000000A077002061020008335C0008ED50000872
:10001000315C0008910B0008A97E00080000000078
:10002000000000000000000000000000A101000826
:10003000C724000800000000FD010008ED7500085D
:100040007B0200087B0200087B0200087B0200089C
:100050007B0200087B0200087B0200087B0200088C
:100060007B0200087B0200087B020008FD200008DC
:100070000921000815210008212100082D21000870
:10008000392100087B0200087B0200087B0200087F
:10009000BD0B00087B0200087B0200087B02000801
:1000A0007B0200087B0200087B0200087B0200083C
:1000B000C57600087B020008D17600087B020008A4
:1000C0007B0200087B0200087B0200087B0200081C
:1000D0007B0200080D7D00086D7D0008D17D0008C1
:1000E0007B0200087B0200087B0200087B020008FC
:1000F0007B0200087B0200087B0200084521000803
:100100007B0200087B0200087B0200087B020008DB
:10011000B1790008C97900087B0200087B02000859
:100120007B0200087B020008512100087B020008C6
:100130007B0200087B0200087B0200087B020008AB
:100140001D0C00087B0200087B0200087B020008EF
:100150007B0200087B0200085D2100087B0200088A
:100160007B0200087B0200087B0200087B0200087B
:100170007B0200087B0200087B02000800000000F0
:100180007B0200087B020008DFF810D000F07CFB47
:10019000004800474DAA0008AFF30080A077002078
:1001A0002C4B19680868B0E8F04F80F30988BFF35A
:1001B0006F8F4FF0000080F311887047000000003F
:1001C00008480068006880F308884FF0000080F35A
:1001D000148862B661B6BFF34F8FBFF36F8F00DF35
:1001E00000BF00BF08ED00E0DFF80C00016841F43B
:1001F00070010160704700BF88ED00E0EFF30980F7
:10020000BFF36F8F134B1A681EF0100F08BF20ED5D
:10021000108A20E9F04F106009B44FF0500080F3CD
:100220001188BFF34F8FBFF36F8F0CF0B3FB4FF00C
:10023000000080F3118809BC19680868B0E8F04F25
:100240001EF0100F08BFB0EC108A80F30988BFF3CE
:100250006F8F7047DC220020EFF3058070470000AD
:100260000648804706480047FEE7FEE7FEE7FEE750
:10027000FEE7FEE7FEE7FEE7FEE7FEE7B5760008ED
:10028000890100082DE9F05F0546002092469B4653
:1002900088460646814640241BE02846414647469C
:1002A000224600F0ADF953465A46C01A914110D388
:1002B00011461846224600F016F82D1A67EB010881
:1002C0004F4622460120002100F00DF817EB0009EF
:1002D0004E41201EA4F10104DFDC484631462A4687
:1002E0004346BDE8F09F202A04DB203A00FA02F1E1
:1002F000002070479140C2F1200320FA03F3194314
:1003000090407047202A06DBCB17203A41FA02F0D2
:1003100043EAE07306E041FA02F3D040C2F1200262
:10032000914008431946704740EA01039B0703D0F8
:1003300009E008C9121F08C0042AFAD203E011F824
:10034000013B00F8013B521EF9D27047D2B201E0E6
:1003500000F8012B491EFBD270470022F6E710B5CA
:1003600013460A4604461946FFF7F0FF204610BD23
:100370002DE9FE4F804681EA0300C00F0C46009035
:1003800021F0004123F00045B8EB0200A94105D25D
:100390004046214690461C460B46024623F000404C
:1003A000104347D0270DC7F30A00C3F30A51029048
:1003B000401A019040286BDAC3F3130040F4801B0D
:1003C0000098924620B10023D2EB030A63EB0B0B9B
:1003D00001985946C0F140025046FFF784FF064697
:1003E0000D4650465946019AFFF78CFF10EB080066
:1003F0006141002487EA115284EAE7731A4340D02E
:10040000009A62B3019A012A4FEA075215DC001BD9
:1004100061EB02014FF0004202EA0752CDE90042CF
:10042000001C41F5801132462B4600F03FF903B025
:10043000BDE8F08F40462146F9E7001B61EB020161
:10044000001C41F5801300185B412018A2F500172D
:1004500047EB030140EAD570B6196D4111E06D0814
:100460004FEA360645EAC0754FEA0752001B61EBBA
:100470000201001C41F5801149084FEA30000019C3
:10048000514132462B4603B0BDE8F04F00F0FFB8B3
:100490000098012240000023D0EB020263EBE073DE
:1004A000009821464FEAE074B8EB000061EB0401CC
:1004B000E9E783F000435BE781F0004158E72DE96D
:1004C000FE4F81EA030404F0004421F0004100944F
:1004D0004FF0000B23F0004350EA01045ED052EAD3
:1004E00003045BD0C3F30A54C1F30A552C44A4F2AD
:1004F000F3340194A0FB0254C1F3130141F48011C1
:10050000C3F3130343F4801301FB024400FB034EC7
:10051000840A970A44EA815447EA8357A4FB076890
:1005200002958D0A05FB07854FEA932C04FB0C54BA
:100530002705029D4FEA065847EA1637B5EB08052E
:100540006EEB070C870E920E47EA811742EA831280
:10055000A7FB0201B6EB0B0164EB00042B0D43EA91
:100560000C335E1844EB1C50DA465146E7FB02019F
:10057000C5F313044FEA0B3343EA14534FEA043232
:10058000019C43EA0603A4F10C040294009CCDE90B
:1005900000B400F08BF803B0BDE8F08F00200146F6
:1005A000F9E700F0004230F000400AD0C10D01F53B
:1005B0006071C0F3160042EA0151C20840071143BE
:1005C000704700200146704701F0004330B421F02D
:1005D000004150EA010206D00A0DA2F56072C1F393
:1005E0001301002A02DC30BC00207047440F44EAAB
:1005F000C104C100E01830BC00EBC25000F010B8DC
:10060000202A04DB203A21FA02F00021704721FA67
:1006100002F3D040C2F120029140084319467047CE
:100620000029A8BF7047401C490008BF20F0010006
:10063000704710B4B0FA80FC00FA0CF050EA0104E4
:1006400004BF10BC704749B1CCF1200421FA04F476
:1006500011FA0CF118BF012121430843A3EB0C014F
:10066000CB1D4FEA00614FEA102042BF002010BCB2
:10067000704700EBC35010440029A4BF10BC704762
:10068000401C490008BF20F0010010BC704710B5A5
:10069000141E73F1000408DA401C41F100019218A5
:1006A0005B411A4301D120F0010010BD2DE9F04D4E
:1006B00092469B4611B1B1FA81F202E0B0FA80F2A3
:1006C00020329046FFF70FFE04460F4640EA0A002C
:1006D00041EA0B0153465A46084313D0114653EAE8
:1006E000010019D0C8F140025046FFF789FF0546C6
:1006F0000E46504659464246FFF7F5FD084305D0E1
:10070000012004E020463946BDE8F08D0020054375
:1007100046EAE0762C4337430A986305E40AA0EBE7
:1007200008000022FD0A44EA47540A3002D500209E
:100730000146E9E7010510196941DDE9084500199D
:100740006941BDE8F04DA2E72DE9F04D81EA0304CF
:1007500004F0004B21F0004514464FF0000A23F04E
:10076000004150EA050220D054EA01021DD0C5F331
:100770000A570246C5F31303C1F31300C1F30A5627
:1007800040F4801543F48013A7EB0608101BD646EF
:1007900008F2FD3873EB050002D308F1010801E00F
:1007A00092185B41B8F1000F03DA00200146BDE862
:1007B000F08D00204FF48011064684460EE0171B92
:1007C00073EB050705D3121B63EB050306434CEAE5
:1007D000010C49084FEA300092185B4150EA0107CA
:1007E000EDD152EA030012D082EA040083EA050147
:1007F000084305D0101BAB4106D20122002306E0BE
:1008000000224FF0004302E06FF0010253101AEB98
:1008100006004CEB085110EB0A0041EB0B01BDE860
:10082000F04DFFF734BF0EB5C10F80EAE070084409
:10083000CA07002140F233438DE80E000A460B46FA
:10084000FFF734FF03B000BD70B5C1F30A5201F0E9
:1008500000450024C1F3130140F2FF3341F480113D
:100860009A4201DA002070BD40F233439A42A2F26C
:10087000334203DC5242FFF7C3FE00E090402C43BA
:10088000F1D0404270BD0000064C074D06E0E06824
:1008900040F0010394E8070098471034AC42F6D3C7
:1008A000FFF776FC24FC000844FC00080EB540F27B
:1008B000334102910021CDE900110A460B46FFF7B2
:1008C000F5FE03B000BD70B58C1810F8015B15F093
:1008D000070301D110F8013B2A1106D110F8012BB2
:1008E00003E010F8016B01F8016B5B1EF9D12B07D7
:1008F00005D40023521E0DD401F8013BFAE710F88D
:10090000013BCB1A921C03E013F8015B01F8015B79
:10091000521EF9D5A142D8D3002070BD10B5F6EE15
:10092000000A2DED088B044690ED350A90ED047A0F
:10093000D0ED053A20EE204AD0ED064A27EE230AF4
:10094000D0ED335A90ED346A90ED222A20EE240A3D
:10095000D0ED231AD0ED242A90ED253AD0ED077A78
:10096000D0ED086A90ED095AB5EEC00AF1EE10FA22
:100970007DD022EE020A01EEA10A02EEA20A03EEE7
:10098000030A09F00DFF22EE002A61EE801A62EEE2
:10099000802A23EE003A27EE070A03EEA30A04EEAC
:1009A000A40A09F0FDFE27EE001A63EE803A64EE19
:1009B000800A21EE830AB0EE00AA714802EE620AB4
:1009C00020EE0A7A22EE210A02EE830A20EE0A8A3B
:1009D00022EE020A01EEE10A02EEE20A03EE030A47
:1009E00063EE804A40EEC84A60EE870A41EE400A54
:1009F00021EE081A45EEA47A03EEC71AD0ED013AAB
:100A000045EEA06A44EE863A05EE815AF0EE425A6F
:100A1000C0ED013A90ED020A77EEA33A00EE860AA5
:100A2000F0EE610A60EEE31A80ED020A90ED037ABF
:100A300036EE800A01EE067AB0EE621A62EE232AE2
:100A400041EE401A80ED037A35EE076A41EE062A40
:100A500043EE461A43EE402A41EE845AF0EE601A05
:100A600042EE841AB0EE615A62EE001A00E083E0B2
:100A700040EEC61A22EE062AF0EE412A00EE802A47
:100A800043EE231A25EEA50A01EE632A41EE842ADD
:100A900005EE050A02EE043AF0EE624A04EEA40AFC
:100AA00003EE030A09F07CFE25EE008A65EE80AABB
:100AB00064EE808A23EE009A28EE0A0A2AEE8A1A49
:100AC000C4ED22AA04F18C0060EE099AB7EE000A88
:100AD00080EC038A41EE689A09EEE90AB5EEC00A95
:100AE000F1EE10FA02DBB1EEC0BA01E09FED25BADB
:100AF0006AEEAA0A28EE8A0A04F16000F0EE60BAF3
:100B000048EE480A20EE090A01EE080A48EEE80A13
:100B100049EE090A07F01AFF04F15C00F0EE4B0AF7
:100B2000B0EE690A07F012FFF0EE6B0A28EE280A11
:100B300048EE080A04F158000AEE890A48EEE80A6D
:100B400020EE0A0A49EE490A07F000FFD4ED180A20
:100B50009FED0D0A9FED0D1A60EE800AC4ED180A94
:100B6000D4ED170A60EE810AC4ED170AD4ED160A17
:100B700020EE800A84ED160ABDEC088B10BD000043
:100B8000E804002000000000DF2E6542DF2E65C271
:100B9000FEE7000000B58BB0684600F063F86946D8
:100BA000054801F03BFF0221034801F0B7FE02486F
:100BB00002F04CFA0BB000BD6C2C0020014802F092
:100BC00028B800006C2C00200A460146014800F0BD
:100BD00083B800006C2C002070B50C46054605F06B
:100BE00057FA034822462946036CBDE8704018476F
:100BF0008C04002000B58BB0684600F033F86946DD
:100C0000054801F00BFF0221034801F087FE02486E
:100C100002F01CFA0BB000BD942C0020014801F03A
:100C2000F8BF0000942C00200A460146014800F05D
:100C300053B80000942C002070B50D46044605F012
:100C40004DFA06482A462146036C98470448224636
:100C50002946836DBDE87040303018478C04002071
:100C6000F82000200021016041608160C1600161C5
:100C700001224161C0E90612C0E908217047000065
:100C800010B5124A016891420DD1114B00211C464A
:100C9000A3F11C0201F049FF0D4821461C380068F1
:100CA000FFF79AFF10BD0B4A9142FBD1084B002180
:100CB00024331C46A3F11C0201F037FF04482146EF
:100CC00008300068FFF7B8FF10BD00000064004066
:100CD0006C2300200068004038B50B46164C0168B4
:100CE000A14201D1154904E0154CA14222D113497A
:100CF00020310B6000238B60CB6008230B611388CD
:100D00001B0A0B7613784B7653881B0A8B769378E5
:100D1000CB7693881B0A0B7713794B77D3881B0A02
:100D20008B779279CA776B4601F1180201F008FEC1
:100D3000002800D0012038BD006400409823002026
:100D400000680040BCEEC00A10EE101AC180704767
:100D500010F8341F491CC9B200F80819427A9142B0
:100D600002D90272012103E00178012901D1002199
:100D70000170704770B50346006B1446884221D15C
:100D8000124D20886E4240BA00B2DFED0F0AB3EE7A
:100D90000E0A2A46314609F019FD83ED040A6088DF
:100DA000FBEE040A40BA00B2B3EE040A2A4631460A
:100DB00009F00CFD83ED050AA08840BA18830020D5
:100DC00083F8340070BD0000000000000083FFFFC6
:100DD000018881830189C1834189018470474188E9
:100DE00081848188C184C18801858189418570475A
:100DF000BCEEC00A024600B510EE100ABCEEE00AD6
:100E0000108010EE100ABCEEC10A508010EE100ADD
:100E1000BCEEE10A108110EE100A5081908920F09A
:100E2000020040F0010090811046FFF7D1FF10460C
:100E30005DF804EBFFF7D3BF70B5294C827B2748E0
:100E4000E16D012A02D0022A08D029E090ED161A9D
:100E5000D0ED170A90ED180A70301DE0214AD4ED4C
:100E6000050AD4ED041AB2F91C3AB2F9A02C00EE2E
:100E7000103A1C30B8EEC00A60EE800A9FED1A0AE4
:100E800080EE801A00EE902AF8EEE00A61EEA01AD9
:100E9000C1EE800A9FED150AD0EC031A104888476E
:100EA000134D134855F8901F8847124E114856F8B5
:100EB000E81F8847216E0A48884769680C488847B8
:100EC00071680C488847A16E05488847A96808489A
:100ED00088477169BDE8704006480847F80400205B
:100EE00078010020480600203D0AB64100000000BD
:100EF000E40100207800002070B504460C4800256D
:100F000001218583C58305844584A26D20469047D1
:100F1000E26D002120469047226E00212046904736
:100F20006571A5712572E57102202073607070BD36
:100F3000A802002070B504462DED028B90ED0B0A3F
:100F40009FED6C8AF0EE480A05F028FBB5EEC00A6A
:100F5000694EF1EE10FA694D15DD94ED0B0AF0EED5
:100F6000480A05F01BFB10EE100AB0420BDAD4ED74
:100F70000B0A95ED020AF4EEC00AF1EE10FA22DC3B
:100F8000B0EE600A1FE094ED0B0AF0EE480A05F09F
:100F900005FB10EE100AB04217DD94ED0B0AF0EEDF
:100FA000480A05F0FBFA10EE100A554988420CDA9F
:100FB000D5ED010A94ED0B0A78EE600AB4EEE00A72
:100FC000F1EE10FADCD384ED0B0AA07BDFED4D8A45
:100FD000012802D0022845D07AE094ED100AC0EE34
:100FE000280A94ED0B0A30EE800AF0EE480A05F06C
:100FF000D5FAD5ED010A78EE600AB4EEE00AF1EE1A
:1010000010FA12DAD4ED100A80EEA80AD4ED0B0A19
:1010100030EE200AF0EE480A05F0C0FAD5ED020ADB
:10102000B4EEE00AF1EE10FA0DD894ED100AC0EE1D
:10103000280A94ED0B0A30EE800AF0EE480A05F01B
:10104000ADFA84ED0B0A94ED0F0AC0EE280A94ED78
:101050000A0A30EE600AF0EE480A05F09FFA84EDC5
:101060000A0A35E094ED100AC0EE280A94ED0B0A46
:1010700030EE800AF0EE480A05F090FAD5ED010A4C
:1010800078EE600AB4EEE00AF1EE10FA12DAD4ED6E
:10109000100A80EEA80AD4ED0B0A30EE200AF0EE1A
:1010A000480A05F07BFAD5ED020AB4EEE00AF1EE4B
:1010B00010FA0DD894ED100AC0EE280A94ED0B0A30
:1010C00030EE800AF0EE480A05F068FA84ED0B0A6B
:1010D000E0799FED0D0A022801D184ED0B0A94ED11
:1010E0000A1AD4ED0B0A696D0448BDEC028BBDE809
:1010F000704008470000B4430000344378010020EA
:101100000000B4430000C8420000000010B50446CF
:101110004078012808D1617C2046FFF7EDFE607819
:10112000022801D1607C6073A078012808D1A17CDD
:10113000204600F04FF8A078022801D1A07CA073CF
:10114000E078012803D1E07C0221E170E07320798E
:10115000012808D1217D204600F0C0FB207902281B
:1011600001D1207D207410BD427B8A4205D0002130
:101170004173026D012101481047704705000020AE
:10118000827B8A4205D000218173026D01210148D2
:101190001047704706000020C27B8A4205D000211C
:1011A000C173026D012101481047704707000020FC
:1011B00002788A4200D0017070470000027C8A42A7
:1011C00005D000210174026D0121014810477047CC
:1011D000080000202DE9F047524A534C4FF0000A16
:1011E0002DED028B0746A2F81CA0A2F81EA0A2F8C3
:1011F00020A0A2F822A0204684F8A4AA84F8E8AA95
:1012000084F828AD84F86CAD00F5286300F6C42896
:1012100000F6045600F648559FED448ADFF8109119
:10122000D0F8642C012902D0022922D052E0414991
:1012300018469047D4F8642C3F4940469047D4F86C
:10124000E82E3E4930469047D4F8E82E3C492846DF
:1012500090473C4CF0EE480A94ED170A05F09EF9D1
:1012600087ED0B0A94ED160AF0EE480A05F096F9A0
:101270002EE0354918469047D4F8642C334940464F
:101280009047D4F8E82E324930469047D4F8E82EFB
:1012900030492846904730489FED301AD0ED040A77
:1012A000B4F9A00C00EE100AB8EEC00A60EE800A95
:1012B00080EE810AF0EE480A05F070F987ED0B0A1E
:1012C00099F8020000B1B42000EE100AB8EE400A0E
:1012D00087ED0A0A99F802004C4610B1012805D0A2
:1012E0000FE09FED1F0AD4F8841003E09FED1D0A64
:1012F000D4F884100E488847D4F88C20A1780C4884
:101300009047D4F888200021094890473A6E002180
:101310003846904787F808A00220B870BDEC028BD1
:10132000BDE8F087A8020020480600200000B44372
:10133000E4010020A81F0020C41F0020E01F00209F
:10134000FC1F0020F804002088200020A42000209A
:10135000C0200020DC200020780100203D0AB6419A
:10136000000000000000344370B5424D0446C07ACE
:10137000D5F88820022808D002213E489047A07B5B
:10138000012804D002284CD06AE00121F5E7207A38
:1013900002281AD095ED1A0ADFED370A05F098F801
:1013A000D4ED120A9FED351AC4ED0C0AD4ED110AE2
:1013B000F1EE600AC4ED0D0AC0EE010A9FED300A9D
:1013C00020EE800A84ED0E0A4AE094ED120A2D49BF
:1013D00084ED0C0A94ED110AB1EE400A84ED0D0A79
:1013E00094ED130A84ED0E0A686E884210EE100A1E
:1013F0000ADD2549884202DB9FED240A0EE0DFED7D
:10140000240A30EE200A09E02249884202DCB3EEC9
:101410000E0A03E0DFED200A30EE600A84ED130AC5
:101420001EE094ED120A1D4884ED0C0A94ED110A99
:101430009FED1B1AB1EE400A84ED0D0A94ED0F0AE0
:10144000B1EE400A84ED0E0AB0F91C0AD5F88410FA
:1014500000EE100A0748F8EEC00A80EE810A8847BD
:101460003034D5F88010034894EC030ABDE870408E
:1014700008470000E40100200000B44300003443AA
:101480000000A042000020420000C8420000C84204
:101490000AD7A33B0000F0410AD7233C48060020AE
:1014A0003D0AB64170B5224C05468079D4F8DC205F
:1014B000022801D010B104E0012100E000211C4805
:1014C0009047E879022801D020B108E00121D4F842
:1014D000E02002E0D4F8E020002115489047E87BA6
:1014E00001281ED002280CD003280ED004281DD1BC
:1014F000B4F86200D4F8E43005280BD94FF47A62CE
:101500000AE00122D4F8E43002E0D4F8E430062204
:10151000022102E04FF4FA620321BDE87040044862
:10152000184700221146D4F8E430F6E770BD0000F9
:101530007800002070B505462DED028B90ED0F0A66
:10154000B5EEC00AF1EE10FA01DCB1EE400A10EE81
:10155000103A3E480221002295ED110A83421ADC1E
:10156000B5EEC00AF1EE10FA02DDF0EE400A01E03D
:10157000F1EE400A10EE903A83420CDCD5ED120AEF
:10158000F5EEC00AF1EE10FA01DCF1EE600A10EEA1
:10159000903A834201DDA97200E0AA72B5EEC00A5A
:1015A000F1EE10FA01DCB1EE400A10EE103A2848D4
:1015B00083420CDC95ED120AB5EEC00AF1EE10FA8A
:1015C00001DCB1EE400A10EE103A834201DDE9720F
:1015D00000E0EA72A87A1F4C9FED1F8A022801D012
:1015E00050B114E0B4F90400DFED1C0A00EE100A5B
:1015F000A16BB8EEC00A08E0B4F90400A16B00EEDC
:10160000100AF0EE480AB8EEC00A12488847287B54
:1016100002280FD0002816D1E088A16B00EE100A36
:10162000F8EE400A9FED0E0A0A48BDEC028BBDE8B9
:1016300070400847E088A16B00EE100AF8EE400AFF
:10164000B0EE480AF0E7BDEC028B70BD000020410F
:10165000000020428C04002000001643000000001F
:101660000000964270B50446006A18B902F006F808
:10167000401C2062324D287838B1207870B3287E23
:10168000626D01282DD001212CE001F0F7FFE0610F
:10169000002020706070A070E07020716071A071F7
:1016A000E071207260720146626D20469047A26D23
:1016B000002120469047E26D0021204690472148B6
:1016C0000021D0F8D42090471F480021026D904798
:1016D0001E480021826FBDE8704010470120207035
:1016E00070BD022120469047607B012822D002284D
:1016F000F6D1607195ED0C0A84ED0F0A95ED0D0A97
:1017000084ED100A95ED0E0A84ED110A95ED0F0A8D
:1017100084ED120AA88B0028E2D0BFF34F8F0C484B
:1017200001680C4A01F4E06111430160BFF34F8F7F
:1017300000BFFDE72046BDE8704005F0BBB80000E3
:10174000A80200207800002078010020E401002099
:101750000CED00E00400FA052DE9F04104462DED02
:10176000028B01F08BFF484EB0F5C87F07D29FED8A
:10177000470A86ED330ABDEC028BBDE8F0819FED90
:10178000440ADFF8108186ED330A0022D8F8E430ED
:101790001146404608F1DC0598476A68002140463A
:1017A00090472A680021404690473B4D012128463A
:1017B0002A6D9047A26D0221204690473748D5ED0B
:1017C000050AD5ED041AB0F91C1AB0F9A00C00EE08
:1017D000101A9FED348A1C36B8EEC00AE96D60EE2F
:1017E000800A9FED2F0A80EE801A00EE900A2846AC
:1017F000F8EEE00A61EEA01AC1EE800AD6EC031AF8
:10180000B0EE480A8847284EF0EE480AB0EE480A83
:1018100096ED061A284684ED0A1AC4ED0B0A696D86
:101820008847A8780227012802D1E87801280DD03E
:1018300001F024FFC4F8240001F020FFE169401A00
:1018400040F6B83188420AD927700BE001F016FF44
:10185000616A401AB0F5FA7FEED92770ECE720787C
:10186000022888D1D8F8D42001210A489047B26FC5
:1018700001210D489047A26D2046BDEC028B00214E
:10188000BDE8F04110470000F80400200000484285
:10189000CDCCCC3D78000020780100204806002007
:1018A0003D0AB64100000000E401002010B50446E6
:1018B0000078012820460CD0FFF73CFE2046FFF7B9
:1018C00039FB2046FFF750FD2046BDE81040FFF7EA
:1018D000E9BDBDE81040FFF73FBF00002DE9F04132
:1018E0002E4D0E462DED048B044601299FED298ACD
:1018F000DFED298A02D0022E14D02FE0284F9FED71
:10190000299A97ED170AF0EE490A04F047FE84ED94
:101910000B0A97ED160AF0EE490A04F03FFE84ED3B
:101920000A0A1BE02048D0ED040A2048B0F9A00CB8
:1019300000EE100AB8EEC00A20EE800ADFED1C0AA5
:1019400080EE201A84ED0B1AA87810B1012803D07C
:1019500015E084ED0A8A01E0C4ED0A8AA87810B186
:10196000012805D00AE0B0EE480AD5F8841003E05B
:10197000D5F88410B0EE680A0848884726B1226D71
:10198000022104F10900904702202071BDEC048B74
:10199000BDE8F0810000000000003443E4010020B5
:1019A000F80400200000B44378010020480600201D
:1019B0003D0AB6412DE9F04306462DED028B83B07A
:1019C0000020464C0090019071796D4604F5217716
:1019D00004F5A16804F28C79F1B3012941D1D4F85E
:1019E0006C1296ED0F0A20468847BDEEC00A216AA8
:1019F00010EE100A25F81100D4F8F01496ED100A34
:101A000038468847BDEEC00AD4F8A41210EE100A7A
:101A100025F81100D4F8741796ED110A404688474E
:101A2000BDEEC00AD4F8281510EE100A25F81100F2
:101A300096ED120AD4F8F81948468847BDEEC00A58
:101A4000D4F8AC1710EE100A25F81100694630469C
:101A500000F0D6F9694600E008E0D4F858221F48A3
:101A6000904703B0BDEC028BBDE8F08301F006FEA9
:101A7000316F401AB0F5967FF3D2D4F86C129FED17
:101A8000188A1648B0EE480A8847FDEEC00A216A57
:101A9000B0EE480A10EE900A25F81100D4F8F014C0
:101AA00038468847FDEEC00AD4F8A412B0EE480AC2
:101AB00010EE900A25F81100D4F8741740468847B4
:101AC000FDEEC00AD4F82815B0EE480A10EE900AD0
:101AD00025F81100D4F8F819AEE7000048060020F8
:101AE00000000000C17070470171704710B50446D6
:101AF00051B1012907D16079002804D1012060711A
:101B000001F0BCFD606710BD60790128FBD10020A9
:101B1000607101F0B3FD206710BD80ED060A7047CB
:101B200070B505462DED0A8B84B090ED1A2ADFEDD5
:101B3000AD2AC2EE221AB0EE002A61EE821A9FEDA3
:101B4000AA2AB5EEC00A21EE829AF1EE10FA02DD61
:101B5000F0EE401A01E0F1EE401A11EE900AA34CAB
:101B60009FEDA3AAA0421BDCF5EEC00AF1EE10FA2D
:101B700002DDF0EE601A01E0F1EE601A11EE900A5B
:101B8000A0420DDCB5EEC01AF1EE10FA02DDF0EE67
:101B9000411A01E0F1EE411A11EE900AA04205DD72
:101BA000B0EE4A0AF0EE400AB0EE401AE87801289A
:101BB0007ED0B0EE408AF0EE608A00BFF0EE419A2F
:101BC00019EE100AFEF7EDFC41EC100B06F030FAAE
:101BD000B0EE40BAF0EE60BA18EE900AFEF7E1FC03
:101BE00053EC1B2BFEF76BFC41EC1C0B19EE100A9F
:101BF000FEF7D7FC41EC100B06F0B6F9B0EE40BA98
:101C0000F0EE60BA18EE100AFEF7CBFC53EC1B2B7B
:101C1000FEF755FC53EC1C2BFEF74BFCFEF7D4FCF7
:101C2000064619EE100AFEF7BCFC41EC100B06F05C
:101C30009BF9B0EE40BAF0EE60BA18EE900AFEF7EB
:101C4000B0FC53EC1B2BFEF73AFC41EC1B0B19EEDE
:101C5000100AFEF7A6FC41EC100B06F0E9F9B0EE15
:101C600040CAF0EE60CA18EE100AFEF79AFC53EC78
:101C70001C2BFEF724FC53EC1B2BFEF779FBFEF725
:101C8000A3FCCDE90060CDED029A0321684604F083
:101C900007FC10EE100AA04208DD28796C469FED83
:101CA000558A50B101281CD002284CD08AE0FFE7A9
:101CB000B1EE408AF1EE608A80E70321204604F00D
:101CC000EFFB002004EB8001401C91ED001AC0B234
:101CD0000328C1EE000A60EE880AC1ED000AF1D3C4
:101CE00070E00221204604F0DBFB38EE401AB5EE2E
:101CF000C01AF1EE10FA10D25FF0000004EB800180
:101D0000401C91ED001AC0B20228C1EE000A60EE3C
:101D1000880AC1ED000AF1D352E0DDED020AF5EECA
:101D2000C00AF1EE10FA02DDB0EE600A01E0B1EE99
:101D3000600AB4EEC10AF1EE10FA01DCB0EE601AEE
:101D40008DED021A3EE00221204604F0A9FBDDEDF4
:101D5000020AF5EEC00AF1EE10FA01DCF1EE600ABB
:101D600078EE600AF5EEC00AF1EE10FA13DDB4EE7B
:101D7000E00AF1EE10FA25DD5FF0000004EB8001CF
:101D8000401C91ED000AC0B2022880EE201A81EDBD
:101D9000001AF3D316E0B4EEE00AF1EE10FA0FDD0C
:101DA0005FF0000004EB8001401C91ED001AC0B20E
:101DB0000228C1EE000A60EE880AC1ED000AF1D3E4
:101DC0008DED02AA9DED000A85ED080A9DED010A40
:101DD00085ED090A9DED020A85ED0A0A04B0BDEC05
:101DE0000A8B70BD0000B443DB0F49400000C842BD
:101DF000000000000000C84280ED0E0A704700009D
:101E000010B5D0ED170AB1EE001A90ED190A60EE88
:101E1000810A10EE102A2B4B9FED2B1AFCEEE00AE4
:101E20009A4210EE900A80B201DDB0EE410A10EE47
:101E3000102AC0EE010A254CA24201DA60EEA00A87
:101E400010EE102A00EE100A9A42B8EE400A01DAAB
:101E500020EE800AB1F90020002A00DC5242B1F9DC
:101E60000200002800DC40420244B1F904000028CE
:101E700000DC40420244B1F90600002800DC404288
:101E8000104400EE900AF8EEE00A80EE201AF4EE1C
:101E9000C00AF1EE10FA13DB5FF0000031F91020F8
:101EA00000EE102AB8EEC00A20EE010ABDEEC00A0C
:101EB00010EE102A21F81020401CC0B20428EDD3E7
:101EC00010BD000000007042000070420000C841D8
:101ED0000FB5017811B101291DD03CE0D0ED080A01
:101EE00090ED091AB1EE600A70EE411A90ED0A0AFF
:101EF00071EEC01ACDED001A71EE601A71EEC01AC3
:101F0000CDED011A70EEC11A70EE810A71EEC01AA1
:101F1000CDED021A1BE090ED081AD0ED090AB1EEE2
:101F2000410A70EE601A90ED0A0A71EEC01ACDED0A
:101F3000001A70EEC11A71EEC01ACDED011A71EEE1
:101F4000601A71EE200A71EEC01ACDED021A30EE61
:101F5000C00A8DED030A9FED0C0A00216A4600BFFE
:101F600002EB810393ED001A00EB8103491CC1EEE3
:101F7000000A90ED0E1AC9B2042960EE810AC3ED81
:101F80000F0AEDD30FBD00000000C84230B54F4925
:101F900000230124CA7D52B191F89B223AB191F8F5
:101FA0001F2522B191F8A3270AB1437000E04470C5
:101FB000474AB2F8705000EE105AB8EE400A80ED71
:101FC000190AB2F8655000EE105AB8EE400A80EDDA
:101FD000180A12781AB93F4A92F82C2002B39FEDE2
:101FE0003E0A00BF80ED170AB1F91C2A9FED3B1A8B
:101FF00000EE102AF8EEC00A80EE810A9FED381A32
:1020000070EE410AF5EEC00AF1EE10FA01DC71EE55
:10201000400A344D10EE902AAA4204DA847003E09C
:102020009FED310ADEE7837080ED1B0AD0ED060AD2
:1020300030EE600ADFED2D0AB5EEC00AF1EE10FABF
:1020400002D230EE200A06E010EE102A284B9A4207
:1020500001DB30EE600A80ED1A0AD0ED0E0A90ED39
:10206000021A80EE810A9FED231AC0EE010AB0EE3B
:10207000000A20EE800ADFED200A20EE200AD0EDD3
:10208000030A20EE200A80ED070AB1F9022000EED3
:10209000102AB8EEC00A80ED130AB1F9862200EECC
:1020A000102AB8EEC00A80ED140AB1F90A2500EE34
:1020B000102AB8EEC00A80ED150AB1F98E1700EEAD
:1020C000101AB8EEC00A80ED160A30BD480600208E
:1020D0005C2100208C04002000007A453D0AB641B6
:1020E000000034430000B4420000FA450000B4434D
:1020F0000000B44300007042DB0F4940014801F08A
:1021000033B80000C42F0020014801F02DB80000B2
:10211000A4310020014801F027B80000042F00205E
:10212000014801F021B8000004320020014801F00C
:102130001BB80000642F0020014801F015B8000012
:1021400044310020014801F00FB800002430002085
:10215000014801F009B8000084300020014801F076
:1021600003B80000E43000202DE9F04F856800241A
:10217000099E802D18D0894DC563894D456490F81E
:102180003450012D15D0012580F8345090F8355089
:10219000012D10D0002180F834100224002180F895
:1021A00034102046BDE8F08F4FF480714165012066
:1021B000F8E70220F6E7022580F83550002545654E
:1021C00005682F6847F480272F6005682B61036836
:1021D0005E608368402B03682AD099600168CA60FA
:1021E000714D704E704FDFF8BC81DFF8B891DFF8A9
:1021F000B8A1DFF8B4B1EA14DFF8A8E10168183635
:1022000030379302A9F148090AF1600A0BF1180B63
:10221000AEF1300E4FF0006C41452DD9A94205D0EA
:10222000494503D0514501D0B14205D1202220E0DB
:102230009A600268D160D3E759451AD0714518D029
:10224000594D7835A94214D0564D3035A94210D099
:10225000B9420BD0534A183A914207D0524A9032B1
:10226000914203D04F4A4832914201D11A4600E0D0
:1022700062464C494C392EE0DFF82C8108F1A80861
:1022800041452AD9A94205D0494503D0514501D03D
:10229000B14201D120221CE059451AD0714518D015
:1022A000414D7835A94214D03E4D3035A94210D069
:1022B000B9420BD03B4A183A914207D03A4A903281
:1022C000914203D0374A4832914201D11A4600E088
:1022D0006246344950390A605AE0DFF8CC8008F190
:1022E000480841452AD9A94205D0494503D051455E
:1022F00001D0B14201D120221CE059451AD07145CC
:1023000018D0294D7835A94214D0264D3035A94230
:1023100010D0B9420BD0234A183A914207D0224A32
:102320009032914203D01F4A4832914201D11A465D
:1023300000E062461C491039CA6029E0A94205D074
:10234000494503D0514501D0B14201D120221CE0C2
:1023500059451AD0714518D0134D7835A94214D07B
:10236000104D3035A94210D0B9420BD00D4A183A61
:10237000914207D00C4A9032914203D0094A483228
:10238000914201D11A4600E06246074910398A603D
:1023900001680A6842F001020A60FFE659980008E5
:1023A00071980008586402401060024001681823C8
:1023B000CAB2103AB2FBF3F2054B6FF30901032ADC
:1023C0009B5CC36500D9091D816508467047000004
:1023D000ACFA000810B5014600208B698A6A4FF0FC
:1023E000C07453B1B3F5005F15D072B1012A0CD09F
:1023F000022A0AD0032A09D104E01AB1012A06D020
:10240000022A03D1C96AC90100D5012010BDC96AD9
:10241000A142FAD010BD002AF7D0012AF2D0022A38
:10242000F3D0032AF3D010BD30B50468256825F435
:1024300080252560046863608368402B036803D0AF
:1024400099600068C26030BD9A600068C16030BDAC
:1024500070B590F834500024012D0CD0012580F87F
:10246000345090F835600025012E06D080F83450A5
:102470000224204670BD022070BD022680F835601F
:10248000456505682E6826F480262E6005686B6019
:102490008368402B036808D099600168CA600068AF
:1024A000016841F001010160E3E79A600268D160D0
:1024B000F5E701680A68D20604D5C968C90601D5DE
:1024C0000AF078B870477047F0B5404890F84D1062
:1024D0000A2945D20122A0F8A2200222A0F8A420B5
:1024E0000322A0F8A6200422A0F8A8200522A0F824
:1024F000AA2040F201170622A0F8AC207E1C072279
:10250000A0F8AE20751C6C1CA0F8B070A0F8B260EA
:10251000631CA0F8B450A0F8B6405A1CA0F8B8301C
:10252000A0F8BA2001290CD002290DD003290ED021
:1025300004290FD0052910D0062901D1A0F8BC200C
:10254000F0BDA0F8BC70F0BDA0F8BC60F0BDA0F874
:10255000BC50F0BDA0F8BC40F0BDA0F8BC30F0BD50
:102560006522A0F8A2206622A0F8A4206722A0F885
:10257000A6206822A0F8A8206922A0F8AA2040F28C
:1025800065176A22A0F8AC207E1C6B22A0F8AE2052
:10259000751C6C1CA0F8B070A0F8B260631CA0F8A9
:1025A000B450A0F8B6405A1CA0F8B830A0F8BA2031
:1025B0006529C6D06629C7D06729C8D06829C9D07F
:1025C0006929CAD06A29B9D0F0BD00005C21002079
:1025D0000EB590ED180AD0ED1B0A9FED1E2A0021C2
:1025E00030EE600A6A468DED000A90ED170AD0EDD4
:1025F0001A0A30EE600A8DED010A90ED160AD0ED50
:10260000190A30EE600A8DED020A00BF02EB810369
:10261000F0EE420A93ED000A07F0DBFD491CC9B257
:1026200083ED000A0329F1D3DDED000A90ED350AB0
:1026300080EE801A80ED1C1ADDED010A80EE801A12
:1026400080ED1D1ADDED020A80EE801A80ED1E1A63
:102650000EBD00000000B44372B6FEE78279C17976
:102660008A4202D0002202608171704710B558B1D1
:10267000084C491E0BD310F8013B5340DBB234F831
:10268000133083EA1222F4E74FF6FF7010BD1046B4
:1026900010BD0000ECD7000810B5064C04E000BFE8
:1026A00010F8013B5340E25C491E89B2F8D2104653
:1026B00010BD0000ECD60008F0B507462DED028BEA
:1026C00083B0274C40786D4604F52166F0B10128AF
:1026D00018D197ED0E0AD4F8301ABDEEC00A10EEEC
:1026E000100A25F8110097ED0D0AD4F8B41CBDEEC0
:1026F000C00A10EE100A25F81100D4F8682C2946FB
:102700003046904703B0BDEC028BF0BD00F0B6FF41
:10271000B96C401AB0F57A7FF4D2D4F87C1C9FEDE6
:10272000118A3046B0EE480A8847FDEEC00AD4F858
:10273000301AB0EE480A10EE900A25F81100D4F8CD
:10274000001F09488847BDEEC00AD4F8B41C10EE3B
:10275000100A25F811006946D4F8682CD0E700006B
:102760004806002000000000DC12002071EE600A24
:10277000084930EE800A80EE201ADFED050A21EECE
:10278000200A10EE100A884201DD30EE600A704720
:102790000000B4430000B44310B5044651B1012910
:1027A00007D16078002804D10120607000F066FF36
:1027B000E06410BD60780128FBD10020607000F05B
:1027C0005DFFA06410BD3C3080EC030A7047000040
:1027D00070B59FED170A174D80ED0C0A044690ED79
:1027E000101AD0ED0A0A90ED070A05F64851D5F8FF
:1027F000043F0122A1F144009847D4ED040A05F6F4
:10280000C421012220EE200AA1F1440084ED0D0A2A
:10281000D5F8803C94ED111AD4ED0B0A94ED080A1A
:102820009847D4ED050A20EE200A84ED0E0A70BD0B
:10283000000000004806002090ED082A9FED123AA3
:10284000DFED123A90ED064AC2EE031A90ED072A28
:1028500000F13802111F303061EEA32AC2EE031AD4
:1028600021EEA32AC4EE031A81EE034A61EEA31AF5
:1028700024EE231A80EE834A64EE230A80EE034A94
:1028800024EE230A03F0A8BF00003443DB0F4940C5
:102890002DE9F04104461E4801252DED028B00264E
:1028A00090F8271A012903D190F8AB0C012816D013
:1028B00084F8005004F118009FED168A80EC060A97
:1028C00094ED100A30EE600AF0EE480A03F000FEC4
:1028D00010EE100A104FB84203DAA57002E026701D
:1028E000E8E7A67094ED110AD4ED080A30EE600A0C
:1028F000F0EE480A03F0ECFD10EE100AB84204DADC
:10290000E570BDEC028BBDE8F081E670F9E70000F0
:10291000480600200000B4430000A04090F82020AA
:10292000012A07D0022A05D0416A41F48021416280
:1029300001207047006842690A43426100207047E5
:10294000F0B590F820500468A468012D05D0022D40
:1029500003D0416A41F480215DE014F0406F01D161
:10296000E50055D5C4F30164022C03D9416A41F452
:10297000000150E00125A5401D608D684FF4C07333
:102980009DB1CE6835434E6845EAC605066803EB3F
:102990000417F5514FF4C275076805EB04150E696D
:1029A0007E51097D012905D009E00E88CD6845EAF0
:1029B0004655EBE701684E5946F480764E51117941
:1029C000D579567941EA056195792D0445EA0625C0
:1029D00029434FF4C676056806EB0416A951117811
:1029E000D57841EA0561957852782D0445EA0222AE
:1029F00011434FF4C475026805EB0415515100688A
:102A000003EB0411425842F0010242500020F0BD95
:102A1000416A41F4001141620120F0BD10B590F807
:102A20002020012A07D0022A05D0416A41F48021E2
:102A30004162012010BD3B48D0F8002242F0010263
:102A4000C0F80022D0F8002222F47C52C0F8002204
:102A5000D0F800224B6A42EA0322C0F800220A7D25
:102A600002F01F0301229A40D0F81C329343C0F8B1
:102A70001C32CB69B3B9D0F80C329343C0F80C3296
:102A80008C894B6864F31F434C6900EBC404C4F8A1
:102A900040320C890B6864F31F434C6900EBC4049B
:102AA000C4F84432CB69012B16D1D0F80C32134351
:102AB000C0F80C320C884B6864F31F434C6900EB80
:102AC000C404C4F840320C89CB6864F31F434C69DA
:102AD00000EBC404C4F844328B69002BD0F80432F4
:102AE0000ED01343C0F804320B69002BD0F8143217
:102AF00008D01343C0F81432096A012904D008E051
:102B00009343EFE79343F5E7D0F81C121143C0F865
:102B10001C12D0F8001221F00101C0F800120020B0
:102B200010BD000000640040704730B590F82040B0
:102B3000012C05D0022C03D0416A41F480215DE0D4
:102B40000468002955D02469A40754D04FF4D874E0
:102B5000056804EB01142D5915F00405956005680E
:102B60002D594ED0ED08556005682C5904F002042B
:102B7000D4604FF4DA74056804EB01142D5905F0A4
:102B80000F05156105682D59C5F307259561056881
:102B90002C59240C54614FF4DC72046802EB0112CE
:102BA000A4581C700468A458240A5C700468A458D3
:102BB000240C9C700468A258120EDA704FF4DE7276
:102BC000046802EB0112A4581C710468A458240A7A
:102BD0005C710468A458240C9C710468A258120EFD
:102BE000DA71006881B1016941F0200101610020C2
:102BF00030BDE468A8E7416A41F400114162012058
:102C000030BD6D0D1560AFE7C16841F02001C160B6
:102C1000EDE72DE9F05F0546006800244669D0F82D
:102C200004908768D0F80CB0D0F810A0D0F81880C5
:102C3000F10748D0F90714D001218160B80703D506
:102C4000284600F030FA0CE0780702D54FF4006413
:102C500007E0380702D54FF4805402E0284600F020
:102C600021FAF80516D529684FF480708860B805F8
:102C700003D5284600F019FA0CE0780502D544F493
:102C8000005407E0380502D544F4804402E02846A9
:102C900000F00AFAF80316D529684FF480308860EE
:102CA000B80303D5284600F002FA0CE0780302D5F9
:102CB00044F4004407E0380302D544F4803402E0D1
:102CC000284600F0F3F9300707D55FEACB6004D55A
:102CD0002968102044F40074C86070074FF008079A
:102CE00007D55FEA0B7004D52868C760284600F056
:102CF00099F9B00706D52868C068800702D0284631
:102D000000F092F9700607D55FEACA6004D5296819
:102D1000102044F480640861B00607D55FEA0A70A9
:102D200004D528680761284600F08CF9F00606D51E
:102D300028680069800702D0284600F084F9B003B3
:102D400008D55FEAC96005D5296810204860284683
:102D500000F07AF9F00307D55FEA097004D5286816
:102D60004760284600F0A4F9300446D55FEA497070
:102D700040D5F00504D55FEAC87001D044F00104E5
:102D8000B00504D55FEA887001D544F002047005EF
:102D900004D55FEA487001D544F00404300529D514
:102DA00018F0700F26D008F07000402815D006DC0F
:102DB000102809D020280AD0302816D10AE050283F
:102DC0000ED0602811D10EE044F008040DE044F06C
:102DD00010040AE044F0200407E044F0400404E05A
:102DE00044F0800401E044F480742868816921F093
:102DF00070018161296804204860002C05D0686A50
:102E0000204368622846FFF78FFEBDE8F09F70B54B
:102E1000040003D094F8200010B104E0012070BD3C
:102E2000204600F081F82068016841F0010101604E
:102E300000F024FC0546052604E000F01FFC401BC2
:102E40000A2811D820684068C007F6D020680168B9
:102E500021F00201016000F011FC05460BE000F0DA
:102E60000DFC401B0A2806D9606A40F400306062FD
:102E700084F82060D2E7206840688007EFD4207E85
:102E80000128206801683DD021F080010160607E4A
:102E900001282068016838D021F040010160A07E3F
:102EA00001282068016833D021F020010160E07E14
:102EB0000128206801682ED041F010010160207FB8
:102EC00001282068016829D021F008010160607F95
:102ED00001282068016824D021F004010160D4E9B0
:102EE00002010843D4E90412114308436168491EF2
:102EF00008432168C86100206062012084F8200036
:102F0000002070BD41F08001C0E741F04001C5E7FD
:102F100041F02001CAE721F01001CFE741F008019C
:102F2000D4E741F00401D9E7F0B587B00446142195
:102F30006846FDF712FA364B3648DFF8D0E01968DC
:102F4000D4F800C0334A0325022609271030002494
:102F5000491CF44522D11960012907D1016841F0CB
:102F600000710160006800F000700590106840F08A
:102F7000080010601068CDE9005600F00800CDE9A7
:102F8000047069462448CDE9024500F071FA002238
:102F90000521142000F016FC142032E0DFF87CE05C
:102FA000F44530D1D0F800C04CF0806CC0F800C0BF
:102FB000D0F800C001290CF0806CCDF814C0196065
:102FC00007D1016841F000710160006800F00070F5
:102FD0000590106840F002001060106802AB00F02D
:102FE000020005906020CDE9000683E8B000694644
:102FF0000B4800F03DFA00220521402000F0E2FBE2
:10300000402000F0D1FB07B0F0BD0000006400409C
:10301000C822002030380240000C02400068004006
:103020000004024070470000044A0168914202D047
:10303000034A914201D1FDF723BE7047006400406E
:1030400000680040704770477047000070B5044644
:1030500090F82000012804D0606A40F400206062EB
:1030600018E0022084F820002068016821F00101A6
:10307000016000F003FB05460EE000BF00F0FEFA21
:10308000401B0A2808D9606A40F4003060620520BD
:1030900084F82000012070BD20684068C007EDD191
:1030A000606270BD704770477047704770477047E7
:1030B00070472DE9F0410446876D00F0DFFA0646BF
:1030C00094F835000025022806D08020606584F839
:1030D00034500120BDE8F0812068016821F016011C
:1030E00001602068416921F080014161206C08B9CC
:1030F000A06C20B12068016821F0080101602068FF
:10310000016821F0010101600CE000F0B7FA801BBA
:10311000052807D920206065032084F8350084F84D
:103120003450D7E720680068C007EED194F85C10EF
:103130003F208840B860012084F8350084F834507E
:103140000020C7E790F83510022903D0802141659F
:1031500001207047052180F835100068016821F0D2
:1031600001010160002070472DE9F84304464FF04B
:103170000009CDF8009063484FF41651A56D006822
:10318000B0FBF1F72E6894F85C10082000FA01F10A
:1031900031420FD021680A6852070BD50A6822F025
:1031A00004020A6094F85C108840A860606D40F0EA
:1031B0000100606594F85C104FF0010808FA01F016
:1031C000304208D021684969090604D5A860606DBD
:1031D00040F00200606594F85C10042088403042A2
:1031E00008D021680968890704D5A860606D40F09F
:1031F0000400606594F85C1010208840304218D0BC
:1032000021680968090714D5A86020680168490386
:1032100004D50068000308D5A16C07E00168C90562
:1032200003D4016821F008010160216C09B1204636
:10323000884794F85C1020208840304231D02168C3
:103240000968C9062DD5A86094F8350005282068BE
:10325000016806D0490347D5006800031DD4616C9E
:103260001CE021F0160101602068416921F0800115
:103270004161206C08B9A06C20B12068016821F080
:103280000801016094F85C103F208840A86084F831
:10329000358084F83490216D1FE0E16B09B1204640
:1032A0008847606D00282BD0606DC00714D00520C2
:1032B00084F835002068016821F001010160009860
:1032C000401C0090B84203D820680068C007F6D1BF
:1032D00084F8358084F83490E16C002910D001B076
:1032E0002046BDE8F04308470168C905D5D4016808
:1032F00021F01001016084F8358084F83490CCE727
:10330000BDE8F883D82200202DE9F041044600F002
:10331000B5F906465CB1022084F83500002584F832
:1033200034502068016821F0010101600DE00120A6
:10333000BDE8F08100F0A2F9801B052805D9202006
:103340006065032084F83500F2E720680068C00754
:10335000F0D12268116820480140D4E901031843E4
:10336000D4E903363343184363691843A369184308
:10337000E3691843236A18430843616A042903D1A7
:10338000D4E90B1319430843106020684069666A4A
:1033900020F0070130460E43012704280CD1A06A13
:1033A0000643E06A40B12046FFF714F820B1402000
:1033B000606584F83570BAE7206846612046FEF7FC
:1033C000F5FF94F85C203F2191408160656584F8A9
:1033D00035700020ACE700003F8010F02DE9F0418F
:1033E0000446866D90F83400002501280DD0012098
:1033F00084F8340094F835700020012F07D084F849
:10340000340002252846BDE8F0810220FBE70227B0
:1034100084F8357060652046FFF706F894F85C1074
:103420003F208840B0602068016841F016010160CB
:10343000206C20B12068016841F00801016020681B
:10344000016841F001010160DCE7000070B504464D
:1034500000F014F90546601C02D0044800780444CA
:1034600000F00CF9401BA042FAD370BDCC22002022
:103470002DE9F84FDFF8BCA10022012503264FF00B
:103480000F090AF1040BAAF1040E00BF0B6805FA3C
:1034900002F42340A34270D10F7907F00307012FF4
:1034A00001D0022F16D187684FEA420806FA08FCBD
:1034B00027EA0C07D1F80CC00CFA08FC4CEA070C00
:1034C000C0F808C04768A7430C79C4F300149440BF
:1034D0003C4344600C79E443A4070AD0C4684FEA33
:1034E000420C06FA0CF7BC438F6807FA0CF7274327
:1034F000C7600C7904F00304022C12D1D40800EB4D
:10350000840CDCF820405707FF0E09FA07F824EA7C
:103510000804D1F8108008FA07F848EA0408CCF843
:10352000208004684FEA420C06FA0CF7BC430F797E
:1035300007F0030707FA0CF7274307604C6814F4F9
:10354000403F70D03C4C276847F480472760246890
:1035500022F0030704F480440094384C07EB040C79
:10356000DCF8084897074FEA177809FA08F7BC43D0
:10357000334FB84202D1002724E054E0314FB84223
:1035800001D101271EE0304FB84201D1022719E0D6
:103590002E4FB84201D1032714E02D4FB84201D17C
:1035A00004270FE02B4FB84201D105270AE02A4F2C
:1035B000B84201D1062705E0284FB84201D10727BC
:1035C00000E0082707FA08F72743CCF80878DAF86C
:1035D00000405746D1F804C09C435FEACC2C00D58C
:1035E0001C433C60DBF800405F46D1F804C09C43BC
:1035F0005FEA8C2C00D51C433C60DEF80040774627
:10360000D1F804C09C435FEA8C3C00D51C433C606D
:10361000084F083F3C68D1F804C09C435FEACC3CAB
:1036200000D51C433C60521C102AFFF42FAFBDE8AC
:10363000F88F0000083C014044380240003001404F
:10364000000002400004024000080240000C02405A
:10365000001002400014024000180240001C02400A
:10366000426921EA02030A4043EA0241816170474C
:103670000AB1816170470904FBE7000001488068D6
:1036800070470000CC22002000684AF6AA210160A1
:1036900000207047024881680278114481607047B9
:1036A000CC2200200B4810B5016841F40071016084
:1036B000016841F480610160016841F4807101603A
:1036C000032000F09FF80F2000F006F800F050F8FB
:1036D000002010BD003C024030B50546204887B0B0
:1036E0000024016841F001010160006806A900F0B2
:1036F0000100009001A800F031F90498B0B100F089
:103700004DF9400017494FF08042B0FBF1F11648E7
:10371000491E026040F2E732C0E90324C0E9011407
:10372000846100F009FE040003D015E000F036F9D2
:10373000E8E70D4800F05AFE04000DD11C2000F00F
:1037400033F8102D07D2002229461C2000F03AF849
:103750000648056000E0012407B0204630BD0000A7
:103760004038024040420F0064320020D022002046
:103770000C4882B0016841F480410160006800F4A7
:10378000804000900748001F016841F080510160AF
:103790000068002200F0805000900F21901E02B0BF
:1037A00000F010B844380240002809DB00F01F0286
:1037B000012191404009800000F1E020C0F8001193
:1037C00070470000F0B40E4B1B680C46C3F3022395
:1037D000C3F10705042D00D90425191D072901D2BD
:1037E000002300E0DB1E012606FA05F1491E2140F8
:1037F00099409E40761E16403143F0BC04F0A1BBB8
:103800000CED00E0064900F0070208684FF6FF03E0
:10381000184040EA0220034A104308607047000045
:103820000CED00E00000FA052DE9F0470E4605001A
:1038300065D0DFF81481D8F80000F7B200F0070077
:10384000B04207D288F80070D8F8000000F00700F6
:10385000B04254D128683D4C810712D5400703D5AA
:10386000206840F4E05020602878000703D52068E5
:1038700040F4604020602068A96820F0F000084310
:1038800020602878C0072DD03049686808390128A1
:1038900012D0022813D0032811D009688907002903
:1038A0002DDA216821F0030101432160FFF7E6FED4
:1038B000814641F2883A0EE009688903EFE709681A
:1038C0008901ECE7FFF7DAFEA0EB0901514502D9C7
:1038D0000320BDE8F0872068696800F00C00B0EBB9
:1038E000810FEFD1D8F80010404601F00701B14236
:1038F00007D90770006800F00700B04201D001202E
:10390000E7E72878400705D52068E96820F4E0500B
:10391000084320602878000706D52068296920F42C
:10392000604040EAC100206000F058F82168084A71
:10393000C1F30311515CC84006490860064800689D
:10394000FFF7CAFE0020C4E7003C024008380240EE
:10395000B4FA0008D8220020D02200200F220260F2
:103960000C4A136803F003034360136803F0F00389
:103970008360136803F4E053C36012684FF4E053AC
:1039800003EAD20202610448006800F00700086000
:103990007047000008380240003C024004480549D6
:1039A00000680968044AC1F38221515CC84070472D
:1039B000D822002008380240C4FA0008044805490B
:1039C00000680968044AC1F34231515CC84070473D
:1039D000D822002008380240C4FA0008154810B563
:1039E000006810F00C02144813D01449042A0FD0B8
:1039F000082A0ED10F4C241F2268236802F03F02D0
:103A00005B0207D52068C0F38810A0FB010106E027
:103A1000084610BD2168C1F38811A1FB00010023F5
:103A2000FCF730FC2168C1F30141491C4900B0FB9F
:103A3000F1F010BD083802400024F40040787D0108
:103A40002DE9F84F04006ED02078DFF84C93C007C2
:103A5000A9F104054AD009F104000168C1F381010C
:103A6000012908D00068C0F3810002280AD1D9F8E2
:103A70000000400206D52868800337D5606800281A
:103A8000E1D033E06068B0F5803F10D0B0F5A02FF2
:103A9000286810D020F480302860286820F4802026
:103AA00028606068A8B1FFF7E9FD06460DE02868C8
:103AB00040F48030F4E740F480202860F7E700BF4E
:103AC000FFF7DCFD801B642873D828688003F7D5D6
:103AD0000CE0FFF7D3FD064605E000BFFFF7CEFD83
:103AE000801B6428F0D828688003F7D42078DFF89A
:103AF000AC8280074FF0000A3ED5A748001D016840
:103B000011F00C0F08D00068C0F3810002280BD11F
:103B1000D9F80000400207D42868800716D5E0686D
:103B2000012800D112E033E1E068B8B10120C8F803
:103B30000000FFF7A3FD064605E000BFFFF79EFD6E
:103B4000801B0228C0D828688007F7D5286821691B
:103B500020F0F80040EAC10028600DE0C8F800A09D
:103B6000FFF78CFD064604E0FFF788FD801B022866
:103B70001FD828688007F7D42078000722D5864F01
:103B800087486169703771B101210160FFF776FDE7
:103B9000064604E0FFF772FD801B022809D838684A
:103BA0008007F7D50EE0C0F800A0FFF767FD0646D6
:103BB00005E082E0FFF762FD801B02287DD83868AF
:103BC0008007F7D42078400768D5DFF8CCB100270C
:103BD0000BF13C0BDBF80000C0000BD4DBF800104D
:103BE00041F08051CBF80010DBF80000012700F015
:103BF000805000906B4E3068C00510D4306840F49F
:103C000080703060FFF73AFD009005E0FFF736FD69
:103C10000099401A022850D83068C005F6D55E4E8B
:103C2000A0686C3601280FD00528306810D020F02D
:103C300001003060306820F004003060A068B8B146
:103C4000FFF71CFD00900FE0306840F00100F4E742
:103C500040F004003060F7E7FFF710FD0099411ACB
:103C600041F28830814266D830688007F4D50EE092
:103C7000FFF704FD009007E0FFF700FD0099411AEF
:103C800041F28830814256D830688007F4D42FB191
:103C9000DBF8001021F08051CBF80010A069C8B308
:103CA0003D49091D0968C1F3810102294AD0022852
:103CB000504607D0C8F8600000E03CE0FFF7DEFCAB
:103CC00004463BE04746C8F86000FFF7D7FC0646CD
:103CD00005E000BFFFF7D2FC801B02282BD8286824
:103CE0008001F7D4D4E907010843A16A2E4A4908A4
:103CF00002EB0141626A41EA8211084394F82C10F8
:103D000040EA0161C9F8001001203866FFF7B6FCEF
:103D1000044606E03EE000BFFFF7B0FC001B0228AF
:103D200009D828688001F7D534E000BFFFF7A6FC6A
:103D3000001B022802D90320BDE8F88F2868800103
:103D4000F4D427E00128F7D0D9F80000E26900F4A4
:103D5000800191421CD1226A00F03F01914217D1AB
:103D600047F6C071626A0140B1EB821F10D1A26AAE
:103D70004FF0FF3300F4403103EB5202B1EB024F3E
:103D800006D194F82C1000F07060B0EB016F01D0F8
:103D90000120D1E70020CFE704380240000047426D
:103DA000800E4742007000400000FFFF2DE9F84FF1
:103DB000044640680025984616460F464FF0040B0F
:103DC000B0F5827F01D1A06888B194F85000012835
:103DD00018D0012084F85000FFF750FC814694F879
:103DE00051004FF0000A01280ED0022582E084F82D
:103DF00051B013460A462046CDF8008000F036F94F
:103E0000BDE8F88F0220FBE7002F72D0002E70D0A3
:103E100084F851B0C4F854A0A763A687E687C4F815
:103E200030A0A4F834A0A4F836A0C4F840A0C4F888
:103E300044A0A068B0F5004F09D12068016821F0C6
:103E4000400101602068016821F480410160206820
:103E50000168490603D4016841F040010160E0684F
:103E6000D8B139E020688168C90709D0007BA16B0F
:103E70000870A06B401CA063E08F401EE0870CE040
:103E8000FFF7FCFBA0EB0901414503D3B8F1FF3F6D
:103E900003D036E0B8F1000F33D0E08F0028E1D135
:103EA0001DE020688168C90709D0C068A16B08803F
:103EB000A06B801CA063E08F401EE0870CE0FFF742
:103EC000DDFBA0EB0901414503D3B8F1FF3F03D06F
:103ED00017E0B8F1000F14D0E08F0028E1D14A4676
:103EE0004146204603F008FA08B120206065606D65
:103EF00000B10125012084F8510084F850A0284623
:103F00007EE70325F6E72DE9F84F044690F85000C8
:103F100000271D461646894601280DD04FF0010B9B
:103F200084F850B0FFF7AAFB804694F85100BA46D7
:103F3000012804D0022793E00220BDE8F88FB9F1F0
:103F4000000F73D0002E71D0032084F85100C4F804
:103F500054A0C4F83090A686E686C4F838A0A4F829
:103F60003CA0A4F83EA0C4F844A0C4F840A0A068B7
:103F7000B0F5004F09D12068016821F040010160CF
:103F80002068016841F480410160206801684906A9
:103F900003D4016841F040010160E068B0F5006FB2
:103FA000606803D030B3012E24D041E008B1012E67
:103FB0001CD1206B21680088C86006E020688168F9
:103FC000890709D5216B0988C160206B801C20639B
:103FD000E08E401EE08609E0FFF750FBA0EB0800F2
:103FE000A84202D3681C01D031E07DB3E08E0028E6
:103FF000E4D120E0206B21680078087306E0206897
:104000008168890709D5216B09780173206B401CF1
:104010002063E08E401EE0860AE0FFF72FFBA0EB56
:104020000800A84203D3681C02D010E017E06DB16D
:10403000E08E0028E3D142462946204603F08AF963
:1040400008B120206065A06818B106E0FFE70327EB
:1040500006E02068C16880680090606D00B10127AB
:1040600084F851B084F850A0384666E72DE9F84F3F
:10407000044690F8500000270A9E1D4692468B4643
:104080004FF0010901280ED0012084F85000FFF7FD
:10409000F5FA804694F85100616801280CD0B1F51A
:1040A000827F07D102E00220BDE8F88FA16809B93C
:1040B000042801D00227C2E0BBF1000F27D0BAF1DB
:1040C000000F24D01DB394F85100042802D005201D
:1040D00084F8510000206065C4F838A0E587A58702
:1040E000C4F830B0E586A586206460642068016865
:1040F000490603D4016841F040010160E068B0F571
:10410000006F606805D0E8B3012D46D07FE001273D
:1041100095E008B1012D39D1206B21680088C86075
:10412000206B801C2063E08E401EE0862EE020681D
:10413000816889070FD5E18E69B1B9F1010F0AD104
:10414000216B0988C160206B801C2063E08E401EBB
:10415000E0864FF0000920688168C9070CD0E18F24
:1041600051B1C068A16B0880A06B801CA063E08F78
:10417000401EE0874FF00109FFF780FAA0EB08002E
:10418000B04200E009E001D3701C50D1E08E00285D
:10419000CDD1E08F0028CAD13FE0206B21680078A4
:1041A0000873206B401C2063E08E401EE0862EE0EA
:1041B0002068816889070FD5E18E69B1B9F1010FD7
:1041C0000AD1216B09780173206B401C2063E08EBB
:1041D000401EE0864FF0000920688168C9070CD0B6
:1041E000E18F51B1C068A16B0870A06B401CA06347
:1041F000E08F401EE0874FF00109FFF73FFAA0EB88
:104200000800B04202D3701C01D010E07EB1E08EF5
:104210000028CDD1E08F0028CAD142463146204641
:1042200003F098F828B101272020606507E00327F4
:1042300005E0A06818B92068C16880680090012076
:1042400084F85100002084F8500038462CE770476D
:10425000704710B590F83C20012A22D0012280F846
:104260003C20CA688C6822F4407222434C6822F4D5
:10427000806222430C6822F4006222430C6922F41B
:10428000805222434C6922F400522243C969002320
:1042900022F480420A4301684A6480F83C300020DE
:1042A00010BD022010BD000070B590F83C20012A1E
:1042B00032D0012480F83C40022280F83D2003687F
:1042C0005A689D6822F070060A6832435A60134BA0
:1042D00002689A4214D0B2F1804F11D0104B9A422A
:1042E0000ED0104B9A420BD00F4B9A4208D00F4B76
:1042F0009A4205D00E4B9A4202D00E4B9A4204D1FC
:10430000496825F080031943916080F83D40002101
:1043100080F83C10084670BD022070BD00000140CE
:104320000004004000080040000C00400004014070
:10433000004001400018004010B5040003D094F87C
:104340003D0010B107E0012010BD002084F83C00C2
:10435000204600F01FF8022084F83D00211D20684F
:1043600003F0BCF9012084F8460084F83E0084F88C
:104370003F0084F8400084F8410084F8420084F84B
:10438000430084F8440084F8450084F83D00002090
:1043900010BD000008B500681149884209D11148D4
:1043A000016841F001010160006800F00100009027
:1043B00008BD0D498842FBD10A48001F016841F041
:1043C000040101600068002200F004000090052153
:1043D0001E20FFF7F7F9BDE808401E20FFF7E4B9FB
:1043E00000000140443802400008004090F83D10B1
:1043F000012901D001207047022180F83D10016899
:10440000CA6842F00102CA6000681149884214D0AB
:10441000B0F1804F11D00F4988420ED00E4988422A
:104420000BD00E49884208D00D49884205D00D496D
:10443000884202D00C49884204D1816801F007010A
:10444000062903D0016841F0010101600020704796
:10445000000001400004004000080040000C004043
:1044600000040140004001400018004070B50446BF
:1044700090F83C000025012817D0012684F83C6004
:10448000022084F83D002068826822F0770222F43E
:104490007F4282600868502838D00DDC20284FD039
:1044A00005DC90B3102811D14AE0022070BD3028FD
:1044B00046D040280AD13BE060282FD070280DD08C
:1044C000B0F5805F03D0B0F5005F12D0012584F80D
:1044D0003D60002084F83C00284670BDCB68D1E9DF
:1044E0000121206803F06BF92068816841F07701B1
:1044F00009E0CB68D1E90121206803F060F9206868
:10450000816841F480418160E1E719E0CA68496847
:10451000206803F029FA5021206806E0CA6849683B
:10452000206803F032FA6021206803F052F9CEE7E8
:10453000CA684968206803F017FA40212068F4E748
:10454000226801461046F0E7704770B504460068DF
:1045500001694FF00005C943890715D4C168C943F3
:10456000890711D4E91E0161012020772068806944
:104570008007204602D0FFF7E7FF04E000F0C2F812
:10458000204600F054F9257720680169C94349079E
:1045900017D4C168C943490713D46FF004010161FE
:1045A000022020772068806910F4407F204602D0E6
:1045B000FFF7CAFF04E000F0A5F8204600F037F945
:1045C000257720680169C943090716D4C168C94322
:1045D000090712D46FF008010161042020772068D8
:1045E000C0698007204602D0FFF7AEFF04E000F06C
:1045F00089F8204600F01BF9257720680169C94336
:10460000C90617D4C168C943C90613D46FF0100195
:104610000161082020772068C06910F4407F20469F
:1046200002D0FFF791FF04E000F06CF8204600F0A4
:10463000FEF8257720680169C943C90708D1C16818
:10464000C943C90704D1891E0161204600F092F9CF
:1046500020680169C943090609D4C168C94309062C
:1046600005D46FF0800101612046FFF7F0FD20685E
:104670000169C943490609D4C168C943490605D43B
:104680006FF040010161204600F07BF9206801696C
:10469000C94389060BD4C168C943890607D46FF0A2
:1046A000200101612046BDE87040FFF7D1BD70BD1B
:1046B00010B586B0044614216846FBF74EFE0E493D
:1046C0002068884216D10D480021026842F001029C
:1046D0000260006800F0010005904FF480700090C7
:1046E0000220CDE901010120CDE90310694604480B
:1046F000FEF7BEFE06B010BD00000140303802409B
:1047000000000240704770B5044690F83C00002657
:104710000D4601280FD0012084F83C006AB1042A1C
:104720001DD0082A2FD00C2A3FD00126002084F863
:104730003C00304670BD022070BD206803F052F886
:104740002068816941F0080181612068816921F058
:1047500004018161206881692A69114311E02068A0
:1047600003F070F82068816941F40061816120687C
:10477000816921F480618161206881692A6941EA47
:1047800002218161D2E7206803F092F82068C169B4
:1047900041F00801C1612068C16921F00401C161D3
:1047A0002068C1692A69114311E0206803F0B4F858
:1047B0002068C16941F40061C1612068C16921F4C8
:1047C0008061C1612068C1692A6941EA0221C16131
:1047D000ACE710B5040003D094F83D0010B107E039
:1047E000012010BD002084F83C00204600F01EF897
:1047F000022084F83D00211D206802F06FFF012097
:1048000084F8460084F83E0084F83F0084F84000B5
:1048100084F8410084F8420084F8430084F844009E
:1048200084F8450084F83D00002010BD70477047B3
:1048300010B50446022249B104290ED0082913D02C
:1048400094F84100012816D0012010BD94F83E00D4
:104850000128F9D184F83E200FE094F83F000128A8
:10486000F2D184F83F2008E094F840000128EBD111
:1048700084F8402001E084F841200122206802F001
:1048800091FF16492068164A884201D0904203D110
:10489000436C43F4004343642068884213D0B0F172
:1048A000804F10D00F4988420DD00F4988420AD05E
:1048B0000E49884207D0904205D00D49884202D067
:1048C0000C49884204D1816801F00701062903D010
:1048D000016841F001010160002010BD00000140AD
:1048E000000401400004004000080040000C0040AB
:1048F000004001400018004030B504460D460068F5
:10490000002202F04FFF194B41F2111120688A106A
:10491000984202D0164B984209D1036A0B4206D145
:10492000036A134203D1436C23F4004343642068B9
:10493000036A0B4206D1016A114203D1016821F0DA
:104940000101016001203DB1042D08D0082D09D0DE
:1049500084F84100002030BD84F83E00FAE784F876
:104960003F00F7E784F84000F4E700000000014052
:10497000000401400068B0F1804F01D1FEF78ABE0B
:104980007047704770477047F8B50168044608687B
:10499000CA684B6910F00F0F4FF0000559D003F0B3
:1049A000010602F49077374365D0C10705D0D105E1
:1049B00003D5216C41F001012164410705D5D907D8
:1049C00003D0216C41F002012164810705D5D9078C
:1049D00003D0216C41F004012164010707D502F0E6
:1049E0002001314303D0216C41F008012164216C86
:1049F00000293AD0800604D5900602D5204603F05F
:104A000077F820684069216CC0F38010090700D452
:104A100060B3204603F037F820684069400621D58E
:104A20002068143050E8001F21F0400140E80012D7
:104A3000002AF5D1A06BA8B16C490165A06BFEF707
:104A400081FB002811D0A06B016D01B0BDE8F040E2
:104A5000084783060FD593060DD52046BDE8F840DC
:104A600003F046B82046FFF78EFFF8BD2046FFF75B
:104A70008AFF2564F8BD266B2023012E79D1C60656
:104A800077D5D60675D5086848680090486940060D
:104A900040D5A16B086840680004000CEAD0A28DE4
:104AA0008242E7D9E085C869B0F5807F2DD02068C3
:104AB0000C3050E8001F21F4807140E80012002AF9
:104AC000F5D12068143050E8001F21F0010140E8C2
:104AD0000012002AF5D12068143050E8001F21F0A0
:104AE000400140E80012002AF5D184F83E302563E9
:104AF00020680C3050E8001F21F0100140E800123F
:104B0000002AF5D1A06BFEF7D4FAA08DE18D401AF2
:104B100081B229E0A08DE18D401A81B2E08D00289C
:104B2000A8D00029A6D020680C3050E8002F22F42D
:104B3000907240E80026002EF5D12068143050E82D
:104B4000002F22F0010240E80026002EF5D184F863
:104B50003E30256320680C3050E8002F22F0100210
:104B600040E80023002BF5D12046FFF70BFFF8BDEE
:104B7000FFE705062BD5150629D594F83D00212819
:104B8000F5D1A068B0F5805F01D12069B0B1206A8D
:104B9000411C2162216800784860E08C401E0004BE
:104BA000000CE084E3D12068C16821F08001C1607D
:104BB0002068C16841F04001C160D8E7206A0088E0
:104BC000C0F308004860206A801C2062E5E74006C8
:104BD000CDD55006CBD5CA68204622F04002CA6027
:104BE00084F83D3000F080FAC1E70000E179000868
:104BF00070B5040004D094F83D00002510B106E023
:104C0000012070BD84F83C50204600F023F8242099
:104C100084F83D002068C16821F40051C16020463D
:104C200002F0EEFF2068016921F4904101612068E3
:104C3000416921F02A0141612068C16841F40051B5
:104C4000C1602564202084F83D0084F83E000020E7
:104C500070BD00002DE9F04F87B00446142168466E
:104C6000FBF77BFBEE48DFF8B48310380222D4F860
:104C700000C0EB4B03210026970605154FF0080EE8
:104C80004FF480794FF0400B4FF4003AC44552D1B5
:104C9000D3F800C0B0464CF4002CC3F800C01B6829
:104CA00003F400230593036843F0010303600068E5
:104CB00000F0010005908DE84600CDE9031E69462D
:104CC000D848FEF7D5FBD948D74957460160490572
:104CD000C0E90116C0E903654661C0E90669C0E99B
:104CE00008A6FEF711FB08B1FDF7B6FCCF48A0639C
:104CF000CE4E8463CC486036303030604FF0006078
:104D0000C6E9010BC6E90385C6F81480C6F8188009
:104D1000C6E907873046C6F82480FEF7F5FA08B1E1
:104D2000FDF79AFC6663002205213420B463FEF788
:104D300049FD34206CE0DFF8F882C4456DD1D3F82A
:104D400000C000264CF4801CC3F800C01B6803F4AC
:104D500080130593036843F004030360036803F0C2
:104D600004030593036843F0080303600068884662
:104D700000F0080005904FF48050009001AA022036
:104D800082E84101082004906946AA48FEF770FBBA
:104D90000420009001AA022082E84101082004902A
:104DA0006946A548FEF764FBA0489F49C0303039EA
:104DB0000160C0E90176C0E903654661C0E90669A2
:104DC000C0E908A6B8465746FEF79EFA08B1FDF7B7
:104DD00043FC9648994EC030A06384639248783073
:104DE00086E801090020C6E903057061B061C6E9E3
:104DF000070770623046FEF787FA08B1FDF72CFC12
:104E00006663002205213520B463FEF7DBFC352004
:104E1000FEF7CAFC07B0BDE8F08FDFF824824FF040
:104E2000070EC44555D17E4B00261B1DD3F800C08C
:104E30004CF0100CC3F800C01B6803F0100305937E
:104E4000036843F0010303600068CDE9026100F0EC
:104E5000010005904FF4C060CDE90002CDF810E0EC
:104E600069467048FEF704FB744876496030B846DE
:104E70000160C0E90176C0E903654661C0E90669E1
:104E8000C0E908A65746FEF73FFA08B1FDF7E4FB74
:104E90006A486A4E6030A06384636A48C0367830DE
:104EA00086E801090020C6E903057061B061C6E922
:104EB000070770623046FEF727FA08B1FDF7CCFB12
:104EC0006663002205212520B463FEF77BFC2520C4
:104ED0009EE7DFF87481C4453DD1D3F800C04CF49F
:104EE000003CC3F800C01B6803F40033059303685B
:104EF00043F0010303600068CDE9026100F00100A6
:104F000005900C20CDE90002CDF810E06946454837
:104F1000FEF7AEFADFF8348143494046483102C01B
:104F2000E0E80276E0E8036540F8046C80E84006BB
:104F30004046C8F82460FEF7E7F908B1FDF78CFB9E
:104F4000C4F83880002205212620C8F83840FEF732
:104F500039FC26205CE7DFF8F880C4457FF45AAFBF
:104F6000D3F800C0B0464CF4802CC3F800C01B68D6
:104F700003F480230593036843F002030360006891
:104F8000CDE9026100F0020005904FF44060CDE9E8
:104F90000002CDF810E069462E48FEF769FADFF806
:104FA000ACA021490AF1600A18395046CAF800102D
:104FB000C0E90176C0E90365CAF81460C0E9066972
:104FC000CAF82060CAF82460FEF79EF908B1FDF720
:104FD00043FB1E4E1448C4F838A0C0361830CAF837
:104FE000384086E88108C6E90385C6F81480C6F80B
:104FF0001880C6F81C80C6F820803046C6F8248089
:10500000FEF782F908B1FDF727FB66630022052150
:105010002720B463FEF7D6FB2720F9E6004C0040BA
:10502000403802400000024040600240042F00204F
:105030000050004000080240000C024024300020D4
:105040000010014040640240004400404431002010
:1050500000480040000402407047000070B504465C
:1050600090F83D00202836D191B38AB394F83C00E3
:10507000012830D0012084F83C002162A284E2841F
:1050800000252564212084F83D00636B1348D86314
:10509000636B13481864636B1248D864606B1346E3
:1050A00005652668606B321DFEF798F921686FF080
:1050B0004000086084F83C502068143050E8001F1D
:1050C00041F0800140E80012002AF5D1002070BDB7
:1050D000FFE70120FBE70220F9E700003B7A000828
:1050E0007D7A0008F179000870477047FEE70000FC
:1050F00070B50D4C0025C4F8B4520C48016821F07D
:1051000040410160016841F080410160C4F8BC5237
:10511000022004F52D7404F093FB0120206002208E
:1051200004F08EFB256070BD008040420004024008
:105130002DE9F04186B014216846FBF70EF91D48B1
:105140000025016841F0020101600068012200F0C1
:105150000200194F1603059031463846FEF788FACB
:105160004FF48048012241463846FEF781FA4FF459
:10517000204001248DE83100032569463846039517
:10518000FEF776F94FF4A040CDE9000469463846B1
:10519000CDE90245FEF76CF9012231463846FEF7AB
:1051A00067FA012241463846FEF762FA06B0BDE8CA
:1051B000F0810000303802400004024070B50D4C10
:1051C0000025C4F8B4520C48016821F04041016048
:1051D000016841F0804101600126C4F8BC620220F0
:1051E00004F52D7404F02CFB2660022004F028FB4B
:1051F000256070BD00804042000402402DE9F04768
:10520000814616480024016821F040410160016890
:105210000160134E254627464FF00108C6F8B472C8
:10522000022004F00DFBC6F8B4826006040ED6F826
:105230003C0208B1641CE4B2012004F001FB6D1CC7
:10524000EDB2082DEAD3B9F1000F04D0FFF750FFFB
:105250002046BDE8F087FFF7B1FFF9E70004024000
:105260000080404270B516460D46044600F050F8E6
:10527000D22000F01DF800F08DF8204600F018F85C
:1052800000F088F800F044F8D32000F011F800F0A6
:1052900081F8002406E00120FFF7B0FF641C05F848
:1052A000010BE4B2B442F6D3BDE8704000F050B850
:1052B0002DE9F04106461448016821F040410160A3
:1052C000016841F080410160104C0027C4F8B472BD
:1052D0003D464FF00108F009C4F8BC027006060E06
:1052E000022004F0ADFAC4F8B482022004F0A8FA57
:1052F000C4F8B472022004F0A3FA6D1CEDB2082DBC
:10530000E9D3BDE8F0810000000402400080404283
:1053100070B50D48016821F040410160016841F01D
:1053200080410160094C0120C4F8BC02C4F8B402F9
:10533000042004F52D7404F083FA0025A5600420F0
:1053400004F07EFA256070BD0004024000804042F7
:105350000E4810B5016821F040410160016841F03C
:10536000804101600A4C0020C4F8B402C4F8BC02B9
:10537000042004F52D7404F063FA01202060A0607D
:10538000BDE81040042004F05BBA000000040240B5
:105390000080404270B512480024016821F040416D
:1053A0000160016801600F4D0126C5F8BC623046FE
:1053B00004F046FAC5F8B462012004F041FA07E0AF
:1053C000641CE4B2FA2C03D9FFF7C2FF012070BDC0
:1053D000D5F83C020028F3D1C5F8B40270BD000036
:1053E0000004024000804042B5EEC01AF1EE411ABE
:1053F000F1EE10FA02DDB0EE412A01E0B0EE612AD2
:1054000012EE100AB0F17E5F0CDDB5EEC01AF1EEBF
:1054100010FA01DCB0EE611AB2EE042AC1EE021AF3
:10542000B0EE611AF7EE001A71EEC11A21EE800A91
:1054300000EE810A704710B590ED361A0446B5EEBD
:10544000C01AF1EE10FA1BD0D4ED0A0A94ED040A4A
:10545000FFF7CAFF84ED040A94ED361AD4ED0B0A67
:1054600094ED050AFFF7C0FF84ED050A94ED361AA6
:10547000D4ED0C0A94ED060AFFF7B6FF84ED060A98
:1054800094ED371AB5EEC01AF1EE10FA1BD0D4ED38
:105490000D0A94ED070AFFF7A7FF84ED070A94EDC4
:1054A000371AD4ED0E0A94ED080AFFF79DFF84ED3C
:1054B000080A94ED371AD4ED0F0A94ED090AFFF7A4
:1054C00093FF84ED090A94ED381AB5EEC01AF1EE97
:1054D00010FA1BD0D4ED1B0A94ED180AFFF784FFD5
:1054E00084ED180A94ED381AD4ED1A0A94ED170ACF
:1054F000FFF77AFF84ED170A94ED381AD4ED190AF4
:1055000094ED160AFFF770FF84ED160A94ED391A30
:10551000B5EEC01AF1EE10FA1BD0D4ED1F0A94EDCF
:105520001C0AFFF761FF84ED1C0A94ED391AD4EDD3
:10553000200A94ED1D0AFFF757FF84ED1D0A94ED34
:10554000391AD4ED210A94ED1E0AFFF74DFF84EDC0
:105550001E0A10BD70B586B014216846FAF7FDFE2C
:1055600011480025016841F0020101600068012234
:1055700000F002000D4E1403059021463046FEF760
:1055800077F80121CDE90041CDE9021569463046A1
:10559000FDF76EFF0120FDF759FF0122214630463D
:1055A000FEF766F806B070BD3038024000040240D5
:1055B00070B515460E460446C171FDF74FF8002040
:1055C0006A1CAEB1012E21D1617903291FD0206858
:1055D000401C2060A84219DB0121217161719042B9
:1055E00014DB02212171617198420FDB03200BE073
:1055F000617961B12168491C2160A94206DB04235D
:1056000023716371914201DB2071607170BD206074
:1056100070BD000001220E210148FEF729B80000EC
:105620000008024000220E210148FEF721B80000C8
:105630000008024010B5074C6188491C89B261809E
:10564000814205D10E210448FEF70AF8002060804F
:1056500010BD00008404002000080240094B01280E
:1056600008D0022809D003280AD1012208211846AF
:10567000FDF7FEBF01220221F9E701220421F6E72E
:105680007047000000080240094B012808D002289A
:1056900009D003280AD1002208211846FDF7E8BFE7
:1056A00000220221F9E700220421F6E770470000FA
:1056B0000008024070B51D4C1D4DA188491C89B2DF
:1056C000A180814207D1002202212846FDF7D0FFA8
:1056D0000122042109E0B1EB400F10D10022042186
:1056E0002846FDF7C5FF012202212846FDF7C0FF2D
:1056F0002846BDE8704001220821FDF7B9BF00EB44
:105700004000884210D1002208212846FDF7B0FF52
:10571000012202212846FDF7ABFF01220421284681
:10572000FDF7A6FF0020A08070BD000084040020CB
:10573000000802400D4B1A88521C92B21A80B2FB2C
:10574000F1F301FB132100290ED1094A012807D0EA
:10575000022807D0032807D108211046FDF780BF93
:105760000221FAE70421F8E77047000084040020D2
:105770000008024070B5074D002400BF04EB440050
:1057800005EB0010C16A8847641C24B2022CF5DBCB
:1057900070BD0000F820002070470000104810B5D0
:1057A0000E4901600321416000214FF40022816015
:1057B000C0E903124FF440124261017601224276A1
:1057C0008176C17601774177FDF721FB002803D070
:1057D000BDE81040FCF740BF10BD00000064004071
:1057E0006C2C0020104810B50E4901600321416067
:1057F00000214FF400228160C0E903124FF44012EF
:1058000042610176012242768176C1760177417745
:10581000FDF7FDFA002803D0BDE81040FCF71CBFDF
:1058200010BD000000680040942C00202D4808B5F1
:10583000016841F400110160016801F40011009158
:10584000016841F4800101600068002200F48000DA
:10585000009005210B20FDF7B5FF0B20FDF7A4FFFD
:10586000002205210C20FDF7ADFF0C20FDF79CFF69
:10587000002205210D20FDF7A5FF0D20FDF794FF67
:10588000002205210E20FDF79DFF0E20FDF78CFF65
:10589000002205210F20FDF795FF0F20FDF784FF63
:1058A000002205211020FDF78DFF1020FDF77CFF61
:1058B000002205212F20FDF785FF2F20FDF774FF23
:1058C000002205213A20FDF77DFF3A20FDF76CFF0D
:1058D000002205214620FDF775FFBDE8084046205F
:1058E000FDF762BF3038024010B59CB01C2216494B
:1058F0006846FAF719FD0021684605F057FC134C7D
:1059000011491C2260601C3107A8FAF70DFD002127
:1059100007A805F04BFC0C49A0601C2238310EA8EA
:10592000FAF702FD00210EA805F040FC0649E060F0
:105930001C22543115A8FAF7F7FC002115A805F030
:1059400035FC20601CB010BD3CFA0008B8220020D5
:1059500030B587B014216846FAF7FFFC1D480024D3
:10596000016841F080010160016801F0800105914A
:10597000016841F004010160016801F00401059132
:10598000016841F001010160016801F00101059128
:10599000016841F002010160016801F00201059116
:1059A000016841F00801016000680B4D00F008003B
:1059B000059001220E212846FDF75AFE0E20009088
:1059C0000120CDE90104694628460394FDF750FD06
:1059D00007B030BD303802400008024010B596B024
:1059E00000240F9410941194129413941C2108A86D
:1059F0001494FAF7B2FC20216846FAF7AEFC294865
:105A00002749016040F28F61C0E9011440F2E7319B
:105A1000C0E9031444618461FEF78EFC08B1FCF711
:105A20001BFE4FF480500F900FA91E48FEF71EFD7D
:105A300008B1FCF711FE1B48FEF7CBFE08B1FCF7DE
:105A40000BFE139413A917481494FEF72DFC08B10C
:105A5000FCF702FE6020CDE908040A940B940C9434
:105A60000D94002208A90F480E94FEF74CFE08B1D1
:105A7000FCF7F2FD00944FF40050CDE9044002948D
:105A800001940394694607480794FEF7E2FB08B1C6
:105A9000FCF7E2FD0348FEF70BFE16B010BD000058
:105AA00000000140202D002010B586B000241748CA
:105AB00000940194029403940494134905940160A2
:105AC00042F2CF01C0E9011441F26F71C0E9031441
:105AD0008461FEF731FC08B1FCF7BEFD4FF4805045
