:020000040800F2
:10000000B0770020610200080B5F00080152000871
:10001000095F0008910B0008D5810008000000006E
:10002000000000000000000000000000A101000826
:10003000AF25000800000000FD0100081979000844
:100040007B0200087B0200087B0200087B0200089C
:100050007B0200087B0200087B0200087B0200088C
:100060007B0200087B0200087B020008E5210008F3
:10007000F1210008FD2100080922000815220008CE
:10008000212200087B0200087B0200087B02000896
:10009000BD0B00087B0200087B0200087B02000801
:1000A0007B0200087B0200087B0200087B0200083C
:1000B000F17900087B020008FD7900087B02000846
:1000C0007B0200087B0200087B0200087B0200081C
:1000D0007B0200083980000899800008FD80000834
:1000E0007B0200087B0200087B0200087B020008FC
:1000F0007B0200087B0200087B0200082D2200081A
:100100007B0200087B0200087B0200087B020008DB
:10011000DD7C0008F57C00087B0200087B020008FB
:100120007B0200087B020008392200087B020008DD
:100130007B0200087B0200087B0200087B020008AB
:100140001D0C00087B0200087B0200087B020008EF
:100150007B0200087B020008452200087B020008A1
:100160007B0200087B0200087B0200087B0200087B
:100170007B0200087B0200087B02000800000000F0
:100180007B0200087B020008DFF810D000F07CFB47
:10019000004800479DAD0008AFF30080B077002015
:1001A0002C4B19680868B0E8F04F80F30988BFF35A
:1001B0006F8F4FF0000080F311887047000000003F
:1001C00008480068006880F308884FF0000080F35A
:1001D000148862B661B6BFF34F8FBFF36F8F00DF35
:1001E00000BF00BF08ED00E0DFF80C00016841F43B
:1001F00070010160704700BF88ED00E0EFF30980F7
:10020000BFF36F8F134B1A681EF0100F08BF20ED5D
:10021000108A20E9F04F106009B44FF0500080F3CD
:100220001188BFF34F8FBFF36F8F0CF05BFD4FF062
:10023000000080F3118809BC19680868B0E8F04F25
:100240001EF0100F08BFB0EC108A80F30988BFF3CE
:100250006F8F7047EC220020EFF30580704700009D
:100260000648804706480047FEE7FEE7FEE7FEE750
:10027000FEE7FEE7FEE7FEE7FEE7FEE7E1790008BE
:10028000890100082DE9F05F0546002092469B4653
:1002900088460646814640241BE02846414647469C
:1002A000224600F0ADF953465A46C01A914110D388
:1002B00011461846224600F016F82D1A67EB010881
:1002C0004F4622460120002100F00DF817EB0009EF
:1002D0004E41201EA4F10104DFDC484631462A4687
:1002E0004346BDE8F09F202A04DB203A00FA02F1E1
:1002F000002070479140C2F1200320FA03F3194314
:1003000090407047202A06DBCB17203A41FA02F0D2
:1003100043EAE07306E041FA02F3D040C2F1200262
:10032000914008431946704740EA01039B0703D0F8
:1003300009E008C9121F08C0042AFAD203E011F824
:10034000013B00F8013B521EF9D27047D2B201E0E6
:1003500000F8012B491EFBD270470022F6E710B5CA
:1003600013460A4604461946FFF7F0FF204610BD23
:100370002DE9FE4F804681EA0300C00F0C46009035
:1003800021F0004123F00045B8EB0200A94105D25D
:100390004046214690461C460B46024623F000404C
:1003A000104347D0270DC7F30A00C3F30A51029048
:1003B000401A019040286BDAC3F3130040F4801B0D
:1003C0000098924620B10023D2EB030A63EB0B0B9B
:1003D00001985946C0F140025046FFF784FF064697
:1003E0000D4650465946019AFFF78CFF10EB080066
:1003F0006141002487EA115284EAE7731A4340D02E
:10040000009A62B3019A012A4FEA075215DC001BD9
:1004100061EB02014FF0004202EA0752CDE90042CF
:10042000001C41F5801132462B4600F03FF903B025
:10043000BDE8F08F40462146F9E7001B61EB020161
:10044000001C41F5801300185B412018A2F500172D
:1004500047EB030140EAD570B6196D4111E06D0814
:100460004FEA360645EAC0754FEA0752001B61EBBA
:100470000201001C41F5801149084FEA30000019C3
:10048000514132462B4603B0BDE8F04F00F0FFB8B3
:100490000098012240000023D0EB020263EBE073DE
:1004A000009821464FEAE074B8EB000061EB0401CC
:1004B000E9E783F000435BE781F0004158E72DE96D
:1004C000FE4F81EA030404F0004421F0004100944F
:1004D0004FF0000B23F0004350EA01045ED052EAD3
:1004E00003045BD0C3F30A54C1F30A552C44A4F2AD
:1004F000F3340194A0FB0254C1F3130141F48011C1
:10050000C3F3130343F4801301FB024400FB034EC7
:10051000840A970A44EA815447EA8357A4FB076890
:1005200002958D0A05FB07854FEA932C04FB0C54BA
:100530002705029D4FEA065847EA1637B5EB08052E
:100540006EEB070C870E920E47EA811742EA831280
:10055000A7FB0201B6EB0B0164EB00042B0D43EA91
:100560000C335E1844EB1C50DA465146E7FB02019F
:10057000C5F313044FEA0B3343EA14534FEA043232
:10058000019C43EA0603A4F10C040294009CCDE90B
:1005900000B400F08BF803B0BDE8F08F00200146F6
:1005A000F9E700F0004230F000400AD0C10D01F53B
:1005B0006071C0F3160042EA0151C20840071143BE
:1005C000704700200146704701F0004330B421F02D
:1005D000004150EA010206D00A0DA2F56072C1F393
:1005E0001301002A02DC30BC00207047440F44EAAB
:1005F000C104C100E01830BC00EBC25000F010B8DC
:10060000202A04DB203A21FA02F00021704721FA67
:1006100002F3D040C2F120029140084319467047CE
:100620000029A8BF7047401C490008BF20F0010006
:10063000704710B4B0FA80FC00FA0CF050EA0104E4
:1006400004BF10BC704749B1CCF1200421FA04F476
:1006500011FA0CF118BF012121430843A3EB0C014F
:10066000CB1D4FEA00614FEA102042BF002010BCB2
:10067000704700EBC35010440029A4BF10BC704762
:10068000401C490008BF20F0010010BC704710B5A5
:10069000141E73F1000408DA401C41F100019218A5
:1006A0005B411A4301D120F0010010BD2DE9F04D4E
:1006B00092469B4611B1B1FA81F202E0B0FA80F2A3
:1006C00020329046FFF70FFE04460F4640EA0A002C
:1006D00041EA0B0153465A46084313D0114653EAE8
:1006E000010019D0C8F140025046FFF789FF0546C6
:1006F0000E46504659464246FFF7F5FD084305D0E1
:10070000012004E020463946BDE8F08D0020054375
:1007100046EAE0762C4337430A986305E40AA0EBE7
:1007200008000022FD0A44EA47540A3002D500209E
:100730000146E9E7010510196941DDE9084500199D
:100740006941BDE8F04DA2E72DE9F04D81EA0304CF
:1007500004F0004B21F0004514464FF0000A23F04E
:10076000004150EA050220D054EA01021DD0C5F331
:100770000A570246C5F31303C1F31300C1F30A5627
:1007800040F4801543F48013A7EB0608101BD646EF
:1007900008F2FD3873EB050002D308F1010801E00F
:1007A00092185B41B8F1000F03DA00200146BDE862
:1007B000F08D00204FF48011064684460EE0171B92
:1007C00073EB050705D3121B63EB050306434CEAE5
:1007D000010C49084FEA300092185B4150EA0107CA
:1007E000EDD152EA030012D082EA040083EA050147
:1007F000084305D0101BAB4106D20122002306E0BE
:1008000000224FF0004302E06FF0010253101AEB98
:1008100006004CEB085110EB0A0041EB0B01BDE860
:10082000F04DFFF734BF0EB5C10F80EAE070084409
:10083000CA07002140F233438DE80E000A460B46FA
:10084000FFF734FF03B000BD70B5C1F30A5201F0E9
:1008500000450024C1F3130140F2FF3341F480113D
:100860009A4201DA002070BD40F233439A42A2F26C
:10087000334203DC5242FFF7C3FE00E090402C43BA
:10088000F1D0404270BD0000064C074D06E0E06824
:1008900040F0010394E8070098471034AC42F6D3C7
:1008A000FFF776FC74FF000894FF00080EB540F2D5
:1008B000334102910021CDE900110A460B46FFF7B2
:1008C000F5FE03B000BD70B58C1810F8015B15F093
:1008D000070301D110F8013B2A1106D110F8012BB2
:1008E00003E010F8016B01F8016B5B1EF9D12B07D7
:1008F00005D40023521E0DD401F8013BFAE710F88D
:10090000013BCB1A921C03E013F8015B01F8015B79
:10091000521EF9D5A142D8D3002070BD10B5F6EE15
:10092000000A2DED088B044690ED350A90ED047A0F
:10093000D0ED053A20EE204AD0ED064A27EE230AF4
:10094000D0ED335A90ED346A90ED222A20EE240A3D
:10095000D0ED231AD0ED242A90ED253AD0ED077A78
:10096000D0ED086A90ED095AB5EEC00AF1EE10FA22
:100970007DD022EE020A01EEA10A02EEA20A03EEE7
:10098000030A0AF0B5F822EE002A61EE801A62EE40
:10099000802A23EE003A27EE070A03EEA30A04EEAC
:1009A000A40A0AF0A5F827EE001A63EE803A64EE76
:1009B000800A21EE830AB0EE00AA714802EE620AB4
:1009C00020EE0A7A22EE210A02EE830A20EE0A8A3B
:1009D00022EE020A01EEE10A02EEE20A03EE030A47
:1009E00063EE804A40EEC84A60EE870A41EE400A54
:1009F00021EE081A45EEA47A03EEC71AD0ED013AAB
:100A000045EEA06A44EE863A05EE815AF0EE425A6F
:100A1000C0ED013A90ED020A77EEA33A00EE860AA5
:100A2000F0EE610A60EEE31A80ED020A90ED037ABF
:100A300036EE800A01EE067AB0EE621A62EE232AE2
:100A400041EE401A80ED037A35EE076A41EE062A40
:100A500043EE461A43EE402A41EE845AF0EE601A05
:100A600042EE841AB0EE615A62EE001A00E083E0B2
:100A700040EEC61A22EE062AF0EE412A00EE802A47
:100A800043EE231A25EEA50A01EE632A41EE842ADD
:100A900005EE050A02EE043AF0EE624A04EEA40AFC
:100AA00003EE030A0AF024F825EE008A65EE80AA18
:100AB00064EE808A23EE009A28EE0A0A2AEE8A1A49
:100AC000C4ED22AA04F18C0060EE099AB7EE000A88
:100AD00080EC038A41EE689A09EEE90AB5EEC00A95
:100AE000F1EE10FA02DBB1EEC0BA01E09FED25BADB
:100AF0006AEEAA0A28EE8A0A04F16000F0EE60BAF3
:100B000048EE480A20EE090A01EE080A48EEE80A13
:100B100049EE090A08F0C2F804F15C00F0EE4B0A55
:100B2000B0EE690A08F0BAF8F0EE6B0A28EE280A6F
:100B300048EE080A04F158000AEE890A48EEE80A6D
:100B400020EE0A0A49EE490A08F0A8F8D4ED180A7E
:100B50009FED0D0A9FED0D1A60EE800AC4ED180A94
:100B6000D4ED170A60EE810AC4ED170AD4ED160A17
:100B700020EE800A84ED160ABDEC088B10BD000043
:100B8000F004002000000000DF2E6542DF2E65C269
:100B9000FEE7000000B58BB0684600F063F86946D8
:100BA000054801F0C5FF0221034801F041FF02485A
:100BB00002F0D6FA0BB000BD7C2C0020014802F0F8
:100BC000B2B800007C2C00200A460146014800F023
:100BD00083B800007C2C002070B50C46054605F05B
:100BE000C3FB034822462946036CBDE87040184702
:100BF0009404002000B58BB0684600F033F86946D5
:100C0000054801F095FF0221034801F011FF024859
:100C100002F0A6FA0BB000BDA42C0020014802F09F
:100C200082B80000A42C00200A460146014800F0CA
:100C300053B80000A42C002070B50D46044605F002
:100C4000B9FB06482A462146036C984704482246C9
:100C50002946836DBDE87040303018479404002069
:100C6000002100200021016041608160C1600161BC
:100C700001224161C0E90612C0E908217047000065
:100C800010B5124A016891420DD1114B00211C464A
:100C9000A3F11C0201F0D3FF0D4821461C38006867
:100CA000FFF79AFF10BD0B4A9142FBD1084B002180
:100CB00024331C46A3F11C0201F0C1FF0448214665
:100CC00008300068FFF7B8FF10BD00000064004066
:100CD0007C2300200068004038B50B46164C0168A4
:100CE000A14201D1154904E0154CA14222D113497A
:100CF00020310B6000238B60CB6008230B611388CD
:100D00001B0A0B7613784B7653881B0A8B769378E5
:100D1000CB7693881B0A0B7713794B77D3881B0A02
:100D20008B779279CA776B4601F1180201F092FE37
:100D3000002800D0012038BD00640040A823002016
:100D400000680040BCEEC00A10EE101AC180704767
:100D500010F8341F491CC9B200F80819427A9142B0
:100D600002D90272012103E00178012901D1002199
:100D70000170704770B50346006B1446884221D15C
:100D8000124D20886E4240BA00B2DFED0F0AB3EE7A
:100D90000E0A2A46314609F0C1FE83ED040A608836
:100DA000FBEE040A40BA00B2B3EE040A2A4631460A
:100DB00009F0B4FE83ED050AA08840BA188300202C
:100DC00083F8340070BD0000000000000083FFFFC6
:100DD000018881830189C1834189018470474188E9
:100DE00081848188C184C18801858189418570475A
:100DF000BCEEC00A024600B510EE100ABCEEE00AD6
:100E0000108010EE100ABCEEC10A508010EE100ADD
:100E1000BCEEE10A108110EE100A5081908920F09A
:100E2000020040F0010090811046FFF7D1FF10460C
:100E30005DF804EBFFF7D3BF70B5294C027C27485F
:100E4000A16E012A02D0022A08D029E090ED161ADC
:100E5000D0ED170A90ED180A70301DE0214AD4ED4C
:100E6000050AD4ED041AB2F91C3AB2F9A02C00EE2E
:100E7000103A1C30B8EEC00A60EE800A9FED1A0AE4
:100E800080EE801A00EE902AF8EEE00A61EEA01AD9
:100E9000C1EE800A9FED150AD0EC031A104888476E
:100EA000134D134855F8901F8847124E114856F8B5
:100EB000DC1F8847E16E0A48884769680C48884704
:100EC00071680C488847616F05488847A9680848D9
:100ED0008847716907488847022070BD00050020D7
:100EE00074010020500600203D0AB64100000000B9
:100EF000EC0100208000002070B504460C4800255D
:100F000001218583C58305844584226E2046904750
:100F1000626E002120469047A26E00212046904735
:100F20006571A5712572E57102206073607070BDF6
:100F3000B002002070B504462DED028B007CDFED81
:100F40009A8A9FED9A8A9A4D012802D0022879D078
:100F5000D1E0A07B022854D0012874D094ED120A6D
:100F6000C0EE280A94ED0D0A30EE800AF0EE480A31
:100F700005F080FCD5ED010A78EE600AB4EEE00AD7
:100F8000F1EE10FA12DAD4ED120A80EEA80AD4EDCE
:100F90000D0A30EE200AF0EE480A05F06BFCD5EDA4
:100FA000020AB4EEE00AF1EE10FA0DD8D4ED120AFE
:100FB00080EEA80AD4ED0D0A30EE200AF0EE480AC1
:100FC00005F058FC84ED0D0A95ED140AB5EEC00A43
:100FD000F1EE10FA01DCB1EE400A10EE100A75498C
:100FE00088420DDC94ED110AC0EE280A94ED0C0A3B
:100FF00030EE600AF0EE480A05F03CFC84ED0C0A85
:1010000079E0E07D9FED6C0ADFED6C0A062813D2D3
:10101000DFE800F01203081A1F22D4ED0C0A30EEAC
:10102000C00A03E0D4ED0C0A30EE800AF0EE480A64
:1010300005F020FC84ED0C0A0120A07302F0A8FB4F
:10104000E06258E021E00EE094ED0C0A30EE600A18
:10105000ECE794ED0C0A03E094ED0C0ADFED580A7E
:1010600030EE200AE2E7A8780026012800D1A67316
:1010700002F08EFBE16A401AB0F57A7F01D9A673BF
:1010800001E0A07BB8BBE67535E094ED120AC0EE36
:10109000280A94ED0D0A30EE800AF0EE480A05F0B9
:1010A000E9FBD5ED010A78EE600AB4EEE00AF1EE54
:1010B00010FA12DAD4ED120A80EEA80AD4ED0D0A65
:1010C00030EE200AF0EE480A05F0D4FBD5ED020A16
:1010D000B4EEE00AF1EE10FA0DD894ED120AC0EE6B
:1010E000280A94ED0D0A30EE800AF0EE480A05F069
:1010F000C1FB84ED0D0AE079DFED328A022801D1CF
:10110000C4ED0D8A94ED0D0AF0EE480A05F0B2FB2D
:10111000B5EEC00A2C4EF1EE10FA16DD94ED0D0A74
:10112000F0EE480A05F0A6FB10EE100AB0420CDA09
:1011300094ED0D1AD5ED020AB4EEE01AF1EE10FAB4
:1011400023DC00BFF0EE410A1FE094ED0D0AF0EE43
:10115000480A05F08FFB10EE100AB04217DD94ED3F
:101160000D0AF0EE480A05F085FB10EE100A17494B
:1011700088420CDA95ED010AD4ED0D0A38EE401ADA
:10118000F4EEC10AF1EE10FADCD3C4ED0D0A94EDD1
:101190000C1AD4ED0D0A296EB0EE680ABDEC028B74
:1011A0000348BDE8704008470000C8420000B4434F
:1011B000740100200000B4420000B4420000344238
:1011C0000000344300000000000034430000B4433A
:1011D00010B504464078012808D1E17C2046FFF78D
:1011E0008BFE6078022801D1E07CE073A0780128B2
:1011F00008D1217D204600F061F8A078022801D1B5
:10120000207D2074E078012803D1607D0221E17007
:1012100060746078012808D1A17D204600F0B2FBFF
:101220006078022801D1A07DA074022010BD0000CA
:10123000C27B8A4209D04278012A06D0C1740021BB
:10124000C173826D012101481047704705000020DD
:10125000027C8A4209D08278012A06D001750021D9
:101260000174826D0121014810477047060000207B
:10127000427C8A4209D0C278012A06D041750021F9
:101280004174826D0121014810477047070000201A
:1012900002788A4200D0017070470000827C8A4246
:1012A00009D00279012A06D0817500218174826DEE
:1012B0000121014810477047080000202DE9F04740
:1012C000534A544C4FF0000A2DED028B0746A2F80A
:1012D0001CA0A2F81EA0A2F820A0A2F822A02046DE
:1012E00084F8A4AA84F8E8AA84F828AD84F86CAD40
:1012F00000F5286300F6C42800F6045600F64855A9
:101300009FED458ADFF81491D0F8642C012902D0B2
:10131000022922D052E0424918469047D4F8642C62
:10132000404940469047D4F8E82E3F493046904720
:10133000D4F8E82E3D49284690473D4CF0EE480A47
:1013400094ED170A05F096FA87ED0D0A94ED160A4A
:10135000F0EE480A05F08EFA2EE03649184690471E
:10136000D4F8642C344940469047D4F8E82E3349E9
:1013700030469047D4F8E82E314928469047314806
:101380009FED311AD0ED040AB4F9A00C00EE100A5A
:10139000B8EEC00A60EE800A80EE810AF0EE480ADC
:1013A00005F068FA87ED0D0A99F8020000B1B42043
:1013B00000EE100AB8EE400A87ED0C0A99F8020018
:1013C0004C4610B1012805D00FE09FED200AD4F85B
:1013D000841003E09FED1E0AD4F884100F4888475C
:1013E000D4F88C20A1780D489047D4F888200021AB
:1013F0000A489047BA6E00213846904787F808A0FF
:1014000087F80EA00220B870BDEC028BBDE8F08713
:10141000B0020020500600200000B443EC01002080
:10142000B01F0020CC1F0020E81F00200420002057
:101430000005002090200020AC200020C8200020C3
:10144000E4200020740100203D0AB64100000000A5
:101450000000344370B5424D0446007BD5F8882027
:10146000022808D002213E489047207C012804D061
:1014700002284CD06AE00121F5E7207A02281AD030
:1014800095ED1A0ADFED370A05F08EF9D4ED140A4E
:101490009FED351AC4ED0E0AD4ED130AF1EE600A81
:1014A000C4ED0F0AC0EE010A9FED300A20EE800A5B
:1014B00084ED100A4AE094ED140A2D4984ED0E0AD9
:1014C00094ED130AB1EE400A84ED0F0A94ED150A6B
:1014D00084ED100A686E884210EE100A0ADD254974
:1014E000884202DB9FED240A0EE0DFED240A30EE95
:1014F000200A09E02249884202DCB3EE0E0A03E02A
:10150000DFED200A30EE600A84ED150A1EE094ED4E
:10151000140A1D4884ED0E0A94ED130A9FED1B1A60
:10152000B1EE400A84ED0F0A94ED110AB1EE400AC3
:1015300084ED100AB0F91C0AD5F8841000EE100AE8
:101540000748F8EEC00A80EE810A88473834D5F89B
:101550008010034894EC030ABDE87040084700007F
:10156000EC0100200000B443000034430000A0421E
:10157000000020420000C8420000C8420AD7A33B36
:101580000000F0410AD7233C500600203D0AB64136
:1015900070B5224C05468079D4F8D020022801D0BD
:1015A00010B104E0012100E000211C489047E879D7
:1015B000022801D020B108E00121D4F8D42002E0B3
:1015C000D4F8D420002115489047687C01281ED00B
:1015D00002280CD003280ED004281DD1B4F86200D4
:1015E000D4F8D83005280BD94FF47A620AE00122EA
:1015F000D4F8D83002E0D4F8D8300622022102E034
:101600004FF4FA620321BDE87040044818470022F5
:101610001146D4F8D830F6E770BD000080000020F5
:1016200070B505462DED028B90ED110AB5EEC00A9E
:10163000F1EE10FA01DCB1EE400A10EE103A444827
:101640000222002195ED130A83421ADCB5EEC00A8E
:10165000F1EE10FA02DDF0EE400A01E0F1EE400A90
:1016600010EE903A83420CDCD5ED140AF5EEC00A78
:10167000F1EE10FA01DCF1EE600A10EE903A8342CE
:1016800001DDEA7200E0E972B5EEC00AF1EE10FA8F
:1016900001DCB1EE400A10EE103A2E4883420CDC19
:1016A00095ED140AB5EEC00AF1EE10FA01DCB1EEC8
:1016B000400A10EE103A834201DD2A7300E02973DC
:1016C000E87A254C9FED258A022801D050B114E01C
:1016D000B4F90400DFED220A00EE100AA16BB8EEA7
:1016E000C00A08E0B4F90400A16B00EE100AF0EEA5
:1016F000480AB8EEC00A18488847687B194D022886
:1017000014D0002820D1E088A16B00EE100A124806
:10171000F8EE400A9FED140A88479FED140AE96F1E
:101720001048BDEC028BBDE870400847E088A16B13
:1017300000EE100A0848F8EE400AB0EE480A884762
:101740009FED0B0AE96FEBE7BDEC028B70BD00006B
:10175000000020410000484294040020000016438D
:1017600000000000EC010020000096420080BB4514
:101770000000FA4510B50446406A18B902F008F8AE
:10178000401C60622448017839B1217869B3007E39
:10179000E26D01282CD001212BE001F0F9FF20623D
:1017A000002020706070A070E07020716071A071E6
:1017B000E071207260720146E26D20469047226E11
:1017C000002120469047626E002120469047134832
:1017D0000021D0F8C820904711480021C26D9047E1
:1017E00010480021826F904714E00120207010BD46
:1017F000022120469047E07B012802D0022804D035
:1018000008E0204605F0C2F904E00220607120469D
:1018100003F0B0FF022010BDB002002080000020C5
:1018200074010020EC01002070B504462DED028B00
:1018300001F0AEFF3F4EB0F57A7F07D2B1EE040A59
:1018400086ED330A0120BDEC028B70BD9FED3A0A94
:101850003A4D86ED330A687830B901F099FFA062FD
:10186000EA6D012128469047226E022120469047CA
:101870003348D5ED050AD5ED041AB0F91C1AB0F9B4
:10188000A00C00EE101A9FED308A1C36B8EEC00A8C
:10189000A96E60EE800A9FED2B0A80EE801A00EEA2
:1018A000900A2648F8EEE00A61EEA01AC1EE800A1E
:1018B000D6EC031AB0EE480A8847B0EE481A84ED19
:1018C0000C1AF0EE480AC4ED0D0A296EB0EE480A73
:1018D0001A488847A8780226012802D1E87801280A
:1018E0000CD001F055FFA06201F052FF216A401AAE
:1018F00040F6B83188420AD926700BE001F048FF63
:10190000A16A401AB0F5FA7FEED92670ECE720788C
:1019100002280CD10D480121D0F8C82090470C486E
:101920000121826F9047226E0021204690470220BD
:1019300089E7000000050020CDCCCC3D74010020DB
:10194000500600203D0AB641000000008000002043
:10195000EC01002010B504460078012820460CD088
:10196000FFF75EFE2046FFF7E5FA2046FFF772FD1F
:101970002046FFF70DFE022010BDFFF755FF0120A6
:1019800010BD00002DE9F0412E4D0E462DED048BCB
:10199000044601299FED298ADFED298A02D0022E13
:1019A00014D02FE0284F9FED299A97ED170AF0EEFB
:1019B000490A04F05FFF84ED0D0A97ED160AF0EE78
:1019C000490A04F057FF84ED0C0A1BE02048D0EDD3
:1019D000040A2048B0F9A00C00EE100AB8EEC00AC4
:1019E00020EE800ADFED1C0A80EE201A84ED0D1A2D
:1019F000A87810B1012803D015E084ED0C8A01E02D
:101A0000C4ED0C8AA87810B1012805D00AE0B0EE28
:101A1000480AD5F8841003E0D5F88410B0EE680ABF
:101A20000848884726B1A26D022104F109009047B9
:101A300002202071BDEC048BBDE8F08100000000A5
:101A400000003443EC010020000500200000B443F6
:101A500074010020500600203D0AB6412DE9F043F4
:101A600006462DED028B83B00020464C009001907D
:101A700071796D4604F5217704F5A16804F28C793B
:101A8000F1B3012941D1D4F86C1296ED0F0A20462A
:101A90008847BDEEC00A216A10EE100A25F8110031
:101AA000D4F8F01496ED100A38468847BDEEC00A07
:101AB000D4F8A41210EE100A25F81100D4F8741707
:101AC00096ED110A40468847BDEEC00AD4F82815A5
:101AD00010EE100A25F8110096ED120AD4F8F81944
:101AE00048468847BDEEC00AD4F8AC1710EE100A7D
:101AF00025F811006946304600F0F6F9694600E025
:101B000008E0D4F858221F48904703B0BDEC028B80
:101B1000BDE8F08301F03CFE316F401AB0F5967FCE
:101B2000F3D2D4F86C129FED188A1648B0EE480A2A
:101B30008847FDEEC00A216AB0EE480A10EE900A0E
:101B400025F81100D4F8F01438468847FDEEC00A95
:101B5000D4F8A412B0EE480A10EE900A25F811004D
:101B6000D4F8741740468847FDEEC00AD4F828150B
:101B7000B0EE480A10EE900A25F81100D4F8F819D2
:101B8000AEE700005006002000000000C170704762
:101B90000171704710B5044651B1012907D1607930
:101BA000002804D10120607101F0F2FD606710BDD2
:101BB00060790128FBD10020607101F0E9FD206708
:101BC00010BD80ED060A704770B504462DED0A8BF6
:101BD00084B090ED1A2ADFEDBD2AC2EE221AB0EED3
:101BE000002A61EE821A9FEDBA2AB5EEC00A21EEF4
:101BF00082AAF1EE401AF1EE10FA02DDB0EE402AB0
:101C000001E0B0EE612A12EE100AB24D9FEDB28AE9
:101C1000A8420ADD20EE082AB5EEC00AF1EE10FA5D
:101C200001DDF0EE401A82EE210AF5EEC00AF0EE78
:101C3000408AB1EE600AF1EE10FA02DDF0EE601AB1
:101C400001E0F0EE401A11EE900AA8420ADD60EEC3
:101C5000881AF5EEC00AF1EE10FA01DDB0EE600A66
:101C6000C1EE800AB5EEC01AB1EE410AF1EE10FAEB
:101C700002DDF0EE411A01E0F0EE401A11EE900A9A
:101C8000A8420ADD61EE081AB5EEC01AF1EE10FAAC
:101C900001DDB0EE410A81EE801AE07801287BD0A8
:101CA000B0EE609A1AEE100AF0EE419AFEF779FC57
:101CB00041EC100B06F064FBB0EE40BAF0EE60BAF7
:101CC00019EE100AFEF76DFC53EC1B2BFEF7F7FB29
:101CD00041EC1C0B1AEE100AFEF763FC41EC100BF2
:101CE00006F0EAFAB0EE40BAF0EE60BA18EE900AEA
:101CF000FEF757FC53EC1B2BFEF7E1FB53EC1C2BC0
:101D0000FEF7D7FBFEF760FC06461AEE100AFEF758
:101D100048FC41EC100B06F0CFFAB0EE40BAF0EE02
:101D200060BA19EE100AFEF73CFC53EC1B2BFEF7D1
:101D3000C6FB41EC1B0B1AEE100AFEF732FC41EC1D
:101D4000100B06F01DFBB0EE40AAF0EE60AA18EEF4
:101D5000900AFEF726FC53EC1A2BFEF7B0FB53EC6F
:101D60001B2BFEF705FBFEF72FFCCDE90060CDED48
:101D7000029A0321684604F0FFFC10EE100AA84204
:101D800008DD20796D4660B1DFED548A01281CD052
:101D900002284CD08AE0FFE7F1EE688AB1EE609A43
:101DA00080E70321284604F0E7FC002005EB8001D2
:101DB000401C91ED001AC0B20328C1EE000A60EE8B
:101DC000880AC1ED000AF1D370E00221284604F030
:101DD000D3FC38EE401AB5EEC01AF1EE10FA10D26C
:101DE0005FF0000005EB8001401C91ED001AC0B2CD
:101DF0000228C1EE000A60EE880AC1ED000AF1D3A4
:101E000052E0DDED020AF5EEC00AF1EE10FA02DD55
:101E1000B0EE600A01E0B1EE600AB4EEC10AF1EE84
:101E200010FA01DCB0EE601A8DED021A3EE00221DC
:101E3000284604F0A1FCDDED020AF5EEC00AF1EE41
:101E400010FA01DCF1EE600A78EE600AF5EEC00AE5
:101E5000F1EE10FA13DDB4EEE00AF1EE10FA25DD32
:101E60005FF0000005EB8001401C91ED000AC0B25C
:101E7000022880EE201A81ED001AF3D316E0B4EEAA
:101E8000E00AF1EE10FA0FDD5FF0000005EB8001D3
:101E9000401C91ED001AC0B20228C1EE000A60EEAB
:101EA000880AC1ED000AF1D3CDED028A9DED000A4A
:101EB00084ED080A9DED010A84ED090A9DED020AF0
:101EC00084ED0A0A04B0BDEC0A8B70BD0000B44377
:101ED000DB0F49400000C8420000C842000000007B
:101EE00080ED0E0A7047000010B5D0ED170AB1EE74
:101EF000001A90ED190A60EE810A10EE102A2B4BA1
:101F00009FED2B1AFCEEE00A9A4210EE900A80B286
:101F100001DDB0EE410A10EE102AC0EE010A254C98
:101F2000A24201DA60EEA00A10EE102A00EE100ABA
:101F30009A42B8EE400A01DA20EE800AB1F9002098
:101F4000002A00DC5242B1F90200002800DC4042C5
:101F50000244B1F90400002800DC40420244B1F917
:101F60000600002800DC4042104400EE900AF8EE23
:101F7000E00A80EE201AF4EEC00AF1EE10FA13DB4C
:101F80005FF0000031F9102000EE102AB8EEC00A10
:101F900020EE010ABDEEC00A10EE102A21F8102032
:101FA000401CC0B20428EDD310BD000000007042F8
:101FB000000070420000C8410FB5017811B101293D
:101FC0001DD03CE0D0ED080A90ED091AB1EE600A90
:101FD00070EE411A90ED0A0A71EEC01ACDED001AAA
:101FE00071EE601A71EEC01ACDED011A70EEC11AD1
:101FF00070EE810A71EEC01ACDED021A1BE090ED71
:10200000081AD0ED090AB1EE410A70EE601A90ED9F
:102010000A0A71EEC01ACDED001A70EEC11A71EE07
:10202000C01ACDED011A71EE601A71EE200A71EE40
:10203000C01ACDED021A30EEC00A8DED030A9FEDF5
:102040000C0A00216A4600BF02EB810393ED001ADF
:1020500000EB8103491CC1EE000A90ED0E1AC9B2D3
:10206000042960EE810AC3ED0F0AEDD30FBD000015
:102070000000C84230B54F4900230124CA7D52B147
:1020800091F89B223AB191F81F2522B191F8A3272C
:102090000AB1437000E04470474AB2F8705000EE55
:1020A000105AB8EE400A80ED190AB2F8655000EEF9
:1020B000105AB8EE400A80ED180A12781AB93F4A51
:1020C00092F82C2002B39FED3E0A00BF80ED170A64
:1020D000B1F91C2A9FED3B1A00EE102AF8EEC00A57
:1020E00080EE810A9FED381A70EE410AF5EEC00AC3
:1020F000F1EE10FA01DC71EE400A344D10EE902A38
:10210000AA4204DA847003E09FED310ADEE78370AF
:1021100080ED1B0AD0ED060A30EE600ADFED2D0AD5
:10212000B5EEC00AF1EE10FA02D230EE200A06E057
:1021300010EE102A284B9A4201DB30EE600A80ED47
:102140001A0AD0ED0E0A90ED021A80EE810A9FED78
:10215000231AC0EE010AB0EE000A20EE800ADFED7D
:10216000200A20EE200AD0ED030A20EE200A80ED9E
:10217000070AB1F9022000EE102AB8EEC00A80ED7D
:10218000130AB1F9862200EE102AB8EEC00A80EDDB
:10219000140AB1F90A2500EE102AB8EEC00A80ED43
:1021A000150AB1F98E1700EE101AB8EEC00A80EDCC
:1021B000160A30BD5006002064210020940400203F
:1021C00000007A453D0AB641000034430000B442A5
:1021D0000000FA450000B4430000B4430000704220
:1021E000DB0F4940014801F049B80000D42F00201E
:1021F000014801F043B80000B4310020014801F06B
:102200003DB80000142F0020014801F037B800004D
:1022100014320020014801F031B80000742F002072
:10222000014801F02BB8000054310020014801F0B2
:1022300025B8000034300020014801F01FB800002C
:1022400094300020014801F019B80000F43000205B
:102250002DE9F04F85680024099E802D18D0894D06
:10226000C563894D456490F83450012D15D0012582
:1022700080F8345090F83550012D10D0002180F8AE
:1022800034100224002180F834102046BDE8F08F7D
:102290004FF4807141650120F8E70220F6E702253E
:1022A00080F835500025456505682F6847F480277C
:1022B0002F6005682B6103685E608368402B0368AC
:1022C0002AD099600168CA60714D704E704FDFF876
:1022D000BC81DFF8B891DFF8B8A1DFF8B4B1EA1437
:1022E000DFF8A8E10168183630379302A9F14809F0
:1022F0000AF1600A0BF1180BAEF1300E4FF0006CD2
:1023000041452DD9A94205D0494503D0514501D0B9
:10231000B14205D1202220E09A600268D160D3E763
:1023200059451AD0714518D0594D7835A94214D065
:10233000564D3035A94210D0B9420BD0534A183A05
:10234000914207D0524A9032914203D04F4A4832CC
:10235000914201D11A4600E062464C494C392EE0C8
:10236000DFF82C8108F1A80841452AD9A94205D0F7
:10237000494503D0514501D0B14201D120221CE092
:1023800059451AD0714518D0414D7835A94214D01D
:102390003E4D3035A94210D0B9420BD03B4A183AD5
:1023A000914207D03A4A9032914203D0374A48329C
:1023B000914201D11A4600E06246344950390A6020
:1023C0005AE0DFF8CC8008F1480841452AD9A942F3
:1023D00005D0494503D0514501D0B14201D1202259
:1023E0001CE059451AD0714518D0294D7835A942BD
:1023F00014D0264D3035A94210D0B9420BD0234A13
:10240000183A914207D0224A9032914203D01F4A93
:102410004832914201D11A4600E062461C49103907
:10242000CA6029E0A94205D0494503D0514501D0F1
:10243000B14201D120221CE059451AD0714518D073
:10244000134D7835A94214D0104D3035A94210D023
:10245000B9420BD00D4A183A914207D00C4A90323B
:10246000914203D0094A4832914201D11A4600E014
:102470006246074910398A6001680A6842F0010221
:102480000A60FFE6A99B0008C19B0008586402404F
:102490001060024001681823CAB2103AB2FBF3F28E
:1024A000054B6FF30901032A9B5CC36500D9091D25
:1024B0008165084670470000FCFD000810B5014624
:1024C00000208B698A6A4FF0C07453B1B3F5005F86
:1024D00015D072B1012A0CD0022A0AD0032A09D1E0
:1024E00004E01AB1012A06D0022A03D1C96AC9013F
:1024F00000D5012010BDC96AA142FAD010BD002A42
:10250000F7D0012AF2D0022AF3D0032AF3D010BD6B
:1025100030B50468256825F480252560046863606B
:102520008368402B036803D099600068C26030BDA7
:102530009A600068C16030BD70B590F834500024D6
:10254000012D0CD0012580F8345090F8356000251D
:10255000012E06D080F834500224204670BD02209F
:1025600070BD022680F83560456505682E6826F442
:1025700080262E6005686B608368402B036808D056
:1025800099600168CA600068016841F0010101605A
:10259000E3E79A600268D160F5E701680A68D2064D
:1025A00004D5C968C90601D50AF0ACB970477047AF
:1025B000F0B5404890F84D100A2945D20122A0F804
:1025C000A2200222A0F8A4200322A0F8A620042220
:1025D000A0F8A8200522A0F8AA2040F201170622A0
:1025E000A0F8AC207E1C0722A0F8AE20751C6C1C45
:1025F000A0F8B070A0F8B260631CA0F8B450A0F8C6
:10260000B6405A1CA0F8B830A0F8BA2001290CD066
:1026100002290DD003290ED004290FD0052910D08E
:10262000062901D1A0F8BC20F0BDA0F8BC70F0BD17
:10263000A0F8BC60F0BDA0F8BC50F0BDA0F8BC4054
:10264000F0BDA0F8BC30F0BD6522A0F8A220662243
:10265000A0F8A4206722A0F8A6206822A0F8A8204D
:102660006922A0F8AA2040F265176A22A0F8AC20DF
:102670007E1C6B22A0F8AE20751C6C1CA0F8B070FC
:10268000A0F8B260631CA0F8B450A0F8B6405A1C81
:10269000A0F8B830A0F8BA206529C6D06629C7D0FE
:1026A0006729C8D06829C9D06929CAD06A29B9D090
:1026B000F0BD0000642100200EB590ED180AD0EDA9
:1026C0001B0A9FED1E2A002130EE600A6A468DED3E
:1026D000000A90ED170AD0ED1A0A30EE600A8DED6F
:1026E000010A90ED160AD0ED190A30EE600A8DED60
:1026F000020A00BF02EB8103F0EE420A93ED000AEA
:1027000007F00FFF491CC9B283ED000A0329F1D37A
:10271000DDED000A90ED350A80EE801A80ED1C1A7E
:10272000DDED010A80EE801A80ED1D1ADDED020A52
:1027300080EE801A80ED1E1A0EBD00000000B4432A
:1027400072B6FEE78279C1798A4202D00022026025
:102750008171704710B558B1084C491E0BD310F861
:10276000013B5340DBB234F8133083EA1222F4E722
:102770004FF6FF7010BD104610BD00003CDB000896
:1027800010B5064C04E000BF10F8013B5340E25C7A
:10279000491E89B2F8D2104610BD00003CDA00088C
:1027A000F0B507462DED028B83B0274C40786D467F
:1027B00004F52166F0B1012818D197ED0E0AD4F87E
:1027C000301ABDEEC00A10EE100A25F8110097ED80
:1027D0000D0AD4F8B41CBDEEC00A10EE100A25F89C
:1027E0001100D4F8682C29463046904703B0BDEC60
:1027F000028BF0BD00F0CCFF796D401AB0F57A7F06
:10280000F4D2D4F87C1C9FED118A3046B0EE480A11
:102810008847FDEEC00AD4F8301AB0EE480A10EE30
:10282000900A25F81100D4F8001F09488847BDEE2A
:10283000C00AD4F8B41C10EE100A25F8110069463D
:10284000D4F8682CD0E700005006002000000000FB
:10285000E412002071EE600A084930EE800A80EE32
:10286000201ADFED050A21EE200A10EE100A884238
:1028700001DD30EE600A70470000B4430000B4434D
:1028800010B5044651B1012907D16078002804D160
:102890000120607000F07CFFA06510BD6078012809
:1028A000FBD10020607000F073FF606510BD3C300C
:1028B00080EC030A7047000070B59FED1B0A1B4DAA
:1028C00080ED0C0A044690ED101AD0ED0A0A90ED46
:1028D000070A05F64851D5F8043F0122A1F144004A
:1028E0009847D4ED040A05F6C421012220EE200AFF
:1028F000A1F1440084ED0D0AD5F8803C94ED111A45
:10290000D4ED0B0A94ED080A9847D4ED050A20EEA1
:10291000200ADFED070A84ED0E0A94ED0D0A30EE71
:10292000600A84ED0D0A70BD000000005006002012
:1029300000803B4590ED082A9FED123ADFED123AF8
:1029400090ED064AC2EE031A90ED072A00F1380214
:10295000111F303061EEA32AC2EE031A21EEA32A22
:10296000C4EE031A81EE034A61EEA31A24EE231A81
:1029700080EE834A64EE230A80EE034A24EE230AA3
:1029800004F096B800003443DB0F494070B50446AC
:10299000244801252DED028B002690F8271A0129E5
:1029A00003D190F8AB0C01282ED0257004F118004B
:1029B0009FED1D8A80EC060AD4ED0F0A30EEC00AA6
:1029C000F0EE480A03F0F0FE84ED120A94ED100ACE
:1029D000D4ED070A30EE600AF0EE480A03F0E4FE98
:1029E00084ED130A94ED110AD4ED080A30EE600A62
:1029F000F0EE480A03F0D8FE84ED140A0B49E06CAF
:102A0000884203DAA57002E02670CFE7A67010EEC8
:102A1000100A884203DAE570BDEC028B70BDE670E7
:102A2000FAE70000500600200000B4430000A04078
:102A300090F82020012A07D0022A05D0416A41F4EB
:102A40008021416201207047006842690A43426167
:102A500000207047F0B590F820500468A468012D5C
:102A600005D0022D03D0416A41F480215DE014F0CD
:102A7000406F01D1E50055D5C4F30164022C03D9A0
:102A8000416A41F4000150E00125A5401D608D68B8
:102A90004FF4C0739DB1CE6835434E6845EAC60514
:102AA000066803EB0417F5514FF4C275076805EB90
:102AB00004150E697E51097D012905D009E00E88B3
:102AC000CD6845EA4655EBE701684E5946F48076F5
:102AD0004E511179D579567941EA056195792D04E0
:102AE00045EA062529434FF4C676056806EB041629
:102AF000A9511178D57841EA0561957852782D046D
:102B000045EA022211434FF4C475026805EB04152F
:102B10005151006803EB0411425842F00102425047
:102B20000020F0BD416A41F4001141620120F0BD76
:102B300010B590F82020012A07D0022A05D0416A5A
:102B400041F480214162012010BD3B48D0F80022B1
:102B500042F00102C0F80022D0F8002222F47C5298
:102B6000C0F80022D0F800224B6A42EA0322C0F8E3
:102B700000220A7D02F01F0301229A40D0F81C3285
:102B80009343C0F81C32CB69B3B9D0F80C329343ED
:102B9000C0F80C328C894B6864F31F434C6900EB1E
:102BA000C404C4F840320C890B6864F31F434C69B9
:102BB00000EBC404C4F84432CB69012B16D1D0F821
:102BC0000C321343C0F80C320C884B6864F31F437B
:102BD0004C6900EBC404C4F840320C89CB6864F340
:102BE0001F434C6900EBC404C4F844328B69002BCA
:102BF000D0F804320ED01343C0F804320B69002B16
:102C0000D0F8143208D01343C0F81432096A0129ED
:102C100004D008E09343EFE79343F5E7D0F81C12A4
:102C20001143C0F81C12D0F8001221F00101C0F8C5
:102C30000012002010BD000000640040704730B555
:102C400090F82040012C05D0022C03D0416A41F4B9
:102C500080215DE00468002955D02469A40754D080
:102C60004FF4D874056804EB01142D5915F00405D0
:102C7000956005682D594ED0ED08556005682C59B2
:102C800004F00204D4604FF4DA74056804EB011414
:102C90002D5905F00F05156105682D59C5F3072558
:102CA000956105682C59240C54614FF4DC7204685A
:102CB00002EB0112A4581C700468A458240A5C702A
:102CC0000468A458240C9C700468A258120EDA7090
:102CD0004FF4DE72046802EB0112A4581C71046800
:102CE000A458240A5C710468A458240C9C710468DC
:102CF000A258120EDA71006881B1016941F0200119
:102D00000161002030BDE468A8E7416A41F4001188
:102D10004162012030BD6D0D1560AFE7C16841F023
:102D20002001C160EDE72DE9F05F05460068002451
:102D30004669D0F804908768D0F80CB0D0F810A09D
:102D4000D0F81880F10748D0F90714D0012181602C
:102D5000B80703D5284600F030FA0CE0780702D512
:102D60004FF4006407E0380702D54FF4805402E0C6
:102D7000284600F021FAF80516D529684FF480702E
:102D80008860B80503D5284600F019FA0CE07805EC
:102D900002D544F4005407E0380502D544F48044D9
:102DA00002E0284600F00AFAF80316D529684FF425
:102DB00080308860B80303D5284600F002FA0CE0A2
:102DC000780302D544F4004407E0380302D544F404
:102DD000803402E0284600F0F3F9300707D55FEAB7
:102DE000CB6004D52968102044F40074C8607007D3
:102DF0004FF0080707D55FEA0B7004D52868C76055
:102E0000284600F099F9B00706D52868C068800701
:102E100002D0284600F092F9700607D55FEACA6032
:102E200004D52968102044F480640861B00607D5F1
:102E30005FEA0A7004D528680761284600F08CF91B
:102E4000F00606D528680069800702D0284600F001
:102E500084F9B00308D55FEAC96005D52968102058
:102E60004860284600F07AF9F00307D55FEA097058
:102E700004D528684760284600F0A4F9300446D5F8
:102E80005FEA497040D5F00504D55FEAC87001D00B
:102E900044F00104B00504D55FEA887001D544F020
:102EA0000204700504D55FEA487001D544F00404BB
:102EB000300529D518F0700F26D008F07000402892
:102EC00015D006DC102809D020280AD0302816D1C9
:102ED0000AE050280ED0602811D10EE044F008041A
:102EE0000DE044F010040AE044F0200407E044F050
:102EF000400404E044F0800401E044F48074286855
:102F0000816921F070018161296804204860002CEA
:102F100005D0686A204368622846FFF78FFEBDE847
:102F2000F09F70B5040003D094F8200010B104E0C5
:102F3000012070BD204600F081F82068016841F052
:102F40000101016000F024FC0546052604E000F0C4
:102F50001FFC401B0A2811D820684068C007F6D023
:102F60002068016821F00201016000F011FC0546B3
:102F70000BE000F00DFC401B0A2806D9606A40F403
:102F80000030606284F82060D2E7206840688007E3
:102F9000EFD4207E0128206801683DD021F0800117
:102FA0000160607E01282068016838D021F040016E
:102FB0000160A07E01282068016833D021F0200143
:102FC0000160E07E0128206801682ED041F01001E8
:102FD0000160207F01282068016829D021F00801C4
:102FE0000160607F01282068016824D021F004017D
:102FF0000160D4E902010843D4E9041211430843F3
:103000006168491E08432168C86100206062012090
:1030100084F82000002070BD41F08001C0E741F03D
:103020004001C5E741F02001CAE721F01001CFE7D8
:1030300041F00801D4E741F00401D9E7F0B587B0C9
:10304000044614216846FDF788F9364B3648DFF808
:10305000D0E01968D4F800C0334A032502260927B6
:1030600010300024491CF44522D11960012907D1F0
:10307000016841F000710160006800F00070059087
:10308000106840F0080010601068CDE9005600F0AC
:103090000800CDE9047069462448CDE9024500F0F6
:1030A00071FA00220521142000F016FC142032E0F1
:1030B000DFF87CE0F44530D1D0F800C04CF0806CF3
:1030C000C0F800C0D0F800C001290CF0806CCDF829
:1030D00014C0196007D1016841F0007101600068F7
:1030E00000F000700590106840F002001060106859
:1030F00002AB00F0020005906020CDE9000683E8F5
:10310000B00069460B4800F03DFA0022052140203E
:1031100000F0E2FB402000F0D1FB07B0F0BD000062
:1031200000640040D022002030380240000C0240F1
:10313000006800400004024070470000044A016833
:10314000914202D0034A914201D1FDF799BD7047E7
:1031500000640040006800407047704770470000FE
:1031600070B5044690F82000012804D0606A40F44D
:103170000020606218E0022084F8200020680168C6
:1031800021F00101016000F003FB05460EE000BFE5
:1031900000F0FEFA401B0A2808D9606A40F40030AB
:1031A0006062052084F82000012070BD206840681E
:1031B000C007EDD1606270BD7047704770477047BF
:1031C0007047704770472DE9F0410446876D00F065
:1031D000DFFA064694F835000025022806D0802044
:1031E000606584F834500120BDE8F08120680168F2
:1031F00021F0160101602068416921F080014161E0
:10320000206C08B9A06C20B12068016821F0080189
:1032100001602068016821F0010101600CE000F00C
:10322000B7FA801B052807D920206065032084F8A1
:10323000350084F83450D7E720680068C007EED125
:1032400094F85C103F208840B860012084F8350075
:1032500084F834500020C7E790F83510022903D0D5
:103260008021416501207047052180F835100068F4
:10327000016821F001010160002070472DE9F84349
:1032800004464FF00009CDF8009063484FF4165102
:10329000A56D0068B0FBF1F72E6894F85C1008206B
:1032A00000FA01F131420FD021680A6852070BD5AC
:1032B0000A6822F004020A6094F85C108840A86052
:1032C000606D40F00100606594F85C104FF00108FB
:1032D00008FA01F0304208D021684969090604D58E
:1032E000A860606D40F00200606594F85C100420F6
:1032F0008840304208D021680968890704D5A86051
:10330000606D40F00400606594F85C101020884007
:10331000304218D021680968090714D5A8602068D0
:103320000168490304D50068000308D5A16C07E0D3
:103330000168C90503D4016821F008010160216C0E
:1033400009B12046884794F85C102020884030421C
:1033500031D021680968C9062DD5A86094F83500D8
:1033600005282068016806D0490347D50068000396
:103370001DD4616C1CE021F01601016020684169D8
:1033800021F080014161206C08B9A06C20B1206857
:10339000016821F00801016094F85C103F2088402A
:1033A000A86084F8358084F83490216D1FE0E16BCB
:1033B00009B120468847606D00282BD0606DC0079A
:1033C00014D0052084F835002068016821F001013F
:1033D00001600098401C0090B84203D82068006843
:1033E000C007F6D184F8358084F83490E16C002968
:1033F00010D001B02046BDE8F04308470168C90578
:10340000D5D4016821F01001016084F8358084F87A
:103410003490CCE7BDE8F883E82200202DE9F041A4
:10342000044600F0B5F906465CB1022084F8350088
:10343000002584F834502068016821F00101016002
:103440000DE00120BDE8F08100F0A2F9801B052805
:1034500005D920206065032084F83500F2E7206854
:103460000068C007F0D12268116820480140D4E903
:1034700001031843D4E903363343184363691843FF
:10348000A3691843E3691843236A18430843616A30
:10349000042903D1D4E90B131943084310602068B1
:1034A0004069666A20F0070130460E430127042870
:1034B0000CD1A06A0643E06A40B12046FEF7FEFF49
:1034C00020B14020606584F83570BAE72068466115
:1034D0002046FEF7DFFF94F85C203F219140816099
:1034E000656584F835700020ACE700003F8010F07F
:1034F0002DE9F0410446866D90F83400002501283E
:103500000DD0012084F8340094F835700020012F8C
:1035100007D084F8340002252846BDE8F081022057
:10352000FBE7022784F8357060652046FEF7F0FF60
:1035300094F85C103F208840B0602068016841F03A
:1035400016010160206C20B12068016841F008017B
:1035500001602068016841F001010160DCE70000C2
:1035600070B5044600F014F90546601C02D004480A
:103570000078044400F00CF9401BA042FAD370BD5F
:10358000DC2200202DE9F84FDFF8BCA10022012544
:1035900003264FF00F090AF1040BAAF1040E00BF35
:1035A0000B6805FA02F42340A34270D10F7907F0AB
:1035B0000307012F01D0022F16D187684FEA420876
:1035C00006FA08FC27EA0C07D1F80CC00CFA08FC34
:1035D0004CEA070CC0F808C04768A7430C79C4F34D
:1035E000001494403C4344600C79E443A4070AD09F
:1035F000C4684FEA420C06FA0CF7BC438F6807FA1E
:103600000CF72743C7600C7904F00304022C12D195
:10361000D40800EB840CDCF820405707FF0E09FAB1
:1036200007F824EA0804D1F8108008FA07F848EAF5
:103630000408CCF8208004684FEA420C06FA0CF724
:10364000BC430F7907F0030707FA0CF7274307601D
:103650004C6814F4403F70D03C4C276847F48047D6
:103660002760246822F0030704F480440094384C57
:1036700007EB040CDCF8084897074FEA177809FABB
:1036800008F7BC43334FB84202D1002724E054E08E
:10369000314FB84201D101271EE0304FB84201D16D
:1036A000022719E02E4FB84201D1032714E02D4F15
:1036B000B84201D104270FE02B4FB84201D10527B2
:1036C0000AE02A4FB84201D1062705E0284FB84248
:1036D00001D1072700E0082707FA08F72743CCF8AD
:1036E0000878DAF800405746D1F804C09C435FEAF6
:1036F000CC2C00D51C433C60DBF800405F46D1F881
:1037000004C09C435FEA8C2C00D51C433C60DEF86F
:1037100000407746D1F804C09C435FEA8C3C00D55A
:103720001C433C60084F083F3C68D1F804C09C43F0
:103730005FEACC3C00D51C433C60521C102AFFF4CD
:103740002FAFBDE8F88F0000083C0140443802402C
:103750000030014000000240000402400008024026
:10376000000C024000100240001402400018024009
:10377000001C0240426921EA02030A4043EA024176
:10378000816170470AB1816170470904FBE700005D
:103790000148806870470000DC22002000684AF67B
:1037A000AA21016000207047024881680278114414
:1037B00081607047DC2200200B4810B5016841F49D
:1037C00000710160016841F480610160016841F4A9
:1037D00080710160032000F09FF80F2000F006F8D0
:1037E00000F050F8002010BD003C024030B5054606
:1037F000204887B00024016841F0010101600068A1
:1038000006A900F00100009001A800F031F9049829
:10381000B0B100F04DF9400017494FF08042B0FBC5
:10382000F1F11648491E026040F2E732C0E9032474
:10383000C0E90114846100F009FE040003D015E022
:1038400000F036F9E8E70D4800F05AFE04000DD10B
:103850001C2000F033F8102D07D2002229461C202E
:1038600000F03AF80648056000E0012407B0204661
:1038700030BD00004038024040420F00743200204A
:10388000E02200200C4882B0016841F480410160D0
:10389000006800F4804000900748001F016841F074
:1038A000805101600068002200F0805000900F21DC
:1038B000901E02B000F010B844380240002809DB26
:1038C00000F01F02012191404009800000F1E0203A
:1038D000C0F8001170470000F0B40E4B1B680C4696
:1038E000C3F30223C3F10705042D00D90425191DD4
:1038F000072901D2002300E0DB1E012606FA05F1AC
:10390000491E214099409E40761E16403143F0BC2E
:1039100004F0ADBC0CED00E0064900F007020868B9
:103920004FF6FF03184040EA0220034A10430860A4
:10393000704700000CED00E00000FA052DE9F047AB
:103940000E46050065D0DFF81481D8F80000F7B204
:1039500000F00700B04207D288F80070D8F80000E5
:1039600000F00700B04254D128683D4C810712D5C1
:10397000400703D5206840F4E05020602878000715
:1039800003D5206840F4604020602068A96820F0DA
:10399000F000084320602878C0072DD030496868BF
:1039A0000839012812D0022813D0032811D0096841
:1039B000890700292DDA216821F0030101432160E4
:1039C000FFF7E6FE814641F2883A0EE00968890376
:1039D000EFE709688901ECE7FFF7DAFEA0EB0901E0
:1039E000514502D90320BDE8F0872068696800F0DE
:1039F0000C00B0EB810FEFD1D8F80010404601F079
:103A00000701B14207D90770006800F00700B04213
:103A100001D00120E7E72878400705D52068E9684C
:103A200020F4E050084320602878000706D520687D
:103A3000296920F4604040EAC100206000F058F895
:103A40002168084AC1F30311515CC8400649086067
:103A500006480068FFF7CAFE0020C4E7003C0240A9
:103A60000838024004FE0008E8220020E02200207E
:103A70000F2202600C4A136803F0030343601368CB
:103A800003F0F0038360136803F4E053C36012682B
:103A90004FF4E05303EAD20202610448006800F0E8
:103AA000070008607047000008380240003C0240F0
:103AB0000448054900680968044AC1F38221515C41
:103AC000C8407047E82200200838024014FE000871
:103AD0000448054900680968044AC1F34231515C51
:103AE000C8407047E82200200838024014FE000851
:103AF000154810B5006810F00C02144813D0144992
:103B0000042A0FD0082A0ED10F4C241F22682368E4
:103B100002F03F025B0207D52068C0F38810A0FBCB
:103B2000010106E0084610BD2168C1F38811A1FB20
:103B300000010023FCF7A6FB2168C1F30141491CE9
:103B40004900B0FBF1F010BD083802400024F40039
:103B500040787D012DE9F84F04006ED02078DFF821
:103B60004C93C007A9F104054AD009F1040001688B
:103B7000C1F38101012908D00068C0F38100022847
:103B80000AD1D9F80000400206D52868800337D54D
:103B900060680028E1D033E06068B0F5803F10D065
:103BA000B0F5A02F286810D020F480302860286855
:103BB00020F4802028606068A8B1FFF7E9FD064680
:103BC0000DE0286840F48030F4E740F4802028605D
:103BD000F7E700BFFFF7DCFD801B642873D8286877
:103BE0008003F7D50CE0FFF7D3FD064605E000BFE4
:103BF000FFF7CEFD801B6428F0D828688003F7D437
:103C00002078DFF8AC8280074FF0000A3ED5A74845
:103C1000001D016811F00C0F08D00068C0F381008E
:103C200002280BD1D9F80000400207D42868800789
:103C300016D5E068012800D112E033E1E068B8B1A0
:103C40000120C8F80000FFF7A3FD064605E000BF0D
:103C5000FFF79EFD801B0228C0D828688007F7D593
:103C60002868216920F0F80040EAC10028600DE0D2
:103C7000C8F800A0FFF78CFD064604E0FFF788FDBA
:103C8000801B02281FD828688007F7D420780007F7
:103C900022D5864F87486169703771B10121016073
:103CA000FFF776FD064604E0FFF772FD801B022851
:103CB00009D838688007F7D50EE0C0F800A0FFF7F4
:103CC00067FD064605E082E0FFF762FD801B0228E3
:103CD0007DD838688007F7D42078400768D5DFF8AA
:103CE000CCB100270BF13C0BDBF80000C0000BD47B
:103CF000DBF8001041F08051CBF80010DBF8000039
:103D0000012700F0805000906B4E3068C00510D441
:103D1000306840F480703060FFF73AFD009005E0B5
:103D2000FFF736FD0099401A022850D83068C005C8
:103D3000F6D55E4EA0686C3601280FD00528306895
:103D400010D020F001003060306820F004003060B6
:103D5000A068B8B1FFF71CFD00900FE0306840F09C
:103D60000100F4E740F004003060F7E7FFF710FDD2
:103D70000099411A41F28830814266D83068800744
:103D8000F4D50EE0FFF704FD009007E0FFF700FD1B
:103D90000099411A41F28830814256D83068800734
:103DA000F4D42FB1DBF8001021F08051CBF80010D3
:103DB000A069C8B33D49091D0968C1F38101022901
:103DC0004AD00228504607D0C8F8600000E03CE026
:103DD000FFF7DEFC04463BE04746C8F86000FFF70B
:103DE000D7FC064605E000BFFFF7D2FC801B022887
:103DF0002BD828688001F7D4D4E907010843A16AC9
:103E00002E4A490802EB0141626A41EA82110843E5
:103E100094F82C1040EA0161C9F8001001203866BE
:103E2000FFF7B6FC044606E03EE000BFFFF7B0FC3B
:103E3000001B022809D828688001F7D534E000BFAC
:103E4000FFF7A6FC001B022802D90320BDE8F88F6B
:103E500028688001F4D427E00128F7D0D9F80000C1
:103E6000E26900F4800191421CD1226A00F03F0116
:103E7000914217D147F6C071626A0140B1EB821FCF
:103E800010D1A26A4FF0FF3300F4403103EB52022D
:103E9000B1EB024F06D194F82C1000F07060B0EB3B
:103EA000016F01D00120D1E70020CFE704380240A4
:103EB00000004742800E4742007000400000FFFFB4
:103EC0002DE9F84F044640680025984616460F46EF
:103ED0004FF0040BB0F5827F01D1A06888B194F84F
:103EE0005000012818D0012084F85000FFF750FC42
:103EF000814694F851004FF0000A01280ED00225A7
:103F000082E084F851B013460A462046CDF800807E
:103F100000F036F9BDE8F88F0220FBE7002F72D0E1
:103F2000002E70D084F851B0C4F854A0A763A687BF
:103F3000E687C4F830A0A4F834A0A4F836A0C4F8EA
:103F400040A0C4F844A0A068B0F5004F09D1206893
:103F5000016821F0400101602068016821F480417E
:103F6000016020680168490603D4016841F04001FE
:103F70000160E068D8B139E020688168C90709D0DC
:103F8000007BA16B0870A06B401CA063E08F401EFB
:103F9000E0870CE0FFF7FCFBA0EB0901414503D3F0
:103FA000B8F1FF3F03D036E0B8F1000F33D0E08F17
:103FB0000028E1D11DE020688168C90709D0C068E8
:103FC000A16B0880A06B801CA063E08F401EE0877F
:103FD0000CE0FFF7DDFBA0EB0901414503D3B8F18D
:103FE000FF3F03D017E0B8F1000F14D0E08F002896
:103FF000E1D14A464146204603F006FB08B12020A5
:104000006065606D00B10125012084F8510084F8DD
:1040100050A028467EE70325F6E72DE9F84F044631
:1040200090F8500000271D461646894601280DD0FD
:104030004FF0010B84F850B0FFF7AAFB804694F8CC
:104040005100BA46012804D0022793E00220BDE8BF
:10405000F88FB9F1000F73D0002E71D0032084F8CF
:104060005100C4F854A0C4F83090A686E686C4F87F
:1040700038A0A4F83CA0A4F83EA0C4F844A0C4F81A
:1040800040A0A068B0F5004F09D12068016821F078
:10409000400101602068016841F4804101602068AE
:1040A0000168490603D4016841F040010160E068FD
:1040B000B0F5006F606803D030B3012E24D041E02A
:1040C00008B1012E1CD1206B21680088C86006E071
:1040D00020688168890709D5216B0988C160206B38
:1040E000801C2063E08E401EE08609E0FFF750FB55
:1040F000A0EB0800A84202D3681C01D031E07DB3D8
:10410000E08E0028E4D120E0206B2168007808735D
:1041100006E020688168890709D5216B0978017359
:10412000206B401C2063E08E401EE0860AE0FFF713
:104130002FFBA0EB0800A84203D3681C02D010E0BC
:1041400017E06DB1E08E0028E3D1424629462046B3
:1041500003F088FA08B120206065A06818B106E075
:10416000FFE7032706E02068C16880680090606D63
:1041700000B1012784F851B084F850A0384666E7B2
:104180002DE9F84F044690F8500000270A9E1D467E
:1041900092468B464FF0010901280ED0012084F889
:1041A0005000FFF7F5FA804694F851006168012845
:1041B0000CD0B1F5827F07D102E00220BDE8F88F74
:1041C000A16809B9042801D00227C2E0BBF1000FA1
:1041D00027D0BAF1000F24D01DB394F85100042861
:1041E00002D0052084F8510000206065C4F838A092
:1041F000E587A587C4F830B0E586A58620646064AD
:1042000020680168490603D4016841F0400101605B
:10421000E068B0F5006F606805D0E8B3012D46D0C6
:104220007FE0012795E008B1012D39D1206B21688D
:104230000088C860206B801C2063E08E401EE086F2
:104240002EE02068816889070FD5E18E69B1B9F148
:10425000010F0AD1216B0988C160206B801C20638B
:10426000E08E401EE0864FF0000920688168C90793
:104270000CD0E18F51B1C068A16B0880A06B801C8D
:10428000A063E08F401EE0874FF00109FFF780FA3E
:10429000A0EB0800B04200E009E001D3701C50D14F
:1042A000E08E0028CDD1E08F0028CAD13FE0206BFE
:1042B000216800780873206B401C2063E08E401E4C
:1042C000E0862EE02068816889070FD5E18E69B10C
:1042D000B9F1010F0AD1216B09780173206B401CE1
:1042E0002063E08E401EE0864FF000092068816860
:1042F000C9070CD0E18F51B1C068A16B0870A06BE9
:10430000401CA063E08F401EE0874FF00109FFF7DB
:104310003FFAA0EB0800B04202D3701C01D010E0BD
:104320007EB1E08E0028CDD1E08F0028CAD1424670
:104330003146204603F096F928B101272020606518
:1043400007E0032705E0A06818B92068C168806805
:104350000090012084F85100002084F85000384675
:104360002CE77047704710B590F83C20012A22D006
:10437000012280F83C20CA688C6822F440722243F3
:104380004C6822F4806222430C6822F400622243CB
:104390000C6922F4805222434C6922F400522243D9
:1043A000C969002322F480420A4301684A6480F804
:1043B0003C30002010BD022010BD000070B590F808
:1043C0003C20012A32D0012480F83C40022280F8AF
:1043D0003D2003685A689D6822F070060A683243DF
:1043E0005A60134B02689A4214D0B2F1804F11D038
:1043F000104B9A420ED0104B9A420BD00F4B9A4260
:1044000008D00F4B9A4205D00E4B9A4202D00E4B69
:104410009A4204D1496825F080031943916080F8DD
:104420003D40002180F83C10084670BD022070BD60
:10443000000001400004004000080040000C004063
:1044400000040140004001400018004010B5040085
:1044500003D094F83D0010B107E0012010BD00200A
:1044600084F83C00204600F01FF8022084F83D004C
:10447000211D206803F0C8FA012084F8460084F862
:104480003E0084F83F0084F8400084F8410084F83E
:10449000420084F8430084F8440084F8450084F81E
:1044A0003D00002010BD000008B500681149884299
:1044B00009D11148016841F001010160006800F074
:1044C0000100009008BD0D498842FBD10A48001F39
:1044D000016841F0040101600068002200F004005E
:1044E000009005211E20FFF7F7F9BDE808401E20C7
:1044F000FFF7E4B9000001404438024000080040E2
:1045000090F83D10012901D001207047022180F868
:104510003D100168CA6842F00102CA600068114992
:10452000884214D0B0F1804F11D00F4988420ED08C
:104530000E4988420BD00E49884208D00D49884266
:1045400005D00D49884202D00C49884204D18168C7
:1045500001F00701062903D0016841F00101016063
:1045600000207047000001400004004000080040A7
:10457000000C0040000401400040014000180040D1
:1045800070B5044690F83C000025012817D001269C
:1045900084F83C60022084F83D002068826822F0A4
:1045A000770222F47F4282600868502838D00DDC00
:1045B00020284FD005DC90B3102811D14AE002200A
:1045C00070BD302846D040280AD13BE060282FD06B
:1045D00070280DD0B0F5805F03D0B0F5005F12D029
:1045E000012584F83D60002084F83C00284670BD19
:1045F000CB68D1E90121206803F077FA206881684F
:1046000041F0770109E0CB68D1E90121206803F08E
:104610006CFA2068816841F480418160E1E719E02B
:10462000CA684968206803F035FB5021206806E01D
:10463000CA684968206803F03EFB6021206803F0E7
:104640005EFACEE7CA684968206803F023FB402180
:104650002068F4E7226801461046F0E7704770B51D
:104660000446006801694FF00005C943890715D465
:10467000C168C943890711D4E91E0161012020776F
:10468000206880698007204602D0FFF7E7FF04E03A
:1046900000F0C2F8204600F054F92577206801693F
:1046A000C943490717D4C168C943490713D46FF0F8
:1046B00004010161022020772068806910F4407FA6
:1046C000204602D0FFF7CAFF04E000F0A5F820461C
:1046D00000F037F9257720680169C943090716D426
:1046E000C168C943090712D46FF0080101610420B1
:1046F00020772068C0698007204602D0FFF7AEFF10
:1047000004E000F089F8204600F01BF925772068C6
:104710000169C943C90617D4C168C943C90613D47E
:104720006FF010010161082020772068C06910F443
:10473000407F204602D0FFF791FF04E000F06CF8C4
:10474000204600F0FEF8257720680169C943C907B3
:1047500008D1C168C943C90704D1891E0161204637
:1047600000F092F920680169C943090609D4C168BB
:10477000C943090605D46FF0800101612046FFF7A7
:10478000F0FD20680169C943490609D4C168C943DD
:10479000490605D46FF040010161204600F07BF925
:1047A00020680169C94389060BD4C168C9438906D9
:1047B00007D46FF0200101612046BDE87040FFF78B
:1047C000D1BD70BD10B586B0044614216846FBF714
:1047D000C4FD0E492068884216D10D4800210268A8
:1047E00042F001020260006800F0010005904FF401
:1047F000807000900220CDE901010120CDE9031075
:1048000069460448FEF7BEFE06B010BD0000014038
:104810003038024000000240704770B5044690F8FE
:104820003C0000260D4601280FD0012084F83C00F2
:104830006AB1042A1DD0082A2FD00C2A3FD00126A5
:10484000002084F83C00304670BD022070BD206816
:1048500003F05EF92068816941F0080181612068F8
:10486000816921F004018161206881692A6911430D
:1048700011E0206803F07CF92068816941F400614F
:1048800081612068816921F480618161206881698A
:104890002A6941EA02218161D2E7206803F09EF98A
:1048A0002068C16941F00801C1612068C16921F037
:1048B0000401C1612068C1692A69114311E02068BF
:1048C00003F0C0F92068C16941F40061C16120684A
:1048D000C16921F48061C1612068C1692A6941EA26
:1048E0000221C161ACE710B5040003D094F83D008B
:1048F00010B107E0012010BD002084F83C002046E4
:1049000000F01EF8022084F83D00211D206803F00D
:104910007BF8012084F8460084F83E0084F83F00CC
:1049200084F8400084F8410084F8420084F8430091
:1049300084F8440084F8450084F83D00002010BD50
:104940007047704710B50446022249B104290ED0C1
:10495000082913D094F84100012816D0012010BD79
:1049600094F83E000128F9D184F83E200FE094F835
:104970003F000128F2D184F83F2008E094F840007D
:104980000128EBD184F8402001E084F84120012285
:10499000206803F09DF816492068164A884201D025
:1049A000904203D1436C43F400434364206888423F
:1049B00013D0B0F1804F10D00F4988420DD00F496D
:1049C00088420AD00E49884207D0904205D00D494E
:1049D000884202D00C49884204D1816801F0070165
:1049E000062903D0016841F001010160002010BDDB
:1049F00000000140000401400004004000080040A5
:104A0000000C0040004001400018004030B5044652
:104A10000D460068002203F05BF8194B41F21111BA
:104A200020688A10984202D0164B984209D1036A36
:104A30000B4206D1036A134203D1436C23F40043B3
:104A400043642068036A0B4206D1016A114203D114
:104A5000016821F00101016001203DB1042D08D061
:104A6000082D09D084F84100002030BD84F83E00B4
:104A7000FAE784F83F00F7E784F84000F4E7000025
:104A800000000140000401400068B0F1804F01D1F6
:104A9000FEF78ABE7047704770477047F8B50168E7
:104AA00004460868CA684B6910F00F0F4FF0000504
:104AB00059D003F0010602F49077374365D0C1075F
:104AC00005D0D10503D5216C41F0010121644107D6
:104AD00005D5D90703D0216C41F00201216481077B
:104AE00005D5D90703D0216C41F0040121640107E9
:104AF00007D502F02001314303D0216C41F00801B9
:104B00002164216C00293AD0800604D5900602D594
:104B1000204603F083F920684069216CC0F38010BF
:104B2000090700D460B3204603F043F920684069C8
:104B3000400621D52068143050E8001F21F04001C4
:104B400040E80012002AF5D1A06BA8B16C490165BC
:104B5000A06BFEF781FB002811D0A06B016D01B0A6
:104B6000BDE8F040084783060FD593060DD52046D3
:104B7000BDE8F84003F052B92046FFF78EFFF8BDBC
:104B80002046FFF78AFF2564F8BD266B2023012EFF
:104B900079D1C60677D5D60675D5086848680090DD
:104BA0004869400640D5A16B086840680004000CC5
:104BB000EAD0A28D8242E7D9E085C869B0F5807F4E
:104BC0002DD020680C3050E8001F21F4807140E89F
:104BD0000012002AF5D12068143050E8001F21F09F
:104BE000010140E80012002AF5D12068143050E895
:104BF000001F21F0400140E80012002AF5D184F89E
:104C00003E30256320680C3050E8001F21F0100171
:104C100040E80012002AF5D1A06BFEF7D4FAA08D6F
:104C2000E18D401A81B229E0A08DE18D401A81B258
:104C3000E08D0028A8D00029A6D020680C3050E8CC
:104C4000002F22F4907240E80026002EF5D1206853
:104C5000143050E8002F22F0010240E80026002E18
:104C6000F5D184F83E30256320680C3050E8002FE1
:104C700022F0100240E80023002BF5D12046FFF778
:104C80000BFFF8BDFFE705062BD5150629D594F8CF
:104C90003D002128F5D1A068B0F5805F01D12069E1
:104CA000B0B1206A411C2162216800784860E08C24
:104CB000401E0004000CE084E3D12068C16821F0AC
:104CC0008001C1602068C16841F04001C160D8E73F
:104CD000206A0088C0F308004860206A801C2062B7
:104CE000E5E74006CDD55006CBD5CA68204622F070
:104CF0004002CA6084F83D3000F080FAC1E700004D
:104D00000D7D000870B5040004D094F83D00002526
:104D100010B106E0012070BD84F83C50204600F040
:104D200023F8242084F83D002068C16821F4005154
:104D3000C160204603F0FAF82068016921F490412F
:104D400001612068416921F02A0141612068C16840
:104D500041F40051C1602564202084F83D0084F8AE
:104D60003E00002070BD00002DE9F04F87B00446E2
:104D700014216846FBF7F1FAEE48DFF8B4831038E7
:104D80000222D4F800C0EB4B03210026970605153C
:104D90004FF0080E4FF480794FF0400B4FF4003A7B
:104DA000C44552D1D3F800C0B0464CF4002CC3F82F
:104DB00000C01B6803F400230593036843F001035C
:104DC0000360006800F0010005908DE84600CDE921
:104DD000031E6946D848FEF7D5FBD948D749574640
:104DE00001604905C0E90116C0E903654661C0E9F3
:104DF0000669C0E908A6FEF711FB08B1FDF7A0FCA3
:104E0000CF48A063CE4E8463CC48603630303060EB
:104E10004FF00060C6E9010BC6E90385C6F81480AF
:104E2000C6F81880C6E907873046C6F82480FEF722
:104E3000F5FA08B1FDF784FC6663002205213420F1
:104E4000B463FEF749FD34206CE0DFF8F882C44516
:104E50006DD1D3F800C000264CF4801CC3F800C00C
:104E60001B6803F480130593036843F00403036095
:104E7000036803F004030593036843F00803036029
:104E80000068884600F0080005904FF480500090BC
:104E900001AA022082E84101082004906946AA483C
:104EA000FEF770FB0420009001AA022082E8410175
:104EB000082004906946A548FEF764FBA0489F4976
:104EC000C03030390160C0E90176C0E90365466150
:104ED000C0E90669C0E908A6B8465746FEF79EFA3B
:104EE00008B1FDF72DFC9648994EC030A06384634D
:104EF0009248783086E801090020C6E90305706110
:104F0000B061C6E9070770623046FEF787FA08B15C
:104F1000FDF716FC6663002205213520B463FEF719
:104F2000DBFC3520FEF7CAFC07B0BDE8F08FDFF8E8
:104F300024824FF0070EC44555D17E4B00261B1D21
:104F4000D3F800C04CF0100CC3F800C01B6803F08D
:104F500010030593036843F0010303600068CDE983
:104F6000026100F0010005904FF4C060CDE900023D
:104F7000CDF810E069467048FEF704FB74487649A6
:104F80006030B8460160C0E90176C0E9036546615A
:104F9000C0E90669C0E908A65746FEF73FFA08B11E
:104FA000FDF7CEFB6A486A4E6030A06384636A48AE
:104FB000C036783086E801090020C6E90305706133
:104FC000B061C6E9070770623046FEF727FA08B1FC
:104FD000FDF7B6FB6663002205212520B463FEF7CA
:104FE0007BFC25209EE7DFF87481C4453DD1D3F8D2
:104FF00000C04CF4003CC3F800C01B6803F400334D
:105000000593036843F0010303600068CDE9026182
:1050100000F0010005900C20CDE90002CDF810E071
:1050200069464548FEF7AEFADFF834814349404609
:10503000483102C0E0E80276E0E8036540F8046C1D
:1050400080E840064046C8F82460FEF7E7F908B15A
:10505000FDF776FBC4F83880002205212620C8F829
:105060003840FEF739FC26205CE7DFF8F880C445BD
:105070007FF45AAFD3F800C0B0464CF4802CC3F88C
:1050800000C01B6803F480230593036843F0020308
:1050900003600068CDE9026100F0020005904FF462
:1050A0004060CDE90002CDF810E069462E48FEF7D9
:1050B00069FADFF8ACA021490AF1600A18395046B4
:1050C000CAF80010C0E90176C0E90365CAF81460A7
:1050D000C0E90669CAF82060CAF82460FEF79EF9A4
:1050E00008B1FDF72DFB1E4E1448C4F838A0C03699
:1050F0001830CAF8384086E88108C6E90385C6F842
:105100001480C6F81880C6F81C80C6F82080304687
:10511000C6F82480FEF782F908B1FDF711FB66633B
:10512000002205212720B463FEF7D6FB2720F9E6ED
:10513000004C004040380240000002404060024005
:10514000142F00200050004000080240000C0240D4
:105150003430002000100140406402400044004010
:105160005431002000480040000402407047000015
:1051700070B5044690F83D00202836D191B38AB32B
:1051800094F83C00012830D0012084F83C002162D2
:10519000A284E28400252564212084F83D00636B0D
:1051A0001348D863636B13481864636B1248D86460
:1051B000606B134605652668606B321DFEF798F933
:1051C00021686FF04000086084F83C50206814307B
:1051D00050E8001F41F0800140E80012002AF5D19C
:1051E000002070BDFFE70120FBE70220F9E7000087
:1051F000677D0008A97D00081D7D00087047704785
:105200004FF4FA76104D114CFEF7C2FA6060B042CE
:10521000FAD2207848B1E96801208847296902203C
:105220008847E96808E02070EEE72969012088478F
:10523000E96802208847296903208847207808B157
:105240000020F0E70120EEE770040020D4220020C7
:1052500070B50D4C0025C4F8B4520C48016821F01B
:1052600040410160016841F080410160C4F8BC52D6
:10527000022004F52D7404F08BFC01202060022034
:1052800004F086FC256070BD0080404200040240AE
:105290002DE9F04186B014216846FBF75EF81D4801
:1052A0000025016841F0020101600068012200F060
:1052B0000200194F1603059031463846FEF762FA90
:1052C0004FF48048012241463846FEF75BFA4FF41E
:1052D000204001248DE831000325694638460395B6
:1052E000FEF750F94FF4A040CDE900046946384676
:1052F000CDE90245FEF746F9012231463846FEF770
:1053000041FA012241463846FEF73CFA06B0BDE8B4
:10531000F0810000303802400004024070B50D4CAE
:105320000025C4F8B4520C48016821F040410160E6
:10533000016841F0804101600126C4F8BC6202208E
:1053400004F52D7404F024FC2660022004F020FCF7
:10535000256070BD00804042000402402DE9F04706
:10536000814616480024016821F04041016001682F
:105370000160134E254627464FF00108C6F8B47267
:10538000022004F005FCC6F8B4826006040ED6F8CC
:105390003C0208B1641CE4B2012004F0F9FB6D1C6E
:1053A000EDB2082DEAD3B9F1000F04D0FFF750FF9A
:1053B0002046BDE8F087FFF7B1FFF9E7000402409F
:1053C0000080404270B516460D46044600F050F885
:1053D000D22000F01DF800F08DF8204600F018F8FB
:1053E00000F088F800F044F8D32000F011F800F045
:1053F00081F8002406E00120FFF7B0FF641C05F8E7
:10540000010BE4B2B442F6D3BDE8704000F050B8EE
:105410002DE9F04106461448016821F04041016041
:10542000016841F080410160104C0027C4F8B4725B
:105430003D464FF00108F009C4F8BC027006060EA4
:10544000022004F0A5FBC4F8B482022004F0A0FB03
:10545000C4F8B472022004F09BFB6D1CEDB2082D61
:10546000E9D3BDE8F0810000000402400080404222
:1054700070B50D48016821F040410160016841F0BC
:1054800080410160094C0120C4F8BC02C4F8B40298
:10549000042004F52D7404F07BFB0025A560042096
:1054A00004F076FB256070BD00040240008040429D
:1054B0000E4810B5016821F040410160016841F0DB
:1054C000804101600A4C0020C4F8B402C4F8BC0258
:1054D000042004F52D7404F05BFB01202060A06023
:1054E000BDE81040042004F053BB0000000402405B
:1054F0000080404270B512480024016821F040410C
:105500000160016801600F4D0126C5F8BC6230469C
:1055100004F03EFBC5F8B462012004F039FB07E05B
:10552000641CE4B2FA2C03D9FFF7C2FF012070BD5E
:10553000D5F83C020028F3D1C5F8B40270BD0000D4
:105540000004024000804042B5EEC01AF1EE411A5C
:10555000F1EE10FA02DDB0EE412A01E0B0EE612A70
:1055600012EE100AB0F17E5F0CDDB5EEC01AF1EE5E
:1055700010FA01DCB0EE611AB2EE042AC1EE021A92
:10558000B0EE611AF7EE001A71EEC11A21EE800A30
:1055900000EE810A704710B590ED361A0446B5EE5C
:1055A000C01AF1EE10FA1BD0D4ED0A0A94ED040AE9
:1055B000FFF7CAFF84ED040A94ED361AD4ED0B0A06
:1055C00094ED050AFFF7C0FF84ED050A94ED361A45
:1055D000D4ED0C0A94ED060AFFF7B6FF84ED060A37
:1055E00094ED371AB5EEC01AF1EE10FA1BD0D4EDD7
:1055F0000D0A94ED070AFFF7A7FF84ED070A94ED63
:10560000371AD4ED0E0A94ED080AFFF79DFF84EDDA
:10561000080A94ED371AD4ED0F0A94ED090AFFF742
:1056200093FF84ED090A94ED381AB5EEC01AF1EE35
:1056300010FA1BD0D4ED1B0A94ED180AFFF784FF73
:1056400084ED180A94ED381AD4ED1A0A94ED170A6D
:10565000FFF77AFF84ED170A94ED381AD4ED190A92
:1056600094ED160AFFF770FF84ED160A94ED391ACF
:10567000B5EEC01AF1EE10FA1BD0D4ED1F0A94ED6E
:105680001C0AFFF761FF84ED1C0A94ED391AD4ED72
:10569000200A94ED1D0AFFF757FF84ED1D0A94EDD3
:1056A000391AD4ED210A94ED1E0AFFF74DFF84ED5F
:1056B0001E0A10BD70B586B014216846FAF74DFE7B
:1056C00011480025016841F00201016000680122D3
:1056D00000F002000D4E1403059021463046FEF7FF
:1056E00051F80121CDE90041CDE902156946304666
:1056F000FDF748FF0120FDF733FF01222146304628
:10570000FEF740F806B070BD303802400004024099
:1057100070B515460E460446C171FDF713F800201A
:105720006A1CAEB1012E21D1617903291FD02068F6
:10573000401C2060A84219DB012121716171904257
:1057400014DB02212171617198420FDB03200BE011
:10575000617961B12168491C2160A94206DB0423FB
:1057600023716371914201DB2071607170BD206013
:1057700070BD000070B5584D044695ED0C0A80EDE3
:10578000110A95ED0D0A80ED120A95ED0E0ADFED76
:10579000530A80EE201A9FED520A21EE001A80ED86
:1057A000131A95ED0F1AC1EE201A21EE800A80ED32
:1057B000140A95F878100220022906D2DFE801F0D9
:1057C0000501E17D09B9E075A07395F88010022903
:1057D00007D2DFE801F00601E17D11B90121E17591
:1057E000A07395F8B010022907D2DFE801F0060196
:1057F000E17D11B90521E175A07395F8900004F1E0
:10580000080602280AD2DFE800F009019FED350AF8
:10581000022184ED150AA26D3046904795F8C0002C
:1058200004280BD2DFE800F00A0211110221A26D58
:10583000E01D90470021A26DA01D904795F88800BB
:1058400002280AD2DFE800F009050221E01DA26D5E
:10585000F3E7626E03212046904795F8C8000428BC
:1058600019D2DFE800F0180211140021A26DE01D2A
:105870009047A26D0021304690471B489FED1B0AC0
:10588000D0F88410884706E00121226E01E0226EE4
:1058900002212046904795F8D800042816D2DFE868
:1058A00000F0020515170121626E13E0E07902286D
:1058B00004D0A07930B10221626E0BE00021E01D1E
:1058C000A26D02E00221A26DA01D9047022070BDD2
:1058D000626E04212046F8E7B00200200000254453
:1058E0000000C84200004842EC0100200000000017
:1058F00001220E210148FDF745BF000000080240CB
:1059000000220E210148FDF73DBF000000080240C3
:1059100010B5074C2188491C89B22180814205D1EC
:105920000E210448FDF726FF0020208010BD000056
:105930008C04002000080240094B012808D00228EE
:1059400009D003280AD1012208211846FDF71ABF01
:1059500001220221F9E701220421F6E77047000045
:1059600000080240094B012808D0022809D003286A
:105970000AD1002208211846FDF704BF00220221A7
:10598000F9E700220421F6E7704700000008024012
:1059900070B51D4C1D4D6188491C89B261808142E2
:1059A00007D1002202212846FDF7ECFE0122042146
:1059B00009E0B1EB400F10D1002204212846FDF789
:1059C000E1FE012202212846FDF7DCFE2846BDE863
:1059D000704001220821FDF7D5BE00EB400088424F
:1059E00010D1002208212846FDF7CCFE0122022119
:1059F0002846FDF7C7FE012204212846FDF7C2FE16
:105A00000020608070BD00008C040020000802406F
:105A10000C4B5A68521C5A60B2FBF1F301FB132184
:105A200000290ED1084A012807D0022807D00328F0
:105A300007D108211046FDF79DBE0221FAE7042197
:105A4000F8E770478C0400200008024070B5074D4D
:105A5000002400BF04EB440005EB0010C16A884736
:105A6000641C24B2022CF5DB70BD00000021002074
:105A700070470000104810B50E49016003214160D5
:105A800000214FF400228160C0E903124FF440125C
:105A900042610176012242768176C17601774177B3
:105AA000FDF73FFA002803D0BDE81040FCF748BEE0
:105AB00010BD0000006400407C2C0020104810B590
:105AC0000E4901600321416000214FF400228160F2
:105AD000C0E903124FF4401242610176012242767E
